:020000040800F2
:1000000000800120B11100082516000827160008FD
:10001000291600082B1600082D1600080000000005
:100020000000000000000000000000002F16000883
:1000300031160008000000003316000835160008CD
:100040000512000805120008051200080512000834
:100050000512000805120008051200080512000824
:100060000512000805120008051200080512000814
:100070000512000805120008051200080512000804
:1000800005120008051200080512000805120008F4
:1000900005120008051200080512000805120008E4
:1000A00005120008051200080512000805120008D4
:1000B00005120008051200084D1600080512000878
:1000C00005120008051200080512000805120008B4
:1000D00005120008051200080512000805120008A4
:1000E000391600080512000805120008051200085C
:1000F0000512000805120008051200080512000884
:100100000512000805120008051200080512000873
:100110000512000805120008051200080512000863
:100120000512000805120008051200080512000853
:100130000512000805120008051200080512000843
:1001400005120008051200080512000841160008F3
:100150000512000805120008051200080512000823
:100160000512000805120008051200080512000813
:100170000512000805120008051200080512000803
:08018000051200080512000839
:1001880010B5054C237833B9044B13B10448AFF3C9
:1001980000800123237010BDE0090020000000004A
:1001A8005025010808B5064B1BB106480649AFF3B0
:1001B80000800648036813B1054B03B1984708BD92
:1001C8000000000050250108E4090020E009002093
:1001D800000000004BB942B9002908BF002802D02E
:1001E8004FF0FF31084600F03BB882B0EC462DE9ED
:1001F800005000F01DF8DDF804E002B00CBC7047B8
:100208002DE97043069E14461D468046894600F037
:1002180029F804FB01F300FB0533A4FB00451D444A
:10022800B8EB040469EB0505C6E90045BDE8708331
:100238002DE97043069E1446804689461D4600F007
:100248005DF900FB05F504FB0153A0FB04451D44C3
:10025800B8EB040469EB0505C6E90045BDE8708301
:10026800704700BF00292DE9F00FC0F29F800024DD
:10027800002BC0F29680154606460F46002B3ED14D
:100288008A4257D9B2FA82F34BB1C3F1200201FA7C
:1002980003F720FA02F29D40174300FA03F6290CEF
:1002A800B7FBF1F2330C01FB127CA8B243EA0C470E
:1002B80000FB02F3BB4209D97F1902F1FF3C80F031
:1002C8000181BB4240F2FE80023A2F44FF1AB7FB7D
:1002D800F1F3B6B201FB137146EA014100FB03F0EA
:1002E800884208D9491903F1FF3780F0ED80884228
:1002F80040F2EA80023B43EA0242002303E08B42D9
:100308000AD900231A461046194614B1404261EB37
:100318004101BDE8F00F7047B3FA83F8B8F1000F58
:1003280040F084808B4202D3824200F2DE800023B8
:100338000122E8E712B90123B3FBF2F5B5FA85F219
:10034800002A39D17F1B280C1FFA85FC0123B7FB33
:10035800F0F1320C00FB117742EA07470CFB01F27F
:10036800BA4207D97F1901F1FF3802D2BA4200F226
:10037800C1804146BF1AB7FBF0F2B6B200FB12705B
:1003880046EA00400CFB02FC844507D9401902F1FB
:10039800FF3702D2844500F2AB803A4642EA014276
:1003A800B1E7E443524263EB430364E7404261EB45
:1003B80041014FF0FF345BE79540C2F1200327FA73
:1003C80003F1280C26FA03F39740B1FBF0F81F431A
:1003D8003B0C00FB18111FFA85FC43EA01410CFB9A
:1003E80008F38B4206FA02F608D9491908F1FF32D8
:1003F80079D28B4277D9A8F102082944C91AB1FBEE
:10040800F0F3BFB200FB131147EA01470CFB03F2FC
:10041800BA4207D97F1903F1FF3160D2BA425ED9D7
:10042800023B2F44BF1A43EA084390E7C8F1200271
:1004380003FA08FC25FA02F343EA0C0C4FEA1C49BC
:1004480021FA02F301FA08F720FA02F2B3FBF9F1F4
:10045800174309FB11333A0C1FFA8CFB42EA03439A
:100468000BFB01FA9A4505FA08F008D913EB0C03BF
:1004780001F1FF3235D29A4533D902396344CAEBC8
:100488000303B3FBF9F209FB1233BFB247EA034790
:100498000BFB02F9B94508D917EB0C0702F1FF333A
:1004A8001BD2B94519D9023A674442EA0145A5FB6E
:1004B8000001C9EB07078F424FF000030AD305D0AC
:1004C8002A4620E7624601E73B4614E706FA08F6A3
:1004D8008642F5D26A1E002315E71A46E5E70B4661
:1004E800A0E71146CBE7904688E7434642460AE72D
:1004F800023A53E702392F443CE700BF2DE9F00FD9
:10050800144605460E46002B43D18A4253D9B2FA07
:1005180082F757B1C7F1200620FA06F601FA07F369
:1005280002FA07F41E4300FA07F5210CB6FBF1F2B4
:100538002B0C01FB1267A0B243EA074600FB02F34B
:10054800B34209D9361902F1FF3780F0F680B34279
:1005580040F2F380023A2644F61AB6FBF1F3ADB244
:1005680001FB136145EA014100FB03F0884208D909
:10057800091903F1FF3680F0E280884240F2DF80FB
:10058800023B43EA0242002310461946BDE8F00F39
:1005980070478B424AD8B3FA83F6002E4DD18B426E
:1005A80002D3824200F2D680002301221046194667
:1005B800BDE8F00F704712B90124B4FBF2F4B4FAA5
:1005C80084F2002A7CD1091B260CA7B20123B1FBB7
:1005D800F6F02A0C06FB101142EA014107FB00F273
:1005E8008A4207D9091900F1FF3C02D28A4200F277
:1005F800C3806046891AB1FBF6F2ADB206FB121150
:1006080045EA014507FB02F7AF4208D92C1902F168
:10061800FF3180F09680A74240F29380023A42EA86
:10062800004210461946BDE8F00F704700231A46ED
:1006380010461946BDE8F00F7047C6F1200522FAAA
:1006480005F4B3401C434FEA144821FA05F301FAB4
:1006580006F720FA05F5B3FBF8FC2F4308FB1C331B
:100668003D0C1FFA84FA45EA03430AFB0CF9994545
:1006780002FA06FB04D91B190CF1FF326DD394461C
:10068800C9EB0303B3FBF8F508FB1533BFB247EA20
:1006980003470AFB05F8B84504D93F1905F1FF33AC
:1006A80061D31D4645EA0C4CACFB0B23C8EB07078E
:1006B8009F424FF0000549D345D062462B4663E779
:1006C8009440C2F1200321FA03FC260C20FA03F31C
:1006D80001FA02F5BCFBF6F843EA05010B0C06FB30
:1006E80018CCA7B243EA0C4C07FB08F3634500FAA1
:1006F80002F509D91CEB040C08F1FF323AD2634524
:1007080038D9A8F10208A444C3EB0C0CBCFBF6F3DF
:1007180089B206FB13CC41EA0C4107FB03F28A427B
:1007280007D9091903F1FF3022D28A4220D9023BA6
:100738002144891A43EA084349E73A460CE7334615
:100748001FE70A466BE7B0409042B6D20CF1FF3281
:10075800002319E73346324616E799458FD9ACF19D
:10076800020C23448CE7B8459BD9023D274499E7FE
:100778000346DEE79046C7E7023821443AE700BF60
:10078800844641EA000313F003036DD1403A41D394
:1007980051F8043B40F8043B51F8043B40F8043B53
:1007A80051F8043B40F8043B51F8043B40F8043B43
:1007B80051F8043B40F8043B51F8043B40F8043B33
:1007C80051F8043B40F8043B51F8043B40F8043B23
:1007D80051F8043B40F8043B51F8043B40F8043B13
:1007E80051F8043B40F8043B51F8043B40F8043B03
:1007F80051F8043B40F8043B51F8043B40F8043BF3
:1008080051F8043B40F8043B51F8043B40F8043BE2
:10081800403ABDD2303211D351F8043B40F8043B82
:1008280051F8043B40F8043B51F8043B40F8043BC2
:1008380051F8043B40F8043B103AEDD20C3205D392
:1008480051F8043B40F8043B043AF9D2043208D08A
:10085800D2071CBF11F8013B00F8013B01D30B88FC
:1008680003806046704700BF082A13D38B078DD0DA
:1008780010F003038AD0C3F10403D21ADB071CBFAC
:1008880011F8013B00F8013B80D331F8023B20F816
:10089800023B7BE7043AD9D3013A11F8013B00F84F
:1008A800013BF9D20B7803704B7843708B788370D7
:1008B8006046704781F0004102E000BF83F00043CA
:1008C80030B54FEA41044FEA430594EA050F08BFE3
:1008D80090EA020F1FBF54EA000C55EA020C7FEAA7
:1008E800645C7FEA655C00F0E2804FEA5454D4EB24
:1008F8005555B8BF6D420CDD2C4480EA020281EAEE
:10090800030382EA000083EA010180EA020281EA25
:100918000303362D88BF30BD11F0004F4FEA013177
:100928004FF4801C4CEA113102D0404261EB410186
:1009380013F0004F4FEA03334CEA133302D052420C
:1009480063EB430394EA050F00F0A780A4F10104C8
:10095800D5F1200E0DDB02FA0EFC22FA05F2801802
:1009680041F1000103FA0EF2801843FA05F35941E8
:100978000EE0A5F120050EF1200E012A03FA0EFC67
:1009880028BF4CF0020C43FA05F3C01851EBE37191
:1009980001F0004507D54FF0000EDCF1000C7EEBAE
:1009A80000006EEB0101B1F5801F1BD3B1F5001FEC
:1009B8000CD349085FEA30004FEA3C0C04F101040B
:1009C8004FEA445212F5800F80F09A80BCF1004F34
:1009D80008BF5FEA500C50F1000041EB045141EAB6
:1009E800050130BD5FEA4C0C404141EB010111F4B7
:1009F800801FA4F10104E9D191F0000F04BF014662
:100A08000020B1FA81F308BF2033A3F10B03B3F13F
:100A180020020CDA0C3208DD02F1140CC2F10C02CF
:100A280001FA0CF021FA02F10CE002F11402D8BF2D
:100A3800C2F1200C01FA02F120FA0CFCDCBF41EAF9
:100A48000C019040E41AA2BF01EB0451294330BDC8
:100A58006FEA04041F3C1CDA0C340EDC04F11404A5
:100A6800C4F1200220FA04F001FA02F340EA03007C
:100A780021FA04F345EA030130BDC4F10C04C4F1C2
:100A8800200220FA02F001FA04F340EA03002946A2
:100A980030BD21FA04F0294630BD94F0000F83F4EC
:100AA800801306BF81F480110134013D4EE77FEACF
:100AB800645C18BF7FEA655C29D094EA050F08BF1B
:100AC80090EA020F05D054EA000C04BF19461046FC
:100AD80030BD91EA030F1EBF0021002030BD5FEA40
:100AE800545C05D14000494128BF41F0004130BD68
:100AF80014F580043CBF01F5801130BD01F00045BC
:100B080045F0FE4141F470014FF0000030BD7FEA2E
:100B1800645C1ABF194610467FEA655C1CBF0B4629
:100B2800024650EA013406BF52EA033591EA030F40
:100B380041F4002130BD00BF90F0000F04BF002138
:100B4800704730B54FF4806404F132044FF000056B
:100B58004FF0000150E700BF90F0000F04BF0021E4
:100B6800704730B54FF4806404F1320410F000454A
:100B780048BF40424FF000013EE700BF42004FEA45
:100B8800E2014FEA31014FEA02701FBF12F07F43C2
:100B980093F07F4F81F06051704792F0000F14BFBF
:100BA80093F07F4F704730B54FF4607401F0004503
:100BB80021F0004120E700BF50EA010208BF70475A
:100BC80030B54FF000050AE050EA010208BF70474F
:100BD80030B511F0004502D5404261EB41014FF4B8
:100BE800806404F132045FEA915C3FF4DCAE4FF0BC
:100BF80003025FEADC0C18BF03325FEADC0C18BFA3
:100C0800033202EBDC02C2F1200300FA03FC20FAF3
:100C180002F001FA03FE40EA0E0021FA02F1144440
:100C2800C1E600BF70B54FF0FF0C4CF4E06C1CEA55
:100C380011541DBF1CEA135594EA0C0F95EA0C0FCA
:100C480000F0DEF82C4481EA030621EA4C5123EA3D
:100C58004C5350EA013518BF52EA033541F480116C
:100C680043F4801338D0A0FB02CE4FF00005E1FB1F
:100C780002E506F00042E0FB03E54FF00006E1FB69
:100C880003569CF0000F18BF4EF0010EA4F1FF04AC
:100C9800B6F5007F64F5407404D25FEA4E0E6D41EC
:100CA80046EB060642EAC62141EA55514FEAC520FD
:100CB80040EA5E504FEACE2EB4F1FD0C88BFBCF579
:100CC800E06F1ED8BEF1004F08BF5FEA500E50F12A
:100CD800000041EB045170BD06F0004646EA0101F0
:100CE80040EA020081EA0301B4EB5C04C2BFD4EB22
:100CF8000C0541EA045170BD41F480114FF0000E1B
:100D0800013C00F3AB8014F1360FDEBF002001F088
:100D1800004170BDC4F10004203C35DA0C341BDC02
:100D280004F11404C4F1200500FA05F320FA04F0D4
:100D380001FA05F240EA020001F0004221F0004108
:100D480010EBD37021FA04F642EB06015EEA430E7B
:100D580008BF20EAD37070BDC4F10C04C4F12005AB
:100D680000FA04F320FA05F001FA04F240EA02005E
:100D780001F0004110EBD37041F100015EEA430E2F
:100D880008BF20EAD37070BDC4F1200500FA05F24F
:100D98004EEA020E20FA04F301FA05F243EA0203CE
:100DA80021FA04F001F0004121FA04F220EA0200DD
:100DB80000EBD3705EEA430E08BF20EAD37070BD23
:100DC80094F0000F0FD101F00046400041EB010103
:100DD80011F4801F08BF013CF7D041EA060195F0E5
:100DE800000F18BF704703F00046520043EB03039F
:100DF80013F4801F08BF013DF7D043EA060370478C
:100E080094EA0C0F0CEA135518BF95EA0C0F0CD096
:100E180050EA410618BF52EA4306D1D181EA0301DC
:100E280001F000414FF0000070BD50EA410606BFD6
:100E38001046194652EA430619D094EA0C0F02D11B
:100E480050EA013613D195EA0C0F05D152EA033660
:100E58001CBF104619460AD181EA030101F000417E
:100E680041F0FE4141F470014FF0000070BD41F0C7
:100E7800FE4141F4780170BD70B54FF0FF0C4CF4A1
:100E8800E06C1CEA11541DBF1CEA135594EA0C0FC0
:100E980095EA0C0F00F0A7F8A4EB050481EA030E0D
:100EA80052EA03354FEA013100F088804FEA0333F4
:100EB8004FF0805545EA131343EA12634FEA0222C2
:100EC80045EA111545EA10654FEA00260EF0004183
:100ED8009D4208BF964244F1FD0404F5407402D2D5
:100EE8005B084FEA3202B61A65EB03055B084FEA66
:100EF80032024FF480104FF4002CB6EB020E75EB63
:100F0800030E22BFB61A754640EA0C005B084FEA8A
:100F18003202B6EB020E75EB030E22BFB61A754607
:100F280040EA5C005B084FEA3202B6EB020E75EB52
:100F3800030E22BFB61A754640EA9C005B084FEACA
:100F48003202B6EB020E75EB030E22BFB61A7546D7
:100F580040EADC0055EA060E18D04FEA051545EAC6
:100F680016754FEA06164FEAC30343EA52734FEA6F
:100F7800C2025FEA1C1CC0D111F4801F0BD141EAE8
:100F880000014FF000004FF0004CB6E711F4801F4D
:100F980004BF01430020B4F1FD0C88BFBCF5E06F2D
:100FA8003FF6AFAEB5EB030C04BFB6EB020C5FEA3D
:100FB800500C50F1000041EB045170BD0EF0004E92
:100FC8004EEA113114EB5C04C2BFD4EB0C0541EAC4
:100FD800045170BD41F480114FF0000E013C90E6C1
:100FE80045EA060E8DE60CEA135594EA0C0F08BF85
:100FF80095EA0C0F3FF43BAF94EA0C0F0AD150EA84
:1010080001347FF434AF95EA0C0F7FF425AF104616
:1010180019462CE795EA0C0F06D152EA03353FF43E
:10102800FDAE1046194622E750EA410618BF52EABB
:1010380043067FF4C5AE50EA41047FF40DAF52EA8F
:1010480043057FF4EBAE12E74FF0FF3C06E000BF2C
:101058004FF0010C02E000BF4FF0010C4DF804CD39
:101068004FEA410C7FEA6C5C4FEA430C18BF7FEAF9
:101078006C5C1BD001B050EA410C0CBF52EA430C27
:1010880091EA030F02BF90EA020F0020704710F1A7
:10109800000F91EA030F58BF994208BF90422CBF36
:1010A800D8176FEAE37040F0010070474FEA410C2F
:1010B8007FEA6C5C02D150EA013C07D14FEA430C4D
:1010C8007FEA6C5CD6D152EA033CD3D05DF8040BBE
:1010D800704700BF8446104662468C4619466346F0
:1010E80000E000BF01B5FFF7B7FF002848BF10F1C7
:1010F800000F01BD4DF808EDFFF7F4FF0CBF01200C
:1011080000205DF808FB00BF4DF808EDFFF7EAFF87
:1011180034BF012000205DF808FB00BF4DF808ED42
:10112800FFF7E0FF94BF012000205DF808FB00BF37
:101138004DF808EDFFF7CEFF94BF012000205DF8C1
:1011480008FB00BF4DF808EDFFF7C4FF34BF0120CE
:1011580000205DF808FB00BF4FEA410212F50012BB
:1011680015D211D56FF47873B3EB625212D94FEAE6
:10117800C12343F0004343EA505311F0004F23FAD0
:1011880002F018BF404270474FF00000704750EA25
:10119800013005D111F0004008BF6FF000407047E2
:1011A8004FF00000704700BF002100F004B80E4B5C
:1011B8005B58435004310D480D4B42189A42FFF4D6
:1011C800F6AF0C4A00F003B80023136004320A4B50
:1011D8009A42FFF4F9AF00F02DF80DF097FB00F0FC
:1011E8004DF8FFF7FEBF0000A847010800000020E7
:1011F800E0090020E00900200C3A0020FFF7FEBFBC
:1012080008B50A4B1A680AB9094A1A601B686A467F
:101218001844904206D90DF073FB0C2303604FF07D
:10122800FF3008BD014A1060184608BDFC090020BF
:10123800103A00200F4AD2F8883043F47003C2F8FD
:1012480088300D4B1968002041F001011960986041
:10125800196821F0A85121F4102119604FF4006198
:10126800D960196821F48021196098614FF00063F2
:101278009360704700ED00E0001002402DE9F04750
:10128800094CADF53C7D082506F06AFFA5614FF0D5
:1012980090404FF4007101F0B7F8012806D107F02B
:1012A800EFFE06F0EFF9FEE70008004808F098F9AD
:1012B800064608F0A3F83040C0B206F0E3F9BC4B8C
:1012C800A5620DAD2C4603F1100618685968224630
:1012D80003C20833B3421446F7D1B64A10685168BE
:1012E8000AAB03C31189927A19809A7006F070FCD0
:1012F80002200AF0C5FDB0480AF0D6FDAF4BB04851
:1013080008229A6103F1784303F502330024D96C6B
:1013180041F40051D964D96C01F400510491049945
:10132800D3F8881041F04051C3F888108260042235
:10133800A449426101224FF4101302628262C26220
:101348004FF4805280E80A00C46004618461C4617B
:101358004462046344638263C46300F0B9F910B162
:10136800204606F08FF902230024319394483494E0
:10137800012331A9329333933594369400F056FB08
:1013880010B1204606F07EF98D48002100F074FE69
:1013980010B1002006F076F94EF660234FF47A7209
:1013A8000421894806F04AFD874806F013FE87495C
:1013B80011A80DF0A3FB0AA90A2231A805F0D6FC52
:1013C800804611A80DF0F8FB11A9024603AB31A81D
:1013D80005F032FE002808BFB8F1000F31A814BF8D
:1013E8004FF000084FF0010805F0D2FF002814BFA5
:1013F8004FF0000808F00108404606F043F90027BE
:101408003C466E4B5A6982F008025A6106F07FFB2F
:10141800064600285FD104F1010909F007030146D7
:1014280035F8133000932822402306F051FCA31C02
:1014380003F00703282035F813300093024631469D
:10144800402306F045FCE31C03F00703502035F861
:101458001330009331462822402306F039FC231D1F
:1014680003F00703782035F813300093314628221B
:10147800402306F02DFC631D03F00703402135F8D7
:101488001330009330460B46282206F021FCA31D9A
:1014980003F00703282035F8133000934021024653
:1014A8000B4606F015FCE31D03F00703402135F851
:1014B8001330009304F007040B465020282206F04E
:1014C80007FC35F8143000934021782028220B4679
:1014D80006F0FEFB4C46DFF8009199F80030002B2F
:1014E8008FD03C374FF46163B7FBF3F203FB127301
:1014F8003C26B3FBF6F3314E35494FF0800A06A877
:101508000DF0D6FAC6F828A02D4800F007FD0A21EC
:101518002B4800F0FBF92A4800F084FA0590059B57
:10152800C6F818A041F206065E43B60A324608A875
:1015380028490DF0BDFA02220AA931A805F016FCC7
:10154800B499824631A805F034FFBAF1000F08BFFC
:10155800002814BF0020012008EA000806A80DF0A2
:101568002BFB06A9024603AB31A805F065FD002850
:1015780014BF4FF0000808F0010808A80DF01CFB84
:1015880008A9024603AB31A805F056FD002814BF90
:101598004FF0000808F0010831A805F0F9FE00280E
:1015A80014BF4FF0000808F00108404616E000BFDD
:1015B800682501082E260108D02E010800080048D9
:1015C800BC0D002000020450240E00200026010853
:1015D8001D26010826260108000A002006F052F8F8
:1015E800002389F800300AF0A3FE0E200AF052FC0E
:1015F80004233046502120220AF02EFC0E200AF047
:1016080049FC0548502140220AF0E0FC4FF4FA70EA
:1016180006F0FCFBF5E600BF2B2601087047FEE745
:10162800FEE7FEE7FEE770477047704700F08ABDA7
:101638004FF4005000F0EEBE014800F0D7BF00BFE5
:1016480088110020014803F06EB800BF240E002066
:101658000268034B9A4202D1024B01221A7070476A
:1016680000080040000A0020B0F5005F38B528D116
:10167800144B08229A62134C4FF40051204600F094
:10168800C3FE0028F7D008256420A56106F0BEFB3C
:10169800C820A56206F0BAFB6420A56106F0B6FB77
:1016A800C820A56206F0B2FB6420A56106F0AEFB77
:1016B800054BA56240229A6240F6B83006F0A6FBB8
:1016C800FEE738BD000800480004004870470000E5
:1016D8002DE9F0410446002800F0CF80856D25B93A
:1016E800FFF7F4FFE56584F8545023689A68920080
:1016F80003D59A6822F000529A609A68D70003D4FA
:101708009A6842F080529A609A68D60009D4A26D0D
:1017180042F01002A265E26D42F00102E26501208A
:1017280000E00020A26DD50600F1A3809A68510759
:1017380000F19F80A26D42F00202A2659A6802F051
:101748000302012A02D11A68D2071AD46A4A6B49DD
:10175800934240F0A0808A6802F00302012A40F018
:101768008F800968CF0740F18B8082F0010202F078
:10177800010232B1624A6168956825F47C152943F3
:1017880091604FF4005898FAA8F84FF48032B8FAEC
:1017980088F892FAA2F24FF4602CB2FA82F29CFA1C
:1017A800ACFCE568A66BE76945EA0601A568666AC8
:1017B8002943A56A964007FA08F7E26ABCFA8CFC46
:1017C8003943013D314305FA0CF5012A41EA050187
:1017D80003D0256B0DB12A431143DD68494A2A40DD
:1017E8000A43DA609A6812F00C0F2CD14FF4804744
:1017F80097FAA7F70226B7FA87F796FAA6F6DA68ED
:10180800A569616BB6FA86F6BD40B14022F4804204
:10181800294322F002020A43DA60E26B012A1A69BC
:101828000ED1616C256C0D43A16C45F001050D438B
:10183800E16C22F4FF62294322F005020A4301E029
:1018480022F001021A612269012A06D1196B226A63
:1018580021F00F01013A0A4302E01A6B22F00F024D
:101868001A63A36D23F0030343F00103A365BDE8E6
:10187800F081A36D43F01003A3650120BDE8F0815A
:10188800214A916801F0030101290ABF1268002268
:1018980002F0010269E795688B4205F0030514D14F
:1018A800012D02D11268D60709D4174A956805F0A8
:1018B8000305012D05D1126802F0010202E02A4653
:1018C80000E00022D20711D406E0012D0ABF1268F9
:1018D800002202F001024AB98A6802F00302012AD2
:1018E80006D1064A126802F0010202E0012200E075
:1018F800002282F001023CE700000450000104507D
:101908000003045007C0F0FF00020450F8B5456911
:10191800082D04460E4622D002683F4B9A4203D057
:1019280003F580739A426ED13C4B9968C9066AD018
:10193800996801F01F01052965D0996801F01F0118
:10194800092960D09A6802F44042B2F5004F5DD090
:101958009B6803F44043B3F5404F57D0042500F08B
:10196800F9FB074623681A6815420ED1721CFAD093
:101978002EB9A36D43F00403A3650320F8BD00F05E
:10198800E9FBC01BB042EDD9F3E7234918688B4245
:1019980000F0080012D0224A93420FD0D2F8086112
:1019A800F60602F5807209D0966806F01F06052E25
:1019B80004D0926802F01F02092A01D1DA6800E017
:1019C800CA68082D01D11D6003E051045CBF0421E1
:1019D8001960A16D41F40071A16508B90020F8BD36
:1019E800DB6813F4406FF9D19204F7D4A36D23F4A4
:1019F8008073A365A06D10F48050EFD1A36D43F000
:101A08000103A365F8BDD368DB07A7D5A36D43F031
:101A18002003A3650120F8BD000004500003045012
:101A2800000204500368186C704700002DE9F34168
:101A38000023019390F85430012B00F0588103687B
:101A48009C680122660780F8542000F147814D68A0
:101A58000A68042D4FF4F86415D81F6B94FAA4F69D
:101A6800B6FA86F694FAA4F44FF01F0C6E43B4FA53
:101A780084F40CFA06F6654327EA060602FA05F529
:101A880035431D6347E0092D16D85F6B94FAA4F619
:101A9800B6FA86F6053D94FAA4F44FF01F0C6E438F
:101AA800B4FA84F40CFA06F6654327EA060602FA45
:101AB80005F535435D632EE00E2D16D89F6B94FA1D
:101AC800A4F6B6FA86F60A3D94FAA4F44FF01F0C71
:101AD8006E43B4FA84F40CFA06F6654327EA060660
:101AE80002FA05F535439D6315E0DF6B94FAA4F619
:101AF800B6FA86F60F3D94FAA4F44FF01F0C6E4325
:101B0800B4FA84F40CFA06F6654327EA060602FAE4
:101B180005F53543DD639C6814F00C0F40F0C08078
:101B2800092A4FF038048D6817D99F6994FAA4FCE4
:101B3800BCFA8CFCA2F10A0694FAA4F44FF0070848
:101B480006FB0CFCB4FA84F408FA0CFC664327EA9A
:101B58000C07B5403D439D6113E05F6994FAA4F614
:101B6800B6FA86F694FAA4F44FF0070CB4FA84F4A3
:101B780056430CFA06F6544327EA0606A5403543B1
:101B88005D61DD680E694C69C5F3C1056D00013EF4
:101B980004FA05F54FF0F844032E3FD8DFE806F0C5
:101BA8000211202F1F6E94FAA4F4B14E3E40B4FAED
:101BB80084F446F00046354302FA04F425431D66D2
:101BC8006EE05F6E94FAA4F4A94E3E40B4FA84F431
:101BD80046F00046354302FA04F425435D665FE0AB
:101BE8009F6E94FAA4F4A24E3E40B4FA84F446F0F0
:101BF8000046354302FA04F425439D6650E0DF6E43
:101C080094FAA4F49A4E3E40B4FA84F446F000469E
:101C1800354302FA04F42543DD6641E01D6E94FA6B
:101C2800A4F4B4FA84F405F0F84502FA04F4A542E1
:101C380003D11C6E24F000441C665D6E4FF0F8441E
:101C480094FAA4F4B4FA84F405F0F84502FA04F41A
:101C5800A54203D15C6E24F000445C669D6E4FF093
:101C6800F84494FAA4F4B4FA84F405F0F84502FAB6
:101C780004F4A54203D19C6E24F000449C66DD6EFA
:101C88004FF0F84494FAA4F4B4FA84F405F0F84553
:101C980002FA04F4A54203D1DC6E24F00044DC66A9
:101CA8009C6804F00304012C02D11C68E50713D4D6
:101CB800CC68B4F1804F4FF001041AD0D3F8B010BB
:101CC800944021EA0404C3F8B040112A49D1694973
:101CD800896811F4000F52D0002203E0836D43F0AD
:101CE80020038365002380F854301046DDE002208D
:101CF800DBE0D3F8B050896894402C43082AC3F835
:101D0800B0404FF0380416D99F6994FAA4F6B6FA91
:101D180086F6A2F1090594FAA4F44FF0070C6E4375
:101D2800B4FA84F40CFA06F6654327EA0606A940D5
:101D380031439961C9E75F6994FAA4F6B6FA86F661
:101D4800551C94FAA4F44FF0070C6E43B4FA84F4CB
:101D58000CFA06F6654327EA0606A940314359619D
:101D6800B3E7122A04D14349896811F0807FB2E7AA
:101D7800002AB1D13F49896811F4800FABE799680F
:101D880001F00301012902D11968CC070BD43A49A3
:101D98003A4C8B4217D1A16801F00301012908D1FF
:101DA8002168C90705D5836D43F0200383650122A7
:101DB80098E733498C6804F00304012C48D109687A
:101DC800CF07F0D444E08D68A34205F0030514D191
:101DD800012D02D10968CE0709D429498D6805F07B
:101DE8000305012D05D1096801F0010102E029462A
:101DF80000E00021CD07D6D407E0012D0ABF09680D
:101E0800002101F001010029CDD1A16801F00301F1
:101E1800012903D119490968C907C4D4112A1AD15B
:101E2800174A93427FF458AF124B9A6842F4000263
:101E38009A60144B1A68144BB2FBF3F3782253439D
:101E48000193019B002B3FF447AF019B013BF7E750
:101E5800112A1BD1E8E7122A1AD1094A93427FF4C2
:101E68003BAF044B9A6842F080729A6034E700BF37
:101E780000F0FF0300030450000004500001045068
:101E8800000204500000002040420F00122AE8D04F
:101E9800002A7FF421AF06498B427FF41DAF054B22
:101EA800996841F4800199601CE702B0BDE8F081AF
:101EB800000004500003045038B503689A6802F023
:101EC8000302012A044604D11A68D10701D500206B
:101ED80038BD9968104A0A409AB99A6842F00102D6
:101EE8009A6000F037F9054623681A68D207EED4DD
:101EF8009A6842F001029A6000F02CF9401B02280F
:101F0800F2D9A36D43F01003A365E36D43F0010319
:101F1800E365012038BD00BF3F00008038B5036885
:101F28009B6813F00405044668D190F85430012BDF
:101F380064D0012380F85430FFF7BEFF00285AD13F
:101F4800A36D2F4A13F480531CBFE36D23F00603DF
:101F5800E365A36D23F4706323F0010343F48073F6
:101F6800A3652368934208D002F50072934204D017
:101F780002F580729268D50603D1A26D22F4801210
:101F8800A2651F491C228B421A6012D01D4A934237
:101F98000FD0D2F80801C00602F5807209D0906807
:101FA80000F01F00052804D0926802F01F02092AD9
:101FB80010D1DA68920105D5A26D22F4405242F49C
:101FC8008052A2659A68002042F0040284F8540006
:101FD8009A6038BDA36D43F48013A365CB689B0159
:101FE80005D5A36D23F4405343F48053A365002023
:101FF80084F8540038BD84F8545038BD022038BDE8
:10200800000004500002045038B50368044698687C
:1020180000F00300012801D0002038BD1A68D2075B
:10202800FAD59A6802F00D02012A09D19A6842F09D
:1020380002029A6003221A6000F08CF8054608E054
:10204800A36D43F01003A365E36D43F00103E3655B
:1020580038BD23689B68DB07DED500F07BF8401BA2
:102068000228F6D9A36D43F01003A365E36D43F08E
:102078000103E365012038BD90F85430012B70B599
:1020880004460E4637D0012580F85450FFF7BCFFB0
:10209800A36D40BB23F4885323F0020343F00203EB
:1020A800A36523689A6822F0804216439E609A6866
:1020B80042F000429A604FF47A42996800290BDA9C
:1020C800013AFAD1A36D84F8542023F0120343F0A7
:1020D8001003A365012070BDA36D23F0030343F033
:1020E8000103A36503E043F01003A365284600231A
:1020F80084F8543070BD022070BD10B5044601F05C
:1021080015FC4FF47A73B0FBF3F000F085F84FF04C
:10211800FF302146002200F041F8002010BD0000E9
:1021280008B5074B1A6842F480721A60032000F061
:1021380023F80F20FFF7E1FF00F0C4F9002008BDE5
:1021480000200240024B1A6801321A60704700BF33
:10215800040A0020014B1868704700BF040A0020D9
:1021680038B50446FFF7F6FF0546FFF7F3FF401BB7
:10217800A042FAD338BD0000074AD36823F4E063CD
:102188001B041B0C43F0BF6343F4003300F007004B
:1021980043EA0023D360704700ED00E0164BDB688C
:1021A800C3F3022370B51D1DC3F10704042C28BF17
:1021B8000424062D4FF001058CBF033B002305FACC
:1021C80004F405FA03F6013C013E2140324001FACD
:1021D80003F3134300284FEA031305DADAB200F0D9
:1021E8000F00064B1A5470BD00F1604000F56140C5
:1021F800DBB280F8003370BD00ED00E014ED00E0C4
:102208004209012300F01F0003FA00F0014B43F8D4
:102218002200704700E100E00138B0F1807F0AD267
:10222800064B074A5860F02182F823100020072245
:1022380098601A6070470120704700BF10E000E006
:1022480000ED00E0044B1A6804280CBF42F00402B9
:1022580022F004021A60704710E000E02DE9F74F01
:10226800D1F800C000233CFA03F200F0C480012634
:102278009E4016EA0C0500F0BC804A6822F0100760
:10228800022F16D14FEAD30800EB880803F007099C
:10229800D8F820404FEA89094FF00F0A0AFA09FADC
:1022A80024EA0A0A0C6904FA09F94AEA0904C8F88E
:1022B80020405C004FF00308D0F800A008FA04F8AA
:1022C8006FEA080802F0030908EA0A0A09FA04FB97
:1022D800013F4AEA0B0A012FC0F800A010D887680E
:1022E80008EA070ACF68A7404AEA070787604768ED
:1022F80027EA060AC2F300179F404AEA0707476021
:10230800B9F1030F07D1C76A27EA0606C2F3C00767
:102318009F403E43C662C66808EA06088E68A64023
:1023280048EA0604C460D40063D5344C266E46F0EF
:1023380001062666246E23F0030606F1804604F0A3
:10234800010406F58036019403F00307019CB46884
:10235800BF004FF00F0808FA07F8B0F1904F24EAD1
:10236800080819D0264CA04218D004F58064A04271
:1023780016D004F58064A04214D004F58064A0420D
:1023880012D004F58064A04210D004F58064A04205
:1023980014BF072406240AE0002408E0012406E00C
:1023A800022404E0032402E0042400E00524BC40E5
:1023B80044EA0804B460134C2768EE4312F4803FE3
:1023C80014BF2F4337402760676812F4003F14BFDB
:1023D8002F4337406760A76812F4801F14BF2F434C
:1023E8003740A760E768920254BF06EA07053D43F5
:1023F800E560013337E703B0BDE8F08F0010024015
:102408000004004800040140036919420CBF002081
:102418000120704708B5044B5969084202D0586139
:10242800FFF722F908BD00BF00040140704710B54E
:102438000446002844D090F8353003F0FF021BB959
:1024480080F83420FFF7F2FF022384F83530236840
:10245800E1681A6822F001021A60626822F070626C
:102468001A619A6822F400429A60A26842B101296E
:1024780003D142F400429A6007E042F404429A60B1
:10248800022904BF4FF400625A605A68616942F039
:10249800007242F400425A6022691143A26941EA7B
:1024A8000222DA60216AE2690A431A601A6842F075
:1024B80001021A6000200123A06384F8353010BDA2
:1024C800012010BD7047F0B504468BB0002875D0C8
:1024D80090F8813303F0FF021BB980F8802306F0DF
:1024E800FBFD2546032355F8100B84F8813302F0D1
:1024F80069FA0FCD6E460FC60FCD0FC695E80300DB
:1025080086E80300271D97E80E00206802F02CFAE1
:102518002068002102F05CFA60682346002204F17A
:102528001006824203F11C030AD0012159770021C9
:102538001A775A84D9775962996219630132F0E798
:1025480023460022824203F11C0315D0002183F8A0
:10255800C0215A8483F8C11183F8C311C3F8C81184
:10256800C3F8CC11C3F8D411256802F1400E05EB6D
:102578008E0501326960E5E70FCE6D460FC50FCEB7
:102588000FC596E8030085E8030097E80E00206869
:1025980002F05EFA012384F88133636A012B02D1C9
:1025A800204600F0D6FBA36A012B02D1204600F09A
:1025B800E3FB206802F0B2FD002000E001200BB030
:1025C800F0BD90F88033012B10B504460CD00123E0
:1025D80080F88033006802F089FD206802F0ECF989
:1025E800002084F8800310BD022010BD2DE9F04FB3
:1025F800076887B00446384602F0C9FD002840F055
:102608005682206802F096FD002800F0508220686B
:1026180002F090FD800704D523685A6902F002028F
:102628005A61206802F086FD10F400205BD0206813
:1026380002F084FD07F5306A8146A046554600261B
:10264800B9F1000F50D019F0010F45D0F3B2194677
:102658002068039302F082FD10F0010F8346039B6C
:102668002DD00122AA60DAF8082011041FD42269AB
:10267800012A0CD12969D8F8E421C1F31201511AB1
:10268800C8F8F411D8F8E8110A44C8F8E82119463E
:10269800204606F042FD2169012908D13EB9D4F847
:1026A800F03123B9206804F5617202F08FFDDAF881
:1026B800083043F4004343F02003CAF808301BF005
:1026C800080F04D0204606F021FD0823AB601BF05C
:1026D800100F1CBF1023AB6001364FEA5909203593
:1026E80008F11C08ACE70646206802F023FD420307
:1026F80040F1AA80206802F029FD2546824607F5A8
:1027080010680026BAF1000F00F09E801AF0010F41
:1027180000F093805FFA86FB2068594602F027FD97
:1027280010F0010F814620D0D7F83418012303FA9E
:1027380006F021EA0001C7F83418C8F80830236900
:10274800012B03D16A6C2B6C13446B6459462046E9
:1027580006F0ECFC2169012907D136B9E36C23B9ED
:10276800206804F5617202F031FD19F0080F1CBFF2
:102778000823C8F8083019F0100F1CBF1023C8F838
:10278800083019F0400F1CBF4023C8F8083019F072
:10279800020F1CBF0223C8F8083019F0800F4CD074
:1027A8002B6DEA6CD4F800C0D21A2B6C9A4234BF55
:1027B8009146994609F10302042392FBF3F304932B
:1027C8000CF5106303EB46130593059A9369049A75
:1027D8009BB293420BD8B9F1000F2EDCDCF8341809
:1027E8000122B24021EA0202CCF8342825E02A6D01
:1027F800EB6C9A42EFD2002BEDD0296CC2EB0309A7
:10280800894528BF894609F10302042392FBF3F3A3
:102818000493237C00936046696CCDF80CC01FFAC2
:1028280089F35A4602F0CBFA6B6C4B446B642B6D00
:102838004B442B65DDF80CC0C7E701364FEA5A0A4E
:102848001C3508F120085DE7206802F073FC0028B9
:1028580018DAD7F8042894F8B43322F00102012BCF
:10286800C7F8042806D1002184F8B413204600F0E4
:102878008DFA02E0204606F076FC23685A6902F0D9
:1028880000425A61206802F055FC03050BD5D7F8C1
:102898000838DD0702D5204606F061FC23685A692E
:1028A80002F400625A61206802F044FC000116D567
:1028B80023685A6902F000625A6194F8B4235AB93D
:1028C8005B6D0121C3F3830384F8B413C4F8B833F0
:1028D800204600F05BFA02E0204606F040FC206843
:1028E80002F028FCC10443D507F500656B68206831
:1028F80023F001036B60002102F080F8606807F59F
:1029080010630022824206D0FF2199600132C3F889
:1029180008122033F6E74FF0FF33AB61EB6943F061
:102928000113EB61236B53B1D5F8843043F00B03EB
:10293800C5F884306B6C43F00B036B6407E06B697C
:1029480043F00B036B612B6943F00B032B61D7F842
:1029580000382068217C23F4FE63C7F8003804F5AA
:10296800617202F033FC23685A6902F480525A619A
:10297800206802F0DFFB820417D5206802F00BFC08
:102988002368DA6822F47052DA600322E260402297
:102998006261DA6842F4A052DA60204606F0D2FB9F
:1029A80023685A6902F400525A61206802F0C2FB97
:1029B800C30636D523689A6922F010029A61D7F8BF
:1029C80020801C2508F00F0305FB0345C8F343438B
:1029D800022B05F5EE7512D147F6F07208EA0202ED
:1029E800D2B14FEA121842463846E96802F00EFBA7
:1029F800EB68AA6943444244EB60AA610CE0062BE9
:102A08000AD1384604F56171082202F0FFFAAB6971
:102A1800C8F30A184344AB6123689A6942F010026C
:102A28009A61206802F086FB070707D5204606F062
:102A380085FB23685A6902F008025A61206802F08F
:102A480079FBC50208D52046F1B206F094FB23684D
:102A58005A6902F480125A61206802F06BFB800206
:102A680008D52046F1B206F082FB23685A6902F4C1
:102A780000125A61206802F05DFB410007D520462C
:102A880006F07DFB23685A6902F080425A6120688B
:102A980002F050FB42070AD523685D686B0702D530
:102AA800204606F070FB23685A6815435D6007B03E
:102AB800BDE8F08F90F88033012B10B5044609D09B
:102AC800012380F88033006802F000FB002084F8BE
:102AD800800310BD022010BD70B5CDB215F0800F77
:102AE80004464FF01C0601F07F0015BF06FB0041AD
:102AF80006FB0141383101F5EE71C0B2ED090870ED
:102B08004D708A60CB7005B1C880022B04BF0023CA
:102B18000B7194F88033012B09D0012384F880339A
:102B2800206802F02BF8002084F8800370BD022092
:102B380070BDCBB213F0800F01F07F0210B50446D0
:102B48004FF01C0015BF00FB024100FB014138316A
:102B580001F5EE71DB090A704B7094F88033012B94
:102B680009D0012384F88033206802F04AF8002055
:102B780084F8800310BD022010BD38B504461C251A
:102B880001F07F0005FB004505F5EE714B61002360
:102B98004B70CA608B6185F8DC012369012B08BF83
:102BA8000A6194F88023012A0FD0012284F8802337
:102BB800DAB218B9206802F05AF802E0206802F088
:102BC80011F9002084F8800338BD022038BD01F0D7
:102BD8007F011C2303FB0100B0F8F401704738B5EE
:102BE80004461C2501F07F004543383561194B61C7
:102BF80000238B6101234B70CA6060552369012B48
:102C080008BF0A6194F88023012A0FD0012284F8B2
:102C18008023DAB218B9206802F029F802E02068A7
:102C280002F0E0F8002084F8800338BD022038BDA7
:102C3800CAB238B512F0800F01F07F054FF01C03BF
:102C480015BF03FB050103FB0101383101F5EE71E6
:102C58000123D209EDB28B700D704A7090F8802371
:102C68009A4204460FD080F88033006802F0DFF9FA
:102C78002DB92068217C04F5617202F0A7FA0020C2
:102C880084F8800338BD022038BD38B5CBB213F0C4
:102C9800800F01F07F0204464FF01C0015BF00FBB7
:102CA800024100FB0141383101F5EE71DB090025D5
:102CB8008D700A704B7094F88033012B09D0012372
:102CC80084F88033206802F0E4F984F880532846B9
:102CD80038BD022038BD90F88033012B10B504466A
:102CE80010D0012380F880330B06006804D501F06A
:102CF8007F0101F083FE01E001F092FE002084F8DC
:102D0800800310BD022010BD036870B5586A19B958
:102D180040EA0240986216E09C6A00EB14400024E6
:102D2800E5B24E1EB54204F1010406DA403503EB64
:102D380085056D6800EB1540F2E73F3103EB810331
:102D480040EA02405860002070BD036800205962C4
:102D58007047036802460121C0F8BC13002082F8BE
:102D6800B4039A6942F000629A615A6D42F0805247
:102D780042F003025A65704703680122C0F8C02375
:102D88009A6B42F400329A63002070477047000043
:102D9800024B1A6842F480721A6070470070004053
:102DA800024B186800F4C060704700BF0070004014
:102DB800174B1A68B0F5007F02F4C0621DD1B2F556
:102DC800007F23D01A6822F4C06242F400721A60AD
:102DD800104B1A68104BB2FBF3F3322253430C4AE0
:102DE80023B15169490501D5013BF8E7536913F44B
:102DF800806F0CBF002003207047B2F5806F05D0AC
:102E08001A6822F4C06242F480621A600020704797
:102E1800007000400000002040420F00024B5A683A
:102E280042F480625A6070470070004037B51E4C0B
:102E3800A36DDA00054602D5FFF7B2FF0EE0A36DD9
:102E480043F08053A365A36D03F080530193019B66
:102E5800FFF7A6FFA36D23F08053A365B0F5007FAD
:102E680006D1802D0CD9A12D34BF012002200CE001
:102E7800802D07D808D0B5F170035842584104E0B6
:102E8800002002E0032000E00220084B1A6822F02C
:102E9800070202431A601B6803F00703181A18BFD9
:102EA800012003B030BD00BF0010024000200240E6
:102EB8000368F7B5DC06054640F1A380B64CA36865
:102EC80013F00C0F50D1022393FAA3F302232268C4
:102ED80093FAA3F3B3FA83F303F01F0322FA03F37D
:102EE800D80703D5AB690BB901206FE32268286ABC
:102EF800A94B110703D51B6803F0F00304E0D3F8CE
:102F0800943003F470631B09984215D9FFF78EFFBC
:102F18000028E9D1236843F00803236022682B6A5C
:102F280022F0F002134323606268EB6922F47F42C7
:102F380042EA0323636013E0236843F00803236035
:102F4800236823F0F003034323606268EB6922F4EB
:102F58007F4242EA03236360FFF768FF0028C3D17A
:102F68000F20FFF7CAF84CE0836973B3236843F076
:102F780001032360FFF7EEF80646022393FAA3F352
:102F88000223226893FAA3F3B3FA83F303F01F032F
:102F980022FA03F3DA0706D4FFF7DCF8801B64286B
:102FA800EBD9032012E3236843F008032360226867
:102FB8002B6A22F0F002134323606268EB6922F463
:102FC8007F4242EA032363601BE0236823F0010386
:102FD8002360FFF7BFF80646022393FAA3F3022300
:102FE800226893FAA3F3B3FA83F303F01F0322FAD8
:102FF80003F3DB0705D5FFF7ADF8801B6428EBD991
:10300800CFE72B68DF0704D42B689E0700F1A08068
:1030180010E1614CA36803F00C03082B09D0A368E6
:1030280003F00C030C2B19D1E36803F00303032B03
:1030380014D14FF4003393FAA3F34FF4003322680A
:1030480093FAA3F3B3FA83F303F01F0322FA03F30B
:10305800DC07D9D56B68002BD6D145E7236823F464
:1030680080332360236823F480232360FFF772F8FA
:1030780006464FF4003393FAA3F34FF40033226863
:1030880093FAA3F3B3FA83F303F01F0322FA03F3CB
:10309800D80707D5FFF75EF841F28833801B9842BE
:1030A800E7D97EE76B68B3F5803F0AD0B3F5A02F68
:1030B8000CD1236823F480332360236843F48023EE
:1030C8002360236843F48033236008E0226822F4F5
:1030D80080322260226822F480222260DBB1FFF76E
:1030E80039F806464FF4003393FAA3F34FF400334C
:1030F800226893FAA3F3B3FA83F303F01F0322FAC7
:1031080003F3D90780D4FFF725F841F28833801BF1
:103118009842E7D945E7FFF71DF806464FF4003314
:1031280093FAA3F34FF40033226893FAA3F3B3FAA4
:1031380083F303F01F0322FA03F3DA077FF564AF82
:10314800FFF708F841F28833801B9842E6D928E750
:10315800114CA36803F00C03042B09D0A36803F0F7
:103168000C030C2B1AD1E36803F00303022B15D1CF
:103178004FF4806393FAA3F34FF48063226893FAC1
:10318800A3F3B3FA83F303F01F0322FA03F3DB0775
:1031980024D5EB6813BBA7E600100240EB685BB3CD
:1031A800236843F480732360FEF7D4FF06464FF488
:1031B800806393FAA3F34FF48063226893FAA3F32E
:1031C800B3FA83F303F01F0322FA03F3DF0705D4EE
:1031D800FEF7C0FF801B6428E9D9E2E662684FF079
:1031E800F85191FAA1F12B69B1FA81F18B4022F0E3
:1031F800F852134363601DE0236823F4807323604F
:10320800FEF7A8FF06464FF4806393FAA3F34FF442
:103218008063226893FAA3F3B3FA83F303F01F03DE
:1032280022FA03F3D80705D5FEF794FF801B64281C
:10323800E9D9B6E62B68190703D42B685A0747D48F
:1032480036E16B69B04C0BB3D4F8943043F001030A
:10325800C4F89430FEF77EFF0646022393FAA3F2E1
:1032680093FAA3F293FAA3F2D4F8942093FAA3F36F
:10327800B3FA83F303F01F0322FA03F3DB07DCD46A
:10328800FEF768FF801B6428E7D98AE6D4F89430F3
:1032980023F00103C4F89430FEF75CFF06460223CE
:1032A80093FAA3F293FAA3F293FAA3F2D4F8942030
:1032B80093FAA3F3B3FA83F303F01F0322FA03F399
:1032C800DF07BAD5FEF746FF801B6428E7D968E612
:1032D8008D4CA36DDE000AD4A36D43F08053A36523
:1032E800A36D03F080530193019B012600E00026A3
:1032F800864B1A68D0050FD5D4F8903023F0010317
:10330800C4F89030D4F8903023F00403C4F8903017
:10331800FEF720FF07462EE01A6842F480721A6012
:10332800FEF718FF0746794B1B68D905E4D4FEF76A
:1033380011FFC01B6428F6D933E693FAA3F3B3FA56
:1033480083F343F040035B09032B0CBFD4F894309C
:10335800E369022292FAA2F2B2FA82F202F01F02A2
:10336800D340DA0716D5FEF7F5FE41F28833C01BC5
:1033780098423FF616AE022393FAA3F293FAA3F209
:10338800B2FA82F242F0400252099A42D5D1D4F8F8
:103398009030DEE7AB68012B1ED07BB9D4F89030B3
:1033A80023F00103C4F89030D4F8903023F00403DC
:1033B800C4F89030FEF7CEFE07464EE0052BD4F851
:1033C800903023F00103C4F89030D4F8903008D13D
:1033D80043F00403C4F89030D4F8903043F001036C
:1033E80001E023F00403C4F89030FEF7B3FE07466B
:1033F800022393FAA3F293FAA3F2B2FA82F242F00A
:10340800400252099A4202D1D4F890300BE093FA64
:10341800A3F3B3FA83F343F040035B09032B0CBF18
:10342800D4F89430E369022292FAA2F2B2FA82F254
:1034380002F01F02D340DB0727D4FEF78BFE41F2D0
:103448008833C01B9842D3D9ABE5FEF783FE41F21F
:103458008833C01B98423FF6A4AD022393FAA3F227
:1034680093FAA3F2B2FA82F242F0400252099A4267
:1034780011D1D4F89030022292FAA2F2B2FA82F272
:1034880002F01F02D340D807DFD48EB1A36D23F01A
:103498008053A3650CE093FAA3F3B3FA83F343F0E4
:1034A80040035B09032B0CBFD4F89430E369E2E7CF
:1034B8006B6A0BB9002089E0134CA26802F00C0279
:1034C8000C2A3FF411AD022B236823F0807323608C
:1034D80057D1FEF73FFE06464FF0007393FAA3F369
:1034E8004FF00073226893FAA3F3B3FA83F303F05F
:1034F8001F0322FA03F3D9070AD5FEF72BFE801B18
:103508006428E9D94DE500BF001002400070004072
:103518002A6BAB6A43EA0223EA6A013A43EA0212D7
:103528006B6B1B0942EA4341AB6B5A08EB6B013AE0
:103538005B0841EA4252013B42EA4363E360236885
:1035480043F080732360E36843F08073E360FEF721
:1035580001FE05464FF0007393FAA3F34FF0007392
:10356800226893FAA3F3B3FA83F303F01F0322FA52
:1035780003F3DA079ED4FEF7EDFD401B6428E9D972
:103588000FE5E36823F00303E360E36823F088733F
:1035980023F48033E360FEF7DDFD05464FF000734A
:1035A80093FAA3F34FF00073226893FAA3F3B3FAE4
:1035B80083F303F01F0322FA03F3DB077FF57AAFE7
:1035C800FEF7C8FD401B6428E8D9EAE403B0F0BD63
:1035D800F8B59F4B1A6802F00702914204460E465E
:1035E80040F297801A6804299CBF22F007020A4318
:1035F8001A601B6803F007038B4201D00120F8BD55
:1036080003689A0706D5934AA168906820F0F000ED
:1036180001439160DB070BD423685F0740F1088101
:103628008C4AE168906820F4E06001439160FFE013
:103638006368884D022B07D14FF4003292FAA2F248
:103648004FF40032296817E0032B07D14FF00072BE
:1036580092FAA2F24FF0007229680DE02BB902220B
:1036680092FAA2F20222296806E04FF4806292FAE6
:10367800A2F229684FF4806292FAA2F2B2FA82F2B8
:1036880002F01F0221FA02F2D607B7D5AA6822F083
:1036980003021343AB60FEF75DFD6368022B064629
:1036A8000DD1AB6803F00C03082BB5D0FEF752FD23
:1036B80041F28833801B9842F3D90320F8BD032BCD
:1036C8000CD1AB6803F00C030C2BA5D0FEF742FD20
:1036D80041F28833801B9842F3D9EEE763B1AB68B7
:1036E80003F00C03042B0CD196E7FEF733FD41F2EF
:1036F8008833801B9842E0D8AB6813F00C0FF4D1E4
:103708008AE7FEF727FD41F28833801B9842E6D905
:10371800D3E70368980706D54E4AA168906820F059
:10372800F00001439160D90707D4042E484B76D89E
:103738001A6822F00702324372E06368454D022B93
:1037480007D14FF4003292FAA2F24FF400322968FE
:1037580017E02BB9022292FAA2F20222296810E09D
:10376800032B07D14FF0007292FAA2F24FF00072C9
:10377800296806E04FF4806292FAA2F229684FF4B1
:10378800806292FAA2F2B2FA82F202F01F0221FAE1
:1037980002F2D2077FF532AFAA6822F00302134380
:1037A800AB60FEF7D7FC6368022B07460CD1AB6809
:1037B80003F00C03082BB8D0FEF7CCFC41F2883399
:1037C800C01B9842F3D978E7032B0CD1AB6803F000
:1037D8000C030C2BA9D0FEF7BDFC41F28833C01BAB
:1037E8009842F3D969E76BB1AB6803F00C03042B7B
:1037F8000DD19AE7FEF7AEFC41F28733C01B984221
:103808003FF65BAFAB6813F00C0FF3D18DE7FEF713
:10381800A1FC41F28833C01B9842E5D94DE71A68EC
:103828001A601B6803F00703B3427FF4E7AEF3E6C0
:103838001B0707D5074B21699A6822F4605242EAB0
:10384800C1029A600F20FEF758FC0020F8BD00BFA7
:103858000020024000100240304B9A6802F00C022F
:10386800042A10B528D09A6802F00C02082A25D03C
:103878009A6812F00C0F09D09A6802F00C020C2A10
:103888001FD1DA6802F00302012A1AD11968234A03
:10389800090754BFD2F894201268214954BFC2F3D3
:1038A8000322C2F3031251F82220996811F00C0F79
:1038B8000CBF1046002006E01A4800E01A48002213
:1038C80001E0002002469C68144904F00C040C2C0A
:1038D80022D1C868CC6800F00300C4F3021402289F
:1038E80004F1010404D0032809D1CA680E4801E094
:1038F800CA680C48B0FBF4F4C2F3062204E0C868B6
:10390800B2FBF4F4C0F30622D868C0F3416001307A
:1039180062434000B2FBF0F010BD00BF001002404F
:10392800D02501080024F40000127A0008B5FFF73A
:1039380093FF084BF0229B6892FAA2F2B2FA82F245
:1039480003F0F003D340044AD35CD840034B18601B
:1039580008BD00BF00100240C0250108000000207B
:1039680008B5FFF7E3FF074B4FF4E0629B6892FA54
:10397800A2F2B2FA82F203F4E063D340024AD35CC3
:10398800D84008BD001002403926010808B5FFF7E5
:10399800CDFF074B4FF460529B6892FAA2F2B2FA3D
:1039A80082F203F46053D340024AD35CD84008BD86
:1039B800001002403926010870B52B4C236823F00B
:1039C800806323600546FEF7C5FB06464FF000639B
:1039D80093FAA3F34FF00063226893FAA3F3B3FAC0
:1039E80083F303F01F0322FA03F3DA0706D5FEF781
:1039F800B1FB801BB0F57A7FE8D92CE022692B68EF
:103A080022F4FE4242EA0323236122696B6822F40E
:103A180000321B0942EA43432361236843F0806371
:103A28002360FEF797FB06464FF0006393FAA3F373
:103A38004FF00063226893FAA3F3B3FA83F303F019
:103A48001F0322FA03F3DB0707D4FEF783FB801B6F
:103A5800B0F57A7FE8D9032070BD22692B6913433A
:103A68002361002070BD00BF0010024070B52B4CD0
:103A7800236823F0805323600546FEF76BFB064658
:103A88004FF0005393FAA3F34FF00053226893FAD0
:103A9800A3F3B3FA83F303F01F0322FA03F3DA075D
:103AA80006D5FEF757FB801BB0F57A7FE8D92CE0E6
:103AB80062692B6822F4FE4242EA03236361626969
:103AC8006B6822F400321B0942EA434363612368AE
:103AD80043F080532360FEF73DFB06464FF000534A
:103AE80093FAA3F34FF00053226893FAA3F3B3FABF
:103AF80083F303F01F0322FA03F3DB0707D4FEF76F
:103B080029FB801BB0F57A7FE8D9032070BD626974
:103B1800EB6813436361002070BD00BF00100240D2
:103B280070B52B4C236823F0806323600546FEF7AD
:103B380011FB06464FF0006393FAA3F34FF00063BE
:103B4800226893FAA3F3B3FA83F303F01F0322FA6C
:103B580003F3DA0706D5FEF7FDFA801BB0F57A7F86
:103B6800E8D92DE022692B6822F4FE4242EA0323B9
:103B78002361AB6822695B0822F4C002013B42EA78
:103B880043532361236843F080632360FEF7E2FA1E
:103B980006464FF0006393FAA3F34FF000632268E0
:103BA80093FAA3F3B3FA83F303F01F0322FA03F3A0
:103BB800DB0707D4FEF7CEFA801BB0F57A7FE8D989
:103BC800032070BD22692B6913432361002070BD57
:103BD800001002402DE9F743056815F40065044616
:103BE80027D0436DB3F5800F12D004D803BB04303F
:103BF800FFF7E2FE0FE0B3F5000F03D0B3F5400F77
:103C08000BD015E0AA4BDA6842F48032DA6004E09F
:103C18001830FFF72BFF054658B9A54B626DD3F84E
:103C2800881021F440010A43C3F88820002500E0E9
:103C380001252368D80429D5A36DB3F1807F12D05C
:103C480004D813BB201DFFF7B7FE10E0B3F1007FC7
:103C580003D0B3F1407F0CD017E0954BDA6842F4FB
:103C68008032DA6005E004F11800FFF7FFFE06462F
:103C780000E02E4666B98E4BA26DD3F8881021F06D
:103C880040710A43C3F8882003E001252E4600E06E
:103C98003546236899037CD5854FBB6DDA000BD474
:103CA800BB6D43F08053BB65BB6D03F0805301933C
:103CB800019B4FF0010801E04FF000087D4B1A68A6
:103CC80042F480721A60FEF745FA8146794B1B6808
:103CD800DB0506D4FEF73EFAC9EB00006428F5D9E7
:103CE8004EE0002E4DD1D7F89010626F704B01F462
:103CF8004071914211D0D3F89060D3F8902042F4EB
:103D08008032C3F89020D3F8902026F4407622F42D
:103D18008032C3F89020C3F89060B00740F19381D7
:103D2800FEF718FA0646022393FAA3F293FAA3F2CF
:103D3800B2FA82F242F0400252099A4202D1D7F80E
:103D480090300BE093FAA3F3B3FA83F343F0400304
:103D58005B09032B0CBFD7F89430FB69022292FA57
:103D6800A2F2B2FA82F202F01F02D340D90700F1A0
:103D78006A81FEF7EFF941F28833801B9842D2D965
:103D88000326B8F1000F05D0BB6D23F08053BB6547
:103D980000E02E462368DA0708D5454AA16AD2F81A
:103DA800880020F003000143C2F888109F0708D557
:103DB8003F4AE16AD2F8880020F00C000143C2F8BB
:103DC80088105D0708D53A4A216BD2F8880020F0A0
:103DD80030000143C2F88810180708D5344A616BCF
:103DE800D2F8880020F0C0000143C2F88810D90634
:103DF80008D52F4AA16BD2F8880020F440700143FF
:103E0800C2F888109A0608D5294AE16BD2F88800CA
:103E180020F440600143C2F888109F0508D5244A61
:103E2800E16CD2F8880020F440200143C2F88810E1
:103E38005D0508D51E4A216DD2F8880020F440108F
:103E48000143C2F88810580608D5194A216CD2F8DF
:103E5800880020F440500143C2F88810190608D59C
:103E6800134A616CD2F8880020F440400143C2F83C
:103E78008810DA0508D50E4AA16CD2F8880020F41B
:103E880040300143C2F888109F041ED5084BE26DEC
:103E9800D3F8881021F040611143B2F1006FC3F8E4
:103EA800881009D1DA6842F48012DA600DE000BFA8
:103EB8000010024000700040B2F1806F05D1201D53
:103EC800FFF72EFE002818BF064623681D0319D5E4
:103ED8008B4B226ED3F8881021F040611143B2F168
:103EE800006FC3F8881004D1DA6842F48012DA60EF
:103EF80008E0B2F1806F05D1201DFFF711FE002800
:103F080018BF06462368580319D57D4B626ED3F84F
:103F1800881021F040611143B2F1006FC3F8881096
:103F280004D1DA6842F48012DA6008E0B2F1806FF6
:103F380005D1201DFFF7F4FD002818BF06462368A9
:103F4800590468D56E4DA36ED5F8882022F04052EA
:103F58001A43B3F1805FC5F888201ED12B6823F07F
:103F680080632B60FEF7F6F807464FF0006393FA7C
:103F7800A3F34FF000632A6893FAA3F3B3FA83F329
:103F880003F01F0322FA03F3DA0766D5FEF7E2F817
:103F9800C01BB0F57A7FE8D9ABE0B3F1005F3AD146
:103FA8002B6823F080532B60FEF7D4F807464FF0B8
:103FB800005393FAA3F34FF000532A6893FAA3F33C
:103FC800B3FA83F303F01F0322FA03F3D8075CD58F
:103FD800FEF7C0F8C01BB0F57A7FE8D989E0FEF794
:103FE800B9F8C01BB0F57A7F00F283804FF0006308
:103FF80093FAA3F34FF000632A6893FAA3F3B3FA92
:1040080083F303F01F0322FA03F3DB07E7D52A69DA
:10401800636913432B6123681A0408D5384AE16E93
:10402800D2F8880020F080400143C2F88810DB03F2
:1040380061D5334B216FD3F8882022F000420A4320
:10404800C3F8882057E0D7F89020636F22F44072B5
:104058001343C7F890302E4693E62A69636822F422
:10406800FE4242EA03232B6123692A695B0822F096
:10407800C062013B42EA43632B612B6843F08063D3
:104088002B60FEF767F80746B0E76A69A36922F470
:10409800FE4242EA03236B61236A6A695B0822F0E5
:1040A800C062013B42EA43636B612B6843F0805373
:1040B8002B60FEF74FF807464FF0005393FAA3F32F
:1040C8004FF000532A6893FAA3F3B3FA83F303F08B
:1040D8001F0322FA03F3D90706D4FEF73BF8C01BE7
:1040E800B0F57A7FE8D904E06A69636A13436B61C3
:1040F80091E703268FE7304603B0BDE8F08300BFA1
:10410800001002402DE9F34104460F4616461D46AD
:10411800FEF720F8804623689A683A40B2423DD0BC
:10412800B7F5C06F06D12EB91A7BD2B28DF8072029
:104138009DF807206A1CEFD04DB923685A6822F011
:10414800E0025A606268B2F5827F12D106E0FEF79B
:1041580001F8C8EB0000A842DDD3EEE7A268B2F58B
:10416800004F02D0B2F5806F03D11A6822F04002E6
:104178001A60A26AB2F5005F08D119684DF6FF729D
:104188000A401A601A6842F400521A60012384F83F
:104198005D30002384F85C30032000E0002002B08A
:1041A800BDE8F0812DE9F04104460F4616461D464C
:1041B800FDF7D0FF8046226893683B40B34234D075
:1041C8006B1CF9D04DB923685A6822F0E0025A6096
:1041D8006268B2F5827F12D106E0FDF7BBFFC8EB3B
:1041E8000000A842E7D3EEE7A268B2F5004F02D07C
:1041F800B2F5806F03D11A6822F040021A60A26AF1
:10420800B2F5005F08D119684DF6FF720A401A60CE
:104218001A6842F400521A60012384F85D300023C2
:1042280084F85C300320BDE8F0810020BDE8F0810F
:1042380038B50D4600224FF4C0512B460446FFF70F
:1042480061FF024628B9204680212B46FFF7AAFFC6
:1042580020B1236E43F020032366032038BD704746
:1042680070B5044600284FD090F85D301BB980F82F
:104278005C30FFF7F4FF022384F85D302368E168BF
:104288001A68B1F5E06F22F040021A604FF00000A2
:1042980003D90246B1F5706F01E04FF4805218BFA0
:1042A800A062206B28B9B1F5E06F8CBF0220012015
:1042B80020636568A668A0692E4325692E43656951
:1042C8002E43E5692E43256A2E43A56A354300F43B
:1042D800007635431D60256B022D03D11D6845F41A
:1042E80000651D60656A2943656B000C0D4300F08D
:1042F800040005432A435A60E26A1A610020012338
:10430800206684F85D3070BD012070BD2DE9F34151
:1043180004461D4688461646FDF71CFF94F85C3097
:10432800012B074600F0A280012384F85C3094F842
:104338005D30012B40F09080B8F1000F00F08E80C6
:10434800002E00F08B80032384F85D300023236661
:104358002364A4F84430A4F84630A368C4F838802D
:10436800B3F5004FA687E687226803D1136843F4A4
:1043780080431360A36AB3F5005F08D111684DF656
:10438800FF730B401360136843F400531360136802
:104398005B0603D4136843F040031360E368B3F586
:1043A800E06F27D9E38F43B3226891688E0708D559
:1043B800A16B0988D160A26B013B0232A263E3873B
:1043C800F0E70DB903204AE0681CEBD0FDF7C2FE08
:1043D800C01BA842E6D3F5E72268916889071DD576
:1043E800012BA16B13D90988D160A26B0232A26399
:1043F800023BE387E38F002BEED1A36AB3F5005F9E
:1044080016D123681A6842F480521A6010E04B1CD7
:10441800A3630B781373E38F013BEAE7002DD1D038
:104428006B1CE7D0FDF796FEC01BA842E2D3C9E794
:1044380020462946FFF7FCFE08B120232366A3681F
:104448002BB92368DA6801929B680193019B206E5F
:10445800003018BF012002E0022000E018460123C6
:1044680084F85D30002384F85C3000E0022002B05C
:10447800BDE8F0812DE9F34704461F468946924678
:104488000A9EFDF767FE94F85C30012B804600F029
:10449800298194F85D5001239D4284F85C3040F0F6
:1044A8001881B9F1000F00F01581BAF1000F00F082
:1044B8001181002F00F00E81052384F85D30002360
:1044C8002366A36AC4F840A0B3F5005FA4F8467059
:1044D800A4F84470C4F83890E787A787226808D101
:1044E80011684DF6FF730B401360136843F40053D3
:1044F8001360E3685168B3F5E06F01D8012F02D962
:1045080021F4805101E041F48051516011684D0659
:1045180003D4116841F040011160B3F5E06F43D94D
:10452800E18FB4F8462000292DD0236898688007C9
:1045380011D5A06B0088D860A06B0139023089B210
:10454800A063E18739B9A16AB1F5005F03D11968A1
:1045580041F4805119606AB123689A68D70709D570
:10456800DA68236C23F8022B2364B4F84630013B45
:10457800A4F84630751CD3D0FDF7ECFDC8EB00005D
:10458800B042CDD383E0002AE5D1A36AB3F5005F3A
:1045980040F0868058E022689168880708D4B4F80B
:1045A80046201ABB731C43D1E38F002BF3D146E09E
:1045B800012BA16B06D90988D160A26B0232A263D4
:1045C800023B05E04B1CA3630B781373E38F013B9D
:1045D800E387E38F002BE2D1A36AB3F5005FDED156
:1045E80023681A6842F480521A60D8E723689968E9
:1045F800C907D7D5012A226C10D9D96822F8021B1D
:104608002264B4F84620023A92B2012AA4F846205D
:10461800C8D85A6842F480525A60C3E7511C2164D2
:104628001B7B1370B4F84630013BA4F84630B9E759
:10463800FDF790FDC8EB0000B042B5D327E0B4F811
:104648004630002BABD1A0E7012120460A4633466D
:10465800FFF7A8FDB8B9E368B3F5706F236802D116
:10466800DB689BB218E01B7BDBB2ADF80630BDF807
:104678000630236B022B13D1012120460A4633460C
:10468800FFF790FD28B1236E43F00203236603254C
:1046980020E023681B7BDBB2ADF80630BDF806309E
:1046A80023689D6815F0100507D0226E42F00202BB
:1046B80022664FF6EF729A60012520463146FFF7D1
:1046C800B7FD08B120232366236E002B18BF0125F0
:1046D80000E00225012384F85D30002384F85C3073
:1046E800284600E0022002B0BDE8F08770470223A8
:1046F80080F8393003681A6842F001021A60012311
:1047080080F83930002070470368DA6842F0010207
:10471800DA601A6842F001021A6000207047704798
:1047280070477047704703681A69910710B50446C7
:1047380014D5DA68920711D56FF002021A619B69E5
:1047480001229B07027602D0FFF7EAFF04E0FFF799
:10475800E6FF2046FFF7E5FF0023237623681A6962
:10476800500716D5DA68510713D56FF004021A619D
:104778009B69022213F4407F2276204602D0FFF77D
:10478800CFFF04E0FFF7CBFF2046FFF7CAFF002367
:10479800237623681A69120715D5DA68100712D527
:1047A8006FF008021A61DB69042299072276204615
:1047B80002D0FFF7B5FF04E0FFF7B1FF2046FFF78F
:1047C800B0FF0023237623681A69D20616D5DA6863
:1047D800D00613D56FF010021A61DB69082213F4B2
:1047E800407F2276204602D0FFF79AFF04E0FFF7C9
:1047F80096FF2046FFF795FF0023237623681A6962
:10480800D10708D5DA68D20705D56FF001021A6119
:104818002046FCF71DFF23681A69100608D5DA68D8
:10482800110605D56FF080021A61204600F09BF84A
:1048380023681A69520608D5DA68500605D56FF05C
:1048480040021A612046FFF76DFF23681A69910636
:104858000AD5DA68920607D56FF0200220461A6159
:10486800BDE8104000F07EB810BD00002E4A036875
:10487800904212D0B0F1804F0FD0A2F594329042FE
:104888000BD002F58062904207D002F58062904218
:1048980003D002F59432904219D14A6823F070038C
:1048A8001343214A90421DD0B0F1804F1AD0A2F58F
:1048B8009432904216D002F58062904212D002F5EE
:1048C800806290420ED002F5943290420AD0174A84
:1048D800904207D002F58062904203D002F58062D0
:1048E800904203D1CA6823F44073134303608B6872
:1048F800C3620B6883620C4B98420FD003F50063C8
:1049080098420BD003F54063984207D003F58063C3
:10491800984203D003F58063984201D10B69036381
:1049280001234361704700BF002C01400040014053
:1049380010B50446A0B190F8393003F0FF021BB956
:1049480080F83820FFF7D2FE022384F83930206837
:10495800211DFFF78BFF012384F83930002010BD9B
:10496800012010BD7047704784B010B503AC84E8CF
:104978000E00C36843F04003C3600E4B013B0CD0EC
:104988000269002AFADA036943F001030361094B5B
:10499800013B02D00269D207FAD44FF48033BDE854
:1049A80010408363C36843F48073C36004B000207D
:1049B800704700BF410D0300836843F00103836023
:1049C80000207047836823F001038360002070474C
:1049D80008B5C368012923F0C043C36004D1C36884
:1049E80043F00053C36004E019B9C36843F080433F
:1049F800C3603220FDF7B4FB002008BD890141F0F7
:104A08002001064B0161013B05D0026912F020022A
:104A1800F9D1104670470320704700BF410D0300CD
:104A280010230361054B013B05D0026912F0100207
:104A3800F9D1104670470320704700BF410D0300AD
:104A4800D0F800381943C0F800180020704700005B
:104A580084B02DE9F843044609A880E80E00A36B4A
:104A6800139FDDF8308043F400138946A3635FB9D0
:104A7800A36B23F40013A363236843F0400323606C
:104A8800236843F0800323600026C4F8006ED4F83E
:104A98000038C4F8003803212046FFF7D1FF102161
:104AA800204604F50065FFF7A9FF2046FFF7B8FF89
:104AB8004FF0FF332E616E61AB61EE6104F5106358
:104AC8004E450FD01A68002AB8BF4FF090414FF0FA
:104AD8000002ACBF1A6019601A61FF229A600136A1
:104AE8002033EDE704F5306300224A450FD01968FA
:104AF8000029B8BF4FF090404FF00001ACBF1960DB
:104B080018601961FF21996001322033EDE72B69A4
:104B1800B8F1010F23F480732B6108D1154B2B6377
:104B28002B6B43F4803343F003032B632B6B00237D
:104B3800A3616FF080436361B8F1000F03D1A369EB
:104B480043F01003A361A2690B4B1343A3610F9BAE
:104B58001BB1A36943F00803A361012F05D1A36921
:104B680043F0804343F00403A361BDE8F843002009
:104B780004B070470001800000383C8030B54C78A4
:104B88000A78012C00F500631DD1DD6904FA02F2F0
:104B980092B22A43DA610C784FF4106303EB4413A2
:104BA8001A5815042BD41A588D6842F08052C5F350
:104BB8000A0542F400422A43CD7842EA854242EA95
:104BC80084541C501BE0DC694FF4803505FA02F26E
:104BD8002243DA610A784FF4306303EB42131A5820
:104BE80012040CD41A588C6842F08052C4F30A0498
:104BF80042F400422243CC7842EA84421A50002010
:104C080030BD4A7800F50063012A30B50C78DD6BB9
:104C180016D102FA04F4A4B225EA0404DC630D7880
:104C2800DC69AA4092B224EA0202DA610A784FF4F7
:104C3800106303EB42131A5822F400421A5014E08E
:104C4800012202FA04F425EA0444DC630D78DC69E5
:104C5800AA4024EA0242DA610A784FF4306303EB8F
:104C680042131A5822F400421A50002030BD4B78E3
:104C7800012BF0B54D690E7861D120244FF41063F3
:104C880014FB06360644B5B9356925F0FF5525F4F9
:104C9800C01535610D7814FB053505442E6946F4B9
:104CA80000262E610D7814FB053303441D69ED0CB5
:104CB800ED041D6126E03769FF0CFF0437610E78AB
:104CC80014FB063303444FF410641E6926F0FF56A4
:104CD80026F4C0161E618B689D420D7888BF4B6113
:104CE800202313FB054505442E6946F400262E6152
:104CF8000D7813FB054303444C691D69C4F3120482
:104D08002C431C61012A0A7805D100EB42120B6979
:104D1800C2F8143909E04B693BB1D0F83448012591
:104D280005FA02F22243C0F834280A784FF41063D7
:104D380003EB4213C25842F00442C2503DE0202324
:104D48004FF4306713FB067606443469E40CE40438
:104D580034610E7813FB06760644346924F0FF5458
:104D680024F4C01434611C468E6805B14E610D7878
:104D78004FF4306314FB05350544C6F312062F695A
:104D880047F400272F610D7814FB05340444012AE9
:104D9800256946EA0506266106D10A78202414FB0F
:104DA80002330344CA685A610A784FF4306303EB4C
:104DB8004213C25842F00442C2500020F0BD30B540
:104DC8009DF80C4064B9033300EB02329B1002F5E6
:104DD80080529C4204D051F8245015600134F8E701
:104DE800002030BD2DE9F7434B780E78012B4FF0AA
:104DF80020054B6940F09A804FF4106415FB064675
:104E080006443769ABB927F0FF5727F4C017376155
:104E18000E7815FB06460644376947F400273761C4
:104E28000E7815FB064404442669F60CF604266140
:104E38003EE0FF0CFF0437610F7815FB0747074476
:104E48003E6926F0FF5626F4C0163E618E680F783C
:104E580003EB060808F1FF3815FB07470744B8FBC2
:104E6800F6F64FEAC648684ED7F810C008EA0606B4
:104E780046EA0C063E610E7815FB06460644C3F367
:104E8800120C37694CEA07073761CE78012E0FD12B
:104E98000E7815FB06460644376927F0C047376188
:104EA8000E7815FB06440444256945F00055256134
:104EB800012A0D7805D100EB45150C69C5F8144990
:104EC8000BE0CC78012C08D03BB1D0F8346801272E
:104ED80007FA05F53543C0F83458CC78012C11D1C0
:104EE800D0F8084814F4807F0C784FF410654FF020
:104EF800200616FB045425580CBF45F0005545F014
:104F0800805525500D784FF4106404EB451405596D
:104F180045F004450551CC78012C71D10C780092EC
:104F2800C96822469BB2FFF74AFF69E04FF4306434
:104F380015FB064687193E69F60CF6043E610F78A4
:104F480015FB074707443E6926F0FF5626F4C016AE
:104F58003E6191F800C08E6815FB0C4C7BB900EBE4
:104F68000C03C6F312061F693E431E610B7815FB3E
:104F780003440444236943F4002323611AE03344BF
:104F8800013B8444B3FBF6F39BB21F4FDCF810805F
:104F98004FEAC34909EA070747EA0807CCF810703F
:104FA8000F7815FB0744044473432569C3F31203C0
:104FB8002B432361012A05D10A78CB6800EB421202
:104FC800C2F8143BCB78012B11D1D0F8083813F470
:104FD800807F0B784FF430624FF0200414FB0323DA
:104FE800C2580CBF42F0005242F08052C2500A78B8
:104FF8004FF4306303EB4213C25842F00442C250EC
:10500800002003B0BDE8F0830000F81F10B503329C
:105018009210002393424FEA830406D000F580548F
:10502800246841F823400133F4E7081910BD4B7890
:105038000A78012B10B54FF0200314D14FF41064F7
:1050480013FB0243C258002A03DBC25822F08042F5
:10505800C2500A784FF4106303EB4213C25842F46B
:105068000012C25013E04FF4306413FB0243C258DD
:10507800002A03DBC25822F08042C2500A784FF45B
:10508800306303EB4213C25842F40012C2500020AE
:1050980010BD30B54B780C78012B0CBF4FF4106263
:1050A8004FF43062202313FB0424255825F40015FF
:1050B8002550CC78023C012C06D8097813FB012333
:1050C8001A5842F080521A50002030BDD0F80038EB
:1050D80023F4FE63C0F80038D0F80038090101F461
:1050E800FE610B43C0F800380020704708B5D0F8BF
:1050F800043823F00203C0F80438D0F8043813F059
:10510800020F054B4FF008020CBF9A619A62032008
:10511800FDF726F8002008BD0008004808B5D0F8BB
:10512800043843F00203C0F804380320FDF718F8E8
:10513800002008BD4369806918407047D0F81838C6
:1051480000F50060C0691840000C7047D0F81828B6
:10515800D0F81C3802EA030080B2704700EB411116
:1051680000F50060D1F8083B406918407047D0F856
:10517800102810B5D0F8344800EB4110D0F80839A1
:1051880024FA01F0C001C0B21043184010BD4069B4
:1051980000F001007047D0F8003923F4FF6323F0D2
:1051A8000703C0F8003900F500639A6802F00602A8
:1051B800042A05D1D0F8002942F00302C0F80029DA
:1051C8005A6842F480725A600020704710B5002473
:1051D800C0F8104BD0F8104B44F40024C0F8104B22
:1051E800D0F8104B44F01804C0F8104BD0F8104B0E
:1051F800012944F0C044C0F8104B05D14FF080237A
:10520800C0F8142BC0F8003B002010BD70B5D0F8D2
:10521800184294F8183205463BB9D4F8143223B131
:10522800637A13B9012104F000F82846812103F0BC
:10523800FCFF637A022B08D1284604F5037201218A
:105248001F23BDE8704004F01FB870BD70B5D0F8DA
:105258001842054600202072607284F85D0284F8C6
:105268005C02D5F81C321B6898472846012103F0D8
:10527800D5FF2846812103F0D1FF284604F50372A3
:1052880001211F23BDE8704003F0FEBFD0F81822AB
:1052980000230121137251721F2302F5037203F0D8
:1052A800F3BFD0F8183200221A72704770B5D0F8E0
:1052B80018420B4BC4F82C320023054684F83812E8
:1052C800237204F50B7281210D2303F0D6FF2846C3
:1052D80004F5037201211F23BDE8704003F0D4BF19
:1052E8005553425310B5D0F81822137A022B0446AE
:1052F80003D012D3042B0BD910BD92F8191202F265
:105308001B2200F06FF9002807DA2046012100E08F
:105318000021BDE81040FFF7C9BF10BD70B5D0F837
:105328001842267A054616B1012E58D070BDD4F819
:105338001032C4F83032D4F81432C4F834320121AF
:1053480003F0A9FF1F2894F819120BD1D4F80C32D6
:10535800274A934206D1012904D894F81A32013B0E
:105368000F2B07D920232846052200F023F9022312
:1053780063720CE0284604F21B2200F033F900287F
:10538800237A09DA052B02D12846012123E0284691
:10539800BDE87040FFF73ABF013B022B27D961896E
:1053A800C1B1D5F81822D2F8143282F8386299427D
:1053B80038BF0B46D2F83412C91AC2F83412042185
:1053C8001172284604F10C0281219BB2BDE870409D
:1053D80003F053BF2846BDE87040FFF767BF94F855
:1053E800191204F21B2200F0FDF80028CCDB70BD76
:1053F8005553424310B5D0F81842637A022B05D1B1
:10540800812103F012FF0023637210BD0A0606D53E
:10541800012B04D00121BDE81040FFF747BF10BDA4
:105428002023038000487047300000202023038099
:1054380000487047880000202023038000487047F8
:10544800040000200A23038000487047240000203D
:10545800037C10B50121044602224BB94FF40073B6
:1054680003F0CBFE2046812102224FF4007306E0B0
:10547800402303F0C2FE204681210222402303F08C
:10548800BCFE4FF41B7003F00DFFC4F8180220B1E6
:105498002046FFF7DBFE002010BD012010BD10B52F
:1054A8000121044603F0B3FE8121204603F0AFFE3C
:1054B8002046FFF7F6FED4F8180220B103F0F6FEF6
:1054C8000023C4F81832002010BD2DE9F0410B78F4
:1054D800D0F8188213F0600605460C4629D0202E15
:1054E80055D14A78FE2A02D0FF2A11D01DE04E88F5
:1054F80086B9CF88012F0DD11A060BD5D0F81C32EA
:105508009B6998474146C8F800003A4628461BE080
:105518004A8812B12846214607E0CE88002EF9D1E4
:105528001B06F7D4FFF7B2FE32E000F0F3FB0226C9
:105538002EE04F780A2F04D00B2F08D0012F27D147
:1055480009E008F10401012200F096FD20E08B78C3
:10555800C8F804301CE0097903F060FE2179284678
:1055680003F055FE94F90430002B2B7C2846B4BF79
:1055780081213946022213B94FF4007300E0402319
:1055880003F03BFE28462179FFF734FF00E00026B0
:105598003046BDE8F08108B5FFF7A4FE002008BD3D
:1055A80008B5FFF7BBFE002008BD09B1C0F81C1202
:1055B8000020704710B5D0F8181291F85D0201EB81
:1055C800C0040130C0B21B020428C4F8403208BF2E
:1055D800002384F83C2214BF81F85D0281F85D3213
:1055E80010BD00002DE9F34113781E2B04460F4629
:1055F800904600F08A800FD8122B66D007D8FBB1EE
:10560800032B40F02A82D0F81832002231E01A2BFE
:105618007FD01B2B79D020E2282B00F0E68006D81B
:10562800232B00F09080252B00F0BC8015E22F2B57
:1056380000F0FC815A2B79D02A2B40F00E825BE1D6
:10564800D0F81862D6F81432002B40F0A481D0F8B4
:105658001C3208469B689847054640B13A232046C5
:1056680039460222FFF7A6FF05233372FBE170815A
:10567800FAE1991801320020122A0873F9D1702230
:105688001A730C22DA7493F85D1293F85C22914233
:1056980012D003EBC201013291F83C429C7391F89D
:1056A80041421C76D2B291F840125976042A14BFAE
:1056B80083F85C2283F85C0212225A8198F804204D
:1056C800122A98BF5A810025CEE198F80130D0F807
:1056D8001822DB070ED4D0F81C32DB6901EBC107B6
:1056E80003EB870798F804103B7905338B4228BFF2
:1056F8000B4601E0C44F07235381002BE3D0013B45
:105708009BB2D118F85C0873F7E7D4F81832002573
:10571800BDE1D0F8182208235381013B9BB2BB4856
:10572800D118C05C0873002BF7D1CCE7D0F8182249
:1057380008235381013B9BB2B548D118C05C08735C
:10574800002BF7D1BFE7D0F818624FF0000806EB3E
:10575800080308F101080022B8F10C0F1A73F6D1FA
:10576800D4F81C3238465B6801A90DF1020298474B
:105778000546002840F0CF800823F373019B70751D
:10578800013B1A0E32741A0C7274F3741A0A02234B
:105798003375BDF80230B2741A0AB275F375A6F8FB
:1057A8000A8061E1D0F81862D0F81C3206F25E2255
:1057B80008465B6806F5187198470546002840F0CA
:1057C800AA80D6F860323074013B1A0E32731A0C74
:1057D8007273F3731A0AB6F85E32B273F3741A0A64
:1057E80008237074B27473813EE1D0F818522B7A92
:1057F800002B3DD195F91832002B36DAD0F81C323F
:1058080008469B689847002840F0858098F8032050
:1058180098F80230120442EA036298F805301A43F5
:1058280098F8043042EA0322C5F8642298F8071071
:1058380098F8083043EA0123D4F81812C5F86832FA
:10584800D1F86012D018884200F29580022129729E
:10585800B5F85E124A43C5F86422D5F814224B43C2
:105868009A42C5F8683203D0204695F81912F6E036
:10587800D4F81862D4F81C12B6F85E22D1F810C019
:105888004FF400736B81D6F86832B3F5007F34BFEC
:1058980098464FF40078D6F86432B8FBF2FE06F169
:1058A8000C05B3FBF2F2384629461FFA8EF3E0479F
:1058B8000028204603DA394604221123D1E02A467B
:1058C8001FFA88F3812103F0D8FCD6F86432D6F8A1
:1058D80068524344C6F86432D6F83432C8EB05053A
:1058E800C8EB0303C6F86852C6F83432002D7FF4BB
:1058F800EAAE03233372B7E0D0F81862337A002B8C
:105908004CD196F91832002B45DBD0F81C320846EA
:105918009B68984720B12046394602223A23A0E0E6
:10592800D4F81C323846DB689847054620B1204633
:1059380039460222272394E098F8032098F8023089
:10594800120442EA036298F805301A4398F80430C2
:1059580042EA0322C6F8642298F8071098F808303B
:1059680043EA0123D4F81812C6F86832D1F8601255
:10597800D018884202D9204639466BE0B6F85E1244
:105988004A43C6F86422D6F814224B439A42C6F812
:1059980068326DD0204696F8191260E0D6F8685241
:1059A800B6F85E22D0F81C12D6F86432D1F814C0CA
:1059B800B5F5007F28BF4FF40075B5FBF2FE06F180
:1059C8000C08B3FBF2F2384641461FFA8EF3E04763
:1059D800002804DA204639460422032341E0D6F899
:1059E8006432D6F834222B44C6F86432D6F86832CA
:1059F8005B1B551BC6F86832C6F8345253B92046AB
:105A08000021FFF753FC5EE64126010850260108F5
:105A180048260108B3F5007F28BF4FF400732046DD
:105A2800012142469BB203F02FFC4CE65278D0F895
:105A3800183202F0020202F0FF0512B105222423F7
:105A48000FE0D3F86422B3F868421444D3F8602214
:105A580094421CD90522212303E020463946052219
:105A68002023FFF7A7FDFF2568B202B0BDE8F0814B
:105A7800B2F5007F34BF13464FF400730121317231
:105A8800204606F10C029BB203F0FEFBECE75D81B9
:105A9800EAE700BF08B580B1D0F8143213B100238B
:105AA800C0F8143209B1C0F81012012380F8FC3193
:105AB800027003F06DFB002008BD022008BD19B17B
:105AC800C0F81412002070470220704708B503F090
