:020000040800F2
:10000000B8050020A9010008B1010008B3010008EB
:10001000B5010008B7010008B901000800000000A0
:10002000000000000000000000000000BB0100080C
:10003000BD01000800000000BF010008F11A00081F
:10004000C3010008C3010008C3010008C301000880
:10005000C3010008C3010008CD060008C301000861
:10006000C3010008C3010008C3010008C301000860
:10007000C3010008C3010008C3010008C301000850
:10008000C3010008C3010008C3010008000000000C
:10009000000000000000000000000000D30600087F
:1000A000C3010008C3010008C3010008C301000820
:1000B000C3010008C3010008C3010008C301000810
:1000C000C3010008C3010008C3010008C301000800
:1000D000C3010008C3010008C301000800000000BC
:1000E000C3010008C3010008C301000800000000AC
:1000F000000000000000000000000000C301000834
:1001000000000000C3010008C3010008C30100088B
:1001100000000000000000000000000000000000DF
:10012000C3010008C3010008C3010008C30100089F
:10013000C3010008000000000000000000000000F3
:10014000000000000000000000000000C3010008E3
:10015000C3010008C3010008C3010008C30100086F
:10016000C3010008C30100080000000000000000F7
:10017000000000000000000000000000000000007F
:1001800000000000C30100080000000000000000A3
:10019000C3010008DFF80CD000F04CF8004800471D
:1001A00001390008B8050020064880470648004786
:1001B000FEE7FEE7FEE7FEE7FEE7FEE7FEE7FEE717
:1001C000FEE7FEE7791B00089501000840EA0103FD
:1001D0009B0703D009E008C9121F08C0042AFAD2FD
:1001E00003E011F8013B00F8013B521EF9D27047C1
:1001F00010B5044604E00B7800F8013B03B1491C3C
:10020000521EF8D2204610BD30B50B4601460020E4
:100210002022012409E021FA02F59D4205D303FAC8
:1002200002F5491B04FA02F52844151EA2F1010249
:10023000F1DC30BD064C074D06E0E06840F00103FC
:1002400094E8070098471034AC42F6D3FFF7A6FFB6
:10025000303D0008503D000870B58C1810F8015B67
:1002600015F0070301D110F8013B2A1106D110F84F
:10027000012B03E010F8016B01F8016B5B1EF9D153
:100280002B0705D40023521E0DD401F8013BFAE7D9
:1002900010F8013BCB1A921C03E013F8015B01F844
:1002A000015B521EF9D5A142D8D3002070BD0000D9
:1002B00000B501F017FC02490420487000BD0000A1
:1002C0002400002010B50DA000F06AF80121522092
:1002D00002F05FF80023C8221946522001F0C2FF45
:1002E0000221522001F076FE0021522002F051F846
:1002F0000121BDE81040522001F06FBD412D686919
:100300000000000010B5154906204870A1F1240036
:10031000C16901623224522001F018FE3F215220AF
:1003200001F06BFF0321522002F0A4F92146522074
:1003300001F041FF01220821522002F032F800F0C2
:10034000E1F802F087FA0721522001F046FD03216F
:10035000BDE81040522001F075BF000024000020CD
:1003600010B50DA000F01CF80121522002F011F888
:1003700000231A46C821522001F074FF01215220A7
:1003800001F028FE0021522002F003F80121BDE80F
:100390001040522001F021BD412D4C6F00000000A3
:1003A00070B501F09FFB064CE06920624FF4487580
:1003B00000F038F9E069216A401AA842F8D370BD0C
:1003C00000000020F8B5394D6868002605F12404C6
:1003D00000282DD06946522001F00BFE18B134A040
:1003E000FFF766FFF8BD009800F00700012806D06F
:1003F000022808D003280AD004280FD10BE02EA031
:1004000001F070FB0AE02EA001F06CFB06E02EA0CC
:1004100001F068FB02E02EA001F064FB01215220F4
:1004200001F0DBFC6E60E86928620120607108E081
:10043000E869296A401A41F28831884201D9E8699D
:100440002862607930B1E869296A401AFA2813D91C
:10045000667111E0207920B1012806D002280BD165
:1004600007E01DA001F03EFB06E01CA001F03AFBF6
:1004700002E01BA001F036FB00F0D4F800F0CAF84F
:100480000028AFD101F01AFA20B100F02BF80720B4
:100490006070F8BD20790321401CB0FBF1F201FB34
:1004A0001200207100F02EF8F8BD000000000020BE
:1004B000416C2031000000004C2D2D2D000000006B
:1004C000482D2D2D000000004F2D2D2D0000000087
:1004D0006E2D2D2D000000004C0000004800000093
:1004E0004F00000010B50321522001F0ABFE642044
:1004F00002F066F90721522001F06FFCBDE81040C0
:1005000002F068B910B50E4A03211079B0FBF1F37F
:1005100001FB13001071002804D0012805D0022827
:1005200008D105E0FFF71CFF04E0FFF7CBFE01E078
:1005300000F008F80121BDE81040522001F04DBC48
:100540002400002010B50DA0FFF72AFF0121522042
:1005500001F01FFF0023C8226421522001F082FE17
:100560000321522001F036FD0021522001F011FF3D
:100570000121BDE81040522001F02FBC412D306F09
:100580000000000010B51849522001F0A6FB20B170
:10059000BDE8104015A001F0A5BA1348026842F268
:1005A0000F70824204D913A1144802F017FD15E020
:1005B0004FF47A7082420DD3B2FBF0F100FB1121AF
:1005C0000A23B1FBF3F392FBF0F20DA10B4802F00A
:1005D00005FD03E00DA1094802F000FDBDE8104053
:1005E000064801F07FBA00002C000020457220343C
:1005F000000000004C2D2D2D2D0000008201002058
:100600004C25642E25303264000000006C253364D4
:10061000000000004FF40051014800F039B900001B
:100620000008024010B50A4CA169002907D0092230
:100630000848FFF7DDFD074900204872A06101214D
:10064000044802F0E5F8A068401CA06010BD00005E
:10065000000000207801002010B5124C21688A07A4
:1006600009D5480703D510A001F03CFA13E010A00B
:1006700001F038FA0FE0490705D502460EA11048EF
:1006800002F0ACFC04E002460EA10D4802F0A6FC0C
:100690000B4801F027FA0320607002482438C16932
:1006A000016210BD240000205366204100000000BC
:1006B00053632041000000005366202564000000C1
:1006C000820100205363202564000000012000F017
:1006D00007B8402000F004B8FFF714BE02F0A2B83B
:1006E00010B504490A68024202D00860FFF7F6FF1D
:1006F00010BD0000143C01402DE9F84F0022DFF846
:100700007091DFF86C8109F108094FF0010E4FF08C
:100710000F0C09F1040A0EFA02F60B683340B342DB
:1007200071D14C68022C01D0122C11D1D40800EBED
:1007300084073D6A5407E40E0CFA04FB25EA0B0516
:10074000D1F810B00BFA04FB4BEA050BC7F820B048
:10075000076854000325A540AF4391F804B00BF09F
:10076000030B0BFA04FB4BEA070BC0F800B04F6811
:10077000012F05D0022F03D0112F01D0122F11D13C
:100780008768AF43D1F80CB00BFA04FB4BEA070BB8
:10079000C0F808B04768B7430E79C6F30016964014
:1007A0003E434660C668AE438D68A5403543C5608C
:1007B0004C68E40056D52F4C256845F480452560EB
:1007C000246804F4804400942B4C22F003052E1975
:1007D000D6F808789407250F0CFA05F4A743274CA0
:1007E000A04201D1002415E0254CA04201D10124F2
:1007F00010E0244CA04201D102240BE0224CA04284
:1008000002D1032406E02DE0204CA04201D10424B3
:1008100000E00524AC403C43C6F80848D8F8004046
:100820009C434D68ED0300D51C43C8F80040104DB3
:100830002D1D2C689C434E68B60300D51C432C60CC
:10084000D9F800409C434D68ED0200D51C43C9F81F
:100850000040DAF800409C434D68AD0200D51C43CF
:10086000CAF80040521C102AFFF455AFBDE8F88FBB
:10087000003C01404438024000300140000002408A
:100880000004024000080240000C02400010024038
:100890000069084201D00120704700207047002AFB
:1008A00001D0816170470904816170470148006887
:1008B000704700003801002070B50446002C04D0B9
:1008C00094F83500002510B106E0012070BD84F8D1
:1008D0003450204600F0E0F9022084F8350020680A
:1008E000016821F00101016000F0B8FB3149B0FB63
:1008F000F1F122685160304A6368934201D8491C83
:1009000007E04FF4967359434FF47A73B1FBF3F158
:10091000491C23681962616891420BD84900B0FBF9
:10092000F1F2C2F30B02042A01D2042019E0B0FB59
:10093000F1F016E0A26882B301EBC10303EB0113EF
:10094000B0FBF3F343F480431B052CD06AB301EBF7
:10095000C10202EB0111B0FBF1F040F4804040F421
:1009600000402168C861D4E9070108432168086094
:10097000D4E90310084321688860D4E905010843DD
:100980002168C8602068016841F001010160A56329
:10099000012084F83500002070BDFFE701EB410322
:1009A000B0FBF3F3D0E70120DBE701EB4101B0FB43
:1009B000F1F0D4E740420F00A08601002DE9F84F86
:1009C0000446DDF828B0884615461E4694F83500E2
:1009D000012802D00220BDE8F88F55B14EB142F295
:1009E000107301226B49204600F01CFE18B1022052
:1009F000F1E70120EFE794F8340001281AD04FF016
:100A0000010984F834902068016821F400610160D4
:100A1000222084F835000027A7635A464146204625
:100A200000F046FD60B1A06B042805D084F8347056
:100A30000320D0E70220CEE784F834700120CAE713
:100A4000012E11D0022E1DD02068016841F4806172
:100A500001602068416980690090DFF83CA1DFF8FF
:100A600038810AF13C0A8DE02068016821F4806138
:100A700001602068416981690091016841F4007159
:100A80000160EAE72068016821F480610160206864
:100A9000016841F40061016020684169806900904B
:100AA000DBE7032E55D8012E0AD0022E17D05B4665
:100AB00000224146204600F0B5FD38B303208AE706
:100AC0005B4600225146204600F0ACFD08B10320F1
:100AD00081E72068006905F8010B002652E05B46BB
:100AE00000224146204600F09DFD08B1032072E738
:100AF0002068016841F40071016020680069287075
:100B0000206800696870AD1C00263BE02068016821
:100B100021F4806101602068006905F8010B761EF0
:100B2000B6B25B4600224146204600F07BFD08B18C
:100B3000032050E72068016841F4007101602068DB
:100B400000692870206800696870AD1CB61EB6B2D6
:100B500018E05B4600225146204600F063FD08B1D4
:100B6000032038E72068006905F8010B761EB6B24D
:100B700020684169C943490704D4006905F8010B9D
:100B8000761EB6B2002E8CD184F8359084F834707D
:100B9000002020E702001000040001002DE9F84FBA
:100BA0000446DDF828A0894616461D4694F835000F
:100BB000012802D00220BDE8F88F56B14DB142F2B3
:100BC000107301223249204600F02CFD18B102209A
:100BD000F1E70120EFE794F8340001281AD04FF034
:100BE000010884F834802068016821F40061016004
:100BF000122084F835000027A76352464946204654
:100C000000F0CAFC60B1A06B042805D084F83470F1
:100C10000320D0E70220CEE784F834700120CAE731
:100C20002068416980690090DFF8689019E05346B8
:100C300000224946204600F0F5FC08B10320BAE73F
:100C4000216816F8010B08616D1EADB2206841697C
:100C5000C943490705D425B116F8011B01616D1E72
:100C6000ADB2002DE3D1534600224946204600F0A4
:100C7000D9FC08B103209EE72068016841F40071A7
:100C8000016084F8358084F83470002093E7000018
:100C9000020010008000010000B587B000680E4916
:100CA000884217D14FF44070029012200390012027
:100CB0000490002005900420069002A90748FFF741
:100CC0001BFD0748016841F400110160006800F451
:100CD0000010019007B000BD005400400004024025
:100CE0004038024002480168491C0160704700001A
:100CF0003801002010B50B48016841F40071016013
:100D0000016841F480610160016841F48071016013
:100D1000032000F05BF80F2000F006F800F015F853
:100D2000002010BD003C024010B5044600F07CF9E4
:100D30004FF47A72B0FBF2F000F0A2FB00222146E1
:100D4000501E00F023F8002010BD10B5072000F061
:100D50003DF80022BDE810401146501E00F016B8C4
:100D600000F01F02012191404009800000F1E020C5
:100D7000C0F88011704700F01F0201219140400926
:100D8000800000F1E020C0F800117047F0B40D467B
:100D90000D4B1B68C3F30223C3F10704042C00D9D5
:100DA0000424191D072901D2002300E0DB1E0126BF
:100DB00006FA04F1491E294099409E40761E1640CD
:100DC0003143F0BC00F061BD0CED00E000F0070124
:100DD000054A10684FF6FF03184040EA0120034916
:100DE00008431060704700000CED00E00000FA05B9
:100DF0002DE9F04704460F46DFF824A2DAF8000098
:100E0000DFF8208200F00F00864907F0FF0941F269
:100E1000883608F10808B84274D28AF80090DAF8E7
:100E2000000000F00F00B84202D00120BDE8F087BA
:100E30002078800707D5D8F80000A26820F0F000DD
:100E40001043C8F800002078C00734D0606801283B
:100E500008D002280BD0032809D0096889070BD4D1
:100E60000120E3E70968890306D40120DEE7096869
:100E7000890101D40120D9E7D8F8001021F003013D
:100E80000143C8F80010FFF711FD0546606801280E
:100E90000BD0022817D003281ED02CE0FFF706FD48
:100EA000401BB04201D90320C0E7D8F80000C0F3CE
:100EB00081000128F2D197E0FFF7F8FC401BB04217
:100EC00001D90320B2E7D8F80000C0F3810002285E
:100ED000F2D189E00320A9E7D8F80000FFF7E6FC8B
:100EE000401BB042F8D9F5E7FFF7E0FC401BB042E9
:100EF00001D903209AE7D8F8000010F00C0FF3D1C5
:100F000072E0FFE72078800707D5D8F80000A268D4
:100F100020F0F0001043C8F800002078C00759D036
:100F20006068012808D002280BD0032809D009687E
:100F300089070BD4012079E70968890306D40120C9
:100F400074E70968890101D401206FE7D8F800101F
:100F500021F003010143C8F80010FFF7A7FC054684
:100F6000606801280BD0022817D003281ED02CE07F
:100F7000FFF79CFC401BB04201D9032056E7D8F88C
:100F80000000C0F381000128F2D123E0FFF78EFCBE
:100F9000401BB04201D9032048E7D8F80000C0F355
:100FA00081000228F2D115E003203FE7D8F80000C5
:100FB000FFF77CFC401BB042F8D9F5E7FFF776FC61
:100FC000401BB04201D9032030E7D8F8000010F0F0
:100FD0000C0FF3D18AF80090DAF8000000F00F004F
:100FE000B84201D0012021E72078400707D5D8F882
:100FF0000000E16820F4E0500843C8F800002078C1
:10100000000708D5D8F80000216920F4604040EAC4
:10101000C100C8F800000F20FFF786FE002005E79A
:10102000003C02400038024010B500F02DF808499D
:101030000968F02292FAA2F201F0F001B2FA82F20B
:10104000D140044A515CC8400349086010BD00000B
:1010500008380240BC3B00083401002010B5FFF7FF
:10106000E3FF074909684FF4E05292FAA2F201F453
:10107000E051B2FA82F2D140024A515CC84010BD40
:1010800008380240BC3B000830B51D48006810F02D
:101090000C011C481AD01C4C042916D0082915D163
:1010A000174A121F116801F03F0113685D0247F6ED
:1010B000C0730CD5B4FBF1F01168194093FAA3F397
:1010C000B3FA83F3D94048430BE0204630BDB0FB70
:1010D000F1F01168194093FAA3F3B3FA83F3D940FE
:1010E000484311684FF4403292FAA2F201F44031C1
:1010F000B2FA82F2D140491C4900B0FBF1F030BD98
:10110000083802400024F40040787D012DE9F84FB2
:101110000446DFF848932078D14DC0074FF0000611
:1011200041F288384DD0D9F80000C0F38100012881
:1011300009D0D9F80000C0F3810002280BD1281D86
:101140000068400207D5286880033AD5606848BB2C
:101150000120BDE8F88FDFF808A30AF1020A8AF837
:101160000060FFF7A3FB074606E0FFF79FFBC01BED
:10117000404501D90320ECE728688003F5D42079A5
:101180008AF80000606870B1FFF790FB074606E040
:10119000FFF78CFBC01B404501D90320D9E7286825
:1011A0008003F5D50DE0FFF781FB074606E0FFF76A
:1011B0007DFBC01B404501D90320CAE72868800396
:1011C000F5D42078A74F800754D5D9F800004FF008
:1011D000F80B10F00C0F0AD0D9F80000C0F3810012
:1011E000022818D19D48001F0068400213D42868C7
:1011F000800704D5E068012801D00120A9E728680C
:101200009BFAABF220F0F8012069B2FA82F290402A
:10121000014329602EE0E068E0B101203860FFF76B
:1012200045FB824607E0FFF741FBA0EB0A0064287C
:1012300001D903208DE728688007F4D528689BFA38
:10124000ABF220F0F8012069B2FA82F2904001433B
:1012500029600FE03E60FFF729FB824607E0FFF7B9
:1012600025FBA0EB0A00642801D9032071E7286858
:101270008007F4D4207800072AD5DFF8E0B17A4857
:1012800061690BF16C0B91B101210160FFF70EFB5D
:10129000824607E0FFF70AFBA0EB0A00642801D9A9
:1012A000032056E7DBF800008007F3D510E0066066
:1012B000FFF7FCFA824607E0FFF7F8FAA0EB0A0016
:1012C000642801D9032044E7DBF800008007F3D449
:1012D000207840075DD561483830016841F0805181
:1012E0000160006800F080500090DFF880B1DBF80A
:1012F000000040F48070CBF80000FFF7D7FA824678
:1013000007E0FFF7D3FAA0EB0A00642801D9032015
:101310001FE7DBF80000C005F3D5DFF840B10BF1A3
:10132000680B8BF80060FFF7C1FA824607E0FFF711
:10133000BDFAA0EB0A00404501D9032009E7DBF81C
:1013400000008007F3D4207A8BF80000A06880B1F9
:10135000FFF7ACFA824607E0FFF7A8FAA0EB0A0015
:10136000404501D90320F4E6DBF800008007F3D5FF
:101370000FE0FFF79BFA824607E0FFF797FAA0EB32
:101380000A00404501D90320E3E6DBF800008007AE
:10139000F3D4A069F0B3D9F80010C1F38101022998
:1013A00059D0022804D03E66FFF780FA04464DE08B
:1013B0003E66FFF77BFA064606E0FFF777FA801BEA
:1013C000642801D90320C4E628688001F5D4D4E953
:1013D0000701084347F6C07292FAA2F2616AB2FAB4
:1013E00082F29140A26A4FF0FF3303EB52024FF4B6
:1013F000403393FAA3F3B3FA83F39A4011430843BB
:101400004FF0706292FAA2F2E16AB2FA82F291406F
:10141000084300E01DE01149091F086001203866FB
:10142000FFF744FA044606E0FFF740FA001B642881
:1014300001D903208DE628688001F5D509E0FFF782
:1014400035FA001B642801D9032082E62868800150
:10145000F5D400207DE601207BE60000083802403C
:101460000038024000004742800E474200700040B2
:101470000248C169491CC16170470000000000209A
:1014800010B5401EB0F1807F01D3012010BD4FF098
:10149000E02460610F21601700F0F7F90020A061DF
:1014A00007202061002010BD10B5FFF7E1FF10BD3F
:1014B0002DE9F84304460D4617462068016841F4BB
:1014C000806101602068016841F4807101604FF023
:1014D00001183B4600224146204600F0A3F810B117
:1014E0000320BDE8F8832069DFF8A890B0F5804FAD
:1014F00012D0216805F44076F02040EAD610086149
:101500003A4609F10601204600F0E3F860B1A06B0D
:10151000042807D00320E4E72168E8B240F0010086
:10152000086127E00120DCE72168E8B208613A465B
:101530004946204600F0CDF830B1A06B042801D018
:101540000320CEE70120CCE7206841698169009142
:10155000016841F4807101603B460022414620460B
:1015600000F060F808B10320BBE72168F12040EAF1
:10157000D61008613A464946204600F0AAF830B134
:10158000A06B042801D00320ABE70120A9E70020CD
:10159000A7E700000200010070B504460D4616469C
:1015A0002068016841F480710160334600224FF0E9
:1015B0000111204600F036F808B1032070BD206903
:1015C000B0F5804F11D005F44070F02141EAD01001
:1015D0002168086132461249204600F07AF858B175
:1015E000A06B042806D0032070BD216805F0FE0022
:1015F000086104E0012070BD2168E8B20861084973
:101600003246891F204600F064F830B1A06B0428F0
:1016100001D0032070BD012070BD002070BD00000E
:10162000080001002DE9F05F04460E4693461D4672
:10163000FFF73CF907464FF000094FF0010AC6F3E7
:101640000748BBF1000F0FD02FE0681C0CD025B16C
:10165000FFF72CF9C01BA84206D984F835A084F8FE
:1016600034900320BDE8F09FB8F1010F07D0206847
:10167000806926EA00000004000C20D0E5E720681D
:10168000406926EA00000004000C18D0DDE7681C61
:101690000BD025B1FFF70AF9C01BA84205D984F881
:1016A00035A084F834900320DCE7B8F1010F08D0AE
:1016B0002068806926EA00000004000CE7D00020C2
:1016C000D0E72068406926EA00000004000CDED064
:1016D000F5E72DE9F04704460E461546FFF7E6F814
:1016E00007464FF000094FF0010AC6F3074824E00F
:1016F00020684069C043400511D42068016841F466
:101700000071016021686FF4806048610420A0636B
:1017100084F835A084F834900120BDE8F087681C77
:101720000BD025B1FFF7C2F8C01BA84205D984F839
:1017300035A084F834900320EFE7B8F1010F08D00A
:101740002068806926EA00000004000CD0D1002047
:10175000E3E72068406926EA00000004000CF6D0A8
:10176000C6E76421522000F0F5BA0000F0B587B05A
:101770003048016841F004010160016801F0040192
:101780000191016841F080010160016801F0800170
:101790000191016841F001010160016801F001015E
:1017A0000191016841F002010160006800F002004F
:1017B00001904FF4005002900024039404941E4EB4
:1017C00002A93046FEF798FF40F23330029001251F
:1017D000039504940594194F02A93846FEF78CFF2F
:1017E0000C20029002200390049405940720069098
:1017F00002A93846FEF780FFC020029003940494AB
:1018000002A93846FEF778FF40F271400290039536
:101810000494059402A90A48FEF76EFF8020029006
:1018200003950494059402A93046FEF765FF07B0BE
:10183000F0BD0000303802400008024000000240C5
:10184000000402400948084901600949416000213B
:101850008160C1604FF48042026141618161C16178
:101860000162FFF729B80000005400403C0100204D
:10187000801A060000F01F020121914040098000FB
:1018800000F1E020C0F8801270470907090E002817
:1018900006DA00F00F0000F1E02080F8141D704718
:1018A00000F1E02080F80014704700000248C16891
:1018B000491CC160704700000000002070B50E4C4C
:1018C000E06920624FF47A7509E0FEF7ABFEE0694B
:1018D000216A401AA84202D908A000F003F9FEF7D5
:1018E00099FE0028F1D0E069216A401AA84201D986
:1018F000012070BD002070BD000000202072622019
:10190000000000002DE9F041522000F0DDFDC4B2DE
:101910006749522000F0D6FB20B1BDE8F04165A038
:10192000FEF7C6BC522000F079FA054605EB8500AB
:1019300000014FF06408B0FBF8F05D4F5F4E39686E
:10194000884209DC032C07D23078800704D5601C5C
:10195000C1B2522000F08EFE05EB4510B0FBF8F14D
:101960003868814209DD012C07D93078800704D519
:10197000601EC1B2522000F07DFE504DB868243D7B
:1019800030B33068C10708D0E969E969E96920F036
:1019900001003060E86928623EE0522000F032FA2F
:1019A00010B1B86810280FD045A000F09BF8E86986
:1019B000296A401AB0F5487F2ED9306840F00100FE
:1019C0003060E869286227E03FA000F08BF8EEE77E
:1019D000306820F001003060E869286228693968C1
:1019E000C0F5803251436A8802FB0010020C6A8005
:1019F0002F4837A10A3801F0F1FA3078800707D56F
:101A00002B480A38012C14D0022C15D07E210170ED
:101A100027480A3800F066F8FEF7FCFD002833D1AD
:101A2000E8692862FFF74AFF48B1BDE8F041FEF7D8
:101A300053BE5F210170EBE73D210170E8E7B0780C
:101A4000401C40B2B0702449084003281ED03068C2
:101A500020F00200306096F90200032190FBF1F2C1
:101A600001FB1200F1780844C4B2032C01D9E41E32
:101A7000E4B22146522000F0FDFD00280CDA17A048
:101A8000FEF716FC02207070BDE8F081306840F06F
:101A9000020030600324ECE73078C0F3800152206C
:101AA00000F0B6F92046BDE8F041FEF7D5BD0000D4
:101AB0008C010020457220720000000024000020EC
:101AC000722D2D2D00000000462D2D2D0000000050
:101AD00072253364000000000300008045725570D9
:101AE00000000000014988617047000000000020EC
:101AF00010B5FFF7F7F8BDE81040FFF7D5BC0000C0
:101B000030B593B01A48016841F080510160006817
:101B100000F0805001901748016821F4404141F4E1
:101B200000410160006800F44040019002240294EA
:101B300001200590062006900894002509951020A4
:101B40000A904FF4A8700B9004200C9007200D9081
:101B500002A8FFF7DBFA05200E900F941095E00223
:101B60001190129502210EA8FFF742F913B030BD73
:101B700040380240007000401048016841F4700194
:101B800001600F48016841F0010101600C4A002129
:101B90000832116002680B4B1A400260031D0A4AAA
:101BA0001A60026822F48022026005480C3001604D
:101BB00002495806803908607047000088ED00E04F
:101BC00000380240FFFFF6FE103000247CB50E46C0
:101BD000144601900B4D642000902889012381B2A6
:101BE00001AA6869FEF7DAFF00280AD1642104FB24
:101BF00001F000902889A3B281B232466869FEF7ED
:101C0000DDFE7CBD1401002010B586B014468DF8B1
:101C1000080022460DF10900FEF7D8FA6420009072
:101C20000548641CA3B2018902AA89B24069FEF783
:101C3000B5FF06B010BD00001401002010B5042946
:101C400007D8C9060B0EC722BDE81040142100F0CA
:101C500015BCFFF72BFE6FF0010010BD38B50C4628
:101C60006A464F2100F034FB9DF80020C2F3C20207
:101C7000227038BD38B50D466A46502100F06AFB27
:101C8000002812D1094B5C8AD98A641CBDF8002057
:101C9000C2EBC202D202B2FBF4F29B8A044C34F8CB
:101CA00013305943B2FBF1F1296038BD80000020A8
:101CB000AC3A000838B505460C4621462846FFF7E1
:101CC000D9FF002808D16A464E21284600F000FBC3
:101CD0009DF800201209626038BDF8B505460E4631
:101CE0000121284600F05EF8044644B1FFF7DEFD0E
:101CF0001CE09DF80000042808D0FEF793FC69461C
:101D00002846FFF7ABFF0446002CF2D024B9314639
:101D10002846FFF7CFFF04460221284600F05DF871
:101D200005461DB1FFF7C2FD04B92C462046F8BD9B
:101D300010B521F04004072C00D9072444F04002DC
:101D40003F2100F007FD002801D101498C8210BD20
:101D50008000002010B5002902D0491E8CB200E09E
:101D60000C464FF4E8718C4201D90C4602E0FF2C7E
:101D700000D1641C2246402100F011FD002801D151
:101D800001494C8210BD00008000002040F6F61290
:101D9000914200D311460A22B1FBF2F1CAB23E21B0
:101DA00000F0D8BC032903D80A46382100F0D2BC81
:101DB0006FF00100704770B5044615460A463C2195
:101DC000204600F0C7FC002806D12A462046BDE880
:101DD00070403A2100F0BEBC70BD072903D80A4606
:101DE000152100F0B7BC6FF001007047044A82F87B
:101DF0009010002901D000F0F7BD002070470000CE
:101E0000800000200148407E7047000080000020D4
:101E10000148417600207047800000200348007E82
:101E20000349401E31F81000704700008000002078
:101E3000A63A000838B50C466421009113460146C5
:101E400022460548FEF7BAFD044614B1024800F0E8
:101E500037FD204638BD00003C01002038B50C4657
:101E6000642100911346014622460548FEF796FE7E
:101E7000044614B1024800F023FD204638BD00009E
:101E80003C0100207FB506462E4D55202881642157
:101E9000698100202874012028766982A882E8825E
:101EA000687685F89000304600F02EFE03AA2421C3
:101EB000304600F00DFA044614B1FFF7F7FC3EE09F
:101EC0009DF80C0085F8910001AA2621304600F00B
:101ED0001AFA044614B1FFF7E9FC30E00198000C4F
:101EE00001D119480190019828606A461E213046A8
:101EF00000F030FA044614B1FFF7D8FC1FE0BDF83B
:101F000000004FF47A714843C0096860304600F021
:101F10006BFD0546002D02DAFFF7C8FC0FE002AAB0
:101F20001621304600F0D4F9044614B1FFF7BEFC88
:101F300005E09DF80800012800D105B1012404B096
:101F4000204670BD80000020F803CE0070B5054625
:101F5000284600F061FA0446002C39DB04212846AB
:101F600000F038F8044654BBC8220A21284600F085
:101F700058F9044614B1FFF799FC29E0642128467A
:101F8000FFF7E8FE0446D4B9C8212846FFF7FEFE55
:101F90000446A4B900212846FFF7CAFE044674B9D6
:101FA000FF2200212846FFF706FF04463CB9042122
:101FB0002846FFF743FE044614B1FFF777FC07E01D
:101FC000284601F061F807212846FFF706FF04467E
:101FD000204670BD10B5042906D80B46F822BDE88E
:101FE0001040142100F04ABAFFF760FC6FF00100C6
:101FF00010BD38B50C466A464F2100F069F99DF8CE
:10200000002002F0C702227038BD00002DE9FC411B
:1020100006460D462946304600F042F8044624B1F3
:10202000FFF744FC2046BDE8FC8101AA662130464A
:1020300000F090F9044614B1FFF738FCF2E7BDF860
:10204000040068606A464D21304600F041F990B1C5
:10205000FFF72CFC2946304600F0AEFD0446002C6C
:10206000E0D10E4F787E80B12946304600F0DAFF8D
:1020700004462CB109E09DF800000009A860E9E7DA
:10208000686A10B1A860288C286097F89000002832
:10209000C8D02946304600F085FCC3E78000002008
:1020A00038B50C466A46622100F012F9002806D1C4
:1020B00003490A7E9DF8003012FB03F1216038BD10
:1020C00080000020F8B505460E460121284600F0A4
:1020D000B9F8044620000CD0FFF7E8FB20E0009898
:1020E00000F0070104290BD010F0C00F08D1FEF753
:1020F00099FA69462846FFF77CFF0446002CEED08B
:1021000024B931462846FFF781FF044601212846BD
:10211000FFF763FE05461DB1FFF7C8FB04B92C4667
:102120002046F8BD2DE9FC4180461D4805894789B8
:102130006A461C21404600F0CBF8044614B1FFF774
:10214000B5FB29E09DF80040404600F00BFD00285B
:1021500002DA4FF0FF341FE004EB4401C1EBC4117D
:10216000C0EBC10601AAB821404600F0CCF80446F5
:1021700014B1FFF79BFB0FE001980002019045436B
:102180004FF4FA7045437E43B5FBF6F082B222214C
:10219000404600F004FB04462046BDE8FC810000F8
:1021A00080000020002901D0012300E00023FE224E
:1021B0002D2100F063B92DE9F0410C4640F6F611EF
:1021C0008C4202D96FF0010514E00A2C00D20A24D7
:1021D0000A27B4FBF7F1CEB232461B2100F0BAFA5F
:1021E000054615B1FFF762FB04E0B4FBF7F0B0421F
:1021F00000D002252846BDE8F08110B504460A4605
:102200001C21204600F0A6FA002809D12046FFF73D
:1022100089FF002804D12046BDE8104000F0E4BB4F
:1022200010BD70B505460C461921284600F092FAFB
:10223000002806D122462846BDE870401A2100F049
:1022400089BA70BD10B5032908D80A46182100F0D4
:1022500081FA044624B1FFF729FB01E06FF0010485
:10226000204610BD2DE9F04781460E461746984698
:102270001648057EC5EB0520B04201DBB84202DA04
:102280006FF001041EE0B8F1000F05D001214846AF
:1022900000F07FF80446ACB997FBF5F0C2B296FBAC
:1022A000F5F0C1B24846FFF7BCFF04460CB1FFF79A
:1022B000FDFAB8F1000F05D00021484600F069F89A
:1022C00004B904462046BDE8F087000080000020E5
:1022D0007CB5064614466D46080A8DF800008DF858
:1022E0000110022229463046FFF7B8FD002809D127
:1022F000012229463046FFF79DFD002802D19DF8B6
:10230000001021707CBD7CB5064614466D46080A57
:102310008DF800008DF80110022229463046FFF7A3
:102320009DFD002815D1042229463046FFF782FD85
:1023300000280ED19DF803109DF800209DF8023072
:1023400041EA02619DF80120120442EA032211438E
:1023500021607CBD7CB5064614466D46080A8DF8A2
:1023600000008DF80110022229463046FFF776FD65
:1023700000280DD1022229463046FFF75BFD0028D8
:1023800006D19DF801109DF8002041EA022121802C
:102390007CBD002901D0012200E00022172100F0BD
:1023A000D9B913460A460121AFF3008010B50029C0
:1023B00001D0012902D1082A06D02AB1FFF776FA06
:1023C0006FF00104204610BD002469B1112103B152
:1023D000202444EA4202D2B200F0BCF90446002CA8
:1023E000F0D0FFF763FAEDE71021F0E70246002096
:1023F0004FF0804100E089089142FCD808E0431882
:10240000934203D8D21A01EB500000E0400889083B
:102410000029F4D170470000F8B506460024304684
:1024200000F070F90546002D02DAFFF73FFA21E0CF
:1024300001DDFFF73BFA6A464FF490713046FFF733
:1024400047FF04467CB90C499DF80000C8826A46E3
:102450003F213046FFF73CFF044624B99DF80010A9
:102460003046FFF765FC002C01DAFFF71FFA0CB9C4
:1024700005B12C462046F8BD800000202DE9FC4126
:10248000074615461E466C46080A8DF800008DF872
:102490000110022221463846FFF7E0FC002811D146
:1024A0000122A11C3846FFF7C5FC00280AD19DF87F
:1024B0000200284030438DF80200032221463846AE
:1024C000FFF7CCFCBDE8FC810148007E70470000AE
:1024D0008000002010B50446012240F2072120466A
:1024E00000F038F901224FF40271204600F032F971
:1024F00000229621204600F02DF9542297212046F3
:1025000000F028F90022E321204600F023F90422FC
:10251000E421204600F01EF90222E521204600F0C9
:1025200019F90122E621204600F014F90322E721DF
:10253000204600F00FF90222F521204600F00AF9AA
:102540000522D921204600F005F9204600F08EFB37
:1025500000229F21204600F0FDF82822A3212046DA
:1025600000F0F8F80022B721204600F0F3F8282206
:10257000BB21204600F0EEF80922B221204600F0EF
:10258000E9F80922CA21204600F0E4F801224FF4BC
:10259000CC71204600F0DEF817224FF4D8712046A7
:1025A00000F0D8F8002240F2AD11204600F0D2F839
:1025B0000522FF21204600F0CDF805224FF480715E
:1025C000204600F0C7F8052240F29911204600F09D
:1025D000C1F81B224FF4D371204600F0BBF83E2215
:1025E0004FF4D671204600F0B5F81F2240F2A71133
:1025F000204600F0AFF800223021204600F0AAF873
:1026000010221121204600F0A5F830224FF48571E8
:10261000204600F09FF846223F21204600F09AF81D
:10262000FF223121204600F095F863224021204608
:1026300000F090F801222E21204600F08BF8FF22B6
:102640002C21204600F086F809221B21204600F0AC
:1026500081F831223E21204600F07CF8242214210A
:10266000204600F077F832212046FFF7C6FD002013
:1026700010BD000070B505460C46002C3AD0032C66
:1026800038D81E49601E31F810209621284600F0E7
:1026900086F81B4E347696F9910090FBF4F0C2B2A6
:1026A0002421284600F056F830B91420B0FBF4F28B
:1026B0002121284600F04EF868B9317C59B1B08923
:1026C000317EB0FBF1F0FF2800D9FF20C2B22521F6
:1026D000284600F03FF828B9012C09D000212846EF
:1026E000FFF760FD002802D1012C00D0032070BD4F
:1026F0000121F4E76FF0010070BD0000A03A00086E
:102700008000002070B505462846FFF7E3FE04462A
:102710000CB1FFF7CBF854B90648017E2846FFF705
:10272000A9FF044600221621284600F013F820468F
:1027300070BD00008000002038B504466A461621AE
:102740002046FFF7C5FD9DF80010012901D00028A3
:10275000F4D038BD1CB56B460C0A8DF800408DF8DE
:1027600001108DF8022003221946FFF777FB1CBDEC
:102770001CB56B460C0A8DF800408DF80110110E47
:102780008DF80210110C8DF80310110A8DF8041049
:102790008DF8052006221946FFF760FB1CBD1CB50D
:1027A0006B460C0A8DF800408DF80110110A8DF867
:1027B00002108DF8032004221946FFF74FFB1CBDC1
:1027C000034AD369D169C91A8142FBDB7047000013
:1027D0000000002010B50C480C4C4068002809D0BF
:1027E0000620FEF7BDFA01202060BDE8104006205B
:1027F000FFF740B81720FEF7B3FA40202060BDE88D
:1028000010401720FFF736B814010020143C014097
:10281000034A5268002A01D000F038BB00F04ABADF
:102820001401002010B50A494968002905D0012883
:1028300001D0002404E0012402E0402805D0002457
:102840000CB100F0A5F8204610BD0124F8E7000007
:102850001401002010B50C4841680C48002909D02B
:10286000012101600620FFF705F8BDE810400620B1
:10287000FEF781BA402101601720FEF7FBFFBDE89B
:1028800010401720FEF777BA14010020143C0140D5
:102890007047000010B508484068002804D000F0D8
:1028A0004FFB38B1012010BDBDE810408021034826
:1028B000FDF7EEBF002010BD140100200000024013
:1028C00030B587B004462448016841F00201016038
:1028D000006800F0020000901F481030016841F4C9
:1028E00000110160006800F4001000904FF4407087
:1028F000029012200390002504950595042006906F
:1029000002A91648FDF7F8FE1548206015486060DA
:10291000A560E5604FF4804020616561A561E561D7
:1029200025622046FDF7C8FF0F4D6C61022201A908
:102930000020FFF74BF930B99DF8040018B99DF855
:102940000500162803D000F0F7F907B030BD0120CC
:10295000686000F0BBFAF8E730380240000402403B
:1029600000540040801A06001401002006494968FE
:10297000002903D00146002000F010BBC2B2202184
:102980000248FDF78CBF0000140100200000024047
:1029900002484168491C4160704700000000002067
:1029A000FFF70EBF10B50C46E1680C4A914211D2F8
:1029B00000F0B2F80A4A117E0A4B491E33F8111092
:1029C000B2F88C20824200DA1046884200DD0846C8
:1029D000E06101E00020E061002010BD1009050069
:1029E00080000020A63A00082DE9F04387B0814618
:1029F000002506AA2A214846FFF76AFC0446200063
:102A000002D0FEF753FF77E09DF8180010B90125BA
:102A1000282006909DF818004FF47A7110FB01F001
:102A2000C70902AA2D214846FFF752FC04462000A0
:102A300002D0FEF73BFF5FE003AA1C214846FFF7E8
:102A400047FC0446200002D0FEF730FF54E004AA01
:102A5000B8214846FFF757FC0446200002D0FEF795
:102A600025FF49E001AA2C214846FFF731FC044626
:102A7000200002D0FEF71AFF3EE09DF804004FF45C
:102A80007A51B1FBF0F0DFF87C80C8F88800D8F804
:102A90000460B74202D3C8F8847002E00020C8F88E
:102AA00084009DF80800800711D505AA2621484614
:102AB000FFF750FC0446200002D0FEF7F7FE1BE0B3
:102AC000BDF814004FF47A714843C10900E00021B9
:102AD000049802029DF80C00001FB2FBF0F0891B65
:102AE000814200DB08469DF804104843010948462E
:102AF00000F012F8A8F88C0004B92C4607B0204664
:102B0000BDE8F0838000002002495020C1F8800019
:102B100070470000800000201048D0F88420002971
:102B200019DD0F4890FBF1F0A0F5F270002801DCF0
:102B30000020704709498031B0F5005F0B68896853
:102B4000194403DA5043B0FBF1F002E0B0FBF1F0BE
:102B50005043FFF74BBC6FF00040704780000020EF
:102B600000688909F8B50746C8256A4640F2091188
:102B70003846FFF7ADFB4FF0FF3618B1FEF796FE73
:102B80003046F8BD9DF8000000F007046A464FF497
:102B900085713846FFF79CFB18B1FEF787FE30467B
:102BA000F8BD9DF800005E2100EB800001EB4000C5
:102BB000641C04FB0050F8BD2DE9FF4180460D4622
:102BC000002603960296019600966FF0004702AA2F
:102BD0006C214046FFF797FB0446200002D0FEF729
:102BE00065FE3FE00298B84200D9029601AA74211E
:102BF0004046FFF788FB0446200002D0FEF756FE51
:102C000030E003AA7C214046FFF77DFB044620000C
:102C100002D0FEF74BFE25E06A4680214046FFF7D2
:102C200072FB0446200002D0FEF740FE1AE0039833
:102C30006861009AAA61904200D902460AB94FF22F
:102C4000186202984FF47A714843B0FBF2F1019890
:102C50004FF47A7300EB400040005843B0FBF2F0B1
:102C60002961E86004B02046BDE8F08102490A68A5
:102C7000DA21FFF77DBD0000800000202DE9F04142
:102C800000240A4D0A4F0126285D012200F00F01A1
:102C900006FA01F1000989B207EB8020FDF7FFFD7C
:102CA000641C042CF0DBBDE8F0810000240100204E
:102CB000000002402DE9F04704460F4600252DE0B4
:102CC0001A49085C00F09AF860782E2803D1012098
:102CD00000F0BAF8641CDFF858800126DFF8549041
:102CE00018F80500002200F00F0106FA01F10009B2
:102CF00089B209EB8020FDF7D2FD3846FFF750FE80
:102D000018F80500012200F00F018E400009B1B251
:102D100009EB8020FDF7C3FD6D1C641C042D02DA55
:102D200020780028CCD1BDE8F0870000BC3A00082C
:102D30002401002000000240F0B587B02A48016855
:102D400041F004010160016801F004010191016892
:102D500041F080010160016801F08001019101688A
:102D600041F001010160016801F001010191016878
:102D700041F002010160006800F00200019040F2A1
:102D80003330029001250395002404940594174FD5
:102D900002A93846FDF7B0FC8026029603940494FD
:102DA00002A93846FDF7A8FC402002901048039085
:102DB000049402A93846FDF79FFC40F27940029046
:102DC00003950494059402A90A48FDF795FC029620
:102DD00003950494059402A90748FDF78DFCFFF7BD
:102DE0004DFF07B0F0BD0000303802400000024047
:102DF0000000111000040240000802402DE9F047D5
:102E000006460024DFF83880DFF83890012707FAFB
:102E100004F53846354085B1002218F8043003F037
:102E20000F01884081B2180909EB8020FDF737FDBA
:102E3000641C082CEBD3BDE8F0870122EDE700000D
:102E40002C0100200000024000280DD0002207487D
:102E50000121C07900F00F039940054B000989B2A8
:102E600003EB8020FDF71BBD0122F0E72C010020C1
:102E7000000002400448018841F4F0610180022210
:102E800001461220FEF7C0BE140100202DE9F041DA
:102E900004460F4600250C4E0EE0305C294600F03B
:102EA00067F860782E2800D1641C3846FFF778FD5B
:102EB000FFF7E0FF6D1C641C042D02DA2078002867
:102EC000EBD1BDE8F0810000BC3A000830B587B016
:102ED0001748016841F001010160016801F001013A
:102EE0000091016841F002010160006800F00200F9
:102EF00000904FF4866001900E4D029500240394DB
:102F000001A90D48FDF7F8FB0120019002950394FB
:102F100001A90A48FDF7F0FB4FF2FF70069002226C
:102F200006A91420FEF770FEFFF7A4FF07B030BD1E
:102F3000303802400000111000000240000402403E
:102F400008B5022269461020FEF740FE40B107484E
:102F5000C168491CC16000200090BDF8000008BD98
:102F6000BDF8000000F400600090F6E714010020B6
:102F700030B4094C228842F07F0242F4F062802390
:102F80008B409A4300F07F00824322802146022238
:102F900030BC1220FEF738BE1401002003280BD0ED
:102FA00002280CD001280DD04FF480500A4B1A880B
:102FB00059B102431A800AE04FF40040F6E74FF49B
:102FC0000050F3E74FF48040F0E782431A8002227A
:102FD00001491220FEF718BE140100200FB4084B5F
:102FE00010B504A902AA039800F0E2FA044602A967
:102FF000002000F07EFC204610BC5DF814FB0000B1
:10300000F338000802E008C8121F08C1002AFAD1EC
:1030100070477047002001E001C1121F002AFBD158
:10302000704700002DE9FE4381460C46DFF85480CE
:1030300098F8187002AA64214846FFF749F9054636
:10304000280002D0FEF732FC18E09DF808602089C5
:10305000E16880B2CDE9001020887E4381B2B2B22F
:103060004846236900F02EF8002802DA4FF0FF35B9
:1030700004E020846684D8F87C0060622846BDE8BD
:10308000FE8300008000002010B50D490022CA61B7
:103090004A668A66CA660A674A67A1F860208A6734
:1030A00000204FF6FF7301EB4004A38401EB800482
:1030B000A263401C0A28F6DB0A62002010BD000053
:1030C000800000202DE9FF4F91B09A464FF0000894
:1030D00001200F9000240021002500200B900026E5
:1030E0000A90099083468446F84F3B7EC3EB032940
:1030F0001F980C280AD00D280AD00E2806D00F28B9
:1031000006D04A450AD34FF0010808E0102106E036
:103110001021C82043431293012500E00125129895
:103120001090EA4B5868D3F8843000F54877079739
:10313000B42703FB07FE4FF49C77BEFBF7FE8644E3
:10314000CDF818E040F2523E03FB0EFEBEFBF7FE48
:103150008644CDF814E04FF4AF6E03FB0EF3B3FBDF
:10316000F7F3184404903C2A05D20798824502D20E
:1031700010244FF00108A52A05D20698824502D2F4
:1031800010244FF00108A52A05D2069896308245F2
:1031900001D201200B901E9843F69823984203D940
:1031A0004FF0010B4FF00108BAF14B0F02D24FF074
:1031B000010BD846C54FB86B90B1504508D2AAEB69
:1031C00000034FF0640C03FB0CF3B3FBF0FC07E0CF
:1031D000A0EB0A034FF0640C03FB0CF3B3FBF0FC11
:1031E000BCF1320F01D94FF0010BBBF1010F25D01B
:1031F0000920431E07EB430C07EB400EBCF824C02C
:10320000AEF824C007EB830C07EB8000DCF838C075
:10321000C0F838C098B20028EBD1012D21D04FF66C
:10322000FF70B884C7F838A0386A401C3862B2F51D
:10323000AF7F19D20598824519D21BE00023FB61AC
:1032400000204FF6FF7C07EB400EAEF824C007EBE2
:10325000800ECEF83830401C80B20A28F3D33B628F
:10326000DBE71298B884DDE70498824502D34FF07B
:1032700001080BE051B11F980C2802D01F980E28AE
:1032800000D10C464FF0010800200F9003AA4FF424
:10329000D6711198FFF71CF810B1FEF707FB42E05A
:1032A0009DF80C000E900DAA4FF486711198FFF74F
:1032B0002AF810B1FEF7FAFA35E00CAA4FF488713B
:1032C0001198FFF720F810B1FEF7F0FA2BE0BBF1F0
:1032D000010F1CD0B8F1010F02D10F98012816D0B0
:1032E0000E983E282DD00D98F8660C983867387FD8
:1032F000C0072BD03E2003909DF80C204FF4D671D0
:103300001198FFF727FA20B3FEF7D0FA0BE00E98DA
:103310003E280DD03E224FF4D6711198FFF71AFACD
:1033200030B1FEF7C3FA4FF0FF3015B0BDE8F08FB3
:103330000D9878660C99B966F86639670020F861CF
:103340000AE00D9878660C98B866D0E73C200390A8
:10335000D2E7F869401CF861B8F1010F05D0396F68
:10336000B86E884209D9411A08E0FC67102C02D1D6
:103370001FFA89F010901098D7E7002179670B9811
:103380004FF4617C30B16046FB6E7A6E9A4204D98C
:10339000D21A03E04FF4E160F6E79A1A824201D9AB
:1033A000131A00E000231044994201D3814202D94C
:1033B0000126102498E0F869012802D84FF005088A
:1033C00001E04FF003080520CDE900C01E2396223E
:1033D00051461E9800F0CFF80022002393469446F1
:1033E0000021089112E007EB410ABAF824A0AAF5DF
:1033F0007F4EBEF1FF0E07D0521C92B2534407EB32
:10340000810ADAF838A0D444491C89B20A2901D2C9
:10341000062AE8D322B1B3FBF2FBBCFBF2F1089120
:10342000002100238C4600221AE007EB420ABAF87A
:1034300024A0AAF57F4EBEF1FF0E0FD0491C89B221
:10344000AAEB0B0A0AFB0A3307EB820ADAF838E028
:10345000DDF820A0AEEB0A0A0AFB0ACC521C92B29D
:103460000A2A01D20629E0D3414506D3B3FBF1F283
:1034700093B2BCFBF1F292B201E000230022DFF82C
:1034800050C062452ED2414501D210242CE040F6B6
:10349000AC58424509D2A0F6A66CCCF1000C0CFB4E
:1034A00002FCBCFBF8F2024401E040F6A662D7F849
:1034B0007CC0BCF1000F00D19200B0EBC30F09D962
:1034C000062907D3012009900EE0000080000020AB
:1034D000905F0100934202D201200A9004E001268D
:1034E000102401E00126102445B1012E0DD00A98C8
:1034F000012816D00998012821D023E0B7F86000F0
:1035000000B3401EA7F860001CE0B7F86000801C04
:1035100080B2A7F86000042814D90420A7F860003E
:1035200010E0B7F8600068B11024012803D9401EEC
:10353000A7F8600006E00020A7F8600002E0002085
:10354000A7F86000F86F70B96CB1012000224FF647
:10355000FF7107EB4003998407EB80039A63401CDB
:1035600080B20A28F5D3FC67102C02D11FFA89F02B
:1035700010901098D9E670B5DDE90445002805D013
:1035800064267143B1FBF0F080B201E042F20F70AB
:10359000984201D3104670BDA84201D8204670BDA4
:1035A000401BA11A4843591BB0FBF1F0201A70BD13
:1035B0002DE9FF4F8BB088460546002606E02528FA
:1035C0000BD0DDE90D1290476D1C761C2878002881
:1035D000F5D10FB03046BDE8F08F0024A146A246D9
:1035E0000122AE4900E0044315F8013F203B02FAF6
:1035F00003F00842F7D128782A2810D06FF02F0264
:103600002878A0F13001092915D809EB890102EBCE
:10361000410144F0020400EB01096D1CF0E758F889
:10362000041B5FEA010903D544F40054C9F1000901
:1036300044F002046D1C28782E2817D115F8010FCC
:1036400044F004042A280ED06FF02F022878A0F14D
:10365000300109290AD80AEB8A0102EB410100EB8B
:10366000010A6D1CF2E758F804AB6D1C28786C2831
:103670000FD006DC4C2817D068280DD06A2814D14A
:1036800004E0742810D07A280FD10DE044F400141F
:103690000AE044F4801401E044F440146978814263
:1036A00002D104F580146D1C6D1C2878692865D042
:1036B00006DC00288DD0632827D0642806D15DE081
:1036C0006E2808D073282AD0752877D0DDE90D122E
:1036D0009047761CE0E0C4F30250022809D003288A
:1036E0000DD0D8F8001004280DD00E6008F10408A1
:1036F000D2E0D8F80010F217C1E90062F6E7D8F876
:1037000000100E80F2E70E70F0E718F8041B8DF839
:10371000001000208DF80100EB46012003E058F86E
:1037200004BB4FF0FF3061074FF0000701D40AE0FF
:103730007F1C57450DDA8742FADB1BF8071000297A
:10374000F6D106E07F1C8742FCDB1BF8071000293E
:10375000F8D1DDE90D23A9EB07008146214600F0F1
:10376000B1F83044C61904E0DDE90D121BF8010B75
:1037700090477F1EF8D22146484688E058F8040B4F
:10378000C4F302514FF00A0B032900D100B20429FF
:1037900000D140B2002802DA40422D2102E021058A
:1037A00005D52B218DF82410012104E006E0E10766
:1037B00010D02021F6E708AF089113E058F8040B69
:1037C000C4F302514FF00A0B032900D180B204293F
:1037D00000D1C0B20021EEE75946FCF715FD3031AB
:1037E00007F8011D0028F7D1ADEB070000F1200B11
:1037F000600702D524F4803401E04FF0010ADA4575
:1038000002DDAAEB0B0000E00020824600EB0B017A
:1038100008980144A9EB01000A90E00306D4DDE911
:103820000D2321460A9800F04DF806444FF0000998
:1038300008E009A911F80900DDE90D12904709F126
:103840000109761C08998945F3DBE0030CD5DDE915
:103850000D2321460A9800F035F8064404E0DDE91E
:103860000D1230209047761CBAF10001AAF1010A2E
:10387000F5DC05E0DDE90D1217F8010B9047761C29
:10388000BBF10001ABF1010BF4DC0A982146DDE944
:103890000D2300F005F806446D1C97E60928010089
:1038A0002DE9F041044600251E461746880404D43D
:1038B00005E039462020B0476D1C641EF9D5284626
:1038C000BDE8F0812DE9F041044600251E469046F2
:1038D000C80301D5302700E02027880404D505E07F
:1038E00041463846B0476D1C641EF9D52846BDE8F0
:1038F000F0810A68531C0B6010707047704700001D
:103900004FF0FF34604D4FF0010885F80180FDF75E
:10391000F1F9FEF7F5F80720FDF758FA00221146F5
:103920002046FDF733FAFDF721FFFDF78BFFFEF789
:10393000AFFF5648FEF7C4FFFDF776FB4FF47A71F0
:10394000B0FBF1F0401E0027B0F1807F08D24FF0AD
:10395000E02148614E4AF02010708F610720086115
:103960000020FFF703F80A20FEF72AFF0120FEF7E8
:10397000FDFF0120FEF724FF5220FEF7DDFE52205E
:10398000FEF780FA5220FEF79FFDE8705220FEF706
:1039900039FA296860F38201296000215220FEF77C
:1039A00025FA05206870384E243EFEF773FFA042CA
:1039B00014D004465220FEF7C9FA81463F21522016
:1039C000FEF71BFCB9F1000F03D032A0FCF770FC2E
:1039D00004E064B185F80180FDF7C3FE687808282B
:1039E00038D2DFE800F01215182A371D20230122F3
:1039F00008215220FEF7D5FC07215220FEF7EDF9F1
:103A0000AF70E878FCF728FEE8E7FDF77BFF38E0C9
:103A1000FCF7B8FD35E0F06930620420687030E0F2
:103A2000FCF75AFE2DE0FCF7CDFC2AE0FEF732FF52
:103A300008B1002425E0012423E0F069316A401A2E
:103A4000B0F5487F03D36F70F069306219E0FCF77E
:103A5000E9FD16E0FCF7E6FDF069316A401A41F233
:103A6000883188420DD3BFF34F8F09491739086851
:103A70000A4A00F4E06010430860BFF34F8F00BFB4
:103A8000FDE7FFF73BFF90E7240000203C0100200A
:103A900023ED00E04572496E000000000400FA05C5
:103AA000FD007F005400B900720144020014000AB6
:103AB00000058002AB014001000100280000000069
:103AC00000000000000000000000000000000000F6
:103AD00000000000000000000000000000000000E6
:103AE0000000000000007F00004000003F065B4F28
:103AF000666D7D077F6F00000048005309777C39B1
:103B00000079716F76061E763815543F6773506DD5
:103B1000783E1C2A766E5B39000F0108005C7C58E9
:103B20005E7B716F74101E741815545C7367506D52
:103B3000783E1C2A766E5B00000049000000000001
:103B40000000000000000000000000000000000075
:103B50000000000000000000000000000000000065
:103B60000000000000000000000000000000000055
:103B70000000000000000000000000000000000045
:103B80000000000000000000000000000000000035
:103B90000000000000000000000000000000000025
:103BA0000000000000000000000000000000000015
:103BB0000000000000000000000000000000000005
:103BC00001020304010203040607080946696C7434
:103BD0006572656420627920706F73742070726FF3
:103BE00063657373696E672028574146290000009A
:103BF0004E6F742075736564203130004E6F7420F1
:103C000075736564203900004D617820436F6E76CE
:103C1000657267656E6365004E6F205461726765FB
:103C2000742049676E6F7265000000004561726C18
:103C30007920436F6E76657267656E6365204573A4
:103C400074696D617465000052616E67696E67200A
:103C500066696C746572696E672028574146292031
:103C60006F6E2D676F696E67000000005643534505
:103C70004C205761746368646F670000504C4C318E
:103C8000204C6F636B000000504C4C32204C6F6333
:103C90006B0000004D6178205369676E616C2054A1
:103CA0006F204E6F69736520526174696F00000068
:103CB0004E6F204572726F720000000056435345EC
:103CC0004C205761746368646F6720546573740097
:103CD000564353454C20436F6E74696E7569747911
:103CE00020546573740000005261772052616E6742
:103CF000696E6720416C676F20556E646572666CF3
:103D00006F7700005261772052616E67696E67209D
:103D1000416C676F204F766572666C6F77000000AC
:103D200044617461206E6F74207265616479000073
:103D3000503D0008000000203C010000580200082F
:103D4000B43D00083C0100207C0400001430000851
:103D50000110032299D913B03C1B08D0041ABC04EB
:103D60001A6C041A7C041A88041A2C041A08041AFF
:103D7000180413FC3B1B08F0041A940C1AE80413F3
:103D8000043D2B08EC2019081ACC181A480C1A20EC
:103D90000C811255726412643A01020176A978729C
:103DA000844B1004161009162709081A141513530A
:043DB00024F40000F7
:040000050800019559
:00000001FF
