:020000040800F2
:10000000E8070020A9010008B1010008B3010008B9
:10001000B5010008B7010008B901000800000000A0
:10002000000000000000000000000000BB0100080C
:10003000BD01000800000000BF0100081117000802
:10004000C3010008C3010008C3010008C301000880
:10005000C3010008C3010008C3010008C301000870
:10006000C3010008C3010008C3010008C301000860
:10007000C3010008C3010008C3010008C301000850
:10008000C3010008C3010008C3010008000000000C
:10009000000000000000000000000000C301000894
:1000A000C3010008C3010008C3010008C301000820
:1000B000C3010008C3010008C3010008C301000810
:1000C000C3010008C3010008C3010008C301000800
:1000D000C3010008C3010008C301000800000000BC
:1000E000C3010008C3010008C301000800000000AC
:1000F000000000000000000000000000C301000834
:1001000000000000C3010008C3010008C30100088B
:1001100000000000000000000000000000000000DF
:10012000C3010008C3010008C3010008C30100089F
:10013000C3010008000000000000000000000000F3
:10014000000000000000000000000000C3010008E3
:10015000C3010008C3010008C3010008C30100086F
:10016000C3010008C30100080000000000000000F7
:10017000000000000000000000000000000000007F
:1001800000000000C30100080000000000000000A3
:10019000C3010008DFF80CD000F052F80048004717
:1001A000FD310008E8070020064880470648004760
:1001B000FEE7FEE7FEE7FEE7FEE7FEE7FEE7FEE717
:1001C000FEE7FEE7B51700089501000840EA0103C5
:1001D0009B0703D009E008C9121F08C0042AFAD2FD
:1001E00003E011F8013B00F8013B521EF9D27047C1
:1001F000421E12F8013F002BFBD111F8013B02F81F
:10020000013B002BF9D1704710B5044604E00B7890
:1002100000F8013B03B1491C521EF8D2204610BD24
:10022000421C10F8011B0029FBD1801A70470346BD
:1002300011F8012B00F8012B002AF9D1184670475C
:10024000064C074D06E0E06840F0010394E8070023
:1002500098471034AC42F6D3FFF7A0FF08370008E8
:100260002837000830B58C1810F8012B12F00F0356
:1002700001D110F8013B120906D110F8012B03E05F
:1002800010F8015B01F8015B5B1EF9D101E001F898
:10029000013B521EFBD1A142E6D3002030BD00003D
:1002A00010B54FF40051034800F074F9044620469D
:1002B00010BD00000008024000B587B000BF0C4828
:1002C000006840F004000A4908600846006800F031
:1002D0000400019000BF00BF4FF4005002900020C6
:1002E0000390049002A9034800F06CF807B000BD29
:1002F000303802400008024010B50C48006850B188
:1003000009220A4801680A48FFF77EFF00200849D1
:100310004872064908600121054801F0E7FF0548D9
:100320000068401C0349086010BD000068020020FE
:10033000DC0300206C0200202DE9F0470546FA2678
:100340000024A1462846FFF76BFF074600F030F96E
:1003500080461CE0281901F0D5F9FFF7CDFF00F029
:1003600027F9A0EB0800B04210D900F021F980462F
:10037000201DB84209DB484609F10109042800DACA
:1003800005E04FF00009002400E0641C00BFFFF707
:1003900087FF0028DED101E0FFF7AEFFFFF780FF07
:1003A0000028F9D0BDE8F08731B5002400F000F94D
:1003B000044600BF00F0FCF8001B00998842F9D306
:1003C00038BD0000F8B503460A4600250024002089
:1003D0000021CBE0012606FA01F5166806EA0504BD
:1003E000AC4271D15668022E02D05668122E13D13B
:1003F000CF0803F1200656F827004E07F70E0F2608
:10040000BE40B0434F07FF0E1669BE403043CF08D1
:1004100003F1200646F8270018684F000326BE4067
:10042000B043167906F003064F00BE403043186013
:100430005668012E08D05668022E05D05668112E37
:1004400002D05668122E13D198684F000326BE4082
:10045000B0434F00D668BE403043986058680126CC
:100460008E40B0431679C6F300168E403043586074
:10047000D8684F000326BE40B0434F009668BE4088
:100480003043D860566806F08056B6F1805F6CD174
:1004900000BF384E366846F48046364F3E603E46D2
:1004A000366806F48046009600BF00BF324E8F08C3
:1004B00056F827008E07370F0F26BE40B0432F4E49
:1004C000B34202D1002615E04FE02D4EB34201D1D8
:1004D00001260FE02B4EB34201D102260AE02A4E3C
:1004E000B34201D1032605E0284EB34201D10426D0
:1004F00000E005268F073F0FBE4030431E4E8F0899
:1005000046F82700224E3068A043566806F480362D
:10051000B6F5803F00D120431D4E3060361D306857
:10052000A043566806F40036B6F5003F00D12043DC
:10053000174E361D3060361D3068A043566806F4ED
:100540008016B6F5801F00D12043114E083630606A
:10055000361D3068A043566806F40016B6F5001F35
:1005600000D120430A4E0C363060491C1029FFF49C
:1005700031AFF8BD44380240083801400000024065
:100580000004024000080240000C0240001002403B
:10059000003C0140024613690B400BB1012000E012
:1005A000002070470AB1816101E00B04836170474C
:1005B00001480068704700009C03002070B50446A5
:1005C000002600250CB9012070BD94F8350028B92B
:1005D000002084F83400204600F028FA022084F835
:1005E00035002068006820F001002168086000F0F4
:1005F00049FC05463748B5FBF0F6206846603649A9
:100600006068884201D8701C07E04FF49670704310
:100610004FF47A71B0FBF1F0401C216808622E495A
:10062000606888420ED860684000B5FBF0F0C0F307
:100630000B00042801D204202DE060684000B5FBC7
:10064000F0F028E0A06828B9606800EB4000B5FB36
:10065000F0F008E0606800EBC00101EB0010B5FBB2
:10066000F0F040F48040C0F30B0008B9012012E024
:10067000A06828B9606800EB4000B5FBF0F008E026
:10068000606800EBC00101EB0010B5FBF0F040F436
:10069000804040F400402168C861D4E90701084364
:1006A00021680860D4E90310084321688860D4E910
:1006B000050108432168C8602068006840F0010017
:1006C000216808600020A063012084F83500002024
:1006D0007AE7000040420F00A08601002DE9F843B0
:1006E0000446884615461E46089F94F835000128A2
:1006F0007AD105B116B90120BDE8F88342F2107332
:1007000001228149204600F01DFF08B10220F3E7D5
:1007100000BF94F83400012801D10220ECE7012049
:1007200084F8340000BF2068006820F4006021686D
:100730000860222084F835000020A0633A46414634
:10074000204600F03DFE80B1A06B042806D100BF1A
:10075000002084F8340000BF0120CDE700BF002056
:1007600084F8340000BF0320C6E7012E15D12068AD
:10077000006820F480602168086000BF206840693C
:10078000009020688069009000BF00BF206800686A
:1007900040F400702168086025E0022E14D1206822
:1007A000006820F48060216808602068006840F4D8
:1007B00000602168086000BF2068406900902068E0
:1007C0008069009000BF0EE02068006840F48060FF
:1007D0002168086000BF2068406900902068806937
:1007E000009000BF00BF80E08BE0032E63DC012E91
:1007F0000FD13B4600224549204600F0A3FE08B138
:10080000032079E72068006905F8010B701E86B2A5
:100810006BE0022E1CD13B4600223C493C3920466D
:1008200000F090FE08B1032066E72068006840F4FD
:100830000070216808602068006905F8010B701ECF
:1008400086B22068006905F8010B701E86B24CE084
:100850003B4600222D493C39204600F073FE08B18A
:10086000032049E72068006820F480602168086060
:100870002068006905F8010B701E86B23B46002215
:1008800022493C39204600F05DFE08B1032033E7E1
:100890002068006840F400702168086020680069E2
:1008A00005F8010B701E86B22068006905F8010B7F
:1008B000701E86B219E03B4600221449204600F023
:1008C00041FE08B1032017E72068006905F8010B15
:1008D000701E86B220684069C0F3800028B120688D
:1008E000006905F8010B701E86B2002E3FF77DAF40
:1008F000012084F8350000BF002084F8340000BFD8
:10090000FAE60220F8E600000200100040000100B4
:100910002DE9F8430446884615461E46089F94F87C
:10092000350001287BD105B116B90120BDE8F88357
:1009300042F2107301223B49204600F003FE08B149
:100940000220F3E700BF94F83400012801D102200F
:10095000ECE7012084F8340000BF2068006820F430
:10096000006021680860122084F835000020A06330
:100970003A464146204600F09FFD80B1A06B042816
:1009800006D100BF002084F8340000BF0120CDE76D
:1009900000BF002084F8340000BF0320C6E700BF7A
:1009A00020684069009020688069009000BF00BF07
:1009B0001AE03B4600221C49204600F0C3FD08B166
:1009C0000320B3E715F8010B21680861701E86B299
:1009D00020684069C0F3800030B12EB115F8010BDA
:1009E00021680861701E86B2002EE2DC3B460022C0
:1009F0000D49204600F0A6FD08B1032096E72068C7
:100A0000006840F4007021680860012084F8350017
:100A100000BF002084F8340000BF87E7FFE7022012
:100A200084E70000020010008000010010B586B0CD
:100A300004461149206888421BD100BF0F48006856
:100A400040F400100D4908600846006800F40010EA
:100A5000009000BF00BF4FF4407001901220029040
:100A60000020039004900420059001A90448FFF79A
:100A7000A9FC06B010BD0000005400404038024000
:100A80000004024002480068401C014908607047A9
:100A90009C03002010B50D48006840F400700B491D
:100AA00008600846006840F48060086008460068F6
:100AB00040F480700860032000F05CF80F2000F024
:100AC00007F800F017F8002010BD0000003C0240BD
:100AD00070B5044600F0BAF94FF47A71B0FBF1F545
:100AE000284600F042FC00222146501E00F003F888
:100AF000002070BD70472DE9F05F80460D46164618
:100B0000002700F0E3FD074639462A46334601F048
:100B10000700C0F1070ABAF1040F02D94FF0040A26
:100B200001E0C0F1070AD14600F1040ABAF1070F4B
:100B300002D24FF0000A01E0A0F1030AD4464FF0C0
:100B4000010A0AFA09FAAAF1010A0AEA020A0AFAE9
:100B50000CFA4FF0010B0BFA0CFBABF1010B0BEA9B
:100B6000030B4AEA0B042146404600F0B7FDBDE8FE
:100B7000F09F000000BF00F00702064B19684FF617
:100B8000FF031940044B0B4343EA0221014B196058
:100B900000BF70470CED00E00000FA0570B5044698
:100BA0000E460025A748006800F00F00B0426FD243
:100BB000A4490E700846006800F00F00B04201D052
:100BC000012070BD207800F00200022807D19E4865
:100BD000006820F0F000A16808439B490860207875
:100BE00000F0010000283ED06068012807D1964837
:100BF00008380068C0F34040B8B90120E1E76068F8
:100C0000022802D06068032807D18F48083800689E
:100C1000C0F3406048B90120D3E78B48083800682A
:100C2000C0F3400008B90120CBE78748006820F0F6
:100C300003006168084384490860FFF7B9FC054672
:100C40006068012810D108E0FFF7B2FC401B41F2B8
:100C50008831884201D90320B3E77B48006800F05F
:100C60000C000428F0D1CDE06068022811D108E022
:100C7000FFF79EFC401B41F28831884201D90320D6
:100C80009FE77148006800F00C000828F0D1B9E037
:100C900024E06068032810D108E0FFF789FC401BBE
:100CA00041F28831884201D903208AE7664800680A
:100CB00000F00C000328F0D1A4E008E0FFF778FC76
:100CC000401B41F28831884201D9032079E75E4810
:100CD000006800F00C000028F0D193E0207800F0CC
:100CE0000200022807D15848006820F0F000A168EF
:100CF000084355490860207800F00100002877D0AB
:100D00006068012807D1504808380068C0F34040A7
:100D1000B8B9012055E76068022802D0606803284E
:100D200007D1494808380068C0F3406048B901203D
:100D300047E7454808380068C0F3400008B901207B
:100D40003FE74148006820F00300616808433E49DE
:100D50000860FFF72DFC05466068012810D108E007
:100D6000FFF726FC401B41F28831884201D903205D
:100D700027E73548006800F00C000428F0D137E080
:100D80006068022810D108E0FFF712FC401B41F216
:100D90008831884201D9032013E72B48006800F00E
:100DA0000C000828F0D123E06068032810D108E087
:100DB000FFF7FEFB401B41F28831884201D9032036
:100DC000FFE62148006800F00C000328F0D10FE096
:100DD00008E0FFF7EDFB401B41F28831884201D962
:100DE0000320EEE61848006800F00C000028F0D15F
:100DF00014490E700846006800F00F00B04201D0A0
:100E00000120DEE6207800F00400042807D10E4817
:100E1000006820F4E050E16808430B49086020783E
:100E200000F00800082808D10748006820F4604056
:100E3000216940EAC100044908600F20FFF748FE1D
:100E40000020BEE6003C02400838024010B500F029
:100E50002FF80949096801F0F001F02292FAA2F294
:100E6000B2FA82F2D140054A515CC8400449086098
:100E70000846006810BD000008380240DC36000853
:100E80009803002010B5FFF7E1FF0749096801F456
:100E9000E0514FF4E05292FAA2F2B2FA82F2D1405B
:100EA000024A515CC84010BD08380240DC360008D8
:100EB00070B50021002200230020274C246804F094
:100EC0000C0424B1042C04D0082C41D103E02348A5
:100ED00040E023483EE0204C241F246804F03F01FA
:100EE0001D4C241F246804F4800484B11C4CB4FB02
:100EF000F1F5194C241F246847F6C076344096FA61
:100F0000A6F6B6FA86F6F44005FB04F20FE0134CA1
:100F1000B4FBF1F5104C241F246847F6C07634402A
:100F200096FAA6F6B6FA86F6F44005FB04F20A4CE9
:100F3000241F246804F440344FF4403595FAA5F595
:100F4000B5FA85F5EC40641C6300B2FBF3F001E0F8
:100F5000024800BF00BF70BD083802400024F40002
:100F600040787D0138B504460025207800F0010066
:100F7000002866D0F648006800F00C0004280DD068
:100F8000F348006800F00C00082813D1F048001F57
:100F9000006800F48000B0F5800F0BD1EC480838F1
:100FA0000068C0F3404000284BD06068002848D15A
:100FB000012038BD0020E649891F0870FFF7F8FAC4
:100FC000054608E0FFF7F4FA401B41F288318842F9
:100FD00001D90320EDE7DE4808380068C0F340403F
:100FE0000028EFD12079DA49891F08706068A0B124
:100FF000FFF7DEFA054608E0FFF7DAFA401B41F298
:101000008831884201D90320D3E7D14808380068E5
:10101000C0F340400028EFD013E0FFF7C9FA0546BF
:1010200008E0FFF7C5FA401B41F28831884201D938
:101030000320BEE7C64808380068C0F340400028D7
:10104000EFD1207800F00200022869D1C048006882
:1010500000F00C0058B1BE48006800F00C000828F1
:1010600021D1BB48001F006800F48000D8B9B848FF
:1010700008380068C0F3400020B1E068012801D0C2
:10108000012096E7B2480838006820F0F800F822FE
:1010900092FAA2F2B2FA82F2216991400843AC4975
:1010A000083908603CE0E06828B30120A9490860DD
:1010B000FFF77EFA054606E0FFF77AFA401B642840
:1010C00001D9032075E7A24808380068C0F3400042
:1010D0000028F1D09E480838006820F0F800F82277
:1010E00092FAA2F2B2FA82F2216991400843984939
:1010F0000839086014E0002096490860FFF758FAA4
:10110000054606E0FFF754FA401B642801D9032086
:101110004FE78F4808380068C0F340000028F1D13D
:10112000207800F0080008282CD16069A8B10120BF
:1011300089490860FFF73CFA054606E0FFF738FAF0
:10114000401B642801D9032033E781486C300068D4
:10115000C0F340000028F1D014E000207E49086070
:10116000FFF726FA054606E0FFF722FA401B64283F
:1011700001D903201DE776486C300068C0F34000B9
:101180000028F1D1207800F0040004286DD100BFC0
:101190006F483830006840F080506D493831086041
:1011A0000846006800F08050009000BF00BF6B4808
:1011B000006840F4807069490860FFF7F9F9054656
:1011C00006E0FFF7F5F9401B642801D90320F0E69B
:1011D0006248006800F480700028F2D000205C496A
:1011E00068310870FFF7E4F9054608E0FFF7E0F919
:1011F000401B41F28831884201D90320D9E6544886
:1012000068300068C0F340000028EFD1207A5049D0
:1012100068310870A068A0B1FFF7CAF9054608E078
:10122000FFF7C6F9401B41F28831884201D90320FB
:10123000BFE6474868300068C0F340000028EFD0A0
:1012400013E0FFF7B5F9054608E0FFF7B1F9401BD9
:1012500041F28831884201D90320AAE63C4868302F
:101260000068C0F340000028EFD1A069F0B338480F
:10127000006800F00C00082872D0A069022850D144
:10128000002034490866FFF793F9054606E0FFF7AA
:101290008FF9401B642801D903208AE62C480838BE
:1012A0000068C0F340600028F1D1D4E90701084389
:1012B00047F6C07292FAA2F2B2FA82F2616A9140E3
:1012C00008430122A16AC2EB51014FF4403292FA65
:1012D000A2F2B2FA82F2914008434FF0706292FAA1
:1012E000A2F2B2FA82F2E16A914000E03AE00843E9
:1012F0001749091F0860012016490866FFF758F9C9
:10130000054606E0FFF754F9401B642801D9032085
:101310004FE60F4808380068C0F340600028F1D05D
:1013200020E000200B490866FFF742F9054606E079
:10133000FFF73EF9401B642801D9032039E6044831
:1013400008380068C0F340600028F1D10AE007E0E7
:101350000838024000004742800E474200700040BB
:10136000012026E6002024E6704770B50446254695
:10137000681EB0F1807F01D301200FE0681E4FF09E
:10138000E02148610F214FF0FF3000F0A7F9002065
:101390004FF0E021886107200861002070BD10B582
:1013A000FFF7E2FF10BD0000044621460348FEF7A8
:1013B0001FFF02E00148FEF7BFFFFBE776020020B7
:1013C000F8B504460D4616462068006840F4806073
:1013D000216808602068006840F480702168086017
:1013E000334600224FF00111204600F0ABF808B15F
:1013F0000320F8BD2069B0F5804F05D1E8B240F078
:1014000001002168086144E005F44070F02141EAE0
:10141000E0102168086132462649204600F001F9B3
:1014200030B1A06B042801D10120E2E70320E0E7FE
:10143000E8B22168086132461E49891F204600F043
:10144000F0F830B1A06B042801D10120D1E70320CE
:10145000CFE700BF20684069009020688069009055
:1014600000BF00BF2068006840F4807021680860F9
:10147000334600224FF00111204600F063F808B116
:101480000320B6E705F44070F12141EAE01021683D
:10149000086132460749891F204600F0C2F830B182
:1014A000A06B042801D10120A3E70320A1E70020BD
:1014B0009FE700000800010070B504460D4616467F
:1014C0002068006840F4807021680860334600227C
:1014D0004FF00111204600F035F808B1032070BD2F
:1014E0002069B0F5804F04D105F0FE002168086145
:1014F00016E005F44070F02141EAE010216808612F
:1015000032460F49204600F08CF830B1A06B042819
:1015100001D10120E3E70320E1E7E8B22168086197
:1015200032460749891F204600F07BF830B1A06B96
:10153000042801D10120D2E70320D0E70020CEE724
:10154000080001002DE9F04105460C4617461E46ED
:101550004FF00008FFF72CF8804687BB13E0701CA3
:1015600088B12EB1FFF724F8A0EB0800B0420AD9E9
:10157000012085F8350000BF002085F8340000BF49
:101580000320BDE8F081C4F3074001280AD1286890
:101590004069A1B20840A1B2884201D101200BE00C
:1015A000002009E028688069A1B20840A1B2884201
:1015B00001D1012000E000200028D0D02FE0FFE77B
:1015C00012E0701C80B12EB1FEF7F2FFA0EB080014
:1015D000B04209D9012085F8350000BF002085F808
:1015E000340000BF0320CCE7C4F3074001280AD130
:1015F00028684069A1B20840A1B2884201D1012007
:101600000BE0002009E028688069A1B20840A1B27F
:10161000884201D1012000E000200028D1D1002023
:10162000AFE72DE9F04104460D4616460027FEF7C8
:10163000BFFF07462DE020684069C0F38020B0B1AD
:101640002068006840F40070216808606FF48060D2
:10165000216848610420A063012084F8350000BFA0
:10166000002084F8340000BF0120BDE8F081701C28
:1016700078B126B1FEF79CFFC01BB04209D901200A
:1016800084F8350000BF002084F8340000BF032038
:10169000EBE7C5F3074001280AD120684069A9B2E9
:1016A0000840A9B2884201D101200BE0002009E0E6
:1016B00020688069A9B20840A9B2884201D10120FE
:1016C00000E000200028B6D00020CEE702480068E5
:1016D000C0F30220704700000CED00E010B50028B8
:1016E00007DA0A07140E054A00F00F031B1FD45433
:1016F00003E00A07130E024A135410BD18ED00E070
:1017000000E400E001490860704700006802002022
:1017100010B5FFF7B7F9FFF742FE10BD00B593B063
:1017200000BF2248006840F0805020490860084609
:10173000006800F08050019000BF00BF00BF1C484F
:10174000006820F4404040F4004019490860084611
:10175000006800F44040019000BF00BF02200290EA
:101760000120059006200690022008900021099192
:1017700010210A914FF4A8710B9104210C910721BB
:101780000D9102A8FFF7EEFB05200E9002200F90AE
:10179000002010904FF480501190002012900221F0
:1017A0000EA8FFF7FBF913B000BD0000403802405F
:1017B000007000401448006840F47000124908604E
:1017C0001248006840F001001049086000200F49ED
:1017D000083108600D4800680D4908400B49086051
:1017E0000C48091D0860081F006820F48020091FAC
:1017F0000860002005490C3108604FF00060024984
:10180000803908607047000088ED00E00038024031
:10181000FFFFF6FE103000242DE9FC4106460F467E
:101820001546F0B2019000BF642000900F48008878
:1018300081B2012301AA0E480068FFF769F8044647
:1018400004B10EE0642105FB01F0ABB20090074843
:10185000008881B23A4606480068FEF73FFF04461A
:1018600000BF00BF2046BDE8FC81000084030020CB
:101870007C030020F0B585B004460E461546E0B264
:101880008DF804002A4631460DF10500FEF79EFC56
:1018900064200090681C83B20548008881B201AAC8
:1018A00004480068FFF734F80746384605B0F0BD35
:1018B000840300207C03002070B506460C46042CEF
:1018C00008DCE006030EC7221421304600F063FB5B
:1018D000054601E06FF00105284670BD2DE9F04195
:1018E00006460C4624F04004072C00DD072444F093
:1018F00040073A463F21304600F0B0FC054605B9A6
:10190000B4822846BDE8F0812DE9F04107460D4636
:10191000012D02DB681E84B200E02C46B4F5E87F9E
:1019200002DD4FF4E87403E0FF2C01D1601C84B2A7
:1019300022464021384600F0BDFC064606B97C82AE
:101940003046BDE8F0812DE9F04106460C4640F6F0
:10195000F610844200DB04460A2094FBF0F0C7B284
:101960003A463E21304600F079FC05462846BDE85F
:10197000F0812DE9F04106460C46174622463C21EF
:10198000304600F06BFC05462DB93A463A21304608
:1019900000F064FC05462846BDE8F08170B50646B7
:1019A0000C46072C06DC22461521304600F056FC7A
:1019B000054601E06FF00105284670BD70B506468A
:1019C0000C4686F8904024B1304600F057FD05469D
:1019D00000E00025284670BDF8B504460D461646C1
:1019E0006420009094F8941033462A460648FEF787
:1019F00075FE074617B1044800F08CFC17B14FF094
:101A0000FF30F8BD0020FCE7A0030020F8B5044635
:101A10000D4616466420009094F8941033462A46EA
:101A20000648FEF775FF074617B1044800F072FC40
:101A300017B14FF0FF30F8BD0020FCE7A0030020F5
:101A40002DE9FF410446552020816420608100215A
:101A5000217401202076642060820120A082E0822F
:101A6000607684F89000204600F08DFD00BF03AA48
:101A70002421204600F0CFF9054605B138E09DF954
:101A80000C0084F8910001AA2621204600F0DFF91D
:101A9000054605B12CE001986FF30F0008B917480F
:101AA0000190019820606A461E21204600F0F4F95A
:101AB000054605B11CE0BDF800004FF47A714843BB
:101AC000C7096760204600F0D9FC0646002E00DA00
:101AD0000EE002AA1621204600F09DF9054605B148
:101AE00006E09DF80800012800D106B1012500BFDD
:101AF00000BF284604B0BDE8F0810000F803CE0026
:101B000070B5054600BF284600F00FFA0446002CC9
:101B100000DA3BE00421284600F03BF8044604B11B
:101B200034E0C8220A21284600F046F9044604B1F0
:101B30002CE064212846FFF7E7FE044604B125E0C7
:101B4000C8212846FFF7FFFE044604B11EE000212D
:101B50002846FFF7C3FE044604B117E0FF22002128
:101B60002846FFF706FF044604B10FE0042128468B
:101B7000FFF7A2FE044604B108E0284600F0FFFF8C
:101B800007212846FFF70AFF044600BF00BF204692
:101B900070BD70B506460C46042C07DC2346F822BF
:101BA0001421304600F0F7F9054601E06FF0010519
:101BB000284670BDF8B505460C466A464F212846B2
:101BC00000F029F906469DF8000000F0C7002070DB
:101BD0003046F8BD7CB506460C46002505B13DE013
:101BE0002146304600F061F80546002D34D101AAA7
:101BF0006621304600F050F9054665BBBDF804008B
:101C000060606A464D21304600F005F9054625B969
:101C10009DF800000011A06000E000BF21463046A2
:101C200000F022FD054605B118E0707E58B121464E
:101C3000304600F072FF05462DB9606A18B1606A3F
:101C4000A060208C206096F8900030B1214630468C
:101C500000F0EAFB01E000E000BF00BF28467CBDC9
:101C6000F8B506460D4669463046FFF7A3FF044621
:101C7000C4B9009800F00700042803D00098C0F30E
:101C8000811060B129463046FFF7A4FF044654B9DD
:101C900001213046FFF782FE044624B103E0122002
:101CA000A86000E000BF2046F8BDF8B504460D4628
:101CB0006A466221204600F0AEF806462EB9277E1D
:101CC0009DF8000017FB00F028603046F8BD2DE9B4
:101CD000FF5F06464FF47A70039040100290B6F80A
:101CE00008A0B6F80AB000BF6A461C21304600F0D2
:101CF00092F8044604B12DE09DF80090304600F0C3
:101D00007BFC0546002D02DA4FF0FF3422E009EBA0
:101D10004900C0EBC910C5EBC00701AAB821304685
:101D200000F095F8044604B114E001980002019017
:101D30004FF4FA710AFB01F00199484307FB0BF1DC
:101D4000B0FBF1F81FFA88F22221304600F0B2FA17
:101D5000044600BF00BF204604B0BDE8F09F2DE957
:101D6000F04107460D460DB1012400E00024234652
:101D7000FE222D21384600F00EF906463046BDE819
:101D8000F08170B506460D46002400BF2A461C218E
:101D9000304600F063FA044604B10AE03046FFF72B
:101DA00096FF044604B104E0304600F067FB0446A9
:101DB00000BF00BF204670BD2DE9F04106460C462D
:101DC00017463A461921304600F048FA05462DB923
:101DD00022461A21304600F041FA05462846BDE861
:101DE000F08170B506460D46032D07DC2A46182102
:101DF000304600F033FA044614B101E06FF00104FC
:101E0000204670BD70B5044601212046FFF7E9FF6A
:101E10000546284670BD2DE9FC4180460D46174613
:101E20006C46281220706570022221464046FFF75A
:101E3000EDFD064646B9012221464046FFF7CCFD9E
:101E400006460EB9207838703046BDE8FC812DE991
:101E5000FC4180460D4617466C462812207065707E
:101E6000022221464046FFF7D1FD06468EB90422E4
:101E700021464046FFF7B0FD064656B920780006D9
:101E8000617840EA0140A17840EA0120E178084306
:101E900038603046BDE8FC812DE9FC4180460D46A6
:101EA00017466C4628122070657002222146404673
:101EB000FFF7ACFD06465EB9022221464046FFF719
:101EC0008BFD064626B96078217840EA01203880EB
:101ED0003046BDE8FC812DE9F04106460C46274618
:101EE00004EBD770C0F3470240F21221304600F0F5
:101EF000B5F9054605B100BF2846BDE8F0810246A8
:101F000000204FF0804100E089089142FCD809E0B0
:101F10004318934204D84318D21A01EB500000E052
:101F2000400889080029F3D17047F8B50646002516
:101F3000307E012800D100BF304600F077F904461A
:101F4000002C00DA25E0002C00DD00BF00BF6A464F
:101F50004FF490713046FFF75EFF054605B110E083
:101F60009DF80000F0826A463F213046FFF753FF9C
:101F7000054605B105E09DF800103046FFF7AEFCC0
:101F800000BF00BF002D00DA00BF0DB904B1254627
:101F900000BF2846F8BD2DE9FC4781460D4617468F
:101FA00098466C46281220706570022221464846E9
:101FB000FFF72CFD06468EB90122A11C4846FFF70B
:101FC0000BFD064656B9A078384040EA0800A070DC
:101FD000032221464846FFF719FD06463046BDE874
:101FE000FC8710B50446012240F20721204600F08C
:101FF00035F901224FF40271204600F02FF900223A
:102000009621204600F02AF954229721204600F01C
:1020100025F90022E321204600F020F90422E421E2
:10202000204600F01BF90222E521204600F016F9B7
:102030000122E621204600F011F90322E721204683
:1020400000F00CF90222F521204600F007F90522E4
:10205000D921204600F002F9204600F05DFB002265
:102060009F21204600F0FAF82822A321204600F004
:10207000F5F80022B721204600F0F0F82822BB2115
:10208000204600F0EBF80922B221204600F0E6F8E5
:102090000922CA21204600F0E1F801224FF4CC7158
:1020A000204600F0DBF817224FF4D871204600F0EC
:1020B000D5F8002240F2AD11204600F0CFF80522FD
:1020C000FF21204600F0CAF805224FF48071204617
:1020D00000F0C4F8052240F29911204600F0BEF845
:1020E0001B224FF4D371204600F0B8F83E224FF483
:1020F000D671204600F0B2F81F2240F2A711204608
:1021000000F0ACF800223021204600F0A7F81022A1
:102110001121204600F0A2F830224FF485712046AC
:1021200000F09CF846223F21204600F097F8FF225D
:102130003121204600F092F863224021204600F031
:102140008DF801222E21204600F088F8FF222C2154
:10215000204600F083F809221B21204600F07EF87B
:1021600031223E21204600F079F824221421204615
:1021700000F074F832212046FFF703FE002010BD66
:102180002DE9F04705460C46012C47DB032C45D8CA
:10219000601E254931F8108042469621284600F0FD
:1021A00089F806462C7695F9910090FBF4F04FFAE9
:1021B00080F909F0FF022421284600F04FF8064676
:1021C00056B9142090FBF4F000F0FF0A524621218A
:1021D000284600F043F806467EB9287C68B1AF89EE
:1021E000287E97FBF0F087B2FF2F00DDFF27FAB2C1
:1021F0002521284600F032F806464EB9012C01D1BF
:10220000012000E0002001462846FFF7A8FD064611
:1022100036B900BF012C03D0032601E06FF00106A0
:102220003046BDE8F0870000EC36000870B5054682
:1022300000BF2846FFF7D5FE044604B100E000BF0A
:1022400000BF4CB9297E2846FFF79AFF04460022BA
:102250001621284600F002F8204670BD2DE9FC4109
:1022600007460D4616466C46281220706570A6700B
:10227000032221463846FFF7C9FB80464046BDE8A9
:10228000FC812DE9FC4107460E4615466C4630128E
:1022900020706670280EA070280CE070280A20714B
:1022A0006571062221463846FFF7B0FB804640465E
:1022B000BDE8FC812DE9FC4107460D4616466C46FB
:1022C0002812207065703012A070E670042221463A
:1022D0003846FFF79BFB80464046BDE8FC8110B5C1
:1022E00004462046FEF760F810BD000070B50446B5
:1022F0000D460648006820B92946204600F034FA09
:1023000003E02946204600F047FB70BD780300201B
:102310007047000030B587B0044600BF2B48006806
:1023200040F00200294908600846006800F00200F9
:10233000009000BF00BF00BF24481030006840F488
:1023400000102249103108600846006800F40010AF
:10235000009000BF00BF4FF4407002901220039025
:102360000020049005900420069002A91848FEF76A
:1023700029F818482060184860600021A160E160D9
:102380004FF48041216100216161A161E16121621D
:102390002046FEF713F911480460022201A900202B
:1023A000FFF73AFA054665B99DF8040048B99DF86B
:1023B0000500162805D101200949086000F00EFB30
:1023C00001E000F017FA07B030BD000030380240DD
:1023D0000004024000540040801A06007C030020E4
:1023E000780300200148006870470000780300204F
:1023F00070B506460C460848006848B1002C07DB5B
:10240000042C05DA3146204600F050FB002501E09F
:102410004FF0FF35284670BD7803002010B5044604
:102420002046FFF75CFF10BD2DE9F04705460E463C
:10243000D6F80C800F48804516D24146284600F059
:10244000A7F8044695F81890A9F101000A4931F857
:1024500010708C20405BA04201DA8C20445BBC42AF
:1024600000DD3C46F46101E00020F0610020BDE8A1
:10247000F087000010090500F23600082DE9F04F42
:1024800087B005464FF0000B00BF06AA2A21284658
:10249000FFF7C1FC044604B16EE09DF8180018B9BE
:1024A0004FF0010B282006909DF818004FF47A7128
:1024B00010FB01F04FEAD01802AA2D212846FFF7A1
:1024C000AAFC044604B157E003AA1C212846FFF7E2
:1024D000A2FC044604B14FE004AAB8212846FFF745
:1024E000B6FC044604B147E001AA2C212846FFF7B8
:1024F00092FC044604B13FE09DF804004FF47A5189
:1025000091FBF0F1882041516E68B04502D3C5F8C7
:10251000848002E00021842041519DF8080000F0F1
:10252000020070B105AA26212846FFF7B5FC044633
:1025300004B121E0BDF814004FF47A714843C70993
:1025400000E00027049801029DF80C00001FB1FB79
:10255000F0F9B81B484501DBA7EB06099DF804001C
:1025600009FB00F04FEA101A5146284600F010F817
:1025700081B28C20415300BF00BF04B95C462046A5
:1025800007B0BDE8F08F5021C0F880107047000000
:102590002DE9F04705460F46D5F880A0882050F871
:1025A0000580842050F80590002F1DDD114890FB18
:1025B000F7F0A0F5F274002C01DC002616E0B4F56B
:1025C000005F06DA04FB09F008EB0A01B0FBF1F446
:1025D00005E008EB0A00B4FBF0F000FB09F420462C
:1025E000FFF78DFC064601E06FF000463046BDE87F
:1025F000F0870000006889092DE9F14F82B04FF0A3
:1026000018094FF0460A4FF0C80B072001906A46A0
:1026100040F209110298FFF7FEFB8046B8F1000F67
:1026200003D04FF0FF30BDE8FE8F9DF80000019908
:1026300000EA01046A464FF485710298FFF7EBFB4C
:102640008046B8F1000F02D04FF0FF30EBE79DF865
:10265000005009EB0A0005EB850100EB4106601C08
:1026600000FB06B73846DEE72DE9FF5F81460D46E1
:1026700000200390002780460290019000906FF0A8
:10268000004A4FF0060B002600BF02AA6C21484604
:10269000FFF7DDFB044604B139E00298504501D94B
:1026A0000020029001AA74214846FFF7D0FB04469F
:1026B00004B12CE003AA7C214846FFF7C8FB04467E
:1026C00004B124E06A4680214846FFF7C0FB044677
:1026D00004B11CE0039868610098A861009E00990D
:1026E0000398884200D9039E0EB94FF218664FF442
:1026F0007A7102984843B0FBF6F7019800FB0BF0A3
:102700004843B0FBF6F82F61C5F80C8000BF00BF4E
:10271000204604B0BDE8F09F70B504460026266848
:102720003246DA212046FFF7ACFD0546284670BD4B
:1027300010B5002410E00A4A125D02F00F030122D6
:102740009A4091B2064A125D1211064B03EB8220A9
:102750000122FDF727FF641C042CECDB10BD0000F8
:102760008C030020000002402DE9F04106460F4690
:102770000024354630E029781B4A505C00F0BAF856
:1027800068782E2803D1012000F0DCF86D1C174A70
:10279000125D02F00F0301229A4091B2134A125DBA
:1027A0001211134B03EB82200022FDF7FBFE38468B
:1027B000FFF734FE0D4A125D02F00F0301229A402A
:1027C00091B20A4A125D1211094B03EB82200122D9
:1027D000FDF7E8FE641C6D1C042C02DA2878002842
:1027E000C9D1BDE8F0810000DC3500088C03002071
:1027F0000000024000B587B000BF3948006840F0D3
:102800000400374908600846006800F004000190A1
:1028100000BF00BF00BF0846006840F080000860AD
:102820000846006800F08000019000BF00BF00BFB4
:102830000846006840F0010008600846006800F0A3
:102840000100019000BF00BF00BF0846006840F0D3
:10285000020008600846006800F00200019000BF16
:1028600000BF40F23330029001200390002004901A
:10287000059002A91B48FDF7A5FD802002900020CD
:102880000390049002A91748FDF79CFD4020029098
:10289000154803900020049002A91248FDF792FD0C
:1028A00040F271400290029840F00800029001202E
:1028B000039000200490059002A90C48FDF782FDCA
:1028C000802002900120039000200490059002A92E
:1028D0000748FDF777FDFFF72BFF07B000BD0000AD
:1028E0003038024000000240000011100004024095
:1028F000000802402DE9F0410546002419E00120BE
:10290000A04000EA05070FB9012000E000200646BC
:102910000A4A125D02F00F0301229A4091B2074A5F
:10292000125D1211064B03EB82203246FDF73AFE90
:10293000641C082CE3D3BDE8F08100009003002064
:102940000000024070B504460CB9012000E00020F0
:102950000546084AD27902F00F0301229A4091B24B
:10296000044AD2791211044B03EB82202A46FDF768
:1029700019FE70BD900300200000024010B505480C
:10298000008840F4F0600349088002221220FEF71C
:1029900071FF10BD800300202DE9F04106460F466F
:1029A0000025344610E021780B4A505C294600F09F
:1029B0005BF860782E2800D1641C3846FFF72EFDA6
:1029C000FFF7DCFF6D1C641C042D02DA2078002860
:1029D000E9D1BDE8F0810000DC35000800B587B022
:1029E00000BF1D48006840F001001B490860084610
:1029F000006800F00100009000BF00BF00BF084663
:102A0000006840F0020008600846006800F002001C
:102A1000009000BF00BF4FF4866001900F48029005
:102A20000020039001A90E48FDF7CCFC0120019085
:102A30000A4802900020039001A90A48FDF7C2FC51
:102A40004FF2FF700690022206A91420FEF712FF33
:102A5000FFF794FF07B000BD3038024000001110AE
:102A6000000002400004024070B504460D460E48C6
:102A7000008840F07F000C4908800846008840F438
:102A8000F06008808020A8400988814306480180C2
:102A900004F07F0100888843034908800222122045
:102AA000FEF7E8FE70BD00008003002070B504460C
:102AB0000D46032C02D14FF4004009E0022C01D155
:102AC000200305E0012C01D1A00301E04FF4805068
:102AD00006462DB10848008830430749088004E0C5
:102AE00005480088B04304490880022202491220A8
:102AF000FEF7C0FE70BD00008003002002E008C8A1
:102B0000121F08C1002AFAD170477047002001E067
:102B100001C1121F002AFBD170472DE9FE43064672
:102B20000C464FF0000896F8189000BF02AA6421E6
:102B30003046FFF770F9074607B11CE09DF80880A2
:102B4000208980B2E168CDE9001008FB09F082B26B
:102B5000208881B23046236900F030F80546002D08
:102B600002DA4FF0FF3706E0258408FB09F06084A5
:102B7000F16F616200BF00BF3846BDE8FE830146C9
:102B80000020C86100234B668B66CB660B674B67E2
:102B9000A1F860308B6700220AE04FF6FF7301F165
:102BA000240020F812300023143040F82230521C48
:102BB0000A2AF2DB00230B62002070472DE9FF4F49
:102BC000A5B0044690461E4600BF00202390012079
:102BD00022904FF0000A002021901D901C901B9025
:102BE0001A9019901890179016900027159014902D
:102BF00013901290119010900F904FF4E160069096
:102C00004FF496700390207EC0EB00200290339822
:102C10000C2806D00D280AD00E2803D00F2811D179
:102C200006E000BF1020219000201D9015E000BF9D
:102C300010202190207EC82110FB01F02690012059
:102C40001D900AE00298804504D300201D900120C9
:102C5000239001E001201D9000BF00BF2698249022
:102C600060680490842000590B90049800F5487027
:102C70000A90B4210B9848434FF49C71B0FBF1F1DA
:102C800004980844099040F252310B9848434FF49D
:102C90009C71B0FBF1F10498084408904FF4AF61C7
:102CA0000B9848434FF49C71B0FBF1F10498084431
:102CB0000790B8F13C0F06DA0A98864203D24FF02B
:102CC000100A01202390B8F1A50F06DA0998864270
:102CD00003D24FF0100A01202390B8F1A50F05DAB6
:102CE00009989630864201D201201C9043F6982123
:102CF0003298884202D90120189023904B2E02D29C
:102D0000012018902390A06BA0B1A06BB04208D214
:102D1000A06B301A64214843A16BB0FBF1F017900F
:102D20000AE0A06B801B64214843A16BB0FBF1F06B
:102D3000179001E0002017901798322801D9012040
:102D400018901898012814D10020E06100250BE0AC
:102D50004FF6FF7104F1240020F815100021143003
:102D600040F82510681C85B20A2DF1DB0021216294
:102D700012E009250EE0691E04F1240030F811105C
:102D800020F81510691E143050F8211040F8251055
:102D9000681E85B2002DEEDC1D98012802D1269810
:102DA000A08402E04FF6FF71A184A663206A401C54
:102DB0002062B8F5AF7F02DA0898864208D3B8F5EA
:102DC000AF7F02DB0798864202D3012023900DE0FB
:102DD000219858B133980C2802D033980E2801D18D
:102DE000DDF884A0012023900020229005AA4FF452
:102DF000D6712046FFF70FF88146B9F1000F00D0D9
:102E0000CEE19DF8140020901FAA4FF48671204651
:102E1000FFF71DF88146B9F1000F00D0C0E11EAAEE
:102E20004FF488712046FFF712F88146B9F1000F80
:102E300000D0B5E11898012805D0239801281BD1AE
:102E40002298012818D120983E280AD03E224FF41B
:102E5000D6712046FFF702FA8146B9F1000F00D083
:102E60009EE11F9961661E99A1661F99E1661E99F0
:102E700021670020E06123E020983E2804D11F99BB
:102E800061661E99A16603E01F99E1661E9921679C
:102E9000207F00F0010010B93C20059001E03E20A9
:102EA00005909DF814204FF4D6712046FFF7D6F90F
:102EB0008146B9F1000F00D072E1E069401CE06189
:102EC000239801280BD1C4F87CA0BAF1100F02D1CD
:102ED000029880B22490249829B0BDE8F08FA16EAA
:102EE000206F814204D9A16E206FA1EB000B01E09D
:102EF0004FF0000BC4F874B01C9818B94FF4E1609F
:102F0000069002E04FF461700690616EE06E8142BF
:102F100004D9616EE06E081A0E9003E0E16E606EF7
:102F2000081A0E9006990E98884204D906990E98B0
:102F3000401A0D9001E000200D9006990E9808446B
:102F40000C900D98834502D30C98834504D9012039
:102F50001B904FF0100ACBE0E069012802D8052051
:102F6000169001E00320169005204FF461711E2396
:102F70009622CDE900103146329800F017F90390FF
:102F8000002700201590149013901290119010902B
:102F9000002519E004F1240030F815004FF6FF7108
:102FA00088420FD0781C87B204F1240030F8151045
:102FB00015980844159004F1380050F8251012981F
:102FC00008441290681C85B20A2D01DA062FE1DB55
:102FD000002F07DD1598B0FBF7F014901298B0FBA6
:102FE000F7F01190002700201590129000252BE09B
:102FF00004F1240030F815004FF6FF71884221D00B
:10300000781C87B204F1240030F815101498091ABE
:1030100004F1240030F815201498121A159801FBB9
:103020000200159004F1380050F825101198091A83
:1030300004F1380050F825201198121A129801FB5B
:1030400002001290681C85B20A2D01DA062FCFDB30
:10305000169887420ADB1598B0FBF7F080B2139000
:103060001298B0FBF7F080B2109002E000201390AD
:1030700010904D491098884236D21698874202DA4D
:103080004FF0100A34E040F6AC51109888420DD24F
:1030900040F6A6610398081A1099484340F6AC51CF
:1030A000B0FBF1F1039808440F9002E040F6A660EF
:1030B0000F90E06F10B90F9880000F90039913984C
:1030C000B1EBC00F04D9062F02DB012019900FE0ED
:1030D0000F991398884202D201201A9008E001202B
:1030E0001B904FF0100A03E001201B904FF0100AD4
:1030F0001D9848B9B4F86000002832DDB4F86000CB
:10310000401EA4F860002CE01B9801280CD1B4F8F4
:103110006000801CA4F86000B4F86000042820DD82
:103120000421A4F860101CE01A98012813D1B4F807
:103130006000002815DD4FF0100AB4F86000012887
:1031400005DDB4F86000401EA4F8600009E000212D
:10315000A4F8601005E01998012802D10021A4F814
:103160006010E06F90B9BAF1000F0FD001250BE0AD
:103170004FF6FF7104F1240020F8151000211430DF
:1031800040F82510681C85B20A2DF1DBC4F87CA03C
:10319000BAF1100F02D1029880B2249024989BE6D5
:1031A0004FF0FF3098E60000905F01002DE9F041FC
:1031B00004460F46DDE9065644B14FF0640C07FBA8
:1031C0000CFCBCFBF4FC1FFA8CF101E042F20F7125
:1031D000994201D310460FE0B14201D828460BE0D6
:1031E000A1EB060CA5EB02080CFB08FCA3EB060800
:1031F000BCFBF8FCA5EB0C00BDE8F081B0B0FDF71E
:1032000049FCFEF78BFA0720FDF7B4FC00221146BB
:10321000501EFDF770FCFDF74FF8FFF779F8C9482D
:10322000FFF778F8FDF712FE4FF47A71B0FBF1F674
:10323000701EB0F1807F00D31DE0701E4FF0E021C2
:10324000486148170F21002809DA0A074FEA126C73
:10325000BD4A00F00F031B1F02F803C003E00A077A
:10326000130EBA4A135400BF00204FF0E0218861CA
:103270000720086100BFFFF7B5F810B9B4A0FEF74A
:1032800093F84FF00408002404E021460020FFF7E3
:10329000AFF8641C4445F8DB00BF0027B4A102A8C6
:1032A000FCF7C5FFA8F10104A1E021460120FFF7CA
:1032B0009FF80220FFF713F8522004EB440101EBC2
:1032C0000411AD4A02EBC10181F8940004EB440102
:1032D00001EB041102EBC10001AA0021FEF79BFDE6
:1032E0000546BDB104EB440000EB0410A24901EB1C
:1032F000C000D0F8940020F4803004EB440101EBCE
:1033000004119D4A02EBC101C1F89400202002A9DA
:1033100008556BE004EB440000EB0410964901EB08
:10332000C000D0F8940020F4803000F5803004EB29
:10333000440101EB0411904A02EBC101C1F8940071
:1033400000BF2CA840F827407F1C04EB440101EB90
:10335000041102EBC100FEF773FB601C522101EB6C
:103360004006522E17D0F1B204EB440202EB0412D5
:10337000814B03EBC200FEF7AEFD054615B17FA001
:10338000FEF712F804EB440101EB04117A4A02EB58
:10339000C10181F894600120FEF7A1FF04EB440114
:1033A00001EB0411744A02EBC10001AA0021FEF7EF
:1033B00032FD0120FEF793FF04EB440101EB041101
:1033C0006D4A02EBC100FEF79BFB0546002D02DAB9
:1033D00071A0FDF7E9FF04EB440101EB0411664A1B
:1033E00002EBC1000021FEF7E9FA00BF641E002CC9
:1033F000BFF65BAF00208DF80C0002A8FCF79CFF25
:103400009FE0002419E02CA850F8240000EB4001B4
:1034100001EB0010584901EBC0063046FEF7F2FC04
:103420000546002D02DA62A0FDF7BEFFD6F8940033
:1034300020F40030C6F89400641CBC42E3DB4FF07B
:10344000000900BFFCF758FF002431E02CA850F819
:10345000240000EB400101EB0010474901EBC006DE
:10346000D6F89400C0F3404000BB04EB840004AAEB
:1034700002EBC0013046FEF7F3FB05469DB904EBB5
:10348000840004A901EBC0008068122800D10EE07E
:10349000D6F8940020F4003000F50030C6F894000F
:1034A00009F1010902E042A0FDF77EFF00BF641CA4
:1034B000BC42CBDBB945C5DB46A102A8FCF7B7FE91
:1034C000002438E004EB840004A901EBC00080680C
:1034D00008BB04EB840104AA52F831103C2901DA3C
:1034E0005F2009E004EB840104AA52F83110782926
:1034F00001DA3D2000E07E202CAA52F8242002EBC5
:10350000420303EB02121C4B03EBC20292F895201C
:1035100002AB98540EE020202CA951F8241001EBA6
:10352000410202EB0111144A02EBC10191F895101E
:1035300002AA5054641CBC42C4DB02A8FEF7E2F8A5
:1035400000BF5EE7A003002018ED00E000E400E00B
:10355000563220657870616E73696F6E20626F619C
:103560007264206973207265717569726564000008
:10357000544C42520000000000000020564C3631EE
:103580003830785F536574493243416464726573BF
:1035900073206661696C0000564C36313830785FB4
:1035A00050726570617265206661696C0000000090
:1035B000564C36313830785F52616E6765537461AE
:1035C000727453696E676C6553686F7420666169C5
:1035D0006C0000002D2D2D2D0000000000000000CB
:1035E00000000000000000000000000000000000DB
:1035F00000000000000000000000000000000000CB
:103600000000000000007F00004000003F065B4F0C
:10361000666D7D077F6F00000048005309777C3995
:103620000079716F76061E763815543F6773506DBA
:10363000783E1C2A766E5B39000F0108005C7C58CE
:103640005E7B716F74101E741815545C7367506D37
:10365000783E1C2A766E5B000000490000000000E6
:10366000000000000000000000000000000000005A
:10367000000000000000000000000000000000004A
:10368000000000000000000000000000000000003A
:10369000000000000000000000000000000000002A
:1036A000000000000000000000000000000000001A
:1036B000000000000000000000000000000000000A
:1036C00000000000000000000000000000000000FA
:1036D00000000000000000000000000000000000EA
:1036E000010203040102030406070809FD007F002C
:1036F0005400B900720144020014000A000580025F
:10370000AB0140010001002828370008000000201C
:10371000A00300006402000850370008A003002046
:10372000480400000C2B000801FF01300298010240
:103730009802620302132005FF45727220D1828431
:103740002D10040100162709081A1415136324F418
:040000050800019559
:00000001FF
