:020000040800F2
:10000000E80700209D010008451C0008711A00083F
:10001000431C0008DD0200087522000800000000F3
:100020000000000000000000000000009121000816
:100030001103000800000000671C0008932100085D
:10004000B7010008B7010008B7010008B7010008B0
:10005000B7010008B7010008B7010008B7010008A0
:10006000B7010008B7010008B7010008B701000890
:10007000B7010008B7010008B7010008B701000880
:10008000B7010008B7010008B7010008B701000870
:10009000B7010008B7010008B7010008B701000860
:1000A000B7010008B7010008B7010008B701000850
:1000B000B7010008B7010008B7010008B701000840
:1000C000B7010008B7010008B7010008B701000830
:1000D000B7010008B7010008B7010008B701000820
:1000E000B7010008B7010008B7010008B701000810
:1000F000B7010008B7010008B7010008B701000800
:10010000B7010008B7010008B7010008B7010008EF
:10011000B7010008B7010008B7010008B7010008DF
:10012000B7010008B7010008B7010008B7010008CF
:10013000B7010008B7010008B7010008B7010008BF
:10014000B7010008B7010008B7010008B7010008AF
:10015000B7010008B7010008B7010008B70100089F
:10016000B7010008B7010008B7010008B70100088F
:10017000B7010008B7010008B7010008000000003F
:10018000B7010008B7010008DFF80CD000F052F802
:1001900000480047A1350008E807002006488047CE
:1001A00006480047FEE7FEE7FEE7FEE7FEE7FEE75C
:1001B000FEE7FEE7FEE7FEE73122000889010008BE
:1001C00040EA01039B0703D009E008C9121F08C0D9
:1001D000042AFAD203E011F8013B00F8013B521E59
:1001E000F9D27047421E12F8013F002BFBD111F8E3
:1001F000013B02F8013B002BF9D1704710B50446D2
:1002000004E00B7800F8013B03B1491C521EF8D200
:10021000204610BD421C10F8011B0029FBD1801A9A
:100220007047034611F8012B00F8012B002AF9D181
:1002300018467047064C074D06E0E06840F00103A1
:1002400094E8070098471034AC42F6D3FFF7A0FFBC
:10025000A4390008C439000830B58C1810F8012BF7
:1002600012F00F0301D110F8013B120906D110F86A
:10027000012B03E010F8015B01F8015B5B1EF9D173
:1002800001E001F8013B521EFBD1A142E6D3002060
:1002900030BD00004FF40051014800F061B900008A
:1002A000000800480B4800B5C16C87B041F004015C
:1002B000C164C06C694600F0040005904FF4005022
:1002C0000090002001900290034800F067F807B00A
:1002D00000BD00000010024000080048FEE70000DA
:1002E00010B5094C616939B109220848FFF786FF4A
:1002F00006490020487260610121044802F06CFC4C
:10030000E068401CE06010BD20000020DC030020FD
:10031000704700002DE9F04700248146FA27254662
:10032000FFF778FF824600F025F90646DFF8508097
:1003300019E000BF09EB0400C8F81400FFF7D0FF74
:1003400000F018F9801BB8420DD900F013F90646E9
:10035000201D504506DB28466D1C042803DB0025C4
:100360002C4600E0641CFFF795FF0028E2D101E075
:10037000FFF7B6FFFFF78EFF0028F9D0BDE8F08742
:100380002000002070B5054600F0F4F84FEA0004A4
:1003900000F0F0F8001BA842FAD370BD2DE9F84F29
:1003A000DFF898B100234FF0010C4FF0030A4FF033
:1003B0000F090BF1040EB9E00CFA03F4224070D0DF
:1003C0004D68022D01D0122D0ED1DD0800EB8508FD
:1003D000D8F820505E07F70E09FA07F6B5430E6904
:1003E000BE402E43C8F8206007685E0091F8048084
:1003F0000AFA06F508F00308AF4308FA06F848EAD7
:100400000708C0F800804F68012F05D0022F03D0E5
:10041000112F01D0122F13D1D0F80880CF6828EA0D
:100420000508B74047EA08078760D0F804800F79CD
:1004300028EA0408C7F300179F4047EA0807476007
:10044000D1F804806FEA0807BF0706D1C76AA7433F
:10045000C8F3C0049C403C43C462C468AC438D688C
:10046000B5402543C5604C68E4005ED5344C256E2C
:1004700045F001052566246E23F0030504F0010410
:100480000094304C2E19B4689D072F0F09FA07F518
:10049000AC43B0F1904F05D02B4DA84204D10125BB
:1004A0001CE042E0002519E0284DA84201D10225B8
:1004B00014E0274DA84201D103250FE0254DA842A5
:1004C00001D104250AE0244DA84201D1052505E00B
:1004D000224DA84201D1062500E00725BD40254355
:1004E000B560DBF800405D464E689443F60300D5E6
:1004F00014432C60DEF8004075464E689443B60302
:1005000000D514432C600D4D08352C684E6894437B
:10051000F60200D514432C60084D0C352C684E684B
:100520009443B60200D514432C605B1C0A6832FA6F
:1005300003F57FF441AFBDE8F88F000000040140EF
:10054000001002400000014000040048000800487C
:10055000000C004800100048001400480018004833
:100560000069084000D0012070470AB181617047DE
:100570008162704701480068704700009C030020BA
:1005800070B5040004D094F83500002510B106E0E1
:10059000012070BD84F83450204600F035F9022067
:1005A00084F835002068016821F00101016060686D
:1005B000216820F0706008612068816821F40041A2
:1005C0008160A06830B1E168012907D040F404409F
:1005D00021688860E068022803D006E040F400400B
:1005E000F6E721684FF400604860206841680D4AD2
:1005F00011434160D4E904010843A16940EA0120A4
:100600002168C860D4E907010843216808602068B0
:10061000016841F001010160A563012084F8350003
:10062000002070BD008000022DE9FF4F054690F8C4
:10063000350081B01C461746012869D1F7B3ECB3E9
:1006400028688069C043000462D595F83400012809
:100650005ED04FF0010985F83490222085F83500EE
:100660004FF00008C5F838804FF410504FF0807AF2
:100670004FF0007BFF2C009032D95346FF222846D2
:10068000029901F045FAFF260022042128460E9B1C
:1006900001F050FAE0B92868406A641E07F8010BBF
:1006A000A4B2761E0BD0002CEED11921284601F001
:1006B00078FAF8B1A86B04281AD009E018E0002CE9
:1006C000F3D00022802128460E9B01F033FA18B1A6
:1006D000032005B0BDE8F08FFF2CCDF80080CCD80A
:1006E000E2B25B462846029901F012FA2646CBE7B1
:1006F0000120EEE729682020C86128684168054A82
:100700001140416085F8359085F834800020E0E79D
:100710000220DEE700E800FE2DE9FF4F044690F8D6
:10072000350081B01D461746012869D1002F65D0DC
:10073000002D63D020688069C043000460D594F820
:10074000340001285CD04FF0010984F83490122065
:1007500084F835004FF00008C4F838804FF400509A
:100760004FF0807A4FF0007BFF2D00903ED953462A
:10077000FF222046029901F0CBF9FF2620460E9970
:1007800001F036FA18B1A06B042837D028E02168B0
:1007900017F8010B88626D1EADB2761E17D0002DC2
:1007A000ECD120460E9901F0FCF90028EBD121682C
:1007B0002020C86120684168124A1140416084F8D5
:1007C000359084F83480002005B0BDE8F08F002D0E
:1007D000E7D00022802120460E9B01F0ABF908B142
:1007E0000320F1E7FF2DCDF80080C0D8EAB25B46C8
:1007F0002046029901F08CF92E46BFE70120E3E77D
:100800000220E1E700E800FE7047000002480168AE
:10081000491C0160704700009C030020074810B588
:10082000016841F480710160032000F045F80F2059
:1008300000F006F800F015F8002010BD002002407E
:1008400010B5044600F02CFC4FF47A71B0FBF1F0C7
:1008500001F0EBF800222146501E00F00DF80020B8
:1008600010BD10B5032000F027F80022BDE81040AD
:100870001146501EAFF30080F0B40E4B1B680C46BF
:10088000C3F30223C3F10705042D00D90425191D64
:10089000072901D2002300E0DB1E012606FA05F13C
:1008A000491E214099409E40761E16403143F0BCBF
:1008B00001F0C9B90CED00E0064900F00702086834
:1008C0004FF6FF03184040EA0220034A1043086035
:1008D000704700000CED00E00000FA051549B0F586
:1008E000007F0868C0F3412009D0022805D00868BD
:1008F00020F4C06040F48060086000207047012848
:10090000FBD0086820F4C06040F4007008600A481A
:100910000A4A0068B0FBF2F03222504300E0401E69
:1009200010B14A695205FAD448694005E5D503205B
:1009300070470000007000409803002040420F0004
:100940000248006800F4C06070470000007000407A
:100950002DE9FC5F044600884FF00008010504F112
:100960001800F74D4746464600901BD5606D78B19C
:10097000B0F5800F10D0B0F5000F04D0B0F5400FE7
:1009800020D001270DE0E86840F48030E86019E0ED
:10099000201D01F069F902E0009801F0CDFA07008E
:1009A00010D03E462088C00424D5A06DC0B1B0F15F
:1009B000807F19D0B0F1007F0DD0B0F1407F17D00B
:1009C000012716E0D5F88800616D20F44000084347
:1009D000C5F88800E6E7E86840F48030E86007E0A2
:1009E000201D01F041F902E0009801F0A5FA074648
:1009F000F7B13E46206880033BD5A86D4FF0000953
:100A0000C00009D4A86D40F08050A865A86D4FF0D3
:100A1000010900F080500190DFF828B3DBF80010E6
:100A200041F48071CBF80010FFF7A4FD824611E07D
:100A3000D5F88800A16D20F040700843C5F8880003
:100A4000D8E700BFFFF796FDA0EB0A00642801D9A4
:100A5000032705E0DBF80000C005F3D5002F7CD0AC
:100A60004FEA0706B9F1000F03D0A86D20F08050BF
:100A7000A8652078C00707D0D5F88800A16A20F0C3
:100A800003000843C5F888002078800707D5D5F80B
:100A90008800E16A20F00C000843C5F8880020783F
:100AA000400707D5D5F88800216B20F030000843B7
:100AB000C5F888002078000707D5D5F88800616B55
:100AC00020F0C0000843C5F888002078C00607D58C
:100AD000D5F88800A16B20F440700843C5F8880061
:100AE0002078800607D5D5F88800E16B20F44060B7
:100AF0000843C5F888002088800507D5D5F8880008
:100B0000E16C20F440200843C5F8880020884005A7
:100B100007D5D5F88800216D20F440100843C5F8AA
:100B200088002078400607D5D5F88800216C20F48D
:100B300040500843C5F888002078000607D5D5F84E
:100B40008800616C20F440400843C5F88800208884
:100B5000C00509D5D5F8880000E01CE0A16C20F4A0
:100B600040300843C5F8880020884FF000678004B3
:100B70004FF080687BD5D5F88800E16D20F04060AB
:100B80000843C5F88800E06DB84269D1E86840F4D0
:100B90008010E8606BE0D5F89000616F00F4407061
:100BA000884211D0D5F8900020F44078D5F8900014
:100BB00040F48030C5F89000D5F8900020F48030E3
:100BC000C5F89000C5F890805FEA88703FD5FFF7C0
:100BD000D1FC804641F2883B4FF0010A022707E032
:100BE000FFF7C8FCA0EB0801594501D9032639E7F6
:100BF00097FAA7F0B0FA80F040F04001BAEB511F2D
:100C000001D1296819E097FAA7F1B1FA81F141F011
:100C10004001B7EB511F02D1D5F890100DE097FAC3
:100C2000A7F1B1FA81F141F040020321B1EB521F6B
:100C300002D1D5F8941000E0E96997FAA7F2B2FA68
:100C400082F202F01F020AFA02F00142C8D0D5F87F
:100C50009000616F20F440700843C5F8900001E7F0
:100C6000404504D1201D01F075F800B1064620680A
:100C7000000316D5D5F88800216E20F040600843A7
:100C8000C5F88800206EB84204D1E86840F48010AE
:100C9000E86006E0404504D1201D01F05BF800B19A
:100CA00006462068400316D5D5F88800616E20F00E
:100CB00040600843C5F88800606EB84204D1E86817
:100CC00040F48010E86006E0404504D1201D01F0AA
:100CD00041F800B106462088400418D5D5F88800B0
:100CE000A16E20F040500843C5F88800A06EB0F116
:100CF000805F03D0B0F1005F04D008E0201D01F058
:100D0000A3F802E0009801F08DF900B106462088B2
:100D1000000407D5D5F88800E16E20F08040084334
:100D2000C5F888002068C00306D555F8880F216FE4
:100D300020F00040084328603046BDE8FC9F0000DA
:100D400000100240007000402DE9F047DFF848A392
:100D500005460E46DAF80000022200F0070C0120DA
:100D6000410443068702CD4C41F28839B4457DD217
:100D700086B3012E2FD0022E2DD0032E2BD0042E81
:100D800029D0DAF800C000BFCAF800C0DAF800C005
:100D90000CF0070CB4456AD12E78B60707D5A668C3
:100DA000D5F808C026F0F00646EA0C06A6602E78B4
:100DB000F60773D06E68022E14D0032E27D086B3A8
:100DC00097FAA7F1B1FA81F141F0200149093BD02E
:100DD00021683AE0FFE7DAF800C02CF0070C4CEA93
:100DE000060CD1E791FAA1F2B2FA82F242F02002A7
:100DF000520901D0226800E0E26991FAA1F1B1FA4A
:100E000081F101F01F018840024230D026E093FAC0
:100E1000A3F1B1FA81F141F02001490902D0216822
:100E200001E003E0E16993FAA3F210E092FAA2F183
:100E3000B1FA81F141F02001490901D0216800E0B7
:100E4000E16992FAA2F202E0E16997FAA7F2B2FA36
:100E500082F202F01F029040014208D0A06820F008
:100E600003003043A060FFF785FB01E03BE0F3E0C7
:100E70000646686802280BD0032817D04F4610B3E7
:100E80002BE000BFFFF776FB801BB84201D9C8E01A
:100E90004F46A068C0F381000228F3D1E4E000BF10
:100EA000FFF768FB801BB84201D9BAE04F46A06843
:100EB000C0F381000328F3D1D6E000BFFFF75AFB4F
:100EC000801BB8427ED8A06810F00C0FF6D1CBE0A2
:100ED000FFF750FB801BB84274D8A068C0F38100B4
:100EE0000128F5D1C0E095F800C05FEA8C7C09D5F7
:100EF000D4F808C0D5F808802CF0F00C4CEA080CA7
:100F0000C4F808C095F800C05FEACC7C6CD0D5F876
:100F100004C0BCF1020F0FD0BCF1000F21D0BCF116
:100F2000030F2CD097FAA7F1B1FA81F141F020011B
:100F3000490932D0216831E091FAA1F2B2FA82F285
:100F400042F02002520901D0226800E0E26991FAE1
:100F5000A1F1B1FA81F101F01F01884002427BD07A
:100F600025E092FAA2F1B1FA81F141F0200149099C
:100F700001D0216800E0E16992FAA2F210E093FA50
:100F8000A3F1B1FA81F141F02001490901D02168B2
:100F900000E0E16993FAA3F202E0E16997FAA7F2AF
:100FA000B2FA82F202F01F029040014254D0A068CF
:100FB00020F0030040EA0C00A060FFF7DBFA0746D0
:100FC000686800E02DE0022809D0032813D0F0B1B2
:100FD0002AE000BFFFF7CEFAC11B494521D8A0681F
:100FE000C0F381000228F5D123E000BFFFF7C2FA69
:100FF000C11B494515D8A068C0F381000328F5D16D
:1010000017E000BFFFF7B6FAC11B494509D2A06837
:1010100010F00C0FF6D10CE0FFF7ACFAC11B4945FC
:1010200002D90320BDE8F087A068C0F38100012841
:10103000F2D19EB1012E11D0022E0FD0032E0DD071
:10104000042E0BD0DAF80000CAF80000DAF800002D
:1010500000F00700B04207D00120E3E7DAF8000013
:1010600020F007003043EFE72878400705D5A06857
:10107000E96820F4E0600843A0602878000706D5FE
:10108000A068296920F4605040EAC100A0600F20E8
:10109000FFF7D6FB0020C5E7002002400010024009
:1010A00000B500F017F808498968F02292FAA2F218
:1010B00001F0F001B2FA82F2D140044A515CC8401A
:1010C0000349086000BD00000010024064390008B8
:1010D0009803002030B52C49002210468B68C3F3DA
:1010E00081052A4B5C10012D0ED08D68C5F381055A
:1010F000022D0BD08D6815F00C0F0ED08D68C5F346
:101100008105032D04D01BE0184619E0204617E0A6
:10111000CD6805F00305012D12D10A68120704D429
:10112000D1F89420C2F3032202E00A68C2F303124A
:10113000174D55F822208D6815F00C0F00D1104680
:101140008D68C5F38105032D1DD1C86800F0030526
:10115000C868C0F30210401C022D04D0032D05D036
:10116000B2FBF0F004E0B3FBF0F001E0B4FBF0F010
:10117000CA68C968C2F306225043C1F34161491CE1
:101180004900B0FBF1F030BD001002400024F40033
:10119000743900082DE9F84F04460078FF4DC00669
:1011A0004FF002084FF0010665D5A86810F00C0F4B
:1011B0000AD0A069002828687ED040F0010028608D
:1011C000FFF7D8F907465CE098FAA8F0B0FA80F08B
:1011D00040F02000400901D0286800E0E86998FA52
:1011E000A8F1B1FA81F101F01F0106FA01F10842FC
:1011F00002D0A069002874D0216A2868000703D5AE
:10120000286800F0F00004E0D5F89400F02202EA2B
:101210001010814216D9084600F07CFF002860D1EA
:10122000286840F0080028602868216A20F0F00053
:10123000084328606868E16920F47F4040EA0120A3
:10124000686015E0286840F0080028602868216A76
:1012500020F0F000084328606868E16920F47F40CE
:1012600040EA01206860206A00F054FF0028D6D1CF
:101270000F20FFF7E5FA4FE0FFF77CF9C01B642869
:1012800075D898FAA8F0B0FA80F040F02000400934
:1012900001D0286800E0E86998FAA8F1B1FA81F174
:1012A00001F01F0106FA01F10842E5D0286840F07C
:1012B00008002860286800E00CE0216A20F0F000B7
:1012C000084328606868E16920F47F4040EA012013
:1012D000686021E020F001002860FFF74BF9074625
:1012E00005E0D1E0FFF746F9C01B6428C8D898FA9A
:1012F000A8F0B0FA80F040F02000400901D0286842
:1013000000E0E86998FAA8F1B1FA81F101F01F0153
:1013100006FA01F10842E5D12078C00736D0A86866
:101320004FF40037C0F38100022816D0A868C0F33C
:101330008100032803D1E868C04380070DD02868E6
:1013400020F480302860286820F480202860FFF78F
:1013500011F9824641F2883920E097FAA7F0B0FAF5
:1013600080F040F02000400902D0286801E02FE220
:10137000E86997FAA7F1B1FA81F101F01F0106FAC5
:1013800001F1084277D0606800287DD073E000BF8B
:10139000FFF7F0F8A0EB0A014945A7D897FAA7F0A4
:1013A000B0FA80F040F02000400901D0286800E049
:1013B000E86997FAA7F1B1FA81F101F01F0106FA85
:1013C00001F10842E4D16068B0F5803F10D0B0F57B
:1013D000A02F286820F48030286028680CD020F4E2
:1013E00080202860606838B3FFF7C4F882460DE0BB
:1013F000286840F48030F4E740F480202860F7E764
:10140000FFF7B8F8A0EB0A014945C6D897FAA7F04C
:10141000B0FA80F040F02000400901D0286800E0D8
:10142000E86997FAA7F1B1FA81F101F01F0106FA14
:1014300001F10842E4D01EE0FFF79CF8824605E087
:10144000FFF798F8A0EB0A014945A6D897FAA7F04C
:10145000B0FA80F040F02000400901D0286800E098
:10146000E86997FAA7F1B1FA81F101F01F0106FAD4
:1014700001F10842E4D1207880075FD5A8684FF0D9
:10148000F85AC0F3810000E0A2E04FF48067012821
:1014900014D0A868C0F38100032804D1E86800F0E4
:1014A000030002280AD0E0680028286847D040F4EA
:1014B00080702860FFF75EF881461FE097FAA7F07A
:1014C000B0FA80F040F02000400901D0286800E028
:1014D000E86997FAA7F1B1FA81F101F01F0106FA64
:1014E00001F108421FD0E068002871D01BE000BF66
:1014F000FFF740F8A0EB0900642886D897FAA7F018
:10150000B0FA80F040F02000400901D0286800E0E7
:10151000E86997FAA7F1B1FA81F101F01F0106FA23
:1015200001F10842E4D068689AFAAAF22169B2FA95
:1015300082F220F0F85091400843686021E020F4E6
:1015400080702860FFF716F8814605E0FFF712F873
:10155000A0EB09006428D0D897FAA7F0B0FA80F081
:1015600040F02000400901D0286800E0E86997FABF
:10157000A7F1B1FA81F101F01F0106FA01F1084269
:10158000E4D120784FF00307000745D560690028B3
:10159000D5F8940041D040F0010001E00010024075
:1015A000C5F89400FEF7E6FF814605E0FEF7E2FF8E
:1015B000A0EB09006428A0D898FAA8F1B1FA81F14B
:1015C00041F060014046B6EB511F02D1296819E095
:1015D000F5E190FAA0F1B1FA81F141F06001B0EBD0
:1015E000511F02D1D5F890100CE090FAA0F1B1FA99
:1015F00081F141F06001B7EB511F02D1D5F8941091
:1016000000E0E96998FAA8F0B0FA80F000F01F0055
:1016100006FA00F21142C9D03DE020F00100C5F801
:101620009400FEF7A7FF814606E000BFFEF7A2FF89
:10163000A0EB090064288ED898FAA8F1B1FA81F1DC
:1016400041F060014046B6EB511F01D1296818E016
:1016500090FAA0F1B1FA81F141F06001B0EB511FB5
:1016600002D1D5F890100CE090FAA0F1B1FA81F116
:1016700041F06001B7EB511F02D1D5F8941000E0A2
:10168000E96998FAA8F0B0FA80F000F01F0006FAB5
:1016900000F21142CAD1207840077CD5A86D4FF0E6
:1016A0000009C00009D4A86D40F08050A865A86D5D
:1016B0004FF0010900F080500090D2480168C90540
:1016C00012D40168834641F480710160FEF752FF35
:1016D000824605E0FEF74EFFA0EB0A00642877D8AB
:1016E000DBF80000C005F5D5D5F8900020F001002A
:1016F000C5F89000D5F8900020F00400C5F89000DF
:10170000FEF738FFBB4641F2883A4746009005E0B5
:10171000FEF730FF0099411A514559D897FAA7F0C2
:10172000B0FA80F040F04000B6EB501F01D12868BD
:1017300018E097FAA7F0B0FA80F040F04000B7EB5D
:10174000501F02D1D5F890000CE097FAA7F0B0FA3C
:1017500080F040F04001BBEB511F02D1D5F894005E
:1017600000E0E86997FAA7F1B1FA81F101F01F01F1
:1017700006FA01F10842CBD1A06801280FD008B1C8
:10178000052818D0D5F8900020F00100C5F8900089
:10179000D5F8900000E092E020F0040003E0D5F8D6
:1017A000900040F00100C5F89000A06878B3FEF703
:1017B000E1FE804614E0D5F8900020F00100C5F865
:1017C0009000D5F8900040F00400C5F89000E6E7DE
:1017D00084E000BFFEF7CEFEA0EB080151457DD8A6
:1017E00097FAA7F0B0FA80F040F04000B6EB501F37
:1017F00001D1286819E097FAA7F0B0FA80F040F01C
:101800004000B7EB501F03D1D5F890000DE017E072
:1018100097FAA7F0B0FA80F040F04001BBEB511FFF
:1018200002D1D5F8940000E0E86997FAA7F1B1FA7F
:1018300081F101F01F0106FA01F21042CAD037E02F
:10184000FEF798FE804605E0FEF794FEA0EB080147
:10185000514543D897FAA7F0B0FA80F040F0400025
:10186000B6EB501F01D1286818E097FAA7F0B0FA3C
:1018700080F040F04000B7EB501F02D1D5F8900047
:101880000CE097FAA7F0B0FA80F040F04001BBEB13
:10189000511F02D1D5F8940000E0E86997FAA7F14A
:1018A000B1FA81F101F01F0106FA01F21042CBD129
:1018B000B9F1000F03D0A86D20F08050A865606AD0
:1018C000F0B3A968C1F38101032978D00228286800
:1018D0004FF0007720F08070286000E075E00BD0BA
:1018E000E86820F00300E860E86847490840E860DD
:1018F000FEF740FE04466BE0FEF73CFE804605E046
:10190000FEF738FEA0EB080064285ED897FAA7F02F
:10191000B0FA80F040F02000400901D0286800E0D3
:10192000E86997FAA7F1B1FA81F101F01F0106FA0F
:1019300001F10842E4D1E06AA16A0001103800E038
:101940005BE00843216B626B0902120941EA4241E4
:101950000843218F2D4A490802EB4151084394F86E
:101960003C104908120102EB41610843E860286815
:1019700040F080702860E86840F08070E860FEF712
:10198000F9FD044605E000BFFEF7F4FD001B6428E6
:101990001BD897FAA7F0B0FA80F040F02000400979
:1019A00001D0286800E0E86997FAA7F1B1FA81F15F
:1019B00001F01F0106FA01F10842E5D01DE01EE02A
:1019C000FEF7D8FD001B642802D90320BDE8F88F7C
:1019D00097FAA7F0B0FA80F040F02000400901D05B
:1019E000286800E0E86997FAA7F1B1FA81F101F0FF
:1019F0001F0106FA01F10842E2D10020E6E70120CA
:101A0000E4E7000000700040FFFFEEFE0000E0FF92
:101A10004FF0E0210428086903D020F00400086199
:101A2000704740F00400FAE7704710B5401EB0F16F
:101A3000807F01D3012010BD4FF0E02460610F21B1
:101A4000601700F000F90020A0610720206100204D
:101A500010BD10B5FFF7E8FF10BD000001460348B8
:101A6000FEF7C0FB0148FEF755FCFBE7980200209B
:101A7000FEE700002DE9F0410D460446FEF77AFD31
:101A8000804620688169C943C9063CD494F8351062
:101A9000122907D094F83510522903D094F8351044
:101AA000622906D14168890103D4416841F480412B
:101AB00041600026012720688069C04380060FD559
:101AC000681CF8D02DB1FEF755FDA0EB0800A84228
:101AD000F1D984F8357084F834600320BDE8F081D2
:101AE00021681020C86121682020C86120684168F1
:101AF000064A114041600420A06384F8357084F8E0
:101B000034600120EAE70020E8E7000000E800FE7A
:101B100070B50568049E6C6805480440C1F309006F
:101B200040EA0240184330432043686070BD000023
:101B3000009800FC2DE9F0471C4690460E460546ED
:101B4000FEF718FD07465FEA08004FF000094FF066
:101B5000010808D01DE0601C05D09CB1FEF70AFD0D
:101B6000C01BA0420ED82868806926EA0000C00386
:101B7000F1D114E0601C0CD024B1FEF7FBFCC01BBB
:101B8000A04206D985F8358085F834900320BDE859
:101B9000F0872868806926EA0000C003EAD00020A8
:101BA000F5E770B50D460446FEF7E4FC064618E07E
:101BB00029462046FFF75EFF08B1012070BD25B120
:101BC000FEF7D8FC801BA8420BD954F8380F40F020
:101BD000200044F8040901206070002020700320D8
:101BE00070BD20688069C0438006E1D4002070BDCC
:101BF00070B50D460446FEF7BDFC06461AE02946C0
:101C00002046FFF737FF08B1012070BD681C11D0D6
:101C100025B1FEF7AFFC801BA8420BD954F8380F52
:101C200040F0200044F8040901206070002020707A
:101C3000032070BD20688069C0438007DFD4002086
:101C400070BDFEE770470907090E002806DA00F0AC
:101C50000F0000F1E02080F8141D704700F1E02033
:101C600080F80014704770472DE9F047384C07465C
:101C70000026206820F080602060FEF77BFCA046F4
:101C8000E40381464FF47A7A012505E0FEF772FC01
:101C9000A0EB0900504539D894FAA4F0B0FA80F0CE
:101CA00040F020004009404601D0006800E0C069D3
:101CB00094FAA4F1B1FA81F101F01F0105FA01F1E2
:101CC0000842E3D1D8F810103A6821F4FE4141EA05
:101CD0000221C8F81010D8F810107A6821F40031E9
:101CE000120941EA4241C8F81010D8F8001041F03A
:101CF0008061C8F80010FEF73DFC814608E000BF97
:101D0000FEF738FCA0EB0900504501D903261BE083
:101D100094FAA4F0B0FA80F040F020004009404668
:101D200001D0006800E0C06994FAA4F1B1FA81F131
:101D300001F01F0105FA01F10842E1D0D8F81010B6
:101D40003A691143C8F810103046BDE8F08700002A
:101D5000001002402DE9F047394C07460026206864
:101D600020F080602060FEF705FCA046E403814679
:101D70004FF47A7A012505E0FEF7FCFBA0EB0900A1
:101D800050453BD894FAA4F0B0FA80F040F020001F
:101D90004009404601D0006800E0C06994FAA4F10F
:101DA000B1FA81F101F01F0105FA01F10842E3D116
:101DB000D8F810103A6821F4FE4141EA0221C8F82F
:101DC0001010D8F810103A891E4B520821F4C001A7
:101DD00003EB42521143C8F81010D8F8001041F03C
:101DE0008061C8F80010FEF7C5FB814608E000BF1F
:101DF000FEF7C0FBA0EB0900504501D903261BE00C
:101E000094FAA4F0B0FA80F040F020004009404677
:101E100001D0006800E0C06994FAA4F1B1FA81F140
:101E200001F01F0105FA01F10842E1D0D8F81010C5
:101E30003A691143C8F810103046BDE8F087000039
:101E4000001002400000E0FF2DE9F047394C074642
:101E50000026206820F080602060FEF78BFBA04603
:101E6000E40381464FF47A7A012505E0FEF782FB10
:101E7000A0EB090050453BD894FAA4F0B0FA80F0EA
:101E800040F020004009404601D0006800E0C069F1
:101E900094FAA4F1B1FA81F101F01F0105FA01F100
:101EA0000842E3D1D8F810103A6821F4FE4141EA23
:101EB0000221C8F81010D8F810103A7B4FF07E437A
:101EC000520821F0C06103EB42621143C8F81010C0
:101ED000D8F8001041F08061C8F80010FEF74AFB06
:101EE000814607E0FEF746FBA0EB0900504501D90B
:101EF00003261BE094FAA4F0B0FA80F040F0200032
:101F00004009404601D0006800E0C06994FAA4F19D
:101F1000B1FA81F101F01F0105FA01F10842E1D0A7
:101F2000D8F810103A691143C8F810103046BDE8CF
:101F3000F0870000001002402DE9F047384C0746BA
:101F40000026206820F080502060FEF713FBA0469A
:101F5000640481464FF47A7A012505E0FEF70AFB16
:101F6000A0EB0900504539D894FAA4F0B0FA80F0FB
:101F700040F020004009404601D0006800E0C06900
:101F800094FAA4F1B1FA81F101F01F0105FA01F10F
:101F90000842E3D1D8F814103A6821F4FE4141EA2E
:101FA0000221C8F81410D8F814107A6821F400310E
:101FB000120941EA4241C8F81410D8F8001041F063
:101FC0008051C8F80010FEF7D5FA814608E000BF3E
:101FD000FEF7D0FAA0EB0900504501D903261BE01B
:101FE00094FAA4F0B0FA80F040F020004009404696
:101FF00001D0006800E0C06994FAA4F1B1FA81F15F
:1020000001F01F0105FA01F10842E1D0D8F81410DF
:10201000FA681143C8F814103046BDE8F087000094
:10202000001002402DE9F047394C07460026206891
:1020300020F080502060FEF79DFAA046640481469F
:102040004FF47A7A012505E0FEF794FAA0EB090037
:1020500050453BD894FAA4F0B0FA80F040F020004C
:102060004009404601D0006800E0C06994FAA4F13C
:10207000B1FA81F101F01F0105FA01F10842E3D143
:10208000D8F814103A6821F4FE4141EA0221C8F858
:102090001410D8F814103A7A4FF07E43520821F009
:1020A000C06103EB42621143C8F81410D8F8001065
:1020B00041F08051C8F80010FEF75CFA814607E055
:1020C000FEF758FAA0EB0900504501D903261BE0A2
:1020D00094FAA4F0B0FA80F040F0200040094046A5
:1020E00001D0006800E0C06994FAA4F1B1FA81F16E
:1020F00001F01F0105FA01F10842E1D0D8F81410EF
:10210000FA681143C8F814103046BDE8F0870000A3
:1021100000100240F8B51C4D06460024A86DC00012
:1021200002D5FEF70DFC0DE0A86D40F08050A865CB
:10213000A86D00F080500090FEF702FCA96D21F020
:102140008051A965B0F5007F04D0802E08D94FF0EA
:10215000030409E0802E07D9A02E04D9022403E04D
:10216000FCD0702E00D101240848016821F007013D
:1021700021430160006800F00700A04201D0012067
:10218000F8BD0020F8BD0000001002400020024011
:10219000704710B5FEF73AFBBDE81040FFF759BC99
:1021A00010B5B4B00220C101039110210491009038
:1021B0000121CDE90A010A210C9109900721CDE9FD
:1021C0000D100F906846FEF7E5FF0F202E900320BC
:1021D0000024CDE92F04319404212EA83294FEF777
:1021E000B3FD40201090209410A8FEF7B1FB0F48DB
:1021F000816D41F080518165806D00F08050339099
:102200004FF40070FEF76AFBFEF74AFF4FF47A7155
:10221000B0FBF1F0FFF709FC0420FFF7F9FB002207
:102220001146501EFEF728FB34B010BD00100240CE
:102230000D48016841F4700101600C48016841F0EB
:1022400001010160002181600268094B1A400260AF
:10225000C214C260026822F48022026081610249D5
:10226000C00380390860704788ED00E0001002402C
:10227000FFFFF6EAFEE700007CB50E4C8DF8040087
:102280006420009020890E46154681B2012301AAE0
:102290006069FEF741FA00280AD1642105FB01F0CC
:1022A00000902089ABB281B232466069FEF7BCF97A
:1022B0007CBD00000000002010B586B014468DF8EB
:1022C00004000DF10500FDF77BFF64200090054838
:1022D000641CA3B2018901AA89B24069FEF71CFA05
:1022E00006B010BD00000020042905D8C9060B0E59
:1022F000C722142100F0FEBA6FF00100704770B5DC
:1023000021F040040546072C00D9072444F0400280
:102310003F2100F02DFC002800D1AC8270BD70B5CB
:10232000054639B1491E8CB24FF4E870844203D996
:10233000044604E00C4602E0FF2C00D1641C224657
:102340004021284600F037FC002800D16C8270BD87
:1023500040F6F612914200D311460A22B1FBF2F187
:10236000CAB23E2100F004BC70B514460A460546C8
:102370003C2100F0FDFB002806D122462846BDE89E
:1023800070403A2100F0F4BB70BD072903D80A461B
:10239000152100F0EDBB6FF00100704780F8901040
:1023A00009B100F091BC00207047000008B564231B
:1023B000009390F8940013460A4601460548FEF73C
:1023C00033F9002804D0034800F012FC4FF0FF302E
:1023D00008BD0000A003002008B56423009390F816
:1023E000940013460A4601460548FEF795F9002871
:1023F00004D0034800F0FCFB4FF0FF3008BD0000A4
:10240000A00300207FB5044655202081642161810E
:1024100000202074012020766182A082E082607614
:1024200084F890005020C4F8800001AA242120469E
:1024300000F0C1F9050032D19DF8040084F8910044
:102440006A462621204600F0D1F9050027D10098E0
:10245000000C01D0009801E012480090206003AA0F
:102460001E21204600F0E2F9050018D1BDF80C004D
:102470004FF47A714843C0096060204600F024FCA4
:1024800006000CD402AA1621204600F094F905009B
:1024900005D19DF80800012800D106B1012504B03E
:1024A000284670BDF803CE0010B5044600F0F4F9DC
:1024B000002847DB0421204600F045F8002841D1E0
:1024C000C8220A21204600F05AF900283AD1642196
:1024D0002046FFF724FF002834D1C8212046FFF70B
:1024E00037FF00282ED100212046FFF708FF0028E3
:1024F00028D1FF2200212046FFF736FF002821D1F6
:1025000004212046FFF7F0FE00281BD1E061606641
:10251000A066E06620676067A4F8600001464FF699
:10252000FF72A06704EB41039A8404EB8103491C0A
:1025300098630A29F6DB20622046BDE81040072197
:10254000FFF723BF10BD042904D80B46F82214213D
:1025500000F0D0B96FF00100704738B50C466A46FC
:102560004F2100F028F99DF8001001F0C7012170FB
:1025700038BD0000F0B585B00E46054600F082F883
:10258000040058D102AA6621284600F04FF9040041
:1025900051D1BDF80800706003AA4D21284600F013
:1025A0000AF918B99DF80C000009B06031462846B8
:1025B00000F01EFC04003ED1687E18B32F7E04AAF2
:1025C0006421284600F0F7F890B93189F26889B2A1
:1025D000CDE900219DF8100010FB07F73088BAB252
:1025E00081B22846336900F0C3FD002802DA601E7C
:1025F000044607E030847784E86F706210B1B06001
:10260000308C306095F89000A8B10D48F168814297
:1026100014D2284600F0C6FB297E0A4A02EB41018B
:10262000B5F88C2031F8021C824200DA104688424C
:1026300000DD0846F06105B02046F0BD0020F9E756
:10264000100905004E38000838B50C4605466946A5
:10265000FFF783FF002811D1009901F00702042A37
:1026600002D011F0C00F0AD021462846FFF782FFA2
:10267000002803D101212846FFF787FE38BD12212B
:10268000A16038BD38B50C4605466A46622100F0A7
:1026900092F8002805D1297E9DF8002011FB02F157
:1026A000216038BD2DE9F0478AB004460589B0F8AD
:1026B0000A9005AA1C2100F07EF8002823D19DF87D
:1026C0001480C82706AA40F20911204600F073F8CA
:1026D0004FF0FF3AB0B99DF8180006AA00F00706BF
:1026E0004FF48571204600F066F858B99DF818003F
:1026F0005E2100EB800001EB4000761C16FB0070B1
:10270000002803DA50460AB0BDE8F08708EB48021B
:10271000C2EBC811C0EBC1066A46B821204600F0E2
:1027200065F80028EFD1009806FB09F60002454342
:1027300000904FF4FA704543B5FBF6F082B22221C7
:10274000204600F038FADEE709B1012300E000235B
:10275000FE222D2100F0CEB810B50A4604461C21F9
:1027600000F006FA002809D12046FFF79BFF002859
:1027700004D12046BDE8104000F0A6BA10BD70B5E7
:102780000C460546192100F0F3F9002806D122462F
:102790002846BDE870401A2100F0EAB970BD03294F
:1027A00003D80A46182100F0E3B96FF00100704722
:1027B0000121FFF7F4BF7CB50646080A8DF800003A
:1027C00015466C468DF80110022221463046FFF76F
:1027D00003FE002809D1012221463046FFF7E6FD1D
:1027E000002802D19DF8001029707CBD7CB50646FA
:1027F000080A8DF8000015466C468DF8011002227B
:1028000021463046FFF7E8FD00280ED1042221467C
:102810003046FFF7CBFD002807D100999DF8032033
:1028200009BA21F0FF01114329607CBD7CB5064641
:10283000080A8DF8000015466C468DF8011002223A
:1028400021463046FFF7C8FD00280AD10222214662
:102850003046FFF7ABFD002803D1BDF8001049BAA0
:1028600029807CBD4A0840F2122100F081B902465D
:1028700000204FF0804100E089089142FCD808E038
:102880004318934203D8D21A01EB500000E04008ED
:1028900089080029F4D17047F8B50646002400F0F5
:1028A0004FF8050009D13046317E00F019F9054690
:1028B00000221621304600F05BF9002D18DB6A4635
:1028C0004FF490713046FFF776FF040010D19DF869
:1028D0000000F0826A463F213046FFF76CFF04009B
:1028E00006D19DF800103046FFF709FD05B12C46D2
:1028F0002046F8BD2DE9FC410746080A8DF8000086
:1029000016466C468DF801101D46022221463846B7
:10291000FFF762FD002811D10122A11C3846FFF704
:1029200045FD00280AD19DF80200032230402843CB
:102930008DF8020021463846FFF74EFDBDE8FC81C8
:1029400010B50446012240F2072100F011F90122DE
:102950004FF40271204600F00BF900229621204628
:1029600000F006F954229721204600F001F90022D8
:10297000E321204600F0FCF80422E421204600F088
:10298000F7F80222E521204600F0F2F80122E621C4
:10299000204600F0EDF80322E721204600F0E8F899
:1029A0000222F521204600F0E3F80522D921204635
:1029B00000F0DEF82046DA21226800F0E6F8002276
:1029C0009F21204600F0D4F82822A321204600F0C1
:1029D000CFF80022B721204600F0CAF82822BB21F8
:1029E000204600F0C5F80922B221204600F0C0F8C8
:1029F0000922CA21204600F0BBF801224FF4CC7115
:102A0000204600F0B5F817224FF4D871204600F0A8
:102A1000AFF8002240F2AD11204600F0A9F80522DF
:102A2000FF21204600F0A4F805224FF480712046D3
:102A300000F09EF8052240F29911204600F098F827
:102A40001B224FF4D371204600F092F83E224FF43F
:102A5000D671204600F08CF81F2240F2A7112046C4
:102A600000F086F800223021204600F081F8102284
:102A70001121204600F07CF830224FF48571204669
:102A800000F076F846223F21204600F071F8FF2240
:102A90003121204600F06CF863224021204600F0EE
:102AA00067F801222E21204600F062F8FF222C2137
:102AB000204600F05DF809221B21204600F058F85E
:102AC00031223E21204600F053F8242214212046D2
:102AD00000F04EF832212046FFF73EFE002010BDE8
:102AE00070B50C0005463DD0032C3BD81F489621FD
:102AF00000EB440030F8022C284600F05CF82C76FD
:102B000095F99100242190FBF4F0C2B2284600F020
:102B10002FF8002823D11420B0FBF4F221212846FD
:102B200000F026F800281AD1287C68B1A889297EEF
:102B3000B0FBF1F0FF2800D9FF20C2B225212846C2
:102B400000F016F800280AD1012C09D000212846EF
:102B5000FFF7FAFD002802D1012C00D0032070BD40
:102B60000121F4E76FF0010070BD00004838000853
:102B70001CB50C0A8DF800408DF801108DF802206C
:102B800003226946FFF728FC1CBD1CB50C0A8DF812
:102B900000408DF80110110E8DF80210110C8DF807
:102BA0000310110A8DF804108DF8052006226946DD
:102BB000FFF712FC1CBD1CB50C0A8DF800408DF807
:102BC0000110110A8DF802108DF8032004226946C5
:102BD000FFF702FC1CBD0000034A52680AB100F076
:102BE00031BA00F04DB9000000000020704700002D
:102BF00070B50446214888B0C16C41F00201C1643F
:102C0000C16C01F002010691816D41F400118165F2
:102C1000806D002500F4001006904FF44070019084
:102C20001220CDE902050420CDE9045001A9144881
:102C3000FDF7B4FB1348012601C4134861C444F8EE
:102C4000105920466561E5612562FDF799FC0F4D3D
:102C50000222694600206C61FFF70EFB30B99DF837
:102C6000000018B99DF80100162803D000F06EF995
:102C700008B070BD6E6000F013FAF9E70010024072
:102C80000004004800540040380F300000000020CD
:102C90000148406870470000000000200A460849CB
:102CA00010B5496849B1002A07DB042A05DA014654
:102CB000104600F02DFA002010BD4FF0FF3010BD7F
:102CC00000000020FDF75EBBF0B587B0054600248C
:102CD0006A462A21FFF76FFD002861D19DF80000A8
:102CE00018B9012428208DF80000C0B24FF47A7181
:102CF00010FB01F0C70905AA2D212846FFF75BFD4F
:102D000000284DD104AA1C212846FFF754FD0028B5
:102D100046D103AAB8212846FFF768FD00283FD115
:102D200001AA2C212846FFF746FD002838D19DF83E
:102D300004004FF47A51B1FBF0F0C5F888006E68DA
:102D4000B74202D3C5F8847002E00020C5F88400C1
:102D50009DF8140080070DD502AA26212846FFF70A
:102D600065FD00281CD1BDF808004FF47A71484376
:102D7000C10900E000210398891B02029DF81000A0
:102D8000001FB2FBF0F0814200DB08469DF8041002
:102D900048430109284600F005F8A5F88C002046B4
:102DA00007B0F0BD10B450F8803F0029D0E90142CF
:102DB00018DD0E4890FBF1F0A0F5F270002802DC5F
:102DC000002010BC7047B0F5005F04DA6043D118F2
:102DD000B0FBF1F003E0D118B0FBF1F0604310BCA0
:102DE000FFF745BD6FF00040EBE700000068890980
:102DF000F0B587B000240D46009407460394049470
:102E00006FF000466A466C210594FFF7EFFC010065
:102E100033D10098B04200D9009404AA74213846F6
:102E2000FFF7E4FC010028D103AA7C213846FFF714
:102E3000DDFC010021D105AA80213846FFF7D6FC30
:102E400001001AD1039A6A610598A861824200D9EB
:102E5000104608B94FF21860009A4FF47A735A433B
:102E6000B2FBF0F2049B4FF47A7403EB43035B0074
:102E70006343B3FBF0F0C5E9030207B00846F0BDB9
:102E80002DE9F35F00260446DFF8B8B04FF00108E3
:102E90004FF0904951E02C4900254FEA0B0A0F5C96
:102EA00008FA05F1394201D1012200E000221AF8A6
:102EB000053003F00F0108FA01F081B2180909EB9F
:102EC0008020FDF752FB6D1C082DE9D360782E2879
:102ED0000DD19AF80700002200F00F0308FA03F161
:102EE000030989B209EB8320FDF73FFB641CDFF87F
:102EF00054A04746AAF1080A4D461AF806000022D7
:102F000000F00F0108FA01F1000989B209EB8020F5
:102F1000FDF72BFB0198FFF7D5FE1AF806000122FA
:102F200000F00F018F400009B9B205EB8020FDF7DA
:102F30001CFB641C761C042E02DA20780028AAD11F
:102F4000BDE8FC9F1800002064380008F0B5324846
:102F500087B0C16C41F00401C164C16C01F004018F
:102F60000591C16C41F08001C164C16C01F0800128
:102F70000591C16C41F00101C164C16C01F0010116
:102F80000591C16C41F00201C164C06C012500F0E3
:102F90000200059040F2333000900024CDE9015446
:102FA0004FF09046694630460394FDF7F7F98027C5
:102FB000CDE90074694630460294FDF7EFF94020F0
:102FC00000901648CDE9010469463046FDF7E6F960
:102FD00040F279400090CDE90154694610480394CD
:102FE000FDF7DCF90097CDE9015469460D480394DB
:102FF000FDF7D4F90C4F0122385D00F00F0105FAFE
:1030000001F1000989B206EB8020FDF7AEFA641CDD
:10301000042CF0DB07B0F0BD0010024000001110DE
:103020000004004800080048100000200448022264
:10303000018841F4F061018001461220FFF73CB99C
:103040000000002070B50E460025044620E012491D
:10305000124A8023095C1088AB4040F07F0040F4A6
:10306000F060984301F07F018843108002220B49F1
:103070001220FFF721F960782E2800D1641C304619
:10308000FFF720FEFFF7D2FF641C6D1C042D02DA4F
:1030900020780028DBD170BD6438000800000020D3
:1030A00030B5184887B0C16C41F00101C164C16CF2
:1030B00001F001010691C16C41F00201C164C06CD4
:1030C000114C00F0020006904FF4866000258DE858
:1030D000310069464FF09040FDF760F901208DE81E
:1030E000310069460948FDF759F94FF2FF70ADF814
:1030F0001400022205A91420FFF7DEF8FFF796FF5F
:1031000007B030BD0010024000001110000400485C
:1031100003280AD002280BD001280CD04FF480538A
:103120000A4A108851B1184309E04FF40043F7E709
:103130004FF40053F4E74FF48043F1E798431080D5
:10314000022202491220FFF7B7B800000000002059
:1031500002E008C8121F08C1002AFAD17047704760
:10316000002001E001C1121F002AFBD170470000BE
:103170002DE9FF4F002795B004460120CDE90270EC
:1031800011971097207E1E46C0EB00230A93239BC5
:103190003D463946BB46BA46B9460C2B0AD00D2BE4
:1031A0000AD00E2B06D00F2B06D00A98824208D3E5
:1031B000012708E0102106E01021C82310FB03F0CE
:1031C00016904FF0010B16980B906068D4F884E0CD
:1031D00000F548734FF0B40C08930EFB0CF34FF45A
:1031E0009C7CB3FBFCF3034440F2523807930EFB84
:1031F00008F3B3FBFCF303444FF4AF6805930EFBF5
:1032000008F3B3FBFCF303EB000E3C2A04D208984E
:10321000864201D210250127A52A09D207988642A5
:1032200001D2102501279630864201D2012002905A
:10323000229843F69823984202D94FF001094F464D
:103240004B2E02D24FF001094F46A06B78B1B0422D
:1032500001D2331A00E0831B4FF0640C03FB0CF324
:10326000B3FBF0F0322802D94FF0010902E0B9F1C6
:10327000000F13D0002318464FF6FF7CC4F81C3013
:1032800004EB4008A8F824C004EB8008401C80B27E
:10329000C8F838300A28F3D3236211E05FF0090040
:1032A00004EB4003B3F822C0A3F824C004EB80036E
:1032B000401ED3F834C00004C3F838C0000CEFD16E
:1032C000BBF1000F01D0169801E04FF6FF70A0840B
:1032D000A663206A401C2062B2F5AF7F03D2059836
:1032E000864202D203E0764501D3012709E041B1CD
:1032F00023980C2801D00E2800D10D46012700206C
:10330000039009AA4FF4D6712046FFF754FAE0BBA8
:103310009DF824800EAA4FF486712046FFF766FAC6
:1033200098BB0FAA4FF488712046FFF75FFA60BB85
:10333000B9F1000F02D19FB1039888B1B8F13E0FE7
:1033400006D03E224FF4D6712046FFF711FCE0B9BB
:103350000E9961660F98C4E91A012067002021E0E8
:103360000E98B8F13E0F15D0E0660F982067207FC9
:10337000C00713D05FF03E008DF82400C2B24FF4B6
:10338000D6712046FFF7F4FB50B14FF0FF3019B073
:10339000BDE8F08F60660F98A066E8E73C20EBE799
:1033A000E069401CE06127B1E567102D7DD00B98E6
:1033B000EDE7A16E206F814201D90B1A00E00023D6
:1033C000636702994FF4617031B10146676EE26E36
:1033D000974204D9BA1A03E04FF4E161F6E7D21B31
:1033E0008A4201D9571A00E000271144BB4201D399
:1033F0008B4202D94FF0010A72E0E169012901D83C
:10340000052100E0032189462299962231B16423E7
:103410005E43B6FBF1F189B21E2901D310460AE0E2
:10342000052908D940F2EE20491F41431920B1FB7C
:10343000F0F0C0F5617000210B468C460E468E46BA
:103440000A464FF6FF7700BF04EB4208B8F8248025
:10345000B84507D0434404EB8208491CD8F83880AB
:1034600089B24644521C92B20A2A01D20629EBD3F1
:1034700019B1B3FBF1FCB6FBF1FE00210B460E4681
:103480004FEA010204EB4207BF8CA7F57F48B8F171
:10349000FF080FD0A7EB0C0707FB073304EB8207ED
:1034A000491C89B2D7F8388000E072E0A8EB0E071B
:1034B00007FB0766521C92B20A2A01D20629E1D301
:1034C000364F494508D3B3FBF1F293B2B6FBF1F2A4
:1034D00092B2BA4202D38DE700231A46494501D27F
:1034E00010251CE040F6AC56B24207D2A0F6A66703
:1034F0007F425743B7FBF6F2024401E040F6A66272
:10350000E66F06B99200B0EBC30F04D9062902D3C7
:103510000120109003E09342DDD201201190BBF115
:10352000000F0CD0BAF1000F0ED0B4F86000801C70
:1035300080B2A4F86000042814D9042010E0B4F884
:10354000600078B1401E0BE0119830B1B4F8600013
:1035500040B110250128F5D801E0109810B10020E5
:10356000A4F86000E06F00287FF41EAF002D3FF448
:103570001BAF012000214FF6FF7200BF04EB400398
:103580009A8404EB8003401C80B299630A28F5D327
:103590000AE70A9880B20B90F9E60000905F0100FC
:1035A000B0B0FDF73BF9FEF7FBFDFCF77BFEFFF744
:1035B0001DFB8048FFF71CFBFDF772FD4FF47A718D
:1035C000B0FBF1F0401E4FF00009B0F1807F0AD24D
:1035D0004FF0E02148617848F02280F8142DC1F8BE
:1035E000189007200861FFF753FB90B304250024CF
:1035F00021460020FFF752FB641CAC42F8DB00269A
:103600006EA128A8FCF70DFEDFF8B8814FF0520A32
:103610000DF1A80B6D1E29460120FFF73FFB02208C
:10362000FCF7B0FE05EB450000EB051208EBC20409
:10363000204684F894A02EAA0021FFF7BCF858B1C8
:1036400054F8940F28A920F4803020602020485599
:1036500032E0FFE75CA06DE0D4F8940040F48030E5
:10366000C4F894004BF826502046761CFEF7CAFE9C
:10367000542000EB4507522F08D0F9B22046FFF73F
:10368000F1F808B158A055E084F894700120FCF7D7
:1036900079FE2EAA00212046FFF78DF80120FCF7C5
:1036A00071FE2046FEF700FF002801DA55A041E038
:1036B00000212046FEF772FE6D1EACD58DF8A49059
:1036C00028A8FCF727FEE94600255C4613E000BF6A
:1036D00054F8250000EB400101EB001108EBC10795
:1036E0003846FFF765F8002823DB57F8940F6D1C68
:1036F00020F400303860B542EADB4FF0000A00BF2A
:10370000FCF7EEFD002523E054F8250000EB400116
:1037100001EB001108EBC107D7F89400800316D421
:1037200005EB850109EBC10138462E91FEF78CFFB0
:1037300010B13AA0FEF792F92E988068122806D0B0
:1037400057F8940F0AF1010A40F4003038606D1CFC
:10375000B542D9DBB245D3DB39A128A8FCF761FD1E
:1037600000201FE000EB800209EBC2039B680BB155
:1037700020210AE059F832103C2901DA5F2104E0E7
:10378000782901DA3D2100E07E2154F82020401CF8
:1037900002EB420303EB021308EBC30292F89530ED
:1037A00028AAD154B042DDDB064928A8183948615F
:1037B0008AE70000A00300200FE000E0544C4252D2
:1037C0000000000038000020563220657870616EDD
:1037D00073696F6E20626F61726420697320726515
:1037E0007175697265640000564C36313830785F07
:1037F0005365744932434164647265737320666132
:10380000696C0000564C36313830785F5072657004
:10381000617265206661696C00000000564C3631AB
:103820003830785F52616E676553746172745369A2
:103830006E676C6553686F74206661696C00000088
:103840002D2D2D2D00000000FD007F005400B9003B
:10385000720144020014000A00058002AB0140011D
:10386000000100280000000000000000000000002F
:103870000000000000000000000000000000000048
:1038800000000000000000000000000000007F00B9
:10389000004000003F065B4F666D7D077F6F0000B4
:1038A0000048005309777C390079716F76061E76DF
:1038B0003815543F6773506D783E1C2A766E5B391D
:1038C000000F0108005C7C585E7B716F74101E74E1
:1038D0001815545C7367506D783E1C2A766E5B0039
:1038E000000049000000000000000000000000008F
:1038F00000000000000000000000000000000000C8
:1039000000000000000000000000000000000000B7
:1039100000000000000000000000000000000000A7
:103920000000000000000000000000000000000097
:103930000000000000000000000000000000000087
:103940000000000000000000000000000000000077
:103950000000000000000000000000000000000067
:10396000000000000000000000000000010203044D
:1039700006070809A0860100400D0300801A060012
:1039800000350C0040420F0080841E0000093D00FD
:1039900000127A000024F40000366E010048E801AD
:1039A000006CDC02C439000800000020A003000005
:1039B00058020008EC390008A00300204804000069
:1039C00060310008918284641004015916270908A7
:1039D0001A141513323802FF200140029801029890
:0C39E00002320305FE4572722063093DAF
:040000050800018965
:00000001FF
