:020000040800F2
:10000000E8070020D5000008DD000008DF00000838
:1000100000000000000000000000000000000000E0
:10002000000000000000000000000000E1000008E7
:10003000E300000800000000E5000008ED190008DA
:10004000E9000008E9000008E9000008E9000008EC
:10005000E900000827030008E90000083103000850
:10006000E9000008E9000008E9000008E9000008CC
:10007000E9000008E900000800000000E9000008AD
:1000800000000000E900000800000000000000007F
:10009000E900000800000000E9000008E90000088D
:1000A000E9000008E9000008E9000008E90000088C
:1000B000E9000008E9000008E9000008E90000087C
:1000C0000348854600F07CF800480047A135000849
:1000D000E80700200548804705480047FEE7FEE79F
:1000E000FEE7FEE7FEE7FEE7FEE70000811A0008F4
:1000F000C100000830B50B46014600202022012433
:1001000009E00D46D5409D4205D31D469540491B4B
:100110002546954040191546521E002DF1DC30BD94
:1001200070B500242546002801DA01244042002948
:1001300001DA01254942FFF7DDFFAC4200D0404221
:10014000002C00D0494270BD03460B439B0703D0EF
:1001500009E008C9121F08C0042AFAD203E00B788C
:100160000370401C491C521EF9D27047421E53783E
:10017000521C002BFBD10B781370491C521C002B16
:10018000F9D1704710B5044605E00B780370401CA8
:10019000002B00D0491C521EF7D2204610BD421C35
:1001A0000178401C0029FBD1801A704703460A7869
:1001B0000270401C491C002AF9D118467047000003
:1001C000064C0125064E05E0E36807CC2B430C3CAA
:1001D00098471034B442F7D3FFF776FF383A000857
:1001E000583A000830B58C180278401C13071B0FD2
:1001F00001D10378401C120906D10278401C03E0AB
:1002000005780D70401C491C5B1EF9D101E00B7094
:10021000491C521EFBD1A142E6D3002030BD000094
:1002200010B501214903034800F09CF9044620461B
:1002300010BD00000008005000B587B000BF0C489A
:10024000C06A042108430A49C8620846C06A0421FA
:100250000840019000BF00BFC80202900020039038
:10026000049002A9034800F087F807B000BD000021
:10027000001002400008005010B50C48006800282B
:100280000AD00922094801680948FFF77BFF0020CE
:1002900007494872054908600121054802F0BCF988
:1002A00004480068401C0349086010BD6802002033
:1002B000DC0300206C020020FEB50546FA2600246F
:1002C000002001902846FFF76AFF074600F05AF920
:1002D00000901CE0281901F083FBFFF7CDFF00F030
:1002E00051F90099401AB04210D900F04BF9009032
:1002F000201DB84209DB0198411C0191042800DA55
:1003000005E000200190002400E0641C00BFFFF71E
:1003100087FF0028DED101E0FFF7AEFFFFF780FF87
:100320000028F9D0FEBD10B5012000F015F810BD71
:1003300010B5402000F010F810BD31B5002400F0D9
:1003400021F9044600BF00F01DF9001B0099884206
:10035000F9D338BD7047000010B504460548406920
:100360002040002804D0034844612046FFF7F2FFF4
:1003700010BD00000004014070B5034600220024B7
:100380000020DAE0012696400D6835402C46002C0E
:1003900077D04D68022D02D04D68122D15D1D508A9
:1003A000AE001D462035A8595507EE0E0F25B54065
:1003B0000646AE4330465607F60E0D69B540284353
:1003C000D508AD001E46203670514D68012D08D06D
:1003D0004D68022D05D04D68112D02D04D68122DAB
:1003E00018D1986856000325B5400646AE433046FE
:1003F0005600CD68B540284398605868012595405F
:100400000646AE43304610264D6835402D099540CE
:1004100028435860186856000325B5400646AE4389
:1004200030460D79AD07AD0F5600B5402843186032
:10043000D86856000325B5400646AE433046560000
:100440008D68B5402843D860012636074D68354091
:10045000B54271D13C4D6D6B012635433A4E756303
:100460003A4D9608B600A85995072E0F0F25B540AE
:100470000646AE43304605252D07AB4202D1002586
:1004800015E059E0324DAB4201D101250FE0314D6D
:10049000AB4201D102250AE02F4DAB4201D1032529
:1004A00005E02E4DAB4201D1052500E0062596075B
:1004B000360FB5402843254D9608B600A851284D63
:1004C00028680546A5432846012636044D68354070
:1004D000B54202D1054625432846214D286068686B
:1004E0000546A5432846012676044D683540B542A9
:1004F00002D1054625432846194D6860A86805467F
:10050000A5432846012636054D683540B54202D13F
:10051000054625432846124DA860E8680546A543D0
:100520002846012676054D683540B54202D105467C
:10053000254328460A4DE860521C0D68D540002D21
:1005400000D01FE770BD000000100240080001400D
:100550000004005000080050000C0050001C005027
:1005600000040140024613690B40002B01D001201A
:1005700000E000207047002A01D0816100E0816224
:100580007047000001480068704700009803002091
:1005900010B50446002C01D1012010BD3520005DAE
:1005A000002805D1002134200155204600F0A0F993
:1005B000022135200155206800684008400021686C
:1005C00008600F2109066068884321680861206877
:1005D00080680121C903884321688860A0680028D9
:1005E0000FD0E068012806D10121C903A0680843A3
:1005F0002168886005E021218902A06808432168FC
:100600008860E068022802D1800221684860206882
:1006100040680F49084321684860616920690843C0
:10062000A169090208432168C860216AE06908439A
:10063000216808602068006801210843216808607B
:100640000020A0630121352001550020A5E700000E
:1006500000800002FFB581B0044616461D46002703
:100660003520005D01287DD1002E01D0002D02D162
:10067000012005B0F0BD206880690121C903084050
:10068000C00B002801D00220F3E700BF3420005D3A
:10069000012801D10220ECE701213420015500BFDF
:1006A0002221352001550020A063FF2D0BDD0920FC
:1006B000800201231B06FF2200902046029901F0D0
:1006C0004BF8FF270AE009208002EAB201235B060B
:1006D00000902046029901F03FF82F4600BF00220B
:1006E000042120460A9B01F04FF8002801D0032086
:1006F000BFE72068406A3070761C7F1E681E85B296
:10070000002F22D1002D20D00022802120460A9BDC
:1007100001F03AF8002801D00320AAE7FF2D0ADDF6
:10072000002001231B06FF2200902046029901F0C1
:1007300013F8FF2709E00020EAB201235B060090CE
:100740002046029901F008F82F46002DC7DC192138
:10075000204601F06EF8002807D0A06B042802D1D3
:10076000012086E714E0032083E720202168C86188
:100770002068406807490840216848600121352009
:10078000015500BF00213420015500BF002070E753
:1007900002206EE700E800FEFFB583B0044616466F
:1007A0001D460C9F002002903520005D01287DD160
:1007B000002E01D0002D02D1012007B0F0BD20682D
:1007C00080690121C9030840C00B002801D0022024
:1007D000F3E700BF3420005D012801D10220ECE7DF
:1007E00001213420015500BF122135200155002080
:1007F000A063FF2D0BDD01204003C302FF22009008
:100800002046049900F0A8FFFF20029009E0012093
:100810004003EAB2030300902046049900F09CFFD5
:10082000029500BF3946204601F031F8002806D075
:10083000A06B042801D10120BFE70320BDE7307879
:1008400021688862761C0298401E0290681E85B25C
:100850000298002823D1002D21D03B460022802180
:10086000204600F091FF002801D00320A5E7FF2DCE
:100870000BDD002001231B06FF2200902046049977
:1008800000F06AFFFF20029009E00020EAB2012395
:100890005B0600902046049900F05EFF0295002D53
:1008A000C0DC3946204600F0C4FF00E01BE0002811
:1008B00006D0A06B042801D101207EE703207CE74D
:1008C00020202168C86120684068084908402168E4
:1008D000486001213520015500BF00213420015519
:1008E00000BF002069E7022067E7000000E800FE83
:1008F00010B586B004460E492068884215D1032001
:100900000002019012200290012003900020049028
:100910000420059001A90748FFF72EFD0648806BCB
:100920000121490508430449886306B010BD000051
:1009300000540040000400500010024002480068CB
:10094000401C0149086070479803002010B5064814
:1009500000680221884304490860032000F006F87B
:1009600000F017F8002010BD0020024070B50446CA
:1009700000F09AFA06467D21C900FFF7BBFB054649
:1009800000F05EFE00222146501E00F009F8002013
:1009900070BD10B500221146501E00F001F810BDC8
:1009A00070B504460D4616462946204600F0DCFF89
:1009B00070BD000070B50446002600252021206887
:1009C0000840202804D0890120680840884275D159
:1009D0007448806B01210907084372498863724893
:1009E00000688915084370490860FFF7CBFD06468B
:1009F00006E0FFF7C7FD801B642801D9032070BD06
:100A000069480068FF21013108400028F1D065489D
:100A1000403000690321090408400322120461697F
:100A20001140884204D11146A0690840A84259D01B
:100A30005C48403000690321090488430546594851
:100A4000403000690121C90408435649403108611A
:100A5000084600690121C9048843524940310861B0
:100A60000846056140152840002814D0FFF78AFD8C
:100A7000064607E0FFF786FD801B4C49884201D9F6
:100A80000320BCE747484030006901214902084083
:100A9000400A0028EED000BF032109046069084025
:100AA00088420CD13F4800680901884303221204A0
:100AB0006169914308433B49086007E012E0394807
:100AC00000680321090588433649086035484030ED
:100AD00000690321090488436169084331494031B1
:100AE000086100BF2078C007C00F002809D02D483A
:100AF0004030C0688008800061680843294940315F
:100B0000C860022120680840022809D125484030E9
:100B1000C0680C218843A168084322494031C8605D
:100B200004212068084004280AD11E484030C068CB
:100B3000032189028843E16808431A494031C860AB
:100B400008212068084008280AD116484030C068AB
:100B50000321090388432169084312494031C860D1
:100B6000402120680840402809D10E484030C06824
:100B700009058843E16908430A494031C86080217A
:100B80002068084080280AD106484030C068032108
:100B900089048843216A084302494031C860002023
:100BA0002DE7000000100240007000408813000094
:100BB00070B504460E460025B8480068C007C00F4F
:100BC000B0426ED2B5480068400840003043B34997
:100BD000086008460068C007C00FB04201D001207D
:100BE00070BD022120680840022807D1AC48C068C7
:100BF000F0218843A1680843A949C8602078C0074C
:100C0000C00F00284CD06068022809D1A4480068B1
:100C1000012149040840400C002824D10120DFE7CD
:100C20006068002809D19E480068012149020840F7
:100C3000400A002817D10120D2E76068032809D1B3
:100C400097480068012149060840400E00280AD153
:100C50000120C5E792480068042108408008002868
:100C600001D10120BCE78E48C0688008800061681F
:100C700008438B49C860FFF785FC05466068022879
:100C800010D107E0FFF77EFC401B8649884201D95E
:100C90000320A5E78248C0680C2108400828F1D14C
:100CA000DAE035E0606803280FD107E0FFF76AFC5F
:100CB000401B7C49884201D9032091E77848C068ED
:100CC0000C2108400C28F1D1C6E0606800280FD143
:100CD00007E0FFF757FC401B7249884201D9032007
:100CE0007EE76F48C0680C2108400028F1D1B3E0CE
:100CF00007E0FFF747FC401B6A49884201D90320FF
:100D00006EE76748C0680C2108400428F1D1A3E0D1
:100D1000022120680840022807D16148C068F021FC
:100D20008843A16808435E49C8602078C007C00FA7
:100D300000284CD06068022809D159480068012178
:100D400049040840400C002824D1012048E760688D
:100D5000002809D152480068012149020840400A90
:100D6000002817D101203BE76068032809D14C48CF
:100D70000068012149060840400E00280AD10120E0
:100D80002EE747480068042108408008002801D168
:100D9000012025E74248C068800880006168084358
:100DA0003F49C860FFF7EEFB0546606802280FD197
:100DB00007E0FFF7E7FB401B3A49884201D90320CF
:100DC0000EE73748C0680C2108400828F1D134E00C
:100DD000606803280FD107E0FFF7D4FB401B3149BF
:100DE000884201D90320FBE62D48C0680C21084049
:100DF0000C28F1D121E0606800280FD107E0FFF74F
:100E0000C1FB401B2749884201D90320E8E624485A
:100E1000C0680C2108400028F1D10EE007E0FFF780
:100E2000B1FB401B1F49884201D90320D8E61C486A
:100E3000C0680C2108400428F1D118480068400817
:100E4000400030431549086008460068C007C00FDD
:100E5000B04201D00120C3E60421206808400428E4
:100E600008D10F48C068072109028843E168084398
:100E70000B49C860082120680840082809D10848A3
:100E8000C0680721C90288432169C9000843044991
:100E9000C8600320FFF76AFD0020A1E600200240A1
:100EA000001002408813000010B500F013F8064946
:100EB000C968F02211400909044A515CC84004493C
:100EC00008600846006810BD00100240253A00087E
:100ED0009C030020F8B50024002600200090002785
:100EE000002532484068072149030840470B2F4836
:100EF000C0680C210840002806D0042809D0082822
:100F000011D00C2849D110E0781C01218140CD037B
:100F100048E02648006810210840002801D0244DF0
:100F200000E0244D3EE0244D3CE02048C0680F2105
:100F30008904084004461D48C0680321890508400B
:100F40000646A00C1D490C5CB00D461C1748C06835
:100F500001210904084000900098002815D1134889
:100F6000006810210840002807D011496143084655
:100F70003146FFF7BFF805460EE00E4961430846CB
:100F80003146FFF7B7F8054606E00B4961430846CE
:100F90003146FFF7AFF8054604E0781C0121814097
:100FA000CD0300BF00BF2846F8BD0000001002407E
:100FB00000093D000024F40000127A001C3A0008E9
:100FC000F8B5044600252078C007C00F00286BD074
:100FD000F748C0680C21084008280BD0F448C068C6
:100FE00008400C2813D1F248C068012109040840C8
:100FF00088420CD1EE480068012149040840400CA9
:10100000002866D06068002863D10120F8BD00BFC9
:10101000012109046068884205D1E5480068084359
:10102000E349086028E0052109046068884215D179
:10103000DF480068012109048843DD49086008464B
:101040000068012189040843D949086008460068FE
:10105000012109040843D64908600DE0D44800681E
:10106000012109048843D24908600846006801212B
:1010700089048843CE49086000BF6068002814D006
:10108000FFF780FA054607E0FFF77CFA401BC949E5
:10109000884201D90320B9E7C54800680121490405
:1010A0000840400C0028EFD013E0FFF76BFA05462C
:1010B00007E0FFF767FA401BBE49884201D90320C9
:1010C000A4E7BB480068012149040840400C0028FF
:1010D000EFD102212068084002286AD1B448C068D4
:1010E0000C21084004280BD0B148C06808400C28E7
:1010F0001DD1AF48C068012109040840002816D15D
:10110000AB480068042108408008002804D0E0684B
:10111000012801D0012079E7A54840681F21090274
:101120008843216909020843A149486041E0E06819
:10113000002824D09E48006809218843E1680843BC
:101140009B490860FFF71EFA054606E0FFF71AFA0A
:10115000401B642801D9032058E795480068042102
:10116000084080080028F1D0914840681F210902FA
:1011700088432169090208438D49486019E08C4879
:10118000006809218843E168084389490860FFF73E
:10119000F9F9054606E0FFF7F5F9401B642801D987
:1011A000032033E7824800680421084080080028B3
:1011B000F1D1102120680840102872D17C48C06805
:1011C0000C210840002822D17948006801214902F9
:1011D0000840400A002804D0E069002801D101201D
:1011E00014E773484068072149038843616A08434C
:1011F0006F494860084640680002000A218C0906D1
:1012000008436B4948600320FFF7B0FB49E0E06901
:1012100000282CD066480068FF210131084364494A
:101220000860FFF7AFF9054606E0FFF7ABF9401B92
:10123000642801D90320E9E65D48006801214902DC
:101240000840400A0028F0D0594840680721490367
:101250008843616A0843564948600846406800026E
:10126000000A218C090608435149486019E050489A
:101270000068FF21013188434D490860FFF782F97A
:10128000054606E0FFF77EF9401B642801D90320DC
:10129000BCE647480068012149020840400A00288E
:1012A000F0D1082120680840082839D16069002859
:1012B0001BD03F4840300069012108433C49403180
:1012C0000861FFF75FF9054606E0FFF75BF9401B91
:1012D000642801D9032099E635484030006902218D
:1012E000084040080028F0D01AE03148403000693A
:1012F000400840002E4940310861FFF743F9054698
:1013000006E0FFF73FF9401B642801D903207DE682
:101310002748403000690221084040080028F0D1E9
:10132000202120680840202851D1A069002826D01B
:1013300000BF1F488068012108431D498860084696
:10134000406B012108431A4948631B48006A49144D
:1013500008431949086200BFFFF714F9054606E083
:10136000FFF710F9401B642801D903204EE610480E
:1013700080680221084040080028F1D027E000BF23
:101380000B48806840084000094988600A48006AA4
:101390000A4908400849086200BFFFF7F3F805460C
:1013A0000EE0FFF7EFF8401B642809D903202DE673
:1013B000001002408813000000000140FEDFFFFF24
:1013C0009B4880680221084040080028E9D1042198
:1013D0002068084004287DD1002600279448806BAF
:1013E00089060840002805D19148806B0843904940
:1013F000886301268F480068FF21013108400028DA
:1014000017D18C48006808438A4908600127FFF714
:10141000B9F8054606E0FFF7B5F8401B642801D986
:101420000320F3E583480068FF21013108400028CC
:10143000F1D000BFFF210131A068884207D17C486C
:101440004030006908437A494031086140E0A068B3
:10145000002810D1764840300069FF2101318843CF
:10146000734940310861084600690915884370498D
:10147000403108612CE005210902A068884217D19B
:101480006B4840300069FF21013188436849403191
:10149000086108460069091508436549403108613B
:1014A00008460069891508436149403108610FE029
:1014B0005F4840300069FF21013188435C49403179
:1014C0000861084600690915884359494031086197
:1014D00000BF00E03EE0A068002815D0FFF752F8FA
:1014E000054607E0FFF74EF8401B5349884201D9F3
:1014F00003208BE54E484030006901214902084035
:10150000400A0028EED014E0FFF73CF8054607E05B
:10151000FFF738F8401B4849884201D9032075E598
:10152000434840300069012149020840400A002830
:10153000EED1012F05D13F480068390288433D496B
:101540000860012E05D13A48806B3107884338493D
:10155000886300BFA06A002867D03548C0680C21A6
:1015600008400C285FD0A06A022841D130480068AA
:101570000121090688432E490860FFF703F8054654
:1015800006E0FEF7FFFF401B642801D903203DE57C
:1015900027480068012149060840400E0028F0D184
:1015A000616B206B0843E16A08432149C968FD2249
:1015B0001204914308431E49C8600846006801218F
:1015C000090608431A490860FEF7DCFF054606E0F5
:1015D000FEF7D8FF401B642801D9032016E5144804
:1015E0000068012149060840400E0028F0D01CE0A8
:1015F0000F4800680121090688430D490860FEF77D
:10160000C1FF054606E0FEF7BDFF401B642801D977
:101610000320FBE406480068012149060840400E0B
:101620000028F0D101E00120F0E40020EEE4000009
:101630000010024000700040881300007047000056
:1016400070B504462546681E0949884201D9012023
:101650000CE0681E074948610321081F00F084F967
:1016600000200449886107200861002070BD000047
:10167000FFFFFF0000E000E010B5FFF7DFFF10BD47
:10168000044621460348FEF771FD02E00148FEF7DB
:1016900013FEFBE77602002070B504460D460026D7
:1016A000FEF770FF06462068806910210840000997
:1016B00000284CD03520005D122807D03520005D71
:1016C000522803D03520005D62280CD12068406884
:1016D000012149060840884205D020684068C912A7
:1016E00008432168486013E0681C002810D0002DD2
:1016F00004D0FEF747FF801BA84209D901213520FD
:10170000015500BF00213420015500BF032070BDEA
:10171000206880692021084040090028E4D010207A
:101720002168C86120202168C86120684068094993
:101730000840216848600420A0630121352001553C
:1017400000BF00213420015500BF0120DFE7002049
:10175000DDE7000000E800FEF0B50C46002105685A
:101760006968084D2940A505AD0D1604FF273F0403
:101770003E4035431D43059E354329430568696056
:10178000F0BD0000009800FCFFB581B004460E4695
:101790001D46FEF7F7FE07460398002824D114E003
:1017A000681C002811D0002D04D0FEF7EBFEC01BF2
:1017B000A8420AD901213520015500BF002134205B
:1017C000015500BF032005B0F0BD20688069F1031A
:1017D000C90B0840F103C90B884201D1012000E088
:1017E00000200028DCD022E013E0681C002810D084
:1017F000002D04D0FEF7C6FEC01BA84209D9012166
:101800003520015500BF00213420015500BF0320C1
:10181000D9E720688069F103C90B0840F103C90BBF
:10182000884201D1012000E000200028DDD1002005
:10183000C9E770B504460D460026FEF7A3FE06462E
:101840001CE029462046FFF727FF002801D0012091
:1018500070BD002D04D0FEF795FE801BA8420DD967
:10186000A06B20210843A06301213520015500BF52
:1018700000213420015500BF0320E9E7206880697A
:101880002021084040090028DBD00020E0E770B5A7
:1018900004460D46FEF776FE06461FE02946204622
:1018A000FFF7FAFE002801D0012070BD681C002857
:1018B00014D0002D04D0FEF765FE801BA8420DD980
:1018C000A06B20210843A06301213520015500BFF2
:1018D00000213420015500BF0320E6E7206880691D
:1018E0000221084040080028D8D00020DDE7000091
:1018F00010B5002819DA1A4A03071B0F083B9B088A
:101900009B00D2588307DC0EFF23A3409A438B072A
:101910001B0E8407E40EA3401A43114B0407240F47
:10192000083CA408A4001A5118E00E4A03231B0225
:10193000D21883089B00D2588307DC0EFF23A340F4
:101940009A438B071B0E8407E40EA3401A43054BF2
:10195000032424021B198408A4001A5110BD00009E
:101960001CED00E000E100E010B5002819DA1A4A89
:1019700003071B0F083B9B089B00D2588307DC0E14
:10198000FF23A3409A438B071B0E8407E40EA3405A
:101990001A43114B0407240F083CA408A4001A5151
:1019A00018E00E4A03231B02D21883089B00D2586A
:1019B0008307DC0EFF23A3409A438B071B0E84078B
:1019C000E40EA3401A43054B032424021B19840888
:1019D000A4001A5110BD00001CED00E000E100E081
:1019E00001490860704700006802002010B5FEF74A
:1019F000A5FFFFF741FE10BD00B59DB01E48806BEE
:101A00000121090708431C4988631C480068032119
:101A1000C90288430121C902401818490860022000
:101A20000F90012012901020139002201990002195
:101A30001A9141041B9141051C910FA8FFF7C0FAB0
:101A400001200A9003200B9000200C900D900E9026
:101A500001210AA8FFF7ACF80820019000200590AA
:101A600001A8FEF7A7FF0448406B01210843024983
:101A700048631DB000BD000000100240007000402F
:101A800015480068FF2101310843134908600846E2
:101A9000C068124908401049C860084600681049EB
:101AA00008400D490860084680684008400088608A
:101AB00008460068012189048843074908600846F0
:101AC000C068FD21090488430349C86000200861FB
:101AD000C803044988607047001002400C40FF882A
:101AE000F6FFF6FE00ED00E0FEB506460F46154691
:101AF000F0B2019000BF642000900F48008881B2CE
:101B0000012301AA0D480068FEF746FE0446002C9A
:101B100000D00EE0284664214843ABB2009006484E
:101B2000008881B23A4605480068FEF793FD0446F6
:101B300000BF00BF2046FEBD840300207C030020C0
:101B4000F0B585B004460E46154669460C712A4626
:101B5000314601A80130FEF7F7FA64200090681CB6
:101B600083B20648008881B201AA05480068FEF7E2
:101B700013FE0746384605B0F0BD00008403002080
:101B80007C03002070B506460C46042C08DCE006F9
:101B9000030EC7221421304600F08EFB054601E0FB
:101BA0000125ED43284670BDF8B506460C46402198
:101BB000204688430446072C00DD072440202746A2
:101BC00007433A463F21304600F0E2FC0546002D2F
:101BD00000D1B4822846F8BDF8B507460D46012D60
:101BE00002DB681E84B200E02C46FF20D130844224
:101BF00001DD044603E0FF2C01D1601C84B22246C3
:101C00004021384600F0EEFC0646002E00D17C82D2
:101C10003046F8BDF8B506460C460848844200DB5D
:101C200004460A212046FEF77BFAC7B23A463E2117
:101C3000304600F0ADFC05462846F8BDF609000028
:101C4000F8B506460C46174622463C21304600F0C1
:101C50009FFC0546002D05D13A463A21304600F05A
:101C600097FC05462846F8BD70B506460C46072C7D
:101C700006DC22461521304600F08AFC054601E0CC
:101C80000125ED43284670BD70B506460C469020F0
:101C90008455002C04D0304600F07EFD054600E05F
:101CA0000025284670BD0000F8B504460D461646CE
:101CB000642000909420015D33462A460748FEF7D1
:101CC000C9FC0746002F02D0044800F0BBFC002FDF
:101CD00002D00020C043F8BD0020FCE7A003002094
:101CE000F8B504460D461646642000909420015D28
:101CF00033462A460748FEF74FFD0746002F02D01D
:101D0000044800F09FFC002F02D00020C043F8BD23
:101D10000020FCE7A0030020F0B585B00446552064
:101D200020816420608100212174012020766420BC
:101D300060820120A082E08260760121902001551E
:101D4000204600F0B9FD00BF03AA2421204600F080
:101D5000ECF90546002D00D03EE068460C214156C6
:101D60009120015501AA2621204600F0FBF90546E5
:101D7000002D00D030E00198000C0004002801D1B3
:101D800017480190019820606A461E21204600F005
:101D90000FFA0546002D00D01EE0684600887D2120
:101DA000C9004843C7096760204600F0F5FC0646B5
:101DB000002E00DA10E002AA1621204600F0B5F944
:101DC0000546002D00D007E06846007A012801D1C1
:101DD000002E00D0012500BF00BF284605B0F0BD91
:101DE000F803CE0070B5054600BF284600F02AFA79
:101DF0000446002C00DA42E00421284600F042F8B4
:101E00000446002C00D03AE0C8220A21284600F0FF
:101E10005DF90446002C00D031E064212846FFF72C
:101E2000DBFE0446002C00D029E0C8212846FFF73D
:101E3000F1FE0446002C00D021E000212846FFF7E7
:101E4000B3FE0446002C00D019E0FF2200212846F2
:101E5000FFF7F6FE0446002C00D010E004212846CF
:101E6000FFF790FE0446002C00D008E0284601F061
:101E700044F807212846FFF7F7FE044600BF00BFDD
:101E8000204670BD70B506460C46042C07DC234680
:101E9000F8221421304600F00FFA054601E0012532
:101EA000ED43284670BDF8B505460C466A464F21FD
:101EB000284600F03AF9064668460078C7210840EF
:101EC00020703046F8BD7CB506460C460025002D36
:101ED00000D044E02146304600F06CF80546002D65
:101EE0003BD101AA6621304600F062F90546002D7B
:101EF00032D16846808860606A464D21304600F0E5
:101F000014F90546002D04D1684600780011A06040
:101F100000E000BF2146304600F046FD0546002D9A
:101F200000D01CE0707E00280DD02146304600F025
:101F3000ACFF0546002D06D1606A002803D0606A18
:101F4000A060208C20609020805D002806D0214673
:101F5000304600F0F9FB01E000E000BF00BF28467A
:101F60007CBDF8B506460D4669463046FFF79BFF37
:101F70000446002C1BD100984007400F042804D0D1
:101F800000980006800F00280ED029463046FFF743
:101F90009AFF0446002C0BD101213046FFF764FE66
:101FA0000446002C04D003E01220A86000E000BF2B
:101FB0002046F8BDF8B504460D466A466221204623
:101FC00000F0B3F80646002E04D1277E684600785C
:101FD000784328603046F8BDF0B589B006467D20CC
:101FE000C0000890401007903089069070890590D5
:101FF00000BF02AA1C21304600F097F80446002CCE
:1020000000D031E06846007A0190304600F094FC40
:102010000546002D02DA0024E44325E07D21C900B5
:1020200001984843471B04AAB821304600F09AF8AB
:102030000446002C00D017E0049800020490059A92
:102040007A431146FF23F533069A5A43049B5A43B9
:102050001046FEF74FF80390039882B222213046D3
:1020600000F0C0FA044600BF00BF204609B0F0BD32
:10207000F8B507460D46002D01D0012400E00024EC
:102080002346FE222D21384600F016F9064630463A
:10209000F8BD70B506460D46002400BF2A461C2137
:1020A000304600F075FA0446002C00D00BE03046B4
:1020B000FFF792FF0446002C00D004E0304600F009
:1020C0006BFB044600BF00BF204670BDF8B5064656
:1020D0000C4617463A461921304600F059FA054693
:1020E000002D05D122461A21304600F051FA05464E
:1020F0002846F8BD70B506460D46032D08DC2A4675
:102100001821304600F044FA0446002C02D001E0C9
:102110000124E443204670BD70B5044601212046E9
:10212000FFF7E8FF0546284670BDF7B582B00D46BB
:1021300017466C46281220706570022221460298CC
:10214000FFF7CEFD0646002E09D101222146029856
:10215000FFF7AAFD0646002E01D1207838703046E0
:1021600005B0F0BDF7B582B00D4617466C46281293
:1021700020706570022221460298FFF7B1FD0646E5
:10218000002E12D1042221460298FFF78DFD06464B
:10219000002E0AD120780006617809040843A1784E
:1021A00009020843E17808433860304605B0F0BDC5
:1021B000F7B582B00D4617466C4628122070657040
:1021C000022221460298FFF78BFD0646002E0CD115
:1021D000022221460298FFF767FD0646002E04D131
:1021E00020780002617808433880304605B0F0BDA1
:1021F000F8B507460C462646E00F8019C005020ECA
:102200000449384600F0C4F90546002D00D000BF4F
:102210002846F8BD1202000002460020012189076D
:1022200000E089089142FCD809E04318934204D8A1
:102230004318D21A4308581800E0400889080029BA
:10224000F3D17047F8B506460025307E012800D14D
:1022500000BF304600F082F90446002C00DA29E085
:10226000002C00DD00BF00BF6A46FF21213130464F
:10227000FFF75BFF0546002D00D011E068460078AF
:10228000F0826A463F213046FFF74FFF0546002D9A
:1022900000D005E0684601783046FFF785FC00BFB6
:1022A00000BF002D00DA00BF002D02D1002C00D0AD
:1022B000254600BF2846F8BDFFB583B00D4617463A
:1022C00001AC281220706570022221460398FFF7A6
:1022D00007FD0646002E12D10122A11C0398FFF72C
:1022E000E3FC0646002E0AD1A07838400699084340
:1022F000A070032221460398FFF7F2FC0646304601
:1023000007B0F0BD10B5044601226549204600F033
:102310003FF901224121C900204600F039F900228D
:102320009621204600F034F954229721204600F0EF
:102330002FF90022E321204600F02AF90422E421AB
:10234000204600F025F90222E521204600F020F980
:102350000122E621204600F01BF90322E721204656
:1023600000F016F90222F521204600F011F90522AD
:10237000D921204600F00CF9204600F081FB002214
:102380009F21204600F004F92822A321204600F0D6
:10239000FFF80022B721204600F0FAF82822BB21DE
:1023A000204600F0F5F80922B221204600F0F0F8AE
:1023B0000922CA21204600F0EBF80122FF219931C1
:1023C000204600F0E5F81722FF21B131204600F049
:1023D000DFF80022FF21AE31204600F0D9F80522B7
:1023E000FF21204600F0D4F80522FF2101312046CC
:1023F00000F0CEF80522FF219A31204600F0C8F8FF
:102400001B22FF21A731204600F0C2F83E22FF2107
:10241000AD31204600F0BCF81F22FF21A831204634
:1024200000F0B6F800223021204600F0B1F810226A
:102430001121204600F0ACF83022FF210B3120465C
:1024400000F0A6F846223F21204600F0A1F8FF2226
:102450003121204600F09CF863224021204600F004
:1024600097F801222E21204600F092F8FF222C211D
:10247000204600F08DF809221B21204600F088F844
:1024800031223E21204600F083F8242214212046E8
:1024900000F07EF832212046FFF7FBFD002010BD42
:1024A00007020000FEB505460C46012C50DB032C4C
:1024B0004ED8601E40002849085A029096212846AE
:1024C000029A00F08FF806462C7691214857214653
:1024D000FDF726FE40B201900198C2B224212846A1
:1024E00000F056F80646002E0BD121461420FDF7C9
:1024F00017FEC0B2024621210090284600F048F89D
:102500000646002E11D1287C00280ED0AF89297EE6
:102510003846FDF705FE87B2FF2F00DDFF27FAB230
:102520002521284600F034F80646002E09D1012C5A
:1025300001D1012000E0002001462846FFF798FD68
:102540000646002E06D100BF012C03D0032601E071
:102550000126F6433046FEBD0039000870B5054639
:1025600000BF2846FFF7CEFE0446002C00D000E056
:1025700000BF00BF002C09D1297E2846FFF792FF3B
:10258000044600221621284600F002F8204670BDBD
:10259000FEB507460D4616466C462812207065703B
:1025A000A670032221463846FFF79AFB0290029854
:1025B000FEBDFEB507460E46154601AC3012207032
:1025C0006670280EA0702802000EE0702804000E2D
:1025D00020716571062221463846FFF781FB009085
:1025E0000098FEBDFEB507460D4616466C462812FD
:1025F000207065703012A070E670042221463846C3
:10260000FFF76EFB02900298FEBD10B5044620460F
:10261000FDF793FE10BD000070B504460D46074857
:102620000068002804D12946204600F04FFA03E054
:102630002946204600F066FB70BD000078030020AC
:102640007047000030B587B0044600BF2648C06A16
:10265000022108432449C8620846C06A0221084092
:10266000009000BF00BF2048806B090508431E4949
:10267000886303200002029012200390002004903F
:1026800005900420069002A91848FDF775FE184829
:102690002060184860600021A1600121E1600021F4
:1026A00021616161E16121622046FDF771FF1248FD
:1026B0000460022201A90020FFF716FA0546002D4A
:1026C0000DD168460079002809D16846407916285E
:1026D00005D101200949086000F034FB01E000F059
:1026E00039FA07B030BD000000100240000400506D
:1026F00000540040380F30007C0300207803002095
:1027000001480068704700007803002070B5064655
:102710000C4609480068002809D0002C07DB042C6F
:1027200005DA3146204600F079FB002501E000255E
:10273000ED43284670BD00007803002010B5044624
:102740002046FFF762FF10BDFEB505460E46F06855
:1027500001900F490198884215D22846019900F04E
:10276000AFF80446287E00900098401E40000949BA
:102770000F5A8C20415BA14200DA445BBC4200DD71
:102780003C46F46101E00020F0610020FEBD000045
:102790001009050006390008F0B58BB00546002089
:1027A0000A9000BF09AA2A212846FFF7BEFC04466A
:1027B000002C00D079E008A80079002803D101207E
:1027C0000A902820099008A800797D21C900484373
:1027D000C009069002AA2D212846FFF7A6FC044650
:1027E000002C00D061E004AA1C212846FFF79DFCC4
:1027F0000446002C00D058E005AAB8212846FFF76F
:10280000B1FC0446002C00D04FE001AA2C21284640
:10281000FFF78BFC0446002C00D046E068460179A7
:102820007D20C001FDF77CFC882148516E68069828
:10283000B04203D384210698485102E0002184204D
:1028400041516846007A02210840002810D008AAA9
:1028500026212846FFF7ACFC0446002C00D024E0DB
:102860006846008C7D21C9004843C009039001E0FF
:1028700000200390059908026946097C091FFDF7AD
:1028800039FC07460398811BB94201DB0398871B7B
:10289000684600797843000907902846079900F0B8
:1028A0000FF881B28C20415300BF00BF002C00D133
:1028B0000A9C20460BB0F0BD502280210A50704780
:1028C000F3B583B0054680204059019088204759D0
:1028D0008420405902900498002824DD144804996B
:1028E000FDF71EFC0446FF3CE53C002C01DC002605
:1028F0001AE001204003844208DA019AB918029ACA
:1029000062431046FDF7F6FB044607E001983918CC
:102910002046FDF7EFFB0299484304462046FFF7A7
:102920007BFC064600E0034E304605B0F0BD0000DB
:1029300000688909FFFFFF7FF1B586B01820059078
:1029400046200490C82003900720029001AAFF218E
:102950000A310698FFF7E9FB00900098002803D0A1
:102960000020C04307B0F0BD6846047902990C40CE
:1029700001AAFF210B310698FFF7D7FB00900098C2
:10298000002802D00020C043ECE76846057904998E
:10299000059841180A2068430E18601C704303997B
:1029A00047183846DEE70000F3B587B00D46002033
:1029B0000690002700260590049003902E48029070
:1029C000062001900020009000BF05AA6C21079806
:1029D000FFF7C8FB0446002C00D048E00599029898
:1029E000814201D90020059004AA74210798FFF7BD
:1029F000B9FB0446002C00D039E006AA7C210798D8
:102A0000FFF7B0FB0446002C00D030E003AA802181
:102A10000798FFF7A7FB0446002C00D027E0069894
:102A200068610398A861039800900399069888420A
:102A300001D9069800900098002801D10F48009015
:102A40007D22D2000599514308460099FDF752FBBB
:102A50000746019A049951437D22D200514308460A
:102A60000099FDF747FB06462F61EE6000BF00BFEF
:102A7000204609B0F0BD0000FFFFFF7F18F6000000
:102A800070B50446002626683246DA212046FFF754
:102A900090FD0546284670BD10B5002411E00A4A95
:102AA000125D13071B0F01229A4091B2064A125D74
:102AB0001211920205231B07D0180122FDF75BFDBE
:102AC000641C042CEBDB10BD8C030020F8B506461B
:102AD0000F460024354632E029781C4A505C00F04D
:102AE000BFF868782E2803D1012000F0DFF86D1CB4
:102AF000174A125D13071B0F01229A4091B2144A24
:102B0000125D1211920205231B07D0180022FDF757
:102B100032FD3846FFF712FE0D4A125D13071B0FF8
:102B200001229A4091B20A4A125D121192020523C3
:102B30001B07D0180122FDF71EFD641C6D1C042C20
:102B400002DA28780028C7D1F8BD00001C39000837
:102B50008C03002000B587B000BF3B48C06A042149
:102B600008433949C8620846C06A042108400190F8
:102B700000BF00BF00BF3448C06A8021084332490B
:102B8000C8620846C06A80210840019000BF00BFAB
:102B900000BF2D48C06A012108432B49C86208467E
:102BA000C06AC007C00F019000BF00BF00BF084649
:102BB000C06A022108432449C8620846C06A02214B
:102BC0000840019000BF00BF204802900120039000
:102BD00000200490059002A905200007FDF7CCFB1A
:102BE0008020029000200390049002A90520000795
:102BF000FDF7C2FB4020029015480390002004908E
:102C000002A905200007FDF7B7FB12480290082132
:102C10000298084302900120039000200490059040
:102C200002A90D48FDF7A8FB802002900120039027
:102C300000200490059002A90848FDF79DFBFFF7CE
:102C40002BFF07B000BD000000100240330300005E
:102C50000000111071040000000400500008005032
:102C6000F8B5054600241BE00120A0402840074697
:102C7000002F01D1012000E0002006460A4A125D23
:102C800013071B0F01229A4091B2074A125D1211DD
:102C9000920205231B07D0183246FDF76CFC641C1A
:102CA000082CE1D3F8BD00009003002070B5044665
:102CB000002C01D1012000E000200546084AD2790D
:102CC00013071B0F01229A4091B2054AD2791211C3
:102CD000920205231B07D0182A46FDF74CFC70BD55
:102CE0009003002010B5064800880F21C901084351
:102CF0000349088002221220FEF722FF10BD0000C7
:102D000080030020F8B506460F460025344610E043
:102D100021780B4A505C294600F05CF860782E2838
:102D200000D1641C3846FFF709FDFFF7DBFF6D1C7F
:102D3000641C042D02DA20780028E9D1F8BD0000D7
:102D40001C39000800B587B000BF1E48C06A0121C9
:102D500008431C49C8620846C06AC007C00F0090FB
:102D600000BF00BF00BF0846C06A022108431549E2
:102D7000C8620846C06A02210840009000BF00BF38
:102D8000432000010190104802900020039001A907
:102D900005200007FDF7F0FA012001900A48029093
:102DA0000020039001A90948FDF7E6FA08480690BB
:102DB000022206A91420FEF7C3FEFFF793FF07B017
:102DC00000BD00000010024000001110000400507F
:102DD000FFF7000070B504460D460F4800887F21BC
:102DE00008430D490880084600880F21C90108439F
:102DF000094908808020A84009888143064801804D
:102E00006106490E00888843034908800222122087
:102E1000FEF796FE70BD00008003002070B50446EA
:102E20000D46032C02D10120C00309E0022C01D180
:102E3000200305E0012C01D1A00301E001200003E3
:102E40000646002D05D00848008830430649088012
:102E500004E005480088B043034908800222024983
:102E60001220FEF76DFE70BD8003002002E008C84E
:102E7000121F08C1002AFAD170477047002001E0F4
:102E800001C1121F002AFBD17047F0B587B006467A
:102E90000C4600200690307E059000BF04AA6421F5
:102EA0003046FFF742F90746002F00D021E0684680
:102EB000007C0690208980B2E1680091019023692E
:102EC00005990698484382B2208880B20146039053
:102ED000304600F033F80546002D02DA0027FF43A4
:102EE00007E025840599069848436084F16F616284
:102EF00000BF00BF384607B0F0BD10B50146002046
:102F0000C86100234B668B66CB660B674B676020FE
:102F100043528B6700220AE00023DB43540008463B
:102F2000243003530023940014300351521C0A2A06
:102F3000F2DB00230B62002010BD0000FFB5A9B03A
:102F400004461E4600BF0020269001202590002048
:102F5000249023901F901E901D901C901B901A90FF
:102F600019901890002717901690159014901390B0
:102F700012901190E120C0000790FF202D300490A6
:102F8000207E0102081A039033980C2806D00D28E1
:102F90000AD00E2803D00F2810D106E000BF102061
:102FA000239000201F9015E000BF10202390207E6A
:102FB000C82148432A9001201F900BE003992B98C9
:102FC000884204D300201F900120269001E00120B8
:102FD0001F9000BF00BF2A9827906068059084204A
:102FE00000590C9019214901059840180B90B42202
:102FF0000C9951430846FF213931FDF77BF8014612
:10300000059808180A90FA4A0C9951430846FF217E
:103010003931FDF76FF80146059808180990AF227D
:10302000D2000C9951430846FF213931FDF762F86F
:1030300001460598081808902B983C2806DA0B984A
:10304000864203D210202490012026902B98A52898
:1030500006DA0A98864203D2102024900120269096
:103060002B98A52805DA0A989630864201D20120CD
:103070001E90E0493298884202D901201A90269089
:103080004B2E02D201201A902690A06B002814D05B
:10309000A06BB04208D2A16B721A64235A43104647
:1030A000FDF728F819900AE0A16B8A1B64235A43A4
:1030B0001046FDF71FF8199001E0002019901998AB
:1030C000322801D901201A901A98012814D1002021
:1030D000E06100250BE00021C9436A00204624304E
:1030E00081520021AA0014308150681C85B20A2D3B
:1030F000F1DB0021216213E009250FE0681E410089
:1031000020462430415A6A008152681E81002046C0
:1031100038304158AA008150681E85B2002DEDDC80
:103120001F98012802D12A98A08402E00021C943F7
:10313000A184A663206A401C2062FF215F312B9886
:10314000884202DA099886420AD3FF215F312B9820
:10315000884202DB0898864202D3012026900EE0C6
:10316000239800280BD033980C2802D033980E28CF
:1031700001D123982490012026900020259006AAB2
:10318000FF21AD312046FEF7D0FF28902898002877
:1031900000D0D1E16846007E229021AAFF210D31A6
:1031A0002046FEF7DFFF28902898002800D0C3E1D2
:1031B00020AAFF2111312046FEF7D4FF289028983D
:1031C000002800D0B8E11A98012805D026980128D7
:1031D0001BD12598012818D122983E280AD03E22DA
:1031E000FF21AD312046FFF7D3F928902898002819
:1031F00000D0A1E1219961662099A1662199E1663B
:10320000209921670020E06124E022983E2804D123
:10321000219961662099A16603E02199E1662099D0
:103220002167207FC007C00F002802D13C200690F4
:1032300001E03E2006906846027EFF21AD31204627
:10324000FFF7A6F928902898002800D074E1E069DB
:10325000401CE061269801280AD12498E067249850
:10326000102802D1039880B2279027982DB0F0BD86
:10327000A16E206F814204D9A16E206F081A1090B0
:1032800001E000201090109860671E98002803D17C
:10329000E120C000079002E0E12080000790616E0D
:1032A000E06E814204D9616EE06E081A0F9003E06F
:1032B000E16E606E081A0F9007990F98884204D942
:1032C00007990F98401A0E9001E000200E90079980
:1032D0000F9840180D900E991098884203D30D99BD
:1032E0001098884204D901201D9010202490C7E036
:1032F000E069012802D80520189001E00320189009
:103300000520E12189001E2396220091019031467B
:10331000329800F019F904900027002017901690B9
:103320001590149013901290002518E06900204623
:103330002430405A304988420FD0781C87B2690047
:1033400020462430415A179808181790A9002046A3
:1033500038304158149808181490681C85B20A2D0A
:1033600001DA062FE2DB002F09DD39461798FCF75A
:10337000C1FE169039461498FCF7BCFE1390002746
:1033800000201790149000251EE06900204624308C
:10339000405A1949884215D0781C87B269002046E6
:1033A0002430415A1698081A40431799401817902C
:1033B000A9002046383041581398081A4043149900
:1033C00040181490681C85B20A2D01DA062FDCDB48
:1033D0001898874212DB39461798FCF78BFE80B2AB
:1033E000159039461498FCF785FE80B2129008E0DB
:1033F00052030000983A0000FFFF000000201590E3
:1034000012904F491298884236D21898874202DAB1
:103410001020249034E04B49129888420DD2494A3A
:10342000FA320499511A129A514308464549FCF759
:1034300061FE04994018119002E04248FA30119060
:10344000E06F002802D11198800011901598C100FA
:103450000498814204D2062F02DB01201B900FE06A
:1034600011991598884202D201201C9008E0012091
:103470001D901020249003E001201D901020249026
:103480001F9800280AD16020005B002834DD6020EE
:10349000005B401E81B2602001532DE01D98012881
:1034A0000CD16020005B801C81B260200153005B66
:1034B000042821DD0421602001531DE01C9801280F
:1034C00014D16020005B002816DD102024906020BD
:1034D000005B012806DD6020005B401E81B2602099
:1034E000015309E000216020015305E01B980128E9
:1034F00002D1002160200153E06F002812D12498EE
:1035000000280FD001250BE00021C9436A002046A6
:10351000243081520021AA0014308150681C85B2E9
:103520000A2DF1DB2498E0672498102802D1039833
:1035300080B22790279899E60020C04396E60000C5
:10354000905F0100AC0D0000FFB581B016461F462C
:103550000198002808D06422029951430846019935
:10356000FCF7C8FD84B200E00C4CBC4201D33546E8
:1035700010E00B98844201D80A9D0BE00B9AA21A26
:103580000A9B9B1B5A4310460B9AB91AFCF7B2FDD3
:103590000A990D1A284605B0F0BD00000F2700005B
:1035A000B2B0FDF7D3F9FEF727FAFCF745FEFFF7B7
:1035B00047F8AD48FFF746F8FDF776FC7D21C900D6
:1035C0000190FCF797FD0646701EA849884200D975
:1035D0000CE0701EA64948610321081FFEF788F918
:1035E0000020A34988610720086100BFFFF788F821
:1035F000002802D19FA0FEF743F804203190002458
:1036000004E021460020FFF781F8641C31988442D1
:10361000F7DB00BF00279FA102A8FCF7C7FD319888
:10362000441E80E021460120FFF770F80220FEF7DB
:10363000ECFF522198206043984A80188030017531
:1036400098216143881801AA0021FEF76EFD054606
:10365000002D12D098206043904940188030406976
:10366000012109048843982161438C4A89188031DB
:103670004861202002A9085554E0982060438749FA
:10368000401880304069012109048843411898207E
:103690006043824A80188030416100BFB8002DA984
:1036A0000C507F1C982161438818FEF735FB601C85
:1036B000400006465236522E12D0F1B29822624392
:1036C000764BD018FEF794FD0546002D02D074A06D
:1036D000FDF7D6FF98206043704A80188030067549
:1036E0000120FEF792FF982161436C4A881801AAD5
:1036F0000021FEF71AFD0120FEF787FF98216143A4
:10370000664A8818FEF76EFB0546002D02DA6BA0AC
:10371000FDF7B6FF98216143604A88180021FEF743
:10372000B3FA00BF641E002C00DB7BE70020694673
:10373000087302A8FCF7C0FD94E0002417E0A00085
:103740002DA9085898214843544946183046FEF799
:10375000E3FC0546002D02DA5EA0FDF791FF942000
:10376000805901214904884394218851641CBC423A
:10377000E5DB0020049000BFFCF77EFD00242FE075
:10378000A0002DA908589821484344494618942080
:1037900080598003C00F002820D12820604305AA4B
:1037A00081183046FEF7DDFB0546002D13D1282099
:1037B000604305A940188068122800D10FE09420CA
:1037C000805901214904884341189420815104986B
:1037D000401C049002E03FA0FDF752FF00BF641CB4
:1037E000BC42CDDB0498B842C6DB43A102A8FCF77B
:1037F000DDFC002430E02820604305A940188068E3
:1038000000281CD12821614305AA51583C2901DA1E
:103810005F2008E02821614305AA5158782901DA80
:103820003D2000E07E20A1002DAB5958982359433C
:103830001A4BC9188031497D02AB58540BE0202146
:10384000A0002DAA105898225043144A80188030A6
:10385000407D02AA1154641CBC42CCDB02A8FEF7D6
:10386000BFF800BF69E70000A0030020FFFFFF00D2
:1038700000E000E0563220657870616E73696F6E0B
:1038800020626F617264206973207265717569725C
:1038900065640000544C425200000000000000200B
:1038A000564C36313830785F536574493243416441
:1038B0006472657373206661696C0000564C363122
:1038C0003830785F50726570617265206661696C2E
:1038D00000000000564C36313830785F52616E6718
:1038E00065537461727453696E676C6553686F7465
:1038F000206661696C0000002D2D2D2D0000000058
:10390000FD007F005400B900720144020014000A57
:1039100000058002AB01400100010028000000000A
:103920000000000000000000000000000000000097
:103930000000000000000000000000000000000087
:103940000000000000007F00004000003F065B4FC9
:10395000666D7D077F6F00000048005309777C3952
:103960000079716F76061E763815543F6773506D77
:10397000783E1C2A766E5B39000F0108005C7C588B
:103980005E7B716F74101E741815545C7367506DF4
:10399000783E1C2A766E5B000000490000000000A3
:1039A0000000000000000000000000000000000017
:1039B0000000000000000000000000000000000007
:1039C00000000000000000000000000000000000F7
:1039D00000000000000000000000000000000000E7
:1039E00000000000000000000000000000000000D7
:1039F00000000000000000000000000000000000C7
:103A000000000000000000000000000000000000B6
:103A10000000000000000000000000000304060891
:103A20000C10182030000000000102030401020302
:103A30000406070809000000583A000800000020AA
:103A4000A0030000E4010008843A0008A00300205D
:103A5000480400007C2E000801FF0130029801029A
:103A60009802620302132005FF45727220D18284FE
:103A70005D10040100162709081A14151315808417
:043A80001E00000024
:04000005080000C12E
:00000001FF
