:020000040800F2
:1000000000800120BD0800084F0A0008510A0008BE
:10001000530A0008550A0008570A000800000000AB
:10002000000000000000000000000000590A000865
:100030005B0A0008000000005D0A00085F0A000873
:100040001109000811090008110900084D0A0008EB
:100050001109000811090008390A00083B0A0008C4
:100060003D0A00083F0A0008410A0008110900087B
:1000700011090008110900081109000811090008F8
:1000800011090008110900081109000811090008E8
:10009000110900081109000811090008430A0008A5
:1000A00011090008110900081109000811090008C8
:1000B00011090008110900081109000811090008B8
:1000C00011090008110900081109000811090008A8
:1000D0001109000811090008110900081109000898
:1000E000450A000811090008110900081109000853
:1000F0001109000811090008110900081109000878
:100100001109000811090008110900081109000867
:100110001109000811090008110900081109000857
:100120001109000811090008110900081109000847
:100130001109000811090008110900081109000837
:10014000110900081109000811090008650A0008D2
:100150001109000811090008110900081109000817
:100160001109000811090008110900081109000807
:100170001109000811090008110900080000000019
:08018000110900081109000833
:1001880010B5054C237833B9044B13B10448AFF3C9
:1001980000800123237010BD7805002000000000B6
:1001A8008CBE000808B5064B1BB106480649AFF3DC
:1001B80000800648036813B1054B03B1984708BD92
:1001C800000000008CBE00087C0500207805002097
:1001D800000000004BB942B9002908BF002802D02E
:1001E8004FF0FF31084600F03BB882B0EC462DE9ED
:1001F800005000F01DF8DDF804E002B00CBC7047B8
:100208002DE97043069E14461D468046894600F037
:1002180029F804FB01F300FB0533A4FB00451D444A
:10022800B8EB040469EB0505C6E90045BDE8708331
:100238002DE97043069E1446804689461D4600F007
:100248005DF900FB05F504FB0153A0FB04451D44C3
:10025800B8EB040469EB0505C6E90045BDE8708301
:10026800704700BF00292DE9F00FC0F29F800024DD
:10027800002BC0F29680154606460F46002B3ED14D
:100288008A4257D9B2FA82F34BB1C3F1200201FA7C
:1002980003F720FA02F29D40174300FA03F6290CEF
:1002A800B7FBF1F2330C01FB127CA8B243EA0C470E
:1002B80000FB02F3BB4209D97F1902F1FF3C80F031
:1002C8000181BB4240F2FE80023A2F44FF1AB7FB7D
:1002D800F1F3B6B201FB137146EA014100FB03F0EA
:1002E800884208D9491903F1FF3780F0ED80884228
:1002F80040F2EA80023B43EA0242002303E08B42D9
:100308000AD900231A461046194614B1404261EB37
:100318004101BDE8F00F7047B3FA83F8B8F1000F58
:1003280040F084808B4202D3824200F2DE800023B8
:100338000122E8E712B90123B3FBF2F5B5FA85F219
:10034800002A39D17F1B280C1FFA85FC0123B7FB33
:10035800F0F1320C00FB117742EA07470CFB01F27F
:10036800BA4207D97F1901F1FF3802D2BA4200F226
:10037800C1804146BF1AB7FBF0F2B6B200FB12705B
:1003880046EA00400CFB02FC844507D9401902F1FB
:10039800FF3702D2844500F2AB803A4642EA014276
:1003A800B1E7E443524263EB430364E7404261EB45
:1003B80041014FF0FF345BE79540C2F1200327FA73
:1003C80003F1280C26FA03F39740B1FBF0F81F431A
:1003D8003B0C00FB18111FFA85FC43EA01410CFB9A
:1003E80008F38B4206FA02F608D9491908F1FF32D8
:1003F80079D28B4277D9A8F102082944C91AB1FBEE
:10040800F0F3BFB200FB131147EA01470CFB03F2FC
:10041800BA4207D97F1903F1FF3160D2BA425ED9D7
:10042800023B2F44BF1A43EA084390E7C8F1200271
:1004380003FA08FC25FA02F343EA0C0C4FEA1C49BC
:1004480021FA02F301FA08F720FA02F2B3FBF9F1F4
:10045800174309FB11333A0C1FFA8CFB42EA03439A
:100468000BFB01FA9A4505FA08F008D913EB0C03BF
:1004780001F1FF3235D29A4533D902396344CAEBC8
:100488000303B3FBF9F209FB1233BFB247EA034790
:100498000BFB02F9B94508D917EB0C0702F1FF333A
:1004A8001BD2B94519D9023A674442EA0145A5FB6E
:1004B8000001C9EB07078F424FF000030AD305D0AC
:1004C8002A4620E7624601E73B4614E706FA08F6A3
:1004D8008642F5D26A1E002315E71A46E5E70B4661
:1004E800A0E71146CBE7904688E7434642460AE72D
:1004F800023A53E702392F443CE700BF2DE9F00FD9
:10050800144605460E46002B43D18A4253D9B2FA07
:1005180082F757B1C7F1200620FA06F601FA07F369
:1005280002FA07F41E4300FA07F5210CB6FBF1F2B4
:100538002B0C01FB1267A0B243EA074600FB02F34B
:10054800B34209D9361902F1FF3780F0F680B34279
:1005580040F2F380023A2644F61AB6FBF1F3ADB244
:1005680001FB136145EA014100FB03F0884208D909
:10057800091903F1FF3680F0E280884240F2DF80FB
:10058800023B43EA0242002310461946BDE8F00F39
:1005980070478B424AD8B3FA83F6002E4DD18B426E
:1005A80002D3824200F2D680002301221046194667
:1005B800BDE8F00F704712B90124B4FBF2F4B4FAA5
:1005C80084F2002A7CD1091B260CA7B20123B1FBB7
:1005D800F6F02A0C06FB101142EA014107FB00F273
:1005E8008A4207D9091900F1FF3C02D28A4200F277
:1005F800C3806046891AB1FBF6F2ADB206FB121150
:1006080045EA014507FB02F7AF4208D92C1902F168
:10061800FF3180F09680A74240F29380023A42EA86
:10062800004210461946BDE8F00F704700231A46ED
:1006380010461946BDE8F00F7047C6F1200522FAAA
:1006480005F4B3401C434FEA144821FA05F301FAB4
:1006580006F720FA05F5B3FBF8FC2F4308FB1C331B
:100668003D0C1FFA84FA45EA03430AFB0CF9994545
:1006780002FA06FB04D91B190CF1FF326DD394461C
:10068800C9EB0303B3FBF8F508FB1533BFB247EA20
:1006980003470AFB05F8B84504D93F1905F1FF33AC
:1006A80061D31D4645EA0C4CACFB0B23C8EB07078E
:1006B8009F424FF0000549D345D062462B4663E779
:1006C8009440C2F1200321FA03FC260C20FA03F31C
:1006D80001FA02F5BCFBF6F843EA05010B0C06FB30
:1006E80018CCA7B243EA0C4C07FB08F3634500FAA1
:1006F80002F509D91CEB040C08F1FF323AD2634524
:1007080038D9A8F10208A444C3EB0C0CBCFBF6F3DF
:1007180089B206FB13CC41EA0C4107FB03F28A427B
:1007280007D9091903F1FF3022D28A4220D9023BA6
:100738002144891A43EA084349E73A460CE7334615
:100748001FE70A466BE7B0409042B6D20CF1FF3281
:10075800002319E73346324616E799458FD9ACF19D
:10076800020C23448CE7B8459BD9023D274499E7FE
:100778000346DEE79046C7E7023821443AE700BF60
:10078800844641EA000313F003036DD1403A41D394
:1007980051F8043B40F8043B51F8043B40F8043B53
:1007A80051F8043B40F8043B51F8043B40F8043B43
:1007B80051F8043B40F8043B51F8043B40F8043B33
:1007C80051F8043B40F8043B51F8043B40F8043B23
:1007D80051F8043B40F8043B51F8043B40F8043B13
:1007E80051F8043B40F8043B51F8043B40F8043B03
:1007F80051F8043B40F8043B51F8043B40F8043BF3
:1008080051F8043B40F8043B51F8043B40F8043BE2
:10081800403ABDD2303211D351F8043B40F8043B82
:1008280051F8043B40F8043B51F8043B40F8043BC2
:1008380051F8043B40F8043B103AEDD20C3205D392
:1008480051F8043B40F8043B043AF9D2043208D08A
:10085800D2071CBF11F8013B00F8013B01D30B88FC
:1008680003806046704700BF082A13D38B078DD0DA
:1008780010F003038AD0C3F10403D21ADB071CBFAC
:1008880011F8013B00F8013B80D331F8023B20F816
:10089800023B7BE7043AD9D3013A11F8013B00F84F
:1008A800013BF9D20B7803704B7843708B788370D7
:1008B80060467047002100F004B80E4B5B58435067
:1008C80004310D480D4B42189A42FFF4F6AF0C4A1A
:1008D80000F003B80023136004320A4B9A42FFF475
:1008E800F9AF00F013F80BF07FF900F033F8FFF7D9
:1008F800FEBF000068CC000800000020780500203A
:100908007805002058360020FFF7FEBF0F4AD2F8BE
:10091800883043F47003C2F888300D4B1968002002
:1009280041F0010119609860196821F0A85121F47B
:10093800102119604FF40061D960196821F48021F1
:10094800196098614FF000639360704700ED00E014
:100958000010024010B504F0DBFF05F035F804F094
:100968005DFD05F061FE044606F01CF82040C0B2AB
:1009780004F006FC04F05AFD04F042FE234804F09B
:100988004BFE0021292004F02BFDB42804460CBF9F
:100998001F48204804F040FE204604F04AFE1B4849
:1009A80004F03AFE0F211C2004F01AFD3D280446ED
:1009B8000CBF1948194804F02FFE204604F039FEF0
:1009C800124804F029FE0F216A2004F009FD692865
:1009D80004460CBF1248134804F01EFE204604F0DB
:1009E80028FE0A4804F018FE0F215C2004F0F8FCE9
:1009F800BD2804460CBF0C480C4804F00DFE2046E8
:100A080004F017FE014804F007FEFEE730BF0008B7
:100A180033BF00084FBF000876BF000892BF000828
:100A2800B7BF0008D3BF0008FABF000815C0000808
:100A38007047704770477047704770474FF40050D1
:100A480000F0CAB970477047FEE7FEE7FEE7FEE729
:100A580070477047704700F051B80000014800F037
:100A68003EBC00BF0C100020B0F5005F08B52DD1CA
:100A780004F0DCFC16484FF4005100F0A1F90028FE
:100A8800F8D004F0CBFC642004F0FEFD04F0CEFCAA
:100A9800C82004F0F9FD04F0C1FC642004F0F4FD62
:100AA80004F0C4FCC82004F0EFFD04F0B7FC642097
:100AB80004F0EAFD04F0BAFC06484021002200F0E8
:100AC80085F940F6B83004F0DFFDFEE708BD00BF49
:100AD800000800480004004810B5044601F096FDDF
:100AE8004FF47A73B0FBF3F000F072F84FF0FF3078
:100AF8002146002200F02EF8002010BD024B1A6893
:100B080001321A60704700BF94050020014B186835
:100B1800704700BF9405002038B50446FFF7F6FF7C
:100B28000546FFF7F3FF401BA042FAD338BD00008B
:100B3800074AD36823F4E0631B041B0C43F0BF632C
:100B480043F4003300F0070043EA0023D360704702
:100B580000ED00E0164BDB68C3F3022370B51D1DE2
:100B6800C3F10704042C28BF0424062D4FF0010507
:100B78008CBF033B002305FA04F405FA03F6013C95
:100B8800013E2140324001FA03F3134300284FEAA3
:100B9800031305DADAB200F00F00064B1A5470BDE1
:100BA80000F1604000F56140DBB280F8003370BDB1
:100BB80000ED00E014ED00E04209012300F01F0001
:100BC80003FA00F0014B43F82200704700E100E00F
:100BD8000138B0F1807F0AD2064B074A5860F021ED
:100BE80082F823100020072298601A6070470120BD
:100BF800704700BF10E000E000ED00E0044B1A6809
:100C080004280CBF42F0040222F004021A60704764
:100C180010E000E02DE9F74FD1F800C000233CFABE
:100C280003F200F0C48001269E4016EA0C0500F08D
:100C3800BC804A6822F01007022F16D14FEAD30869
:100C480000EB880803F00709D8F820404FEA890923
:100C58004FF00F0A0AFA09FA24EA0A0A0C6904FA98
:100C680009F94AEA0904C8F820405C004FF0030873
:100C7800D0F800A008FA04F86FEA080802F003099F
:100C880008EA0A0A09FA04FB013F4AEA0B0A012F9B
:100C9800C0F800A010D8876808EA070ACF68A740FC
:100CA8004AEA07078760476827EA060AC2F3001777
:100CB8009F404AEA07074760B9F1030F07D1C76A9F
:100CC80027EA0606C2F3C0079F403E43C662C668CD
:100CD80008EA06088E68A64048EA0604C460D400FC
:100CE80063D5344C266E46F001062666246E23F042
:100CF800030606F1804604F0010406F580360194E7
:100D080003F00307019CB468BF004FF00F0808FA0E
:100D180007F8B0F1904F24EA080819D0264CA042F1
:100D280018D004F58064A04216D004F58064A0426F
:100D380014D004F58064A04212D004F58064A04267
:100D480010D004F58064A04214BF072406240AE0EA
:100D5800002408E0012406E0022404E0032402E061
:100D6800042400E00524BC4044EA0804B460134CA1
:100D78002768EE4312F4803F14BF2F4337402760A3
:100D8800676812F4003F14BF2F4337406760A768B5
:100D980012F4801F14BF2F433740A760E768920200
:100DA80054BF06EA07053D43E560013337E703B062
:100DB800BDE8F08F00100240000400480004014024
:100DC800036919420CBF0020012070470AB18161F4
:100DD800704781627047000008B5044B59690842A2
:100DE80002D05861FFF740FE08BD00BF0004014073
:100DF800006830B54568039C25F07F7525F45935A2
:100E080025F47F7525F003052C432343C1F309011D
:100E180043EA010444EA0242426030BD70B5044628
:100E28000D46FFF773FE23689A69064612F0100014
:100E380038D094F83520122A07D094F83520522A51
:100E480003D094F83520622A12D15A6890010FD441
:100E58005A6842F480425A600AE09A69920611D4AC
:100E6800691CFAD035B1FFF751FE801BA84201D8A2
:100E78002368F2E7012384F83530002384F83430FE
:100E8800032070BD1022DA612022DA615968064A0F
:100E98000A405A600423A3630120002384F8350024
:100EA80084F8343070BD00BF00E800FE2DE9F04141
:100EB80004460E4690461D46FFF728FE0746B8F141
:100EC800000F29D122689369DB43C3F3100333422F
:100ED80010D0691CF7D08DB1FFF718FEC01BA842CF
:100EE800F0D90BE06B1C08D19369DB43C3F3100303
:100EF8003342F7D00020BDE8F08145B9012384F8DA
:100F08003530002384F834300320BDE8F081FFF742
:100F1800FDFDC01BA842F1D82268E5E770B504467C
:100F28000D46FFF7F3FD064623689B699B0719D416
:100F380020462946FFF772FFB0B96A1CF4D05DB9A4
:100F4800A36B43F02003A363012384F83530002307
:100F580084F83430032070BDFFF7D8FD801BA84209
:100F6800E2D9EDE7002070BD012070BDF7B5089DFE
:100F78001F464FF400530446009316460023FAB266
:100F8800FFF736FF20462946FFF7C8FF28B1A36BB5
:100F9800042B0CBF0120032017E0012F236808D081
:100FA800320A9A6220462946FFF7B8FF0028EED198
:100FB8002368F6B29E622046402100222B46FFF7A6
:100FC80075FF002814BF0320002003B0F0BD70B5E2
:100FD80004460D46FFF79AFD064623689B699B0663
:100FE80017D420462946FFF719FFA0B95DB9A36BAE
:100FF80043F02003A363012384F83530002384F8E9
:101008003430032070BDFFF781FD801BA842E4D96E
:10101800EDE7002070BD012070BD704710B5044693
:10102800002844D090F8353003F0FF021BB980F84F
:101038003420FFF7F2FF022384F835302368E16893
:101048001A6822F001021A60626822F070621A615E
:101058009A6822F400429A60A26842B1012903D139
:1010680042F400429A6007E042F404429A6002297E
:1010780004BF4FF400625A605A68616942F0007216
:1010880042F400425A6022691143A26941EA0222ED
:10109800DA60216AE2690A431A601A6842F00102BA
:1010A8001A6000200123A06384F8353010BD0120A8
:1010B80010BD00002DE9F34790F835A0DDF8288031
:1010C800BDF82C50DDF830905FFA8AFABAF1010FBA
:1010D80004460F4669D1B8F1000F01D1012065E03F
:1010E800002DFBD00668B66916F400465DD190F86D
:1010F80034C0BCF1010F58D04FF0620E80F835E0D3
:1011080080F834A08663CDF80090FFF72FFF18B160
:10111800A36B84F8346037E04FF41053FF2D00932D
:101128002046394621D8EAB24FF00073FFF760FE37
:101138002E462046042100224B46FFF7B7FE28BB67
:101148002368013D5B6A08F8013B013EADB213D14B
:10115800A5B12046802132464B46FFF7A7FEA8B925
:10116800009620463946FF2DDCE7FF224FF08073BA
:10117800FFF73EFEFF26DCE7002DDAD120461921D5
:10118800FFF725FF20B1A36B042BA7D003200DE0A8
:1011980023682022DA615968064A0A405A60012306
:1011A80084F8353084F8340000E0022002B0BDE84D
:1011B800F08700BF00E800FEF0B504468BB00028B9
:1011C80075D090F8813303F0FF021BB980F88023B3
:1011D80005F056FA2546032355F8100B84F8813399
:1011E80002F040FC0FCD6E460FC60FCD0FC695E836
:1011F800030086E80300271D97E80E00206802F028
:1012080003FC2068002102F033FC606823460022BA
:1012180004F11006824203F11C030AD00121597718
:1012280000211A775A84D977596299621963013271
:10123800F0E723460022824203F11C0315D0002167
:1012480083F8C0215A8483F8C11183F8C311C3F805
:10125800C811C3F8CC11C3F8D411256802F1400EA7
:1012680005EB8E0501326960E5E70FCE6D460FC5C7
:101278000FCE0FC596E8030085E8030097E80E0037
:10128800206802F035FC012384F88133636A012B5E
:1012980002D1204600F0D6FBA36A012B02D12046DA
:1012A80000F0E3FB206802F086FF002000E0012048
:1012B8000BB0F0BD90F88033012B10B504460CD06C
:1012C800012380F88033006802F060FF206802F094
:1012D800C3FB002084F8800310BD022010BD2DE957
:1012E800F04F076887B00446384602F09DFF002893
:1012F80040F05682206802F06AFF002800F0508211
:10130800206802F064FF800704D523685A6902F058
:1013180002025A61206802F05AFF10F400205BD0E4
:10132800206802F058FF07F5306A8146A046554606
:101338000026B9F1000F50D019F0010F45D0F3B2D3
:1013480019462068039302F056FF10F0010F8346F8
:10135800039B2DD00122AA60DAF8082011041FD4BB
:101368002269012A0CD12969D8F8E421C1F31201B4
:10137800511AC8F8F411D8F8E8110A44C8F8E82155
:101388001946204605F09DF92169012908D13EB981
:10139800D4F8F03123B9206804F5617202F063FFD4
:1013A800DAF8083043F4004343F02003CAF8083061
:1013B8001BF0080F04D0204605F07CF90823AB6029
:1013C8001BF0100F1CBF1023AB6001364FEA590900
:1013D800203508F11C08ACE70646206802F0F7FE45
:1013E800420340F1AA80206802F0FDFE25468246AD
:1013F80007F510680026BAF1000F00F09E801AF079
:10140800010F00F093805FFA86FB2068594602F0CE
:10141800FBFE10F0010F814620D0D7F834180123C5
:1014280003FA06F021EA0001C7F83418C8F80830B2
:101438002369012B03D16A6C2B6C13446B645946E6
:10144800204605F047F92169012907D136B9E36C2F
:1014580023B9206804F5617202F005FF19F0080F3E
:101468001CBF0823C8F8083019F0100F1CBF102340
:10147800C8F8083019F0400F1CBF4023C8F80830DE
:1014880019F0020F1CBF0223C8F8083019F0800FAA
:101498004CD02B6DEA6CD4F800C0D21A2B6C9A424F
:1014A80034BF9146994609F10302042392FBF3F3F2
:1014B80004930CF5106303EB46130593059A93699F
:1014C800049A9BB293420BD8B9F1000F2EDCDCF8DA
:1014D80034180122B24021EA0202CCF8342825E06F
:1014E8002A6DEB6C9A42EFD2002BEDD0296CC2EB3F
:1014F8000309894528BF894609F10302042392FBA1
:10150800F3F30493237C00936046696CCDF80CC018
:101518001FFA89F35A4602F0A2FC6B6C4B446B64C9
:101528002B6D4B442B65DDF80CC0C7E701364FEA3D
:101538005A0A1C3508F120085DE7206802F047FECA
:10154800002818DAD7F8042894F8B43322F00102F6
:10155800012BC7F8042806D1002184F8B4132046CB
:1015680000F08DFA02E0204605F0D1F823685A69A8
:1015780002F000425A61206802F029FE03050BD5EB
:10158800D7F80838DD0702D5204605F0BCF82368EF
:101598005A6902F400625A61206802F018FE0001DC
:1015A80016D523685A6902F000625A6194F8B42388
:1015B8005AB95B6D0121C3F3830384F8B413C4F8EB
:1015C800B833204600F05BFA02E0204605F09BF8AD
:1015D800206802F0FCFDC10443D507F500656B687F
:1015E800206823F001036B60002102F057FA60685D
:1015F80007F510630022824206D0FF21996001326C
:10160800C3F808122033F6E74FF0FF33AB61EB69FC
:1016180043F00113EB61236B53B1D5F8843043F0E9
:101628000B03C5F884306B6C43F00B036B6407E065
:101638006B6943F00B036B612B6943F00B032B6160
:10164800D7F800382068217C23F4FE63C7F80038F7
:1016580004F5617202F007FE23685A6902F48052A9
:101668005A61206802F0B3FD820417D5206802F0A1
:10167800DFFD2368DA6822F47052DA600322E26040
:1016880040226261DA6842F4A052DA60204605F02E
:101698002DF823685A6902F400525A61206802F052
:1016A80096FDC30636D523689A6922F010029A611E
:1016B800D7F820801C2508F00F0305FB0345C8F365
:1016C8004343022B05F5EE7512D147F6F07208EA8E
:1016D8000202D2B14FEA121842463846E96802F0CF
:1016E800E5FCEB68AA6943444244EB60AA610CE05C
:1016F800062B0AD1384604F56171082202F0D6FC9F
:10170800AB69C8F30A184344AB6123689A6942F08D
:1017180010029A61206802F05AFD070707D5204693
:1017280004F0E0FF23685A6902F008025A61206851
:1017380002F04DFDC50208D52046F1B204F0EFFFD6
:1017480023685A6902F480125A61206802F03FFD4A
:10175800800208D52046F1B204F0DDFF23685A69FB
:1017680002F400125A61206802F031FD410007D5E9
:10177800204604F0D8FF23685A6902F080425A6173
:10178800206802F024FD42070AD523685D686B07CC
:1017980002D5204604F0CBFF23685A6815435D60E4
:1017A80007B0BDE8F08F90F88033012B10B50446E0
:1017B80009D0012380F88033006802F0D7FC0020AC
:1017C80084F8800310BD022010BD70B5CDB215F0AD
:1017D800800F04464FF01C0601F07F0015BF06FB82
:1017E800004106FB0141383101F5EE71C0B2ED0947
:1017F80008704D708A60CB7005B1C880022B04BF99
:1018080000230B7194F88033012B09D0012384F84D
:101818008033206802F002FA002084F8800370BD4B
:10182800022070BDCBB213F0800F01F07F0210B51B
:1018380004464FF01C0015BF00FB024100FB0141AC
:10184800383101F5EE71DB090A704B7094F880337A
:10185800012B09D0012384F88033206802F021FA93
:10186800002084F8800310BD022010BD38B504465E
:101878001C2501F07F0005FB004505F5EE714B6165
:1018880000234B70CA608B6185F8DC012369012B4A
:1018980008BF0A6194F88023012A0FD0012284F836
:1018A8008023DAB218B9206802F031FA02E0206821
:1018B80002F0E8FA002084F8800338BD022038BD21
:1018C80001F07F011C2303FB0100B0F8F40170470D
:1018D80038B504461C2501F07F00454338356119A9
:1018E8004B6100238B6101234B70CA6060552369EB
:1018F800012B08BF0A6194F88023012A0FD0012226
:1019080084F88023DAB218B9206802F000FA02E0FD
:10191800206802F0B7FA002084F8800338BD02205E
:1019280038BDCAB238B512F0800F01F07F054FF00C
:101938001C0315BF03FB050103FB0101383101F549
:10194800EE710123D209EDB28B700D704A7090F8D8
:1019580080239A4204460FD080F88033006802F052
:10196800B6FB2DB92068217C04F5617202F07BFC7E
:10197800002084F8800338BD022038BD38B5CBB2CA
:1019880013F0800F01F07F0204464FF01C0015BFD2
:1019980000FB024100FB0141383101F5EE71DB0922
:1019A80000258D700A704B7094F88033012B09D094
:1019B800012384F88033206802F0BBFB84F880534D
:1019C800284638BD022038BD90F88033012B10B569
:1019D800044610D0012380F880330B06006804D534
:1019E80001F07F0102F05AF801E002F069F80020E6
:1019F80084F8800310BD022010BD036870B5586AD2
:101A080019B940EA0240986216E09C6A00EB14405B
:101A18000024E5B24E1EB54204F1010406DA403551
:101A280003EB85056D6800EB1540F2E73F3103EBEA
:101A3800810340EA02405860002070BD036800201E
:101A480059627047036802460121C0F8BC130020A0
:101A580082F8B4039A6942F000629A615A6D42F0C2
:101A6800805242F003025A65704703680122C0F8A9
:101A7800C0239A6B42F400329A6300207047704783
:101A8800024B186800F4C060704700BF0070004047
:101A9800174B1A68B0F5007F02F4C0621DD1B2F589
:101AA800007F23D01A6822F4C06242F400721A60E0
:101AB800104B1A68104BB2FBF3F3322253430C4A13
:101AC80023B15169490501D5013BF8E7536913F47E
:101AD800806F0CBF002003207047B2F5806F05D0DF
:101AE8001A6822F4C06242F480621A6000207047CB
:101AF800007000400000002040420F00024B5A686E
:101B080042F480625A6070470070004037B51E4C3E
:101B1800A36DDA00054602D5FFF7B2FF0EE0A36D0C
:101B280043F08053A365A36D03F080530193019B99
:101B3800FFF7A6FFA36D23F08053A365B0F5007FE0
:101B480006D1802D0CD9A12D34BF012002200CE034
:101B5800802D07D808D0B5F170035842584104E0E9
:101B6800002002E0032000E00220084B1A6822F05F
:101B7800070202431A601B6803F00703181A18BF0C
:101B8800012003B030BD00BF001002400020024019
:101B98000368F7B5DC06054640F1A380B64CA36898
:101BA80013F00C0F50D1022393FAA3F302232268F7
:101BB80093FAA3F3B3FA83F303F01F0322FA03F3B0
:101BC800D80703D5AB690BB901206FE32268286AEF
:101BD800A94B110703D51B6803F0F00304E0D3F801
:101BE800943003F470631B09984215D9FFF78EFFF0
:101BF8000028E9D1236843F00803236022682B6A90
:101C080022F0F002134323606268EB6922F47F42FA
:101C180042EA0323636013E0236843F00803236068
:101C2800236823F0F003034323606268EB6922F41E
:101C38007F4242EA03236360FFF768FF0028C3D1AD
:101C48000F20FEF749FF4CE0836973B3236843F024
:101C580001032360FEF75AFF0646022393FAA3F313
:101C68000223226893FAA3F3B3FA83F303F01F0362
:101C780022FA03F3DA0706D4FEF748FF801B64282C
:101C8800EBD9032012E3236843F00803236022689A
:101C98002B6A22F0F002134323606268EB6922F496
:101CA8007F4242EA032363601BE0236823F00103B9
:101CB8002360FEF72BFF0646022393FAA3F30223C1
:101CC800226893FAA3F3B3FA83F303F01F0322FA0B
:101CD80003F3DB0705D5FEF719FF801B6428EBD952
:101CE800CFE72B68DF0704D42B689E0700F1A0809C
:101CF80010E1614CA36803F00C03082B09D0A3681A
:101D080003F00C030C2B19D1E36803F00303032B36
:101D180014D14FF4003393FAA3F34FF4003322683D
:101D280093FAA3F3B3FA83F303F01F0322FA03F33E
:101D3800DC07D9D56B68002BD6D145E7236823F497
:101D480080332360236823F480232360FEF7DEFEBC
:101D580006464FF4003393FAA3F34FF40033226896
:101D680093FAA3F3B3FA83F303F01F0322FA03F3FE
:101D7800D80707D5FEF7CAFE41F28833801B984280
:101D8800E7D97EE76B68B3F5803F0AD0B3F5A02F9B
:101D98000CD1236823F480332360236843F4802321
:101DA8002360236843F48033236008E0226822F428
:101DB80080322260226822F480222260DBB1FEF7A2
:101DC800A5FE06464FF4003393FAA3F34FF400330D
:101DD800226893FAA3F3B3FA83F303F01F0322FAFA
:101DE80003F3D90780D4FEF791FE41F28833801BB4
:101DF8009842E7D945E7FEF789FE06464FF40033D7
:101E080093FAA3F34FF40033226893FAA3F3B3FAD7
:101E180083F303F01F0322FA03F3DA077FF564AFB5
:101E2800FEF774FE41F28833801B9842E6D928E712
:101E3800114CA36803F00C03042B09D0A36803F02A
:101E48000C030C2B1AD1E36803F00303022B15D102
:101E58004FF4806393FAA3F34FF48063226893FAF4
:101E6800A3F3B3FA83F303F01F0322FA03F3DB07A8
:101E780024D5EB6813BBA7E600100240EB685BB300
:101E8800236843F480732360FEF740FE06464FF450
:101E9800806393FAA3F34FF48063226893FAA3F361
:101EA800B3FA83F303F01F0322FA03F3DF0705D421
:101EB800FEF72CFE801B6428E9D9E2E662684FF041
:101EC800F85191FAA1F12B69B1FA81F18B4022F016
:101ED800F852134363601DE0236823F48073236082
:101EE800FEF714FE06464FF4806393FAA3F34FF40B
:101EF8008063226893FAA3F3B3FA83F303F01F0312
:101F080022FA03F3D80705D5FEF700FE801B6428E4
:101F1800E9D9B6E62B68190703D42B685A0747D4C2
:101F280036E16B69B04C0BB3D4F8943043F001033D
:101F3800C4F89430FEF7EAFD0646022393FAA3F2AA
:101F480093FAA3F293FAA3F2D4F8942093FAA3F3A2
:101F5800B3FA83F303F01F0322FA03F3DB07DCD49D
:101F6800FEF7D4FD801B6428E7D98AE6D4F89430BC
:101F780023F00103C4F89430FEF7C8FD0646022397
:101F880093FAA3F293FAA3F293FAA3F2D4F8942063
:101F980093FAA3F3B3FA83F303F01F0322FA03F3CC
:101FA800DF07BAD5FEF7B2FD801B6428E7D968E6DB
:101FB8008D4CA36DDE000AD4A36D43F08053A36556
:101FC800A36D03F080530193019B012600E00026D6
:101FD800864B1A68D0050FD5D4F8903023F001034A
:101FE800C4F89030D4F8903023F00403C4F890304B
:101FF800FEF78CFD07462EE01A6842F480721A60DC
:10200800FEF784FD0746794B1B68D905E4D4FEF733
:102018007DFDC01B6428F6D933E693FAA3F3B3FA1F
:1020280083F343F040035B09032B0CBFD4F89430CF
:10203800E369022292FAA2F2B2FA82F202F01F02D5
:10204800D340DA0716D5FEF761FD41F28833C01B8D
:1020580098423FF616AE022393FAA3F293FAA3F23C
:10206800B2FA82F242F0400252099A42D5D1D4F82B
:102078009030DEE7AB68012B1ED07BB9D4F89030E6
:1020880023F00103C4F89030D4F8903023F004030F
:10209800C4F89030FEF73AFD07464EE0052BD4F819
:1020A800903023F00103C4F89030D4F8903008D170
:1020B80043F00403C4F89030D4F8903043F001039F
:1020C80001E023F00403C4F89030FEF71FFD074633
:1020D800022393FAA3F293FAA3F2B2FA82F242F03D
:1020E800400252099A4202D1D4F890300BE093FA98
:1020F800A3F3B3FA83F343F040035B09032B0CBF4C
:10210800D4F89430E369022292FAA2F2B2FA82F287
:1021180002F01F02D340DB0727D4FEF7F7FC41F299
:102128008833C01B9842D3D9ABE5FEF7EFFC41F2E8
:102138008833C01B98423FF6A4AD022393FAA3F25A
:1021480093FAA3F2B2FA82F242F0400252099A429A
:1021580011D1D4F89030022292FAA2F2B2FA82F2A5
:1021680002F01F02D340D807DFD48EB1A36D23F04D
:102178008053A3650CE093FAA3F3B3FA83F343F017
:1021880040035B09032B0CBFD4F89430E369E2E702
:102198006B6A0BB9002089E0134CA26802F00C02AC
:1021A8000C2A3FF411AD022B236823F080732360BF
:1021B80057D1FEF7ABFC06464FF0007393FAA3F332
:1021C8004FF00073226893FAA3F3B3FA83F303F092
:1021D8001F0322FA03F3D9070AD5FEF797FC801BE1
:1021E8006428E9D94DE500BF0010024000700040A6
:1021F8002A6BAB6A43EA0223EA6A013A43EA02120B
:102208006B6B1B0942EA4341AB6B5A08EB6B013A13
:102218005B0841EA4252013B42EA4363E3602368B8
:1022280043F080732360E36843F08073E360FEF754
:102238006DFC05464FF0007393FAA3F34FF000735B
:10224800226893FAA3F3B3FA83F303F01F0322FA85
:1022580003F3DA079ED4FEF759FC401B6428E9D93A
:102268000FE5E36823F00303E360E36823F0887372
:1022780023F48033E360FEF749FC05464FF0007312
:1022880093FAA3F34FF00073226893FAA3F3B3FA17
:1022980083F303F01F0322FA03F3DB077FF57AAF1A
:1022A800FEF734FC401B6428E8D9EAE403B0F0BD2B
:1022B800F8B59F4B1A6802F00702914204460E4691
:1022C80040F297801A6804299CBF22F007020A434B
:1022D8001A601B6803F007038B4201D00120F8BD88
:1022E80003689A0706D5934AA168906820F0F00021
:1022F80001439160DB070BD423685F0740F1088135
:102308008C4AE168906820F4E06001439160FFE046
:102318006368884D022B07D14FF4003292FAA2F27B
:102328004FF40032296817E0032B07D14FF00072F1
:1023380092FAA2F24FF0007229680DE02BB902223E
:1023480092FAA2F20222296806E04FF4806292FA19
:10235800A2F229684FF4806292FAA2F2B2FA82F2EB
:1023680002F01F0221FA02F2D607B7D5AA6822F0B6
:1023780003021343AB60FEF7C9FB6368022B0646F2
:102388000DD1AB6803F00C03082BB5D0FEF7BEFBEC
:1023980041F28833801B9842F3D90320F8BD032B00
:1023A8000CD1AB6803F00C030C2BA5D0FEF7AEFBE9
:1023B80041F28833801B9842F3D9EEE763B1AB68EA
:1023C80003F00C03042B0CD196E7FEF79FFB41F2B8
:1023D8008833801B9842E0D8AB6813F00C0FF4D117
:1023E8008AE7FEF793FB41F28833801B9842E6D9CF
:1023F800D3E70368980706D54E4AA168906820F08D
:10240800F00001439160D90707D4042E484B76D8D1
:102418001A6822F00702324372E06368454D022BC6
:1024280007D14FF4003292FAA2F24FF40032296831
:1024380017E02BB9022292FAA2F20222296810E0D0
:10244800032B07D14FF0007292FAA2F24FF00072FC
:10245800296806E04FF4806292FAA2F229684FF4E4
:10246800806292FAA2F2B2FA82F202F01F0221FA14
:1024780002F2D2077FF532AFAA6822F003021343B3
:10248800AB60FEF743FB6368022B07460CD1AB68D1
:1024980003F00C03082BB8D0FEF738FB41F2883361
:1024A800C01B9842F3D978E7032B0CD1AB6803F033
:1024B8000C030C2BA9D0FEF729FB41F28833C01B73
:1024C8009842F3D969E76BB1AB6803F00C03042BAE
:1024D8000DD19AE7FEF71AFB41F28733C01B9842E9
:1024E8003FF65BAFAB6813F00C0FF3D18DE7FEF747
:1024F8000DFB41F28833C01B9842E5D94DE71A68B5
:102508001A601B6803F00703B3427FF4E7AEF3E6F3
:102518001B0707D5074B21699A6822F4605242EAE3
:10252800C1029A600F20FEF7D7FA0020F8BD00BF5D
:102538000020024000100240304B9A6802F00C0262
:10254800042A10B528D09A6802F00C02082A25D06F
:102558009A6812F00C0F09D09A6802F00C020C2A43
:102568001FD1DA6802F00302012A1AD11968234A36
:10257800090754BFD2F894201268214954BFC2F306
:102588000322C2F3031251F82220996811F00C0FAC
:102598000CBF1046002006E01A4800E01A48002246
:1025A80001E0002002469C68144904F00C040C2C3D
:1025B80022D1C868CC6800F00300C4F302140228D2
:1025C80004F1010404D0032809D1CA680E4801E0C7
:1025D800CA680C48B0FBF4F4C2F3062204E0C868E9
:1025E800B2FBF4F4C0F30622D868C0F341600130AE
:1025F80062434000B2FBF0F010BD00BF0010024083
:1026080000BF00080024F40000127A0008B5FFF7A4
:1026180093FF084BF0229B6892FAA2F2B2FA82F278
:1026280003F0F003D340044AD35CD840034B18604E
:1026380008BD00BF00100240F0BE000800000020E6
:1026480008B5FFF7E3FF074B4FF4E0629B6892FA87
:10265800A2F2B2FA82F203F4E063D340024AD35CF6
:10266800D84008BD001002403BC0000808B5FFF77D
:10267800CDFF074B4FF460529B6892FAA2F2B2FA70
:1026880082F203F46053D340024AD35CD84008BDB9
:10269800001002403BC0000870B52B4C236823F0A3
:1026A800806323600546FEF731FA06464FF0006363
:1026B80093FAA3F34FF00063226893FAA3F3B3FAF3
:1026C80083F303F01F0322FA03F3DA0706D5FEF7B4
:1026D8001DFA801BB0F57A7FE8D92CE022692B68B7
:1026E80022F4FE4242EA0323236122696B6822F442
:1026F80000321B0942EA43432361236843F08063A5
:102708002360FEF703FA06464FF0006393FAA3F33B
:102718004FF00063226893FAA3F3B3FA83F303F04C
:102728001F0322FA03F3DB0707D4FEF7EFF9801B38
:10273800B0F57A7FE8D9032070BD22692B6913436D
:102748002361002070BD00BF0010024070B52B4C03
:10275800236823F0805323600546FEF7D7F9064621
:102768004FF0005393FAA3F34FF00053226893FA03
:10277800A3F3B3FA83F303F01F0322FA03F3DA0790
:1027880006D5FEF7C3F9801BB0F57A7FE8D92CE0AF
:1027980062692B6822F4FE4242EA0323636162699C
:1027A8006B6822F400321B0942EA434363612368E1
:1027B80043F080532360FEF7A9F906464FF0005313
:1027C80093FAA3F34FF00053226893FAA3F3B3FAF2
:1027D80083F303F01F0322FA03F3DB0707D4FEF7A2
:1027E80095F9801BB0F57A7FE8D9032070BD62693E
:1027F800EB6813436361002070BD00BF0010024006
:1028080070B52B4C236823F0806323600546FEF7E0
:102818007DF906464FF0006393FAA3F34FF0006387
:10282800226893FAA3F3B3FA83F303F01F0322FA9F
:1028380003F3DA0706D5FEF769F9801BB0F57A7F4E
:10284800E8D92DE022692B6822F4FE4242EA0323EC
:102858002361AB6822695B0822F4C002013B42EAAB
:1028680043532361236843F080632360FEF74EF9E6
:1028780006464FF0006393FAA3F34FF00063226813
:1028880093FAA3F3B3FA83F303F01F0322FA03F3D3
:10289800DB0707D4FEF73AF9801BB0F57A7FE8D951
:1028A800032070BD22692B6913432361002070BD8A
:1028B800001002402DE9F743056815F40065044649
:1028C80027D0436DB3F5800F12D004D803BB043072
:1028D800FFF7E2FE0FE0B3F5000F03D0B3F5400FAA
:1028E8000BD015E0AA4BDA6842F48032DA6004E0D3
:1028F8001830FFF72BFF054658B9A54B626DD3F882
:10290800881021F440010A43C3F88820002500E01C
:1029180001252368D80429D5A36DB3F1807F12D08F
:1029280004D813BB201DFFF7B7FE10E0B3F1007FFA
:1029380003D0B3F1407F0CD017E0954BDA6842F42E
:102948008032DA6005E004F11800FFF7FFFE064662
:1029580000E02E4666B98E4BA26DD3F8881021F0A0
:1029680040710A43C3F8882003E001252E4600E0A1
:102978003546236899037CD5854FBB6DDA000BD4A7
:10298800BB6D43F08053BB65BB6D03F0805301936F
:10299800019B4FF0010801E04FF000087D4B1A68D9
:1029A80042F480721A60FEF7B1F88146794B1B68D1
:1029B800DB0506D4FEF7AAF8C9EB00006428F5D9B0
:1029C8004EE0002E4DD1D7F89010626F704B01F495
:1029D8004071914211D0D3F89060D3F8902042F41E
:1029E8008032C3F89020D3F8902026F4407622F461
:1029F8008032C3F89020C3F89060B00740F193810B
:102A0800FEF784F80646022393FAA3F293FAA3F298
:102A1800B2FA82F242F0400252099A4202D1D7F841
:102A280090300BE093FAA3F3B3FA83F343F0400337
:102A38005B09032B0CBFD7F89430FB69022292FA8A
:102A4800A2F2B2FA82F202F01F02D340D90700F1D3
:102A58006A81FEF75BF841F28833801B9842D2D92D
:102A68000326B8F1000F05D0BB6D23F08053BB657A
:102A780000E02E462368DA0708D5454AA16AD2F84D
:102A8800880020F003000143C2F888109F0708D58A
:102A98003F4AE16AD2F8880020F00C000143C2F8EE
:102AA80088105D0708D53A4A216BD2F8880020F0D3
:102AB80030000143C2F88810180708D5344A616B02
:102AC800D2F8880020F0C0000143C2F88810D90667
:102AD80008D52F4AA16BD2F8880020F44070014332
:102AE800C2F888109A0608D5294AE16BD2F88800FE
:102AF80020F440600143C2F888109F0508D5244A95
:102B0800E16CD2F8880020F440200143C2F8881014
:102B18005D0508D51E4A216DD2F8880020F44010C2
:102B28000143C2F88810580608D5194A216CD2F812
:102B3800880020F440500143C2F88810190608D5CF
:102B4800134A616CD2F8880020F440400143C2F86F
:102B58008810DA0508D50E4AA16CD2F8880020F44E
:102B680040300143C2F888109F041ED5084BE26D1F
:102B7800D3F8881021F040611143B2F1006FC3F817
:102B8800881009D1DA6842F48012DA600DE000BFDB
:102B98000010024000700040B2F1806F05D1201D86
:102BA800FFF72EFE002818BF064623681D0319D517
:102BB8008B4B226ED3F8881021F040611143B2F19B
:102BC800006FC3F8881004D1DA6842F48012DA6022
:102BD80008E0B2F1806F05D1201DFFF711FE002833
:102BE80018BF06462368580319D57D4B626ED3F883
:102BF800881021F040611143B2F1006FC3F88810CA
:102C080004D1DA6842F48012DA6008E0B2F1806F29
:102C180005D1201DFFF7F4FD002818BF06462368DC
:102C2800590468D56E4DA36ED5F8882022F040521D
:102C38001A43B3F1805FC5F888201ED12B6823F0B2
:102C480080632B60FDF762FF07464FF0006393FA3D
:102C5800A3F34FF000632A6893FAA3F3B3FA83F35C
:102C680003F01F0322FA03F3DA0766D5FDF74EFFD8
:102C7800C01BB0F57A7FE8D9ABE0B3F1005F3AD179
:102C88002B6823F080532B60FDF740FF07464FF079
:102C9800005393FAA3F34FF000532A6893FAA3F36F
:102CA800B3FA83F303F01F0322FA03F3D8075CD5C2
:102CB800FDF72CFFC01BB0F57A7FE8D989E0FDF756
:102CC80025FFC01BB0F57A7F00F283804FF00063C8
:102CD80093FAA3F34FF000632A6893FAA3F3B3FAC5
:102CE80083F303F01F0322FA03F3DB07E7D52A690E
:102CF800636913432B6123681A0408D5384AE16EC7
:102D0800D2F8880020F080400143C2F88810DB0325
:102D180061D5334B216FD3F8882022F000420A4353
:102D2800C3F8882057E0D7F89020636F22F44072E8
:102D38001343C7F890302E4693E62A69636822F455
:102D4800FE4242EA03232B6123692A695B0822F0C9
:102D5800C062013B42EA43632B612B6843F0806306
:102D68002B60FDF7D3FE0746B0E76A69A36922F432
:102D7800FE4242EA03236B61236A6A695B0822F018
:102D8800C062013B42EA43636B612B6843F08053A6
:102D98002B60FDF7BBFE07464FF0005393FAA3F3F1
:102DA8004FF000532A6893FAA3F3B3FA83F303F0BE
:102DB8001F0322FA03F3D90706D4FDF7A7FEC01BA9
:102DC800B0F57A7FE8D904E06A69636A13436B61F6
:102DD80091E703268FE7304603B0BDE8F08300BFD4
:102DE800001002402DE9F34104460F4616461D46E1
:102DF800FDF78CFE804623689A683A40B2423DD07F
:102E0800B7F5C06F06D12EB91A7BD2B28DF807205C
:102E18009DF807206A1CEFD04DB923685A6822F044
:102E2800E0025A606268B2F5827F12D106E0FDF7CF
:102E38006DFEC8EB0000A842DDD3EEE7A268B2F54C
:102E4800004F02D0B2F5806F03D11A6822F0400219
:102E58001A60A26AB2F5005F08D119684DF6FF72D0
:102E68000A401A601A6842F400521A60012384F872
:102E78005D30002384F85C30032000E0002002B0BD
:102E8800BDE8F0812DE9F04104460F4616461D467F
:102E9800FDF73CFE8046226893683B40B34234D03D
:102EA8006B1CF9D04DB923685A6822F0E0025A60C9
:102EB8006268B2F5827F12D106E0FDF727FEC8EB03
:102EC8000000A842E7D3EEE7A268B2F5004F02D0AF
:102ED800B2F5806F03D11A6822F040021A60A26A24
:102EE800B2F5005F08D119684DF6FF720A401A6002
:102EF8001A6842F400521A60012384F85D300023F6
:102F080084F85C300320BDE8F0810020BDE8F08142
:102F180038B50D4600224FF4C0512B460446FFF742
:102F280061FF024628B9204680212B46FFF7AAFFF9
:102F380020B1236E43F020032366032038BD704779
:102F480070B5044600284FD090F85D301BB980F862
:102F58005C30FFF7F4FF022384F85D302368E168F2
:102F68001A68B1F5E06F22F040021A604FF00000D5
:102F780003D90246B1F5706F01E04FF4805218BFD3
:102F8800A062206B28B9B1F5E06F8CBF0220012048
:102F980020636568A668A0692E4325692E43656984
:102FA8002E43E5692E43256A2E43A56A354300F46E
:102FB800007635431D60256B022D03D11D6845F44D
:102FC80000651D60656A2943656B000C0D4300F0C0
:102FD800040005432A435A60E26A1A61002001236B
:102FE800206684F85D3070BD012070BD2DE9F3477F
:102FF80004461F46894692460A9EFDF787FD94F8C7
:103008005C30012B804600F0298194F85D50012343
:103018009D4284F85C3040F01881B9F1000F00F04F
:103028001581BAF1000F00F01181002F00F00E8118
:10303800052384F85D3000232366A36AC4F840A002
:10304800B3F5005FA4F84670A4F84470C4F838904B
:10305800E787A787226808D111684DF6FF730B40F0
:103068001360136843F400531360E3685168B3F5C1
:10307800E06F01D8012F02D921F4805101E041F419
:103088008051516011684D0603D4116841F0400128
:103098001160B3F5E06F43D9E18FB4F846200029F9
:1030A8002DD023689868800711D5A06B0088D86058
:1030B800A06B0139023089B2A063E18739B9A16AEE
:1030C800B1F5005F03D1196841F4805119606AB104
:1030D80023689A68D70709D5DA68236C23F8022B86
:1030E8002364B4F84630013BA4F84630751CD3D0AD
:1030F800FDF70CFDC8EB0000B042CDD383E0002AF9
:10310800E5D1A36AB3F5005F40F0868058E02268F5
:103118009168880708D4B4F846201ABB731C43D1B9
:10312800E38F002BF3D146E0012BA16B06D9098868
:10313800D160A26B0232A263023B05E04B1CA36381
:103148000B781373E38F013BE387E38F002BE2D106
:10315800A36AB3F5005FDED123681A6842F480528F
:103168001A60D8E723689968C907D7D5012A226C5D
:1031780010D9D96822F8021B2264B4F84620023A12
:1031880092B2012AA4F84620C8D85A6842F480525C
:103198005A60C3E7511C21641B7B1370B4F8463096
:1031A800013BA4F84630B9E7FDF7B0FCC8EB0000D6
:1031B800B042B5D327E0B4F84630002BABD1A0E736
:1031C800012120460A463346FFF75CFEB8B9E3689A
:1031D800B3F5706F236802D1DB689BB218E01B7BE4
:1031E800DBB2ADF80630BDF80630236B022B13D1E5
:1031F800012120460A463346FFF744FE28B1236ED4
:1032080043F002032366032520E023681B7BDBB21F
:10321800ADF80630BDF8063023689D6815F0100536
:1032280007D0226E42F0020222664FF6EF729A60D1
:10323800012520463146FFF76BFE08B1202323669F
:10324800236E002B18BF012500E00225012384F816
:103258005D30002384F85C30284600E0022002B08C
:10326800BDE8F0877047022380F8393003681A6890
:1032780042F001021A60012380F8393000207047BB
:103288002E4A0368904212D0B0F1804F0FD0A2F5B9
:10329800943290420BD002F58062904207D002F53A
:1032A8008062904203D002F59432904219D14A6864
:1032B80023F070031343214A90421DD0B0F1804F90
:1032C8001AD0A2F59432904216D002F5806290424C
:1032D80012D002F5806290420ED002F594329042EC
:1032E8000AD0174A904207D002F58062904203D074
:1032F80002F58062904203D1CA6823F440731343F5
:1033080003608B68C3620B6883620C4B98420FD0D2
:1033180003F5006398420BD003F54063984207D049
:1033280003F58063984203D003F58063984201D186
:103338000B69036301234361704700BF002C014000
:103348000040014010B50446A0B190F8393003F0B0
:10335800FF021BB980F83820FFF784FF022384F8A6
:1033680039302068211DFFF78BFF012384F839309D
:10337800002010BD012010BD7047000070B5064642
:103388000468B2683169C3692068114372690A43E5
:1033980042EA03019B4A02400A4322606168F268DC
:1033A80021F440510A43984962608C4218BF316A3F
:1033B800B26918BF0A43A16821F430610A43A260C8
:1033C800924A944207D102F558429149D2F888208E
:1033D80002F0030209E08F4A94420CD102F5E6326A
:1033E8008D49D2F8882002F00C02B3F5004F8A5CB0
:1033F80040F0928053E0894A944210D102F5E432B9
:10340800D2F8882002F03002102A60D002D8002AB0
:103418004ED074E0202A54D0302A62D06FE0804A1F
:1034280094420ED102F5E232D2F8882002F0C002AE
:10343800402A00F0D58027D9802A00F0A080C02A31
:103448002AE0784A944211D102F5E032D2F8882075
:1034580002F44072B2F5807F00F0C28014D9B2F550
:10346800007F00F08C80B2F5407F15E0664A9442F8
:1034780045D102F5C832D2F8882002F44062B2F58C
:10348800806F00F0AD8002D8002A69D034E0B2F530
:10349800006F74D0B2F5406F00F0AA802CE0082AC3
:1034A80030D8DFE802F0080B112F172F2F2F21003B
:1034B800B3F5004F39D1FFF7C3F80DE0FFF7D6F8A1
:1034C8000AE0B3F5004F36D17368574A0FE0B3F5F9
:1034D800004F36D1FFF730F873684000B0FBF3F2C5
:1034E80007E0B3F5004F33D173684FF48032B2FB75
:1034F800F3F292B2002307E0434A94423DD0B3F579
:10350800004F3AD10123002222F00F003168C2F3A4
:1035180042020243CA6073E0082A2ED8DFE802F0AC
:1035280005080B2D112D2D2D1800FFF789F80AE03D
:10353800FFF79CF807E073683C4AB2FBF3F39BB2D1
:103548000BE0FEF7F9FF7368B0FBF3F083B204E019
:1035580073684FF40042B2FBF3F3E36000234FE0DB
:10356800294A9442A4D1FFF76BF800230028F5D02C
:10357800726802EB4201884207D2012340E0224AE6
:1035880094429ED102232948F2E7B0EB023FF4D8D7
:10359800082B1CD8DFE803F0051B081B0A1B1B1BA4
:1035A8001500FFF74DF803E021480CE0FEF7C4FFD3
:1035B800050E04027268204629460023FCF70AFE1D
:1035C80003E04FF40000B0FBF2F0002300E0012319
:1035D800184AA0F540719142CFD83268D0600FE008
:1035E800094A94427FF473AFFEF7A6FF0423BDE7B0
:1035F800054A94427FF475AF08234FF40040B7E7BB
:10360800184670BDF369FFEF0080004000380140A4
:1036180050C000080044004043C000080048004073
:10362800004C0040005000400048E8010024F4002D
:10363800000024F4FFFC0F00436ADA0710B506D532
:103648000268816A546824F40034214351609C075D
:1036580006D50268C16A546824F480342143516055
:10366800590706D50268016B546824F48024214365
:1036780051601A0706D50268416B546824F4004467
:1036880021435160DC0606D50268816B946824F4F6
:10369800805421439160990606D50268C16B9468ED
:1036A80024F40054214391605A060FD50268016C36
:1036B800546824F480140C43B1F5801F546005D17C
:1036C8005468416C24F4C004214351601B0606D59C
:1036D8000368816C5A6822F400220A435A6010BDBC
:1036E8002DE9F04104460E4690461D46FDF70EFAB8
:1036F8000746B8F1000F36D12268D3693340B34288
:103708000ED0691CF9D07DB1FDF700FAC01BA842A4
:10371800F2D909E06B1C06D1D3693340B342F9D022
:103728000020BDE8F081CDB923681A6822F0800234
:103738001A601A6822F020021A601A6822F480724D
:103748001A609A6822F001029A60012384F86930AD
:10375800002384F868300320BDE8F081FDF7D6F92E
:10376800C01BA842E0D82268D6E70022036810B53B
:10377800C2661B681907044604D423681B685B07E4
:1037880014D509E04FF400116FF07E43FFF7A8FF4E
:103798000028F2D0032010BD20464FF480010022FB
:1037A8006FF07E43FFF79CFF0028F3D10123002030
:1037B80084F8693084F8680010BD10B5044660B319
:1037C80090F8693003F0FF021BB980F86820FFF712
:1037D800D3FD022384F8693023681A6822F00102B5
:1037E8001A602046FFF7CAFD012816D0636A13B194
:1037F8002046FFF721FF23685A6822F490425A6056
:103808009A6822F02A029A601A6842F00102204659
:103818001A60BDE81040FFF7A8BF012010BDF8B539
:1038280004460E461546FDF771F907462268D36926
:103838003340B34221D06B1CF9D0C5B923681A684C
:1038480022F080021A601A6822F020021A601A68B0
:1038580022F480721A609A6822F001029A600123A9
:1038680084F84130002384F840300320F8BDFDF788
:103878004DF9C01BA842D9D9E0E70020F8BD704730
:1038880010B5044608B9012010BD90F8413003F086
:10389800FF021BB980F84020FFF7F1FF022384F8EC
:1038A80041302368A1681A6822F001021A6022696F
:1038B80018681143626941F4004111434A4A0240C1
:1038C8000A431A60A169E26958681143226A41F4FF
:1038D80000611143E26820F47C500A4302435A60B5
:1038E800424A934206D1424B424AD3F8883003F009
:1038F800030308E0404A93420FD13D4B3F4AD3F8B7
:10390800883003F00C03D35C082B30D8DFE803F0D1
:10391800171A1D2F202F2F2F2700394A934226D1FF
:10392800334BD3F8883003F03003102B10D001D874
:103938002BB11CE0202B08D0302B10D017E0FEF75D
:103948007FFE07E0FEF792FE04E063682D4A09E077
:10395800FEF7F2FD63684000B0FBF3F304E0636830
:103968004FF48032B2FBF3F39BB2002101E0002355
:10397800012123F00F002268C3F342030343D360FD
:10398800002980D1536823F480435360936823F05F
:103998002A039360136843F00103136000236364F0
:1039A80013681A0704D423681B685B0714D50AE058
:1039B80020464FF400114FF47A72FFF730FF0028C9
:1039C800F1D0032010BD20464FF480014FF47A72E5
:1039D800FFF725FF0028F4D10123002084F84130A7
:1039E80084F8400010BD00BFF369FFEF00380140C4
:1039F8000010024054C000080044004058C00008AD
:103A0800004800400048E80184B010B503AC84E8E1
:103A18000E00C36843F04003C3600E4B013B0CD05B
:103A28000269002AFADA036943F001030361094BCA
:103A3800013B02D00269D207FAD44FF48033BDE8C3
:103A480010408363C36843F48073C36004B00020EC
:103A5800704700BF410D0300836843F00103836092
:103A680000207047836823F00103836000207047BB
:103A780008B5C368012923F0C043C36004D1C368F3
:103A880043F00053C36004E019B9C36843F08043AE
:103A9800C3603220FDF740F8002008BD890141F0DD
:103AA8002001064B0161013B05D0026912F020029A
:103AB800F9D1104670470320704700BF410D03003D
:103AC80010230361054B013B05D0026912F0100277
:103AD800F9D1104670470320704700BF410D03001D
:103AE800D0F800381943C0F80018002070470000CB
:103AF80084B02DE9F843044609A880E80E00A36BBA
:103B0800139FDDF8308043F400138946A3635FB93F
:103B1800A36B23F40013A363236843F040032360DB
:103B2800236843F0800323600026C4F8006ED4F8AD
:103B38000038C4F8003803212046FFF7D1FF1021D0
:103B4800204604F50065FFF7A9FF2046FFF7B8FFF8
:103B58004FF0FF332E616E61AB61EE6104F51063C7
:103B68004E450FD01A68002AB8BF4FF090414FF069
:103B78000002ACBF1A6019601A61FF229A60013610
:103B88002033EDE704F5306300224A450FD0196869
:103B98000029B8BF4FF090404FF00001ACBF19604A
:103BA80018601961FF21996001322033EDE72B6914
:103BB800B8F1010F23F480732B6108D1154B2B63E7
:103BC8002B6B43F4803343F003032B632B6B0023ED
:103BD800A3616FF080436361B8F1000F03D1A3695B
:103BE80043F01003A361A2690B4B1343A3610F9B1E
:103BF8001BB1A36943F00803A361012F05D1A36991
:103C080043F0804343F00403A361BDE8F843002078
:103C180004B070470001800000383C8030B54C7813
:103C28000A78012C00F500631DD1DD6904FA02F25F
:103C380092B22A43DA610C784FF4106303EB441311
:103C48001A5815042BD41A588D6842F08052C5F3BF
:103C58000A0542F400422A43CD7842EA854242EA04
:103C680084541C501BE0DC694FF4803505FA02F2DD
:103C78002243DA610A784FF4306303EB42131A588F
:103C880012040CD41A588C6842F08052C4F30A0407
:103C980042F400422243CC7842EA84421A5000207F
:103CA80030BD4A7800F50063012A30B50C78DD6B29
:103CB80016D102FA04F4A4B225EA0404DC630D78F0
:103CC800DC69AA4092B224EA0202DA610A784FF467
:103CD800106303EB42131A5822F400421A5014E0FE
:103CE800012202FA04F425EA0444DC630D78DC6955
:103CF800AA4024EA0242DA610A784FF4306303EBFF
:103D080042131A5822F400421A50002030BD4B7852
:103D1800012BF0B54D690E7861D120244FF4106362
:103D280014FB06360644B5B9356925F0FF5525F468
:103D3800C01535610D7814FB053505442E6946F428
:103D480000262E610D7814FB053303441D69ED0C24
:103D5800ED041D6126E03769FF0CFF0437610E781A
:103D680014FB063303444FF410641E6926F0FF5613
:103D780026F4C0161E618B689D420D7888BF4B6182
:103D8800202313FB054505442E6946F400262E61C1
:103D98000D7813FB054303444C691D69C4F31204F1
:103DA8002C431C61012A0A7805D100EB42120B69E9
:103DB800C2F8143909E04B693BB1D0F83448012501
:103DC80005FA02F22243C0F834280A784FF4106347
:103DD80003EB4213C25842F00442C2503DE0202394
:103DE8004FF4306713FB067606443469E40CE404A8
:103DF80034610E7813FB06760644346924F0FF54C8
:103E080024F4C01434611C468E6805B14E610D78E7
:103E18004FF4306314FB05350544C6F312062F69C9
:103E280047F400272F610D7814FB05340444012A58
:103E3800256946EA0506266106D10A78202414FB7E
:103E480002330344CA685A610A784FF4306303EBBB
:103E58004213C25842F00442C2500020F0BD30B5AF
:103E68009DF80C4064B9033300EB02329B1002F555
:103E780080529C4204D051F8245015600134F8E770
:103E8800002030BD2DE9F7434B780E78012B4FF019
:103E980020054B6940F09A804FF4106415FB0646E4
:103EA80006443769ABB927F0FF5727F4C0173761C5
:103EB8000E7815FB06460644376947F40027376134
:103EC8000E7815FB064404442669F60CF6042661B0
:103ED8003EE0FF0CFF0437610F7815FB07470744E6
:103EE8003E6926F0FF5626F4C0163E618E680F78AC
:103EF80003EB060808F1FF3815FB07470744B8FB32
:103F0800F6F64FEAC648684ED7F810C008EA060623
:103F180046EA0C063E610E7815FB06460644C3F3D6
:103F2800120C37694CEA07073761CE78012E0FD19A
:103F38000E7815FB06460644376927F0C0473761F7
:103F48000E7815FB06440444256945F000552561A3
:103F5800012A0D7805D100EB45150C69C5F81449FF
:103F68000BE0CC78012C08D03BB1D0F8346801279D
:103F780007FA05F53543C0F83458CC78012C11D12F
:103F8800D0F8084814F4807F0C784FF410654FF08F
:103F9800200616FB045425580CBF45F0005545F083
:103FA800805525500D784FF4106404EB45140559DD
:103FB80045F004450551CC78012C71D10C7800925C
:103FC800C96822469BB2FFF74AFF69E04FF43064A4
:103FD80015FB064687193E69F60CF6043E610F7814
:103FE80015FB074707443E6926F0FF5626F4C0161E
:103FF8003E6191F800C08E6815FB0C4C7BB900EB54
:104008000C03C6F312061F693E431E610B7815FBAD
:1040180003440444236943F4002323611AE033442E
:10402800013B8444B3FBF6F39BB21F4FDCF81080CE
:104038004FEAC34909EA070747EA0807CCF81070AE
:104048000F7815FB0744044473432569C3F312032F
:104058002B432361012A05D10A78CB6800EB421271
:10406800C2F8143BCB78012B11D1D0F8083813F4DF
:10407800807F0B784FF430624FF0200414FB032349
:10408800C2580CBF42F0005242F08052C2500A7827
:104098004FF4306303EB4213C25842F00442C2505B
:1040A800002003B0BDE8F0830000F81F10B503320C
:1040B8009210002393424FEA830406D000F58054FF
:1040C800246841F823400133F4E7081910BD4B7800
:1040D8000A78012B10B54FF0200314D14FF4106467
:1040E80013FB0243C258002A03DBC25822F0804265
:1040F800C2500A784FF4106303EB4213C25842F4DB
:104108000012C25013E04FF4306413FB0243C2584C
:10411800002A03DBC25822F08042C2500A784FF4CA
:10412800306303EB4213C25842F40012C25000201D
:1041380010BD30B54B780C78012B0CBF4FF41062D2
:104148004FF43062202313FB0424255825F400156E
:104158002550CC78023C012C06D8097813FB0123A2
:104168001A5842F080521A50002030BDD0F800385A
:1041780023F4FE63C0F80038D0F80038090101F4D0
:10418800FE610B43C0F800380020704708B5D0F82E
:10419800043823F00203C0F80438D0F804389B0729
:1041A80002D401F03BF901E001F040F90320FCF7EB
:1041B800B3FC002008BD08B5D0F8043843F002036A
:1041C800C0F804380320FCF7A7FC002008BD4369A9
:1041D800806918407047D0F8183800F50060C06949
:1041E8001840000C7047D0F81828D0F81C3802EA9C
:1041F800030080B2704700EB411100F50060D1F870
:10420800083B406918407047D0F8102810B5D0F81E
:10421800344800EB4110D0F8083924FA01F0C00105
:10422800C0B21043184010BD406900F0010070474B
:10423800D0F8003923F4FF6323F00703C0F80039EE
:1042480000F500639A6802F00602042A05D1D0F846
:10425800002942F00302C0F800295A6842F480722B
:104268005A600020704710B50024C0F8104BD0F8F1
:10427800104B44F40024C0F8104BD0F8104B44F015
:104288001804C0F8104BD0F8104B012944F0C04472
:10429800C0F8104B05D14FF08023C0F8142BC0F89C
:1042A800003B002010BD70B5D0F8184294F81832C1
:1042B80005463BB9D4F8143223B1637A13B9012106
:1042C80002F087FA2846812102F083FA637A022BEA
:1042D80008D1284604F5037201211F23BDE8704068
:1042E80002F0A6BA70BD70B5D0F818420546002095
:1042F8002072607284F85D0284F85C02D5F81C3282
:104308001B6898472846012102F05CFA284681215B
:1043180002F058FA284604F5037201211F23BDE86C
:10432800704002F085BAD0F81822002301211372D8
:1043380051721F2302F5037202F07ABAD0F81832CC
:1043480000221A727047000070B5D0F818420B4B63
:10435800C4F82C320023054684F83812237204F579
:104368000B7281210D2302F05CFA284604F50372D2
:1043780001211F23BDE8704002F05ABA5553425339
:1043880010B5D0F81822137A022B044603D012D3A2
:10439800042B0BD910BD92F8191202F21B2200F05F
:1043A8006FF9002807DA2046012100E00021BDE866
:1043B8001040FFF7C9BF10BD70B5D0F81842267A73
:1043C800054616B1012E58D070BDD4F81032C4F885
:1043D8003032D4F81432C4F83432012102F02FFA02
:1043E8001F2894F819120BD1D4F80C32274A93429B
:1043F80006D1012904D894F81A32013B0F2B07D9AA
:1044080020232846052200F023F9022363720CE0DA
:10441800284604F21B2200F033F90028237A09DA2F
:10442800052B02D12846012123E02846BDE870402B
:10443800FFF739BF013B022B27D96189C1B1D5F8F4
:104448001822D2F8143282F83862994238BF0B46E3
:10445800D2F83412C91AC2F834120421117228464B
:1044680004F10C0281219BB2BDE8704002F0D9B979
:104478002846BDE87040FFF767BF94F8191204F2A8
:104488001B2200F0FDF80028CCDB70BD55534243D9
:1044980010B5D0F81842637A022B05D1812102F0B9
:1044A80098F90023637210BD0A0606D5012B04D0C3
:1044B8000121BDE81040FFF747BF10BD202303804E
:1044C80000487047300000202023038000487047D0
:1044D8008800002020230380004870470400002043
:1044E8000A2303800048704724000020037C10B58D
:1044F8000121044602224BB94FF4007302F051F92E
:104508002046812102224FF4007306E0402302F086
:1045180048F9204681210222402302F042F94FF453
:104528001B7002F093F9C4F8180220B12046FFF777
:10453800DAFE002010BD012010BD10B5012104468F
:1045480002F039F98121204602F035F92046FFF7BB
:10455800F5FED4F8180220B102F07CF90023C4F863
:104568001832002010BD2DE9F0410B78D0F81882E0
:1045780013F0600605460C4629D0202E55D14A78FE
:10458800FE2A02D0FF2A11D01DE04E8886B9CF88B6
:10459800012F0DD11A060BD5D0F81C329B6998470C
:1045A8004146C8F800003A4628461BE04A8812B13E
:1045B8002846214607E0CE88002EF9D11B06F7D4FD
:1045C800FFF7B1FE32E000F0F3FB02262EE04F7851
:1045D8000A2F04D00B2F08D0012F27D109E008F1AA
:1045E8000401012200F096FD20E08B78C8F8043021
:1045F8001CE0097902F0E6F82179284602F0DBF898
:1046080094F90430002B2B7C2846B4BF812139460D
:10461800022213B94FF4007300E0402302F0C1F8FE
:1046280028462179FFF734FF00E000263046BDE830
:10463800F08108B5FFF7A4FE002008BD08B5FFF714
:10464800BBFE002008BD09B1C0F81C12002070474D
:1046580010B5D0F8181291F85D0201EBC0040130D2
:10466800C0B21B020428C4F8403208BF002384F8F3
:104678003C2214BF81F85D0281F85D3210BD000054
:104688002DE9F34113781E2B04460F46904600F09F
:104698008A800FD8122B66D007D8FBB1032B40F0C5
:1046A8002A82D0F81832002231E01A2B7FD01B2B37
:1046B80079D020E2282B00F0E68006D8232B00F0E2
:1046C8009080252B00F0BC8015E22F2B00F0FC8198
:1046D8005A2B79D02A2B40F00E825BE1D0F8186271
:1046E800D6F81432002B40F0A481D0F81C320846CA
:1046F8009B689847054640B13A232046394602222E
:10470800FFF7A6FF05233372FBE17081FAE19918E0
:1047180001320020122A0873F9D170221A730C2270
:10472800DA7493F85D1293F85C22914212D003EB8D
:10473800C201013291F83C429C7391F841421C76C7
:10474800D2B291F840125976042A14BF83F85C2239
:1047580083F85C0212225A8198F80420122A98BF22
:104768005A810025CEE198F80130D0F81822DB07ED
:104778000ED4D0F81C32DB6901EBC10703EB8707C5
:1047880098F804103B7905338B4228BF0B4601E0AB
:10479800C44F07235381002BE3D0013B9BB2D118B0
:1047A800F85C0873F7E7D4F818320025BDE1D0F8B3
:1047B800182208235381013B9BB2BB48D118C05C27
:1047C8000873002BF7D1CCE7D0F8182208235381BF
:1047D800013B9BB2B548D118C05C0873002BF7D1D8
:1047E800BFE7D0F818624FF0000806EB080308F19D
:1047F80001080022B8F10C0F1A73F6D1D4F81C3254
:1048080038465B6801A90DF1020298470546002861
:1048180040F0CF800823F373019B7075013B1A0E9B
:1048280032741A0C7274F3741A0A02233375BDF8C1
:104838000230B2741A0AB275F375A6F80A8061E1FB
:10484800D0F81862D0F81C3206F25E2208465B687F
:1048580006F5187198470546002840F0AA80D6F852
:1048680060323074013B1A0E32731A0C7273F37390
:104878001A0AB6F85E32B273F3741A0A082370740F
:10488800B27473813EE1D0F818522B7A002B3DD1D7
:1048980095F91832002B36DAD0F81C3208469B6896
:1048A8009847002840F0858098F8032098F802304F
:1048B800120442EA036298F805301A4398F8043063
:1048C80042EA0322C5F8642298F8071098F80830DD
:1048D80043EA0123D4F81812C5F86832D1F86012F7
:1048E800D018884200F2958002212972B5F85E122C
:1048F8004A43C5F86422D5F814224B439A42C5F8B6
:10490800683203D0204695F81912F6E0D4F81862F8
:10491800D4F81C12B6F85E22D1F810C04FF4007318
:104928006B81D6F86832B3F5007F34BF98464FF4F0
:104938000078D6F86432B8FBF2FE06F10C05B3FB3A
:10494800F2F2384629461FFA8EF3E047002820463F
:1049580003DA394604221123D1E02A461FFA88F3E4
:10496800812101F05EFFD6F86432D6F868524344DC
:10497800C6F86432D6F83432C8EB0505C8EB030331
:10498800C6F86852C6F83432002D7FF4EAAE032325
:104998003372B7E0D0F81862337A002B4CD196F90D
:1049A8001832002B45DBD0F81C3208469B68984724
:1049B80020B12046394602223A23A0E0D4F81C321E
:1049C8003846DB689847054620B12046394602221A
:1049D800272394E098F8032098F80230120442EA5A
:1049E800036298F805301A4398F8043042EA032223
:1049F800C6F8642298F8071098F8083043EA0123AB
:104A0800D4F81812C6F86832D1F86012D018884263
:104A180002D9204639466BE0B6F85E124A43C6F81A
:104A28006422D6F814224B439A42C6F868326DD0F5
:104A3800204696F8191260E0D6F86852B6F85E2259
:104A4800D0F81C12D6F86432D1F814C0B5F5007F3E
:104A580028BF4FF40075B5FBF2FE06F10C08B3FB56
:104A6800F2F2384641461FFA8EF3E047002804DA8E
:104A7800204639460422032341E0D6F86432D6F8AA
:104A880034222B44C6F86432D6F868325B1B551BB7
:104A9800C6F86832C6F8345253B920460021FFF7E9
:104AA80053FC5EE665C0000874C000086CC00008CE
:104AB800B3F5007F28BF4FF400732046012142461A
:104AC8009BB201F0B5FE4CE65278D0F8183202F0ED
:104AD800020202F0FF0512B1052224230FE0D3F8E9
:104AE8006422B3F868421444D3F8602294421CD973
:104AF8000522212303E02046394605222023FFF71B
:104B0800A7FDFF2568B202B0BDE8F081B2F5007FCD
:104B180034BF13464FF4007301213172204606F169
:104B28000C029BB201F084FEECE75D81EAE700BF6E
:104B380008B580B1D0F8143213B10023C0F814328C
:104B480009B1C0F81012012380F8FC31027001F09D
:104B5800F3FD002008BD022008BD19B1C0F81412E9
:104B6800002070470220704708B501F013FE0020AE
:104B780008BD08B5D0F814320BB9022008BD1B686F
:104B880098470028F9D108BD08B5D0F814325B68F9
:104B98009847002008BD38B5044600F50275284638
:104BA80000F0F2F8012394F80812C4F8F431B4F8CC
:104BB8000E32C4F8F83101F01F03012B0CD006D3D4
:104BC800022B0ED12046294600F022FA0EE020469C
:104BD800294600F0F9F809E02046294600F000FAD5
:104BE80004E0204601F0800101F0F3FD002038BD0B
:104BF80038B5044609BBD0F8F431032B26D1D0F8D8
:104C08000C51D0F810319D420AD9ED1A9D4238BF97
:104C18002B461146C0F80C519AB200F092FA15E0F2
:104C2800D0F814321B6923B190F8FC21032A00D173
:104C38009847204600F08EFA08E0D0F814329B69B5
:104C480023B190F8FC21032A00D19847002038BDF1
:104C580070B504460E4600293DD1D0F8F431022B38
:104C680031D1C569036A9D4208D9EB1A1146C3615F
:104C78009AB200F05DFA2046314612E08269B2FB32
:104C8800F3F503FB15258DB99A420FD3D0F8F83107
:104C98009A420BD22A4600F04BFAC4F8F851204643
:104CA80029460A460B4601F0C3FD0CE0D4F814323D
:104CB800DB682BB194F8FC21032A01D120469847E0
:104CC800204600F052FA94F80032012B0CD1002350
:104CD80084F8003208E0D0F814325B6923B190F808
:104CE800FC21032A00D19847002070BD38B5002167
:104CF80004460A464025402301F053FD2B46C4F8DC
:104D0800105120468021002201F04BFD012384F838
:104D1800FC31D4F8183225622BB1D4F81432217939
:104D28005B6820469847002038BD01740020704712
:104D380090F8FC3180F8FD31042380F8FC31002024
:104D4800704790F8FD3180F8FC310020704708B5B5
:104D580090F8FC21032A04D1D0F81432DB6903B19E
:104D68009847002008BD00207047002070470020A9
:104D7800704708B5012280F8FC21D0F81422017987
:104D880052689047002008BD0B7803704B78437039
:104D9800CA788B7803EB022343804A790B7903EBBB
:104DA80002238380CA798B7903EB0223C38070477F
:104DB80010B58021044601F00CFD20460021BDE815
:104DC800104001F006BD000073B54B7804460D464F
:104DD800092B00F2FC80DFE813F0CE00E500FA00B2
:104DE800E100FA0077000A00FA00BD0093006B8822
:104DF8001A0A013A062A00F2EA80DFE812F00700F0
:104E08000B001800E800E8003D004900D0F8103217
:104E18001B682CE0027CD0F814320AB99B6A00E0C7
:104E2800DB6A0DF106009847022301463CE0DBB23D
:104E3800052B00F2CC80DFE803F003070B0F1317F4
:104E4800D0F810325B6812E0D0F810329B680EE0A0
:104E5800D0F81032DB680AE0D0F810321B6906E09F
:104E6800D0F810325B6902E0D0F810329B69207CE0
:104E78000DF10601984709E0037C002B40F0A7805C
:104E8800D0F814320DF106005B6B984701460CE030
:104E9800037C002B40F09B80D0F814320DF1060003
:104EA8001B6B9847072301464B70BDF80630002B53
:104EB80000F09180EA88002A00F08D809A4228BF8D
:104EC8001A46ADF8062054E0AB88002B7FD1EB885A
:104ED800002B7CD190F8FC31AE78032B06F07F06CE
:104EE80075D080F8FE61314601F094FC204600F050
:104EF80031F90EB1022300E0012384F8FC316AE0A5
:104F0800A978364E0129317061D890F8FC31022B0E
:104F180002D0032B08D05AE0002954D001210323E2
:104F2800416080F8FC310FE031B9022380F8FC3190
:104F38004160FFF729FE46E04168012943D0C9B224
:104F4800FFF722FE317861602046FFF712FE022843
:104F580039D13CE0EA88012A39D190F8FC31022B9A
:104F680003D0032B33D1011D15E00146002341F87E
:104F7800083F20460FE090F8FC31023B012B26D871
:104F88000123C360D0F804320BB10323C360204669
:104F980004F10C01022200F0BDF81CE06B88012B23
:104FA80019D108E090F8FC31023B012B0FD86B882F
:104FB800012B10D10023C4F80432D4F8143220464F
:104FC8009B6829469847204600F0C4F803E020462D
:104FD8002946FFF7EDFE002002B070BD98050020BD
:104FE80038B590F8FC31032B04460D460CD10B79EB
:104FF800012B09D8D0F814329B689847EB882BB955
:10500800204600F0A7F801E0FFF7D2FE002038BDE7
:1050180070B50E788A8806F06006202E04460D4684
:10502800D3B204D1D0F814329B68984752E04E7836
:10503800012E10D027D3032E4CD190F8FC21022A40
:1050480028D0032A44D14A889AB95E0611D0194655
:1050580001F0BFFB0DE090F8FC21022A1AD0032AC8
:1050680036D14A88002A35D1590608D0194601F0A8
:10507800B7FBD4F8143220469B6829469847204647
:1050880000F068F826E090F8FC51022D02D0032DBC
:1050980006D01DE05A061DD0194601F09AFB19E00A
:1050A80003F07F0512F0800F00EB0515194614BFB9
:1050B800143505F5827501F09AFB10B101232B60B8
:1050C80000E0286020462946022200F023F801E08B
:1050D800FFF76EFE002070BD30B5D0B10023DCB202
:1050E8000133C51815F8015C002DF8D1631C5B006D
:1050F80013800B7003234B700138022310F8012F23
:105108003AB15C1CE4B2CA5402330022DBB20A553D
:10511800F4E730BD38B513460D460222C0F8F42135
:105128008361C36100212A4601F07BFB002038BD62
:1051380010B50C4613460021224601F072FB0020F0
:1051480010BD10B50C4613460021224601F070FB35
:10515800002010BD08B500210423C0F8F4310A4628
:105168000B4601F05EFB002008BD08B500210523B1
:10517800C0F8F4310A460B4601F05AFB002008BD7E
:1051880008B558B900F04AF9642000F07DFA00F03B
:105198004DF94FF4967000F077FAF3E708BD000078
:1051A8007FB500238DF817304FF47A738DF80F0010
:1051B80000930DF10F010DF1170201230348FDF7CC
:1051C80015FF9DF8170007B05DF804FB840D00205B
:1051D80070B50D4604468021164611480022FBF79B
:1051E800F5FD0320FFF7DCFFC5F30740FFF7D8FF05
:1051F800C5F30720FFF7D4FFE8B2FFF7D1FF264435
:10520800B44205D0A520FFF7CBFF04F8010BF7E760
:10521800034880210122BDE87040FBF7D7BD00BFDD
:1052280000040048F8B50F4C802100222046FBF707
:10523800CDFD9F20FFF7B4FFA520FFF7B1FF06467D
:10524800A520FFF7ADFF0746A520FFF7A9FF3F02FE
:105258000546802120460122FBF7B8FD47EA0640B3
:105268002843F8BD000400480A4808B580210022F8
:10527800FBF7ACFDD720FFF793FFA520FFF790FFC2
:105288000306FAD5034880210122BDE80840FBF750
:105298009DBD00BF00040048F0B521F0FF07C1B074
:1052A80006460C461546684639464FF48072FFF7A5
:1052B8008FFF00239AB2954206D000A9E21B0A4448
:1052C800F15CD1540133F5E7802100221148FBF746
:1052D8007DFD8220FFF764FFC4F30740FFF760FFFE
:1052E800C4F30720FFF75CFFE0B2FFF759FF002483
:1052F800A3B29D4204D0305DFFF752FF0134F7E7B7
:10530800044880210122FBF761FDFFF7ADFF41B0A2
:10531800F0BD00BF000400482DE9F8431346C2F36E
:105328000F2811F0FF0492B205460E46D7B219D1E4
:10533800B8F1000F4DD04FEA082800F58079C14434
:105348000446711B2144204604F580744C4504D062
:105358004FF48072FFF7A0FFF3E705EB080008EBB6
:1053680006010EE0C4F58074A4B2B8F1000F0AD1AA
:10537800A7422ED93F1B2246FFF78EFFBFB228193E
:10538800A1193A4625E01B1B4FEA132822465FFA6B
:1053980083F926441FFA88F82C44FFF77DFF4FEA6B
:1053A800082804F5807545442746311B394438469A
:1053B80007F58077AF4204D04FF48072FFF76CFF97
:1053C800F3E704EB080008EB0601B9F1000F04D07D
:1053D8004A46BDE8F843FFF75FBFBDE8F883000021
:1053E80010B586B006AB0A46002103F8011D0093EC
:1053F80001232928044601934FF47A7302934FEA54
:1054080044010CBF022301230348FBF753FE9DF818
:10541800170006B010BD00BFE40C002002480821A8
:105428000122FBF7D3BC00BF00080048024808214E
:105438000022FBF7CBBC00BF000800487FB5002363
:105448008DF817304FF47A738DF80F0000930DF133
:105458000F010DF1170201230348FDF7C7FD9DF861
:10546800170007B05DF804FB200D002038B50D4C7F
:105478000546102120460022FBF7A8FC20462021E3
:105488000022FBF7A3FC2846FFF7D8FF204620217F
:105498000122FBF79BFC204610210122BDE8384081
:1054A800FBF794BC0008004810B50446000AFFF753
:1054B800C5FFE0B2BDE81040FFF7C0BF70B5144C9F
:1054C80006460D46204620210022FBF77FFC204699
:1054D80010210022FBF77AFC3046FFF7AFFF204689
:1054E80010210122FBF772FC204620210122FBF744
:1054F8006DFC204620210022FBF768FC2846FFF7B8
:105508009DFF204620210122BDE87040FBF75EBCCC
:105518000008004810B50A4C202120460022FBF75D
:1055280055FC204610210022FBF750FC2220FFF7F3
:1055380085FF204610210122BDE81040FBF746BC3C
:1055480000080048024820210122FBF73FBC00BFA9
:1055580000080048013AF8B58718013BCD18FFB29A
:105568009F2834BF06469F269F2F28BF9F270C469B
:1055780011F0800FEDB218BF7F24314615F0800F6F
:105588004FF0170018BF7F25FFF798FF39461820FE
:10559800FFF794FF21461920FFF790FF29461A20AC
:1055A800FFF78CFF31462020FFF788FF2146212096
:1055B800BDE8F840FFF782BF70B51C461646BDF837
:1055C8001050FFF7C7FFFFF7A5FF16FB04F60024EE
:1055D800A3B2B34204F1010403DA2846FFF764FFDB
:1055E800F6E7BDE87040FFF7ADBF07B500200090B3
:1055F8000146A0228023FFF7DFFF03B05DF804FB1C
:1056080008B500F025F8642000F03EF806200121D6
:10561800BDE80840FFF752BF10B5044603F00CFF81
:105628007F2801DD04F0C8F82046BDE8104003F0EB
:105638000BBF10B5044603F0FFFE7F2801DD04F020
:10564800BBF820460421BDE8104003F081BF0000EC
:1056580008B501210A460348FBF7B8FB024B0122B3
:105668001A7008BD000800489905002008B50022F6
:1056780003480121FBF7AAFB024B00221A7008BD60
:10568800000800489905002038B50A4C4EF66025F8
:105698004FF6FF724FF47A71A84238BF05460320CF
:1056A80000F00AF82046FDF7DEFD2268536AAB4297
:1056B800FCD338BD180A0020F0B5431E9BB08646BF
:1056C8000F461646102B00F2B880DFE813F01100E1
:1056D8001F002E003C004A00580066007400B60007
:1056E800B600B600B600B600B600820090009E0074
:1056F800614B624C1A6E42F400621A661B6E03F428
:1057080000630093009B5E4B0B938BE05A4B5D4C00
:105718009A6D42F001029A659B6D03F001030193B3
:10572800019B4FF080430B937CE0534B564C9A6D92
:1057380042F002029A659B6D03F002030293029BFA
:10574800524B0B936EE04C4B514C9A6D42F0040255
:105758009A659B6D03F004030393039B4D4B0B93D6
:1057680060E0454B4C4C9A6D42F008029A659B6D7F
:1057780003F008030493049B484B0B9352E03E4B01
:10578800474C9A6D42F010029A659B6D03F0100326
:105798000593059B434B0B9344E0374B424C9A6D62
:1057A80042F020029A659B6D03F020030693069B46
:1057B8003E4B0B9336E0304B3D4C1A6E42F4005290
:1057C8001A661B6E03F400530793079B394B0B9320
:1057D80028E0294B384C1A6E42F480321A661B6E48
:1057E80003F480330893089B344B0B931AE0224B45
:1057F800334C1A6E42F400321A661B6E03F40033FF
:105808000993099B2F4B0B930CE01B4B2E4C1A6EE4
:1058180042F480221A661B6E03F480230A930A9BC3
:105828002A4B0B930BAD0FCD0FC40FCD0FC40FCD6B
:105838000FC495E8070084E80700AEF1020EBEF138
:10584800050F02D8FCF7FCFE01E0FCF70FFF4FF450
:105858007A734000B0FBF3F04743B7FBF3F3013B27
:105868000C93013E00230BA80E960D930F93FDF7A2
:1058780069FD1BB0F0BD00BF00100240900A002077
:10588800002C0140CC0A0020180A00200004004027
:105898002809002000080040DC090020000C004016
:1058A800540A002000100040440B0020001400405F
:1058B800EC08002000340140640900200040014049
:1058C800080B002000440140A009002000480140C6
:1058D80070B50E4C86B0002580261123204601A9FC
:1058E8000293019603950495FBF794F9022301931B
:1058F8002046032301A902930395FBF78BF9204661
:1059080031460122FBF762FA06B070BD0008004874
:105918001FB52B4B1A6842F480721A600320FBF7FC
:1059280007F90F20FBF7D8F800F0B8FD254BDA6C23
:1059380042F00102DA64DA6C02F001020092009A85
:10594800DA6C42F00202DA64DA6C02F002020192C6
:10595800019ADA6C42F00402DA64DA6C02F00402AA
:105968000292029ADA6C42F00802DA64DB6C03F005
:1059780008030393039B00F0B7FC00F06FFD00F0F1
:105988002BFD00F0E3FDFFF7A3FF00F06BFB00F039
:105998007BFB00F045FB00F013FB00F067FC00F018
:1059A80021F800F00FFE00F0FDFC00F03DFD00F0D6
:1059B80021FB00F085FB00F0E5FA05B05DF804FB7B
:1059C800002002400010024000B589B001A800F094
:1059D80018FE01A800F044F8002000F091FB09B07F
:1059E8005DF804FB70B586B006A90A4E4FF4007541
:1059F8000023012441F8145D304603930493029474
:105A0800FBF708F9304629462246FBF7DFF906B0CE
:105A180070BD00BF0008004807281BD8DFE800F069
:105A2800040407090B0D121600234B6011E0002334
:105A38000DE0002307E0012300E011234B60002361
:105A4800CB607047044B4B60022302E0034B4B6072
:105A580001238B60704700BF000011100000211067
:105A680070B5037C162B8EB0044604D1A7480421D8
:105A78000122FBF7ABF9227A0A2A02D0A37A0B2B70
:105A88003AD1A34B996D41F4001199659B6D03F4CC
:105A980000130193019B00230C930A2A4FF004037F
:105AA8000D930AD14FF40073099301230B9399487E
:105AB800022309A90A93FBF7ADF8A37A0B2B0BD1A4
:105AC800099B944843F48073099300230B9309A915
