:020000040800F2
:100000000080012089070008870800088908000887
:100010008B0800088D0800088F0800080000000009
:10002000000000000000000000000000910800082F
:1000300093080008000000009508000897080008D1
:10004000DD070008DD070008DD0700088508000857
:10005000DD070008DD0700087108000873080008C4
:10006000750800087708000879080008DD0700080F
:10007000DD070008DD070008DD070008DD070008D0
:10008000DD070008DD070008DD070008DD070008C0
:10009000DD070008DD070008DD0700087B08000811
:1000A000DD070008DD070008DD070008DD070008A0
:1000B000DD070008DD070008DD070008DD07000890
:1000C000DD070008DD070008DD070008DD07000880
:1000D000DD070008DD070008DD070008DD07000870
:1000E0007D080008DD070008DD070008DD070008BF
:1000F000DD070008DD070008DD070008DD07000850
:10010000DD070008DD070008DD070008DD0700083F
:10011000DD070008DD070008DD070008DD0700082F
:10012000DD070008DD070008DD070008DD0700081F
:10013000DD070008DD070008DD070008DD0700080F
:10014000DD070008DD070008DD070008DD070008FF
:10015000DD070008DD070008DD070008DD070008EF
:10016000DD070008DD070008DD070008DD070008DF
:10017000DD070008DD070008DD07000800000000BB
:08018000DD070008DD0700089F
:1001880010B5054C237833B9044B13B10448AFF3C9
:1001980000800123237010BD3004002000000000FF
:1001A800143D000808B5064B1BB106480649AFF3D5
:1001B80000800648036813B1054B03B1984708BD92
:1001C80000000000143D0008340400203004002022
:1001D800000000004BB942B9002908BF002802D02E
:1001E8004FF0FF31084600F03BB882B0EC462DE9ED
:1001F800005000F01DF8DDF804E002B00CBC7047B8
:100208002DE97043069E14461D468046894600F037
:1002180029F804FB01F300FB0533A4FB00451D444A
:10022800B8EB040469EB0505C6E90045BDE8708331
:100238002DE97043069E1446804689461D4600F007
:100248005DF900FB05F504FB0153A0FB04451D44C3
:10025800B8EB040469EB0505C6E90045BDE8708301
:10026800704700BF00292DE9F00FC0F29F800024DD
:10027800002BC0F29680154606460F46002B3ED14D
:100288008A4257D9B2FA82F34BB1C3F1200201FA7C
:1002980003F720FA02F29D40174300FA03F6290CEF
:1002A800B7FBF1F2330C01FB127CA8B243EA0C470E
:1002B80000FB02F3BB4209D97F1902F1FF3C80F031
:1002C8000181BB4240F2FE80023A2F44FF1AB7FB7D
:1002D800F1F3B6B201FB137146EA014100FB03F0EA
:1002E800884208D9491903F1FF3780F0ED80884228
:1002F80040F2EA80023B43EA0242002303E08B42D9
:100308000AD900231A461046194614B1404261EB37
:100318004101BDE8F00F7047B3FA83F8B8F1000F58
:1003280040F084808B4202D3824200F2DE800023B8
:100338000122E8E712B90123B3FBF2F5B5FA85F219
:10034800002A39D17F1B280C1FFA85FC0123B7FB33
:10035800F0F1320C00FB117742EA07470CFB01F27F
:10036800BA4207D97F1901F1FF3802D2BA4200F226
:10037800C1804146BF1AB7FBF0F2B6B200FB12705B
:1003880046EA00400CFB02FC844507D9401902F1FB
:10039800FF3702D2844500F2AB803A4642EA014276
:1003A800B1E7E443524263EB430364E7404261EB45
:1003B80041014FF0FF345BE79540C2F1200327FA73
:1003C80003F1280C26FA03F39740B1FBF0F81F431A
:1003D8003B0C00FB18111FFA85FC43EA01410CFB9A
:1003E80008F38B4206FA02F608D9491908F1FF32D8
:1003F80079D28B4277D9A8F102082944C91AB1FBEE
:10040800F0F3BFB200FB131147EA01470CFB03F2FC
:10041800BA4207D97F1903F1FF3160D2BA425ED9D7
:10042800023B2F44BF1A43EA084390E7C8F1200271
:1004380003FA08FC25FA02F343EA0C0C4FEA1C49BC
:1004480021FA02F301FA08F720FA02F2B3FBF9F1F4
:10045800174309FB11333A0C1FFA8CFB42EA03439A
:100468000BFB01FA9A4505FA08F008D913EB0C03BF
:1004780001F1FF3235D29A4533D902396344CAEBC8
:100488000303B3FBF9F209FB1233BFB247EA034790
:100498000BFB02F9B94508D917EB0C0702F1FF333A
:1004A8001BD2B94519D9023A674442EA0145A5FB6E
:1004B8000001C9EB07078F424FF000030AD305D0AC
:1004C8002A4620E7624601E73B4614E706FA08F6A3
:1004D8008642F5D26A1E002315E71A46E5E70B4661
:1004E800A0E71146CBE7904688E7434642460AE72D
:1004F800023A53E702392F443CE700BF2DE9F00FD9
:10050800144605460E46002B43D18A4253D9B2FA07
:1005180082F757B1C7F1200620FA06F601FA07F369
:1005280002FA07F41E4300FA07F5210CB6FBF1F2B4
:100538002B0C01FB1267A0B243EA074600FB02F34B
:10054800B34209D9361902F1FF3780F0F680B34279
:1005580040F2F380023A2644F61AB6FBF1F3ADB244
:1005680001FB136145EA014100FB03F0884208D909
:10057800091903F1FF3680F0E280884240F2DF80FB
:10058800023B43EA0242002310461946BDE8F00F39
:1005980070478B424AD8B3FA83F6002E4DD18B426E
:1005A80002D3824200F2D680002301221046194667
:1005B800BDE8F00F704712B90124B4FBF2F4B4FAA5
:1005C80084F2002A7CD1091B260CA7B20123B1FBB7
:1005D800F6F02A0C06FB101142EA014107FB00F273
:1005E8008A4207D9091900F1FF3C02D28A4200F277
:1005F800C3806046891AB1FBF6F2ADB206FB121150
:1006080045EA014507FB02F7AF4208D92C1902F168
:10061800FF3180F09680A74240F29380023A42EA86
:10062800004210461946BDE8F00F704700231A46ED
:1006380010461946BDE8F00F7047C6F1200522FAAA
:1006480005F4B3401C434FEA144821FA05F301FAB4
:1006580006F720FA05F5B3FBF8FC2F4308FB1C331B
:100668003D0C1FFA84FA45EA03430AFB0CF9994545
:1006780002FA06FB04D91B190CF1FF326DD394461C
:10068800C9EB0303B3FBF8F508FB1533BFB247EA20
:1006980003470AFB05F8B84504D93F1905F1FF33AC
:1006A80061D31D4645EA0C4CACFB0B23C8EB07078E
:1006B8009F424FF0000549D345D062462B4663E779
:1006C8009440C2F1200321FA03FC260C20FA03F31C
:1006D80001FA02F5BCFBF6F843EA05010B0C06FB30
:1006E80018CCA7B243EA0C4C07FB08F3634500FAA1
:1006F80002F509D91CEB040C08F1FF323AD2634524
:1007080038D9A8F10208A444C3EB0C0CBCFBF6F3DF
:1007180089B206FB13CC41EA0C4107FB03F28A427B
:1007280007D9091903F1FF3022D28A4220D9023BA6
:100738002144891A43EA084349E73A460CE7334615
:100748001FE70A466BE7B0409042B6D20CF1FF3281
:10075800002319E73346324616E799458FD9ACF19D
:10076800020C23448CE7B8459BD9023D274499E7FE
:100778000346DEE79046C7E7023821443AE700BF60
:10078800002100F004B80E4B5B58435004310D486B
:100798000D4B42189A42FFF4F6AF0C4A00F003B82A
:1007A8000023136004320A4B9A42FFF4F9AF00F0B9
:1007B80013F803F0BDF900F033F8FFF7FEBF0000AF
:1007C800C03D000800000020300400203004002054
:1007D80050090020FFF7FEBF0F4AD2F8883043F4D3
:1007E8007003C2F888300D4B1968002041F00101F0
:1007F80019609860196821F0A85121F41021196036
:100808004FF40061D960196821F48021196098615A
:100818004FF000639360704700ED00E00010024065
:1008280010B502F0B1FB02F00BFC02F033FA012024
:1008380002F0F0F902F036FA012402F02BFA6420F3
:1008480002F05EFA0CB902F02DFA4FF4C87002F00B
:1008580057FA02F02FFA002818BF002402F036FADF
:10086800002818BF0124E8E77047704770477047B1
:10087800704770474FF4005000F0B8B970477047A0
:10088800FEE7FEE7FEE7FEE770477047704700F0B7
:100898004BB80000B0F5005F08B52DD102F002FAA0
:1008A80016484FF4005100F095F90028F8D002F0EE
:1008B800F1F9642002F024FA02F0F4F9C82002F0F9
:1008C8001FFA02F0E7F9642002F01AFA02F0EAF9D6
:1008D800C82002F015FA02F0DDF9642002F010FADF
:1008E80002F0E0F906484021002200F079F940F6CC
:1008F800B83002F005FAFEE708BD00BF000800485E
:100908000004004810B5044600F086FF4FF47A73DF
:10091800B0FBF3F000F066F84FF0FF3021460022FC
:1009280000F022F8002010BD024B1A6801321A604C
:10093800704700BF4C040020014B1868704700BF87
:100948004C040020074AD36823F4E0631B041B0C03
:1009580043F0BF6343F4003300F0070043EA002389
:10096800D360704700ED00E0164BDB68C3F3022349
:1009780070B51D1DC3F10704042C28BF0424062DDF
:100988004FF001058CBF033B002305FA04F405FA78
:1009980003F6013C013E2140324001FA03F31343C0
:1009A80000284FEA031305DADAB200F00F00064B0D
:1009B8001A5470BD00F1604000F56140DBB280F868
:1009C800003370BD00ED00E014ED00E042090123A2
:1009D80000F01F0003FA00F0014B43F822007047B3
:1009E80000E100E00138B0F1807F0AD2064B074AE7
:1009F8005860F02182F823100020072298601A60BE
:100A080070470120704700BF10E000E000ED00E0F3
:100A1800044B1A6804280CBF42F0040222F00402B6
:100A28001A60704710E000E02DE9F74FD1F800C0D8
:100A380000233CFA03F200F0C48001269E4016EA27
:100A48000C0500F0BC804A6822F01007022F16D16E
:100A58004FEAD30800EB880803F00709D8F82040CC
:100A68004FEA89094FF00F0A0AFA09FA24EA0A0A32
:100A78000C6904FA09F94AEA0904C8F820405C003C
:100A88004FF00308D0F800A008FA04F86FEA080845
:100A980002F0030908EA0A0A09FA04FB013F4AEAD4
:100AA8000B0A012FC0F800A010D8876808EA070AC7
:100AB800CF68A7404AEA07078760476827EA060A17
:100AC800C2F300179F404AEA07074760B9F1030FCE
:100AD80007D1C76A27EA0606C2F3C0079F403E430C
:100AE800C662C66808EA06088E68A64048EA060490
:100AF800C460D40063D5344C266E46F001062666E1
:100B0800246E23F0030606F1804604F0010406F57E
:100B18008036019403F00307019CB468BF004FF0CE
:100B28000F0808FA07F8B0F1904F24EA080819D01E
:100B3800264CA04218D004F58064A04216D004F5D3
:100B48008064A04214D004F58064A04212D004F559
:100B58008064A04210D004F58064A04214BF07242A
:100B680006240AE0002408E0012406E0022404E048
:100B7800032402E0042400E00524BC4044EA0804FD
:100B8800B460134C2768EE4312F4803F14BF2F4320
:100B980037402760676812F4003F14BF2F4337407F
:100BA8006760A76812F4801F14BF2F433740A760FF
:100BB800E768920254BF06EA07053D43E560013342
:100BC80037E703B0BDE8F08F00100240000400488A
:100BD80000040140036919420CBF0020012070473E
:100BE8000AB18161704781627047000008B5044B03
:100BF8005969084202D05861FFF74CFE08BD00BF92
:100C080000040140704710B50446002844D090F80D
:100C1800353003F0FF021BB980F83420FFF7F2FFEC
:100C2800022384F835302368E1681A6822F001024B
:100C38001A60626822F070621A619A6822F40042AF
:100C48009A60A26842B1012903D142F400429A6035
:100C580007E042F404429A60022904BF4FF400629C
:100C68005A605A68616942F0007242F400425A6060
:100C780022691143A26941EA0222DA60216AE26923
:100C88000A431A601A6842F001021A600020012320
:100C9800A06384F8353010BD012010BD024B1868E0
:100CA80000F4C060704700BF00700040174B1A681E
:100CB800B0F5007F02F4C0621DD1B2F5007F23D0E9
:100CC8001A6822F4C06242F400721A60104B1A6863
:100CD800104BB2FBF3F3322253430C4A23B1516950
:100CE800490501D5013BF8E7536913F4806F0CBF40
:100CF800002003207047B2F5806F05D01A6822F4EF
:100D0800C06242F480621A600020704700700040A0
:100D18000000002040420F0037B51E4CA36DDA00DA
:100D2800054602D5FFF7BAFF0EE0A36D43F08053E6
:100D3800A365A36D03F080530193019BFFF7AEFFFA
:100D4800A36D23F08053A365B0F5007F06D1802DF5
:100D58000CD9A12D34BF012002200CE0802D07D82A
:100D680008D0B5F170035842584104E0002002E071
:100D7800032000E00220084B1A6822F00702024311
:100D88001A601B6803F00703181A18BF012003B084
:100D980030BD00BF00100240002002400368F7B5D4
:100DA800DC06054640F1A380B64CA36813F00C0F8F
:100DB80050D1022393FAA3F30223226893FAA3F3F0
:100DC800B3FA83F303F01F0322FA03F3D80703D51A
:100DD800AB690BB901206FE32268286AA94B110798
:100DE80003D51B6803F0F00304E0D3F8943003F450
:100DF80070631B09984215D9FFF78EFF0028E9D1C7
:100E0800236843F00803236022682B6A22F0F0026B
:100E1800134323606268EB6922F47F4242EA0323AA
:100E2800636013E0236843F008032360236823F01A
:100E3800F003034323606268EB6922F47F4242EACD
:100E480003236360FFF768FF0028C3D10F20FFF773
:100E580059FD4CE0836973B3236843F001032360B1
:100E6800FFF76AFD0646022393FAA3F302232268DA
:100E780093FAA3F3B3FA83F303F01F0322FA03F3FD
:100E8800DA0706D4FFF758FD801B6428EBD9032046
:100E980012E3236843F00803236022682B6A22F0D8
:100EA800F002134323606268EB6922F47F4242EA4E
:100EB800032363601BE0236823F001032360FFF72B
:100EC8003BFD0646022393FAA3F30223226893FA12
:100ED800A3F3B3FA83F303F01F0322FA03F3DB0748
:100EE80005D5FFF729FD801B6428EBD9CFE72B68D0
:100EF800DF0704D42B689E0700F1A08010E1614C45
:100F0800A36803F00C03082B09D0A36803F00C03B3
:100F18000C2B19D1E36803F00303032B14D14FF40E
:100F2800003393FAA3F34FF40033226893FAA3F340
:100F3800B3FA83F303F01F0322FA03F3DC07D9D5CE
:100F48006B68002BD6D145E7236823F480332360F0
:100F5800236823F480232360FFF7EEFC06464FF452
:100F6800003393FAA3F34FF40033226893FAA3F300
:100F7800B3FA83F303F01F0322FA03F3D80707D564
:100F8800FFF7DAFC41F28833801B9842E7D97EE705
:100F98006B68B3F5803F0AD0B3F5A02F0CD1236856
:100FA80023F480332360236843F480232360236879
:100FB80043F48033236008E0226822F48032226000
:100FC800226822F480222260DBB1FFF7B5FC0646D6
:100FD8004FF4003393FAA3F34FF40033226893FAE3
:100FE800A3F3B3FA83F303F01F0322FA03F3D90739
:100FF80080D4FFF7A1FC41F28833801B9842E7D9DF
:1010080045E7FFF799FC06464FF4003393FAA3F33C
:101018004FF40033226893FAA3F3B3FA83F303F08F
:101028001F0322FA03F3DA077FF564AFFFF784FCA6
:1010380041F28833801B9842E6D928E7114CA3680F
:1010480003F00C03042B09D0A36803F00C030C2B4A
:101058001AD1E36803F00303022B15D14FF4806320
:1010680093FAA3F34FF48063226893FAA3F3B3FAD5
:1010780083F303F01F0322FA03F3DB0724D5EB689D
:1010880013BBA7E600100240EB685BB3236843F488
:1010980080732360FFF750FC06464FF4806393FA91
:1010A800A3F34FF48063226893FAA3F3B3FA83F3AC
:1010B80003F01F0322FA03F3DF0705D4FFF73CFC14
:1010C800801B6428E9D9E2E662684FF0F85191FA8A
:1010D800A1F12B69B1FA81F18B4022F0F852134348
:1010E80063601DE0236823F480732360FFF724FC0A
:1010F80006464FF4806393FAA3F34FF480632268A3
:1011080093FAA3F3B3FA83F303F01F0322FA03F36A
:10111800D80705D5FFF710FC801B6428E9D9B6E687
:101128002B68190703D42B685A0747D436E16B6933
:10113800B04C0BB3D4F8943043F00103C4F89430A6
:10114800FFF7FAFB0646022393FAA3F293FAA3F2F7
:1011580093FAA3F2D4F8942093FAA3F3B3FA83F39F
:1011680003F01F0322FA03F3DB07DCD4FFF7E4FBE9
:10117800801B6428E7D98AE6D4F8943023F0010369
:10118800C4F89430FFF7D8FB0646022393FAA3F27B
:1011980093FAA3F293FAA3F2D4F8942093FAA3F360
:1011A800B3FA83F303F01F0322FA03F3DF07BAD578
:1011B800FFF7C2FB801B6428E7D968E68D4CA36D56
:1011C800DE000AD4A36D43F08053A365A36D03F03A
:1011D80080530193019B012600E00026864B1A6884
:1011E800D0050FD5D4F8903023F00103C4F890301F
:1011F800D4F8903023F00403C4F89030FFF79CFB38
:1012080007462EE01A6842F480721A60FFF794FBD2
:101218000746794B1B68D905E4D4FFF78DFBC01B43
:101228006428F6D933E693FAA3F3B3FA83F343F0C9
:1012380040035B09032B0CBFD4F89430E369022206
:1012480092FAA2F2B2FA82F202F01F02D340DA074F
:1012580016D5FFF771FB41F28833C01B98423FF661
:1012680016AE022393FAA3F293FAA3F2B2FA82F229
:1012780042F0400252099A42D5D1D4F89030DEE7C4
:10128800AB68012B1ED07BB9D4F8903023F0010352
:10129800C4F89030D4F8903023F00403C4F89030A8
:1012A800FFF74AFB07464EE0052BD4F8903023F0B1
:1012B8000103C4F89030D4F8903008D143F0040307
:1012C800C4F89030D4F8903043F0010301E023F0E3
:1012D8000403C4F89030FFF72FFB0746022393FA64
:1012E800A3F293FAA3F2B2FA82F242F04002520950
:1012F8009A4202D1D4F890300BE093FAA3F3B3FAF0
:1013080083F343F040035B09032B0CBFD4F89430FC
:10131800E369022292FAA2F2B2FA82F202F01F0202
:10132800D340DB0727D4FFF707FB41F28833C01B04
:101338009842D3D9ABE5FFF7FFFA41F28833C01BD7
:1013480098423FF6A4AD022393FAA3F293FAA3F2CC
:10135800B2FA82F242F0400252099A4211D1D4F80C
:101368009030022292FAA2F2B2FA82F202F01F023E
:10137800D340D807DFD48EB1A36D23F08053A36583
:101388000CE093FAA3F3B3FA83F343F040035B0949
:10139800032B0CBFD4F89430E369E2E76B6A0BB90E
:1013A800002089E0134CA26802F00C020C2A3FF4DA
:1013B80011AD022B236823F08073236057D1FFF708
:1013C800BBFA06464FF0007393FAA3F34FF000738D
:1013D800226893FAA3F3B3FA83F303F01F0322FA04
:1013E80003F3D9070AD5FFF7A7FA801B6428E9D9C0
:1013F8004DE500BF00100240007000402A6BAB6A48
:1014080043EA0223EA6A013A43EA02126B6B1B09B8
:1014180042EA4341AB6B5A08EB6B013A5B0841EA7D
:101428004252013B42EA4363E360236843F080731E
:101438002360E36843F08073E360FFF77DFA0546B5
:101448004FF0007393FAA3F34FF00073226893FAF6
:10145800A3F3B3FA83F303F01F0322FA03F3DA07C3
:101468009ED4FFF769FA401B6428E9D90FE5E368C1
:1014780023F00303E360E36823F0887323F48033E5
:10148800E360FFF759FA05464FF0007393FAA3F3A8
:101498004FF00073226893FAA3F3B3FA83F303F0CF
:1014A8001F0322FA03F3DB077FF57AAFFFF744FA4D
:1014B800401B6428E8D9EAE403B0F0BDF8B59F4BB7
:1014C8001A6802F00702914204460E4640F29780DD
:1014D8001A6804299CBF22F007020A431A601B6895
:1014E80003F007038B4201D00120F8BD03689A0777
:1014F80006D5934AA168906820F0F00001439160F6
:10150800DB070BD423685F0740F108818C4AE16848
:10151800906820F4E06001439160FFE06368884DC3
:10152800022B07D14FF4003292FAA2F24FF40032A4
:10153800296817E0032B07D14FF0007292FAA2F244
:101548004FF0007229680DE02BB9022292FAA2F23C
:101558000222296806E04FF4806292FAA2F2296812
:101568004FF4806292FAA2F2B2FA82F202F01F02FB
:1015780021FA02F2D607B7D5AA6822F0030213436C
:10158800AB60FFF7D9F96368022B06460DD1AB684B
:1015980003F00C03082BB5D0FFF7CEF941F28833DE
:1015A800801B9842F3D90320F8BD032B0CD1AB68FC
:1015B80003F00C030C2BA5D0FFF7BEF941F28833DA
:1015C800801B9842F3D9EEE763B1AB6803F00C03D4
:1015D800042B0CD196E7FFF7AFF941F28833801B53
:1015E8009842E0D8AB6813F00C0FF4D18AE7FFF704
:1015F800A3F941F28833801B9842E6D9D3E7036800
:10160800980706D54E4AA168906820F0F00001437B
:101618009160D90707D4042E484B76D81A6822F06F
:101628000702324372E06368454D022B07D14FF43D
:10163800003292FAA2F24FF40032296817E02BB96F
:10164800022292FAA2F20222296810E0032B07D1A3
:101658004FF0007292FAA2F24FF00072296806E089
:101668004FF4806292FAA2F229684FF4806292FAEB
:10167800A2F2B2FA82F202F01F0221FA02F2D207B3
:101688007FF532AFAA6822F003021343AB60FFF77D
:1016980053F96368022B07460CD1AB6803F00C03BF
:1016A800082BB8D0FFF748F941F28833C01B98429D
:1016B800F3D978E7032B0CD1AB6803F00C030C2BA0
:1016C800A9D0FFF739F941F28833C01B9842F3D902
:1016D80069E76BB1AB6803F00C03042B0DD19AE7F3
:1016E800FFF72AF941F28733C01B98423FF65BAFF8
:1016F800AB6813F00C0FF3D18DE7FFF71DF941F23A
:101708008833C01B9842E5D94DE71A681A601B68F0
:1017180003F00703B3427FF4E7AEF3E61B0707D5F0
:10172800074B21699A6822F4605242EAC1029A6022
:101738000F20FFF7E7F80020F8BD00BF00200240A7
:1017480000100240304B9A6802F00C02042A10B5CF
:1017580028D09A6802F00C02082A25D09A6812F05C
:101768000C0F09D09A6802F00C020C2A1FD1DA6813
:1017780002F00302012A1AD11968234A090754BF43
:10178800D2F894201268214954BFC2F30322C2F34D
:10179800031251F82220996811F00C0F0CBF104663
:1017A800002006E01A4800E01A48002201E0002064
:1017B80002469C68144904F00C040C2C22D1C86819
:1017C800CC6800F00300C4F30214022804F10104F9
:1017D80004D0032809D1CA680E4801E0CA680C4839
:1017E800B0FBF4F4C2F3062204E0C868B2FBF4F4D8
:1017F800C0F30622D868C0F341600130624340005C
:10180800B2FBF0F010BD00BF00100240403D0008E0
:101818000024F40000127A0008B5FFF793FF084B84
:10182800F0229B6892FAA2F2B2FA82F203F0F00375
:10183800D340044AD35CD840034B186008BD00BFAE
:1018480000100240303D00080000002008B5FFF7F6
:10185800E3FF074B4FF4E0629B6892FAA2F2B2FAF8
:1018680082F203F4E063D340024AD35CD84008BD57
:1018780000100240703D000808B5FFF7CDFF074B88
:101888004FF460529B6892FAA2F2B2FA82F203F421
:101898006053D340024AD35CD84008BD00100240D0
:1018A800703D000870B52B4C236823F080632360DB
:1018B8000546FFF741F806464FF0006393FAA3F395
:1018C8004FF00063226893FAA3F3B3FA83F303F0AB
:1018D8001F0322FA03F3DA0706D5FFF72DF8801B5A
:1018E800B0F57A7FE8D92CE022692B6822F4FE4211
:1018F80042EA0323236122696B6822F400321B0940
:1019080042EA43432361236843F080632360FFF77F
:1019180013F806464FF0006393FAA3F34FF0006301
:10192800226893FAA3F3B3FA83F303F01F0322FAAE
:1019380003F3DB0707D4FEF7FFFF801BB0F57A7FC0
:10194800E8D9032070BD22692B6913432361002065
:1019580070BD00BF0010024070B52B4C236823F007
:10196800805323600546FEF7E7FF06464FF0005315
:1019780093FAA3F34FF00053226893FAA3F3B3FA50
:1019880083F303F01F0322FA03F3DA0706D5FEF701
:10199800D3FF801BB0F57A7FE8D92CE062692B6809
:1019A80022F4FE4242EA0323636162696B6822F40F
:1019B80000321B0942EA43436361236843F08053C2
:1019C8002360FEF7B9FF06464FF0005393FAA3F3DE
:1019D8004FF00053226893FAA3F3B3FA83F303F0AA
:1019E8001F0322FA03F3DB0707D4FEF7A5FF801BCA
:1019F800B0F57A7FE8D9032070BD6269EB681343BC
:101A08006361002070BD00BF0010024070B52B4C10
:101A1800236823F0806323600546FEF78DFF0646A2
:101A28004FF0006393FAA3F34FF00063226893FA30
:101A3800A3F3B3FA83F303F01F0322FA03F3DA07DD
:101A480006D5FEF779FF801BB0F57A7FE8D92DE03F
:101A580022692B6822F4FE4242EA03232361AB6821
:101A680022695B0822F4C002013B42EA4353236126
:101A7800236843F080632360FEF75EFF06464FF05D
:101A8800006393FAA3F34FF00063226893FAA3F379
:101A9800B3FA83F303F01F0322FA03F3DB0707D437
:101AA800FEF74AFF801BB0F57A7FE8D9032070BDA6
:101AB80022692B6913432361002070BD0010024086
:101AC8002DE9F743056815F40065044627D0436DF2
:101AD800B3F5800F12D004D803BB0430FFF7E2FE41
:101AE8000FE0B3F5000F03D0B3F5400F0BD015E0AE
:101AF800AA4BDA6842F48032DA6004E01830FFF763
:101B08002BFF054658B9A54B626DD3F8881021F410
:101B180040010A43C3F88820002500E00125236816
:101B2800D80429D5A36DB3F1807F12D004D813BB94
:101B3800201DFFF7B7FE10E0B3F1007F03D0B3F12B
:101B4800407F0CD017E0954BDA6842F48032DA60B7
:101B580005E004F11800FFF7FFFE064600E02E46F8
:101B680066B98E4BA26DD3F8881021F040710A43F4
:101B7800C3F8882003E001252E4600E03546236897
:101B880099037CD5854FBB6DDA000BD4BB6D43F050
:101B98008053BB65BB6D03F080530193019B4FF0ED
:101BA800010801E04FF000087D4B1A6842F480728A
:101BB8001A60FEF7C1FE8146794B1B68DB0506D427
:101BC800FEF7BAFEC9EB00006428F5D94EE0002EF6
:101BD8004DD1D7F89010626F704B01F4407191426B
:101BE80011D0D3F89060D3F8902042F48032C3F833
:101BF8009020D3F8902026F4407622F48032C3F85F
:101C08009020C3F89060B00740F19381FEF794FEEE
:101C18000646022393FAA3F293FAA3F2B2FA82F2E7
:101C280042F0400252099A4202D1D7F890300BE0B4
:101C380093FAA3F3B3FA83F343F040035B09032B4E
:101C48000CBFD7F89430FB69022292FAA2F2B2FADA
:101C580082F202F01F02D340D90700F16A81FEF731
:101C68006BFE41F28833801B9842D2D90326B8F123
:101C7800000F05D0BB6D23F08053BB6500E02E46F6
:101C88002368DA0708D5454AA16AD2F8880020F007
:101C980003000143C2F888109F0708D53F4AE16A4C
:101CA800D2F8880020F00C000143C2F888105D07C4
:101CB80008D53A4A216BD2F8880020F03000014359
:101CC800C2F88810180708D5344A616BD2F8880022
:101CD80020F0C0000143C2F88810D90608D52F4A61
:101CE800A16BD2F8880020F440700143C2F8881034
:101CF8009A0608D5294AE16BD2F8880020F440609A
:101D08000143C2F888109F0508D5244AE16CD2F82F
:101D1800880020F440200143C2F888105D0508D5EA
:101D28001E4A216DD2F8880020F440100143C2F801
:101D38008810580608D5194A216CD2F8880020F472
:101D480040500143C2F88810190608D5134A616C3F
:101D5800D2F8880020F440400143C2F88810DA0520
:101D680008D50E4AA16CD2F8880020F4403001430F
:101D7800C2F888109F041ED5084BE26DD3F888106E
:101D880021F040611143B2F1006FC3F8881009D106
:101D9800DA6842F48012DA600DE000BF00100240F9
:101DA80000700040B2F1806F05D1201DFFF72EFEB4
:101DB800002818BF064623681D0319D58B4B226ED1
:101DC800D3F8881021F040611143B2F1006FC3F8D5
:101DD800881004D1DA6842F48012DA6008E0B2F1BF
:101DE800806F05D1201DFFF711FE002818BF064699
:101DF8002368580319D57D4B626ED3F8881021F0FB
:101E080040611143B2F1006FC3F8881004D1DA6859
:101E180042F48012DA6008E0B2F1806F05D1201D2B
:101E2800FFF7F4FD002818BF06462368590468D553
:101E38006E4DA36ED5F8882022F040521A43B3F1B4
:101E4800805FC5F888201ED12B6823F080632B6043
:101E5800FEF772FD07464FF0006393FAA3F34FF0C5
:101E680000632A6893FAA3F3B3FA83F303F01F031A
:101E780022FA03F3DA0766D5FEF75EFDC01BB0F55C
:101E88007A7FE8D9ABE0B3F1005F3AD12B6823F051
:101E980080532B60FEF750FD07464FF0005393FA2E
:101EA800A3F34FF000532A6893FAA3F3B3FA83F32A
:101EB80003F01F0322FA03F3D8075CD5FEF73CFDB5
:101EC800C01BB0F57A7FE8D989E0FEF735FDC01B65
:101ED800B0F57A7F00F283804FF0006393FAA3F3A2
:101EE8004FF000632A6893FAA3F3B3FA83F303F07D
:101EF8001F0322FA03F3DB07E7D52A696369134353
:101F08002B6123681A0408D5384AE16ED2F8880094
:101F180020F080400143C2F88810DB0361D5334BC1
:101F2800216FD3F8882022F000420A43C3F88820A2
:101F380057E0D7F89020636F22F440721343C7F834
:101F480090302E4693E62A69636822F4FE4242EAFC
:101F580003232B6123692A695B0822F0C062013BD5
:101F680042EA43632B612B6843F080632B60FEF7E2
:101F7800E3FC0746B0E76A69A36922F4FE4242EA35
:101F880003236B61236A6A695B0822F0C062013B24
:101F980042EA43636B612B6843F080532B60FEF782
:101FA800CBFC07464FF0005393FAA3F34FF00053CE
:101FB8002A6893FAA3F3B3FA83F303F01F0322FA10
:101FC80003F3D90706D4FEF7B7FCC01BB0F57A7F38
:101FD800E8D904E06A69636A13436B6191E70326F1
:101FE8008FE7304603B0BDE8F08300BF0010024021
:101FF8002DE9F34104460F4616461D46FEF79CFCA4
:10200800804623689A683A40B2423DD0B7F5C06F1F
:1020180006D12EB91A7BD2B28DF807209DF8072079
:102028006A1CEFD04DB923685A6822F0E0025A6062
:102038006268B2F5827F12D106E0FEF77DFCC8EB3C
:102048000000A842DDD3EEE7A268B2F5004F02D047
:10205800B2F5806F03D11A6822F040021A60A26AB2
:10206800B2F5005F08D119684DF6FF720A401A6090
:102078001A6842F400521A60012384F85D30002384
:1020880084F85C30032000E0002002B0BDE8F08155
:102098002DE9F04104460F4616461D46FEF74CFC56
:1020A8008046226893683B40B34234D06B1CF9D019
:1020B8004DB923685A6822F0E0025A606268B2F5A6
:1020C800827F12D106E0FEF737FCC8EB0000A84279
:1020D800E7D3EEE7A268B2F5004F02D0B2F5806F01
:1020E80003D11A6822F040021A60A26AB2F5005FB2
:1020F80008D119684DF6FF720A401A601A6842F44E
:1021080000521A60012384F85D30002384F85C30A3
:102118000320BDE8F0810020BDE8F08138B50D4608
:1021280000224FF4C0512B460446FFF761FF0246D8
:1021380028B9204680212B46FFF7AAFF20B1236E3D
:1021480043F020032366032038BD704770B504466A
:1021580000284FD090F85D301BB980F85C30FFF74D
:10216800F4FF022384F85D302368E1681A68B1F54A
:10217800E06F22F040021A604FF0000003D90246D7
:10218800B1F5706F01E04FF4805218BFA062206B68
:1021980028B9B1F5E06F8CBF022001202063656883
:1021A800A668A0692E4325692E4365692E43E56913
:1021B8002E43256A2E43A56A354300F4007635433D
:1021C8001D60256B022D03D11D6845F400651D6057
:1021D800656A2943656B000C0D4300F00400054354
:1021E8002A435A60E26A1A6100200123206684F8B3
:1021F8005D3070BD012070BD2DE9F34704461F46D0
:10220800894692460A9EFEF797FB94F85C30012BAC
:10221800804600F0298194F85D5001239D4284F89E
:102228005C3040F01881B9F1000F00F01581BAF167
:10223800000F00F01181002F00F00E81052384F8B3
:102248005D3000232366A36AC4F840A0B3F5005F9D
:10225800A4F84670A4F84470C4F83890E787A787B4
:10226800226808D111684DF6FF730B40136013689C
:1022780043F400531360E3685168B3F5E06F01D885
:10228800012F02D921F4805101E041F480515160BD
:1022980011684D0603D4116841F040011160B3F58F
:1022A800E06F43D9E18FB4F8462000292DD0236888
:1022B8009868800711D5A06B0088D860A06B013999
:1022C800023089B2A063E18739B9A16AB1F5005F2C
:1022D80003D1196841F4805119606AB123689A687A
:1022E800D70709D5DA68236C23F8022B2364B4F8DE
:1022F8004630013BA4F84630751CD3D0FEF71CFBD2
:10230800C8EB0000B042CDD383E0002AE5D1A36A30
:10231800B3F5005F40F0868058E02268916888072E
:1023280008D4B4F846201ABB731C43D1E38F002BA2
:10233800F3D146E0012BA16B06D90988D160A26BC5
:102348000232A263023B05E04B1CA3630B781373B4
:10235800E38F013BE387E38F002BE2D1A36AB3F558
:10236800005FDED123681A6842F480521A60D8E709
:1023780023689968C907D7D5012A226C10D9D9686A
:1023880022F8021B2264B4F84620023A92B2012ACB
:10239800A4F84620C8D85A6842F480525A60C3E765
:1023A800511C21641B7B1370B4F84630013BA4F820
:1023B8004630B9E7FEF7C0FAC8EB0000B042B5D323
:1023C80027E0B4F84630002BABD1A0E70121204626
:1023D8000A463346FFF75CFEB8B9E368B3F5706F99
:1023E800236802D1DB689BB218E01B7BDBB2ADF837
:1023F8000630BDF80630236B022B13D1012120468D
:102408000A463346FFF744FE28B1236E43F0020321
:102418002366032520E023681B7BDBB2ADF806307A
:10242800BDF8063023689D6815F0100507D0226EA8
:1024380042F0020222664FF6EF729A6001252046AA
:102448003146FFF76BFE08B120232366236E002B6D
:1024580018BF012500E00225012384F85D30002320
:1024680084F85C30284600E0022002B0BDE8F0871E
:102478007047022380F8393003681A6842F0010275
:102488001A60012380F83930002070472E4A03680B
:10249800904212D0B0F1804F0FD0A2F59432904202
:1024A8000BD002F58062904207D002F5806290421C
:1024B80003D002F59432904219D14A6823F0700390
:1024C8001343214A90421DD0B0F1804F1AD0A2F593
:1024D8009432904216D002F58062904212D002F5F2
:1024E800806290420ED002F5943290420AD0174A88
:1024F800904207D002F58062904203D002F58062D4
:10250800904203D1CA6823F44073134303608B6875
:10251800C3620B6883620C4B98420FD003F50063CB
:1025280098420BD003F54063984207D003F58063C7
:10253800984203D003F58063984201D10B69036385
:1025480001234361704700BF002C01400040014057
:1025580010B50446A0B190F8393003F0FF021BB95A
:1025680080F83820FFF784FF022384F83930206888
:10257800211DFFF78BFF012384F83930002010BD9F
:10258800012010BD7047000070B506460468B268A7
:102598003169C3692068114372690A4342EA030139
:1025A8009B4A02400A4322606168F26821F4405164
:1025B8000A43984962608C4218BF316AB26918BFF1
:1025C8000A43A16821F430610A43A260924A944206
:1025D80007D102F558429149D2F8882002F0030247
:1025E80009E08F4A94420CD102F5E6328D49D2F8BF
:1025F800882002F00C02B3F5004F8A5C40F092800C
:1026080053E0894A944210D102F5E432D2F8882086
:1026180002F03002102A60D002D8002A4ED074E0AE
:10262800202A54D0302A62D06FE0804A94420ED1DA
:1026380002F5E232D2F8882002F0C002402A00F007
:10264800D58027D9802A00F0A080C02A2AE0784ABD
:10265800944211D102F5E032D2F8882002F4407297
:10266800B2F5807F00F0C28014D9B2F5007F00F087
:102678008C80B2F5407F15E0664A944245D102F558
:10268800C832D2F8882002F44062B2F5806F00F0B8
:10269800AD8002D8002A69D034E0B2F5006F74D05A
:1026A800B2F5406F00F0AA802CE0082A30D8DFE8A5
:1026B80002F0080B112F172F2F2F2100B3F5004F11
:1026C80039D1FFF7C3F80DE0FFF7D6F80AE0B3F504
:1026D800004F36D17368574A0FE0B3F5004F36D133
:1026E800FFF730F873684000B0FBF3F207E0B3F58A
:1026F800004F33D173684FF48032B2FBF3F292B2D9
:10270800002307E0434A94423DD0B3F5004F3AD145
:102718000123002222F00F003168C2F34202024373
:10272800CA6073E0082A2ED8DFE802F005080B2DEE
:10273800112D2D2D1800FFF789F80AE0FFF79CF8F6
:1027480007E073683C4AB2FBF3F39BB20BE0FEF779
:10275800F9FF7368B0FBF3F083B204E073684FF4D9
:102768000042B2FBF3F3E36000234FE0294A9442AE
:10277800A4D1FFF76BF800230028F5D0726802EBAC
:102788004201884207D2012340E0224A94429ED166
:1027980002232948F2E7B0EB023FF4D8082B1CD8F3
:1027A800DFE803F0051B081B0A1B1B1B1500FFF7BE
:1027B8004DF803E021480CE0FEF7C4FF050E0402C3
:1027C8007268204629460023FDF704FD03E04FF414
:1027D8000000B0FBF2F0002300E00123184AA0F546
:1027E80040719142CFD83268D0600FE0094A9442D4
:1027F8007FF473AFFEF7A6FF0423BDE7054A9442B2
:102808007FF475AF08234FF40040B7E7184670BD52
:10281800F369FFEF0080004000380140853D000863
:1028280000440040783D000800480040004C00404B
:10283800005000400048E8010024F400000024F49F
:10284800FFFC0F00436ADA0710B506D50268816AF3
:10285800546824F40034214351609C0706D502686B
:10286800C16A546824F4803421435160590706D55D
:102878000268016B546824F48024214351601A07CC
:1028880006D50268416B546824F400442143516022
:10289800DC0606D50268816B946824F480542143D1
:1028A8009160990606D50268C16B946824F40054B7
:1028B800214391605A060FD50268016C546824F4CC
:1028C80080140C43B1F5801F546005D15468416CE5
:1028D80024F4C004214351601B0606D50368816CAB
:1028E8005A6822F400220A435A6010BD2DE9F041CB
:1028F80004460E4690461D46FEF71EF80746B8F1F8
:10290800000F36D12268D3693340B3420ED0691C18
:10291800F9D07DB1FEF710F8C01BA842F2D909E042
:102928006B1C06D1D3693340B342F9D00020BDE80F
:10293800F081CDB923681A6822F080021A601A68FB
:1029480022F020021A601A6822F480721A609A68CB
:1029580022F001029A60012384F86930002384F888
:1029680068300320BDE8F081FDF7E6FFC01BA842F0
:10297800E0D82268D6E70022036810B5C2661B6853
:102988001907044604D423681B685B0714D509E0BB
:102998004FF400116FF07E43FFF7A8FF0028F2D034
:1029A800032010BD20464FF4800100226FF07E43C3
:1029B800FFF79CFF0028F3D10123002084F8693039
:1029C80084F8680010BD10B5044660B390F869300B
:1029D80003F0FF021BB980F86820FFF7D3FD02233C
:1029E80084F8693023681A6822F001021A602046C8
:1029F800FFF7CAFD012816D0636A13B12046FFF716
:102A080021FF23685A6822F490425A609A6822F09B
:102A18002A029A601A6842F0010220461A60BDE84C
:102A28001040FFF7A8BF012010BDF8B504460E46B8
:102A38001546FDF781FF07462268D3693340B34244
:102A480021D06B1CF9D0C5B923681A6822F080021E
:102A58001A601A6822F020021A601A6822F480723A
:102A68001A609A6822F001029A60012384F84130C2
:102A7800002384F840300320F8BDFDF75DFFC01B3C
:102A8800A842D9D9E0E70020F8BD704710B5044640
:102A980008B9012010BD90F8413003F0FF021BB9BE
:102AA80080F84020FFF7F1FF022384F841302368C3
:102AB800A1681A6822F001021A6022691868114395
:102AC800626941F4004111434A4A02400A431A60CC
:102AD800A169E26958681143226A41F4006111430F
:102AE800E26820F47C500A4302435A60424A934207
:102AF80006D1424B424AD3F8883003F0030308E07A
:102B0800404A93420FD13D4B3F4AD3F8883003F0F7
:102B18000C03D35C082B30D8DFE803F0171A1D2FFD
:102B2800202F2F2F2700394A934226D1334BD3F831
:102B3800883003F03003102B10D001D82BB11CE0E3
:102B4800202B08D0302B10D017E0FEF77FFE07E0CF
:102B5800FEF792FE04E063682D4A09E0FEF7F2FDF5
:102B680063684000B0FBF3F304E063684FF480321D
:102B7800B2FBF3F39BB2002101E00023012123F013
:102B88000F002268C3F342030343D360002980D1B6
:102B9800536823F480435360936823F02A039360B7
:102BA800136843F0010313600023636413681A0772
:102BB80004D423681B685B0714D50AE020464FF449
:102BC80000114FF47A72FFF730FF0028F1D003208C
:102BD80010BD20464FF480014FF47A72FFF725FFAD
:102BE8000028F4D10123002084F8413084F8400003
:102BF80010BD00BFF369FFEF00380140001002402C
:102C0800893D0008004400408D3D00080048004010
:102C18000048E80108B558B900F03CF8642000F015
:102C28006FF800F03FF84FF4967000F069F8F3E79A
:102C380008BD00007FB500238DF817304FF47A7374
:102C48008DF80F0000930DF10F010DF1170201230C
:102C58000348FFF7D1FA9DF8170007B05DF804FBA9
:102C6800EC0800200A4808B580210022FDF7B8FFCB
:102C7800D720FFF7DFFFA520FFF7DCFF0306FAD513
:102C8800034880210122BDE80840FDF7A9BF00BF25
:102C980000040048024808210122FDF7A1BF00BF37
:102CA80000080048024808210022FDF799BF00BF2C
:102CB8000008004808B54FF400414FF09040FDF778
:102CC80089FF003018BF012008BD000008B54FF487
:102CD80080710348FDF77EFF003018BF012008BD52
:102CE8000008004808B5002203480121FDF778FFD5
:102CF800024B00221A7008BD00080048500400204A
:102D080038B50A4C4EF660254FF6FF724FF47A71CB
:102D1800A84238BF0546032000F00AF82046FFF70E
:102D2800A8FB2268536AAB42FCD338BD800500205B
:102D3800F0B5431E9BB086460F461646102B00F290
:102D4800B880DFE813F011001F002E003C004A0095
:102D5800580066007400B600B600B600B600B600AB
:102D6800B600820090009E00614B624C1A6E42F4DD
:102D780000621A661B6E03F400630093009B5E4BAF
:102D88000B938BE05A4B5D4C9A6D42F001029A65A9
:102D98009B6D03F001030193019B4FF080430B935C
:102DA8007CE0534B564C9A6D42F002029A659B6D3B
:102DB80003F002030293029B524B0B936EE04C4BC1
:102DC800514C9A6D42F004029A659B6D03F004031E
:102DD8000393039B4D4B0B9360E0454B4C4C9A6D12
:102DE80042F008029A659B6D03F008030493049B64
:102DF800484B0B9352E03E4B474C9A6D42F0100201
:102E08009A659B6D03F010030593059B434B0B9349
:102E180044E0374B424C9A6D42F020029A659B6D14
:102E280003F020030693069B3E4B0B9336E0304B92
:102E38003D4C1A6E42F400521A661B6E03F400539E
:102E48000793079B394B0B9328E0294B384C1A6E94
:102E580042F480321A661B6E03F480330893089B91
:102E6800344B0B931AE0224B334C1A6E42F4003267
:102E78001A661B6E03F400330993099B2F4B0B93BF
:102E88000CE01B4B2E4C1A6E42F480221A661B6E05
:102E980003F480230A930A9B2A4B0B930BAD0FCDA7
:102EA8000FC40FCD0FC40FCD0FC495E8070084E8F9
:102EB8000700AEF1020EBEF1050F02D8FEF7C6FC00
:102EC80001E0FEF7D9FC4FF47A734000B0FBF3F051
:102ED8004743B7FBF3F3013B0C93013E00230BA8D8
:102EE8000E960D930F93FFF733FB1BB0F0BD00BF99
:102EF80000100240F8050020002C01403406002094
:102F080080050020000400409004002000080040D4
:102F180044050020000C0040BC05002000100040C3
:102F2800AC06002000140040540400200034014086
:102F3800CC040020004001407006002000440140FD
:102F4800080500200048014070B50E4C86B00025E9
:102F580080261123204601A9029301960395049522
:102F6800FDF762FD022301932046032301A9029382
:102F78000395FDF759FD204631460122FDF730FE45
:102F880006B070BD000800481FB52B4B1A6842F404
:102F980080721A600320FDF7D5FC0F20FDF7B2FC04
:102FA80000F000FD254BDA6C42F00102DA64DA6CBD
:102FB80002F001020092009ADA6C42F00202DA642E
:102FC800DA6C02F002020192019ADA6C42F0040211
:102FD800DA64DA6C02F004020292029ADA6C42F0C5
:102FE8000802DA64DB6C03F008030393039B00F028
:102FF800FFFB00F0B7FC00F073FC00F02BFDFFF7BF
:10300800A3FF00F069FB00F079FB00F043FB00F040
:1030180011FB00F0AFFB00F01FF800F057FD00F0C7
:1030280045FC00F085FC00F01FFB00F083FB00F07E
:10303800E3FA05B05DF804FB0020024000100240EE
:1030480000B589B001A800F060FD01A800F042F8C1
:1030580009B05DF804FB000070B586B006A90A4EF9
:103068004FF400750023012441F8145D30460393A2
:1030780004930294FDF7D8FC304629462246FDF712
:10308800AFFD06B070BD00BF0008004807281BD878
:10309800DFE800F0040407090B0D121600234B604B
:1030A80011E000230DE0002307E0012300E01123D5
:1030B8004B600023CB607047044B4B60022302E057
:1030C800034B4B6001238B60704700BF0000111059
:1030D8000000211070B5037C162B8EB0044604D175
:1030E800A74804210122FDF77BFD227A0A2A02D093
:1030F800A37A0B2B3AD1A34B996D41F40011996532
:103108009B6D03F400130193019B00230C930A2A7F
:103118004FF004030D930AD14FF400730993012370
:103128000B939948022309A90A93FDF77DFCA37A1A
:103138000B2B0BD1099B944843F48073099300230C
:103148000B9309A912230A93FDF76EFC8F48904B45
:10315800DFF854C2012280E8081000238360C260AF
:1031680003614361C3610362FDF74DFDA37C0E2B30
:10317800A37E08D0227D0D2A05D0A27D0C2A02D07C
:103188000F2B64D101E00F2B0ED1402601254FF003
:10319800904009A909960A95FDF746FC4FF0904022
:1031A80031462A46FDF71CFD764B9A6D42F40032F3
:1031B8009A659B6D03F400330293029B02230A93E2
:1031C80000230B9301230C9307230D93A37C0E2B51
:1031D80007D10EA9042341F8143D4FF09040FDF7A4
:1031E80023FC237D0D2B07D10EA9082341F8143D9C
:1031F8004FF09040FDF718FCA37D0C2B07D10EA9CA
:10320800102341F8143D4FF09040FDF70DFC614D3F
:10321800614B2B6023686B6000230C22AB60EB6072
:103228002B61AB61EB6128464FF480736A612B62B6
:10323800FFF72CFC2B681A6822F001021A605A6802
:1032480042F400225A601A6842F001021A60A27B16
:10325800152A02D0237B142B34D14A4B996D41F4A3
:10326800002199659B6D03F4002301210393039BBF
:103278000B9102230C91152A4FF008010A930D9126
:1032880006D10EA94FF0904041F8143DFDF7CCFB54
:10329800237B142B07D10EA9012341F8143D4FF0CD
:1032A8009040FDF7C1FB3D483D4B036063684360B8
:1032B8000C2200238360C360036142618361C361A0
:1032C800FFF781FBA27C102A08D0237D112B05D0A3
:1032D800237B132B02D0A37B122B6CD1294B996D26
:1032E80041F4003199659B6D03F400330493049B0A
:1032F80002230A9300230B9301230C93102A4FF007
:1033080007030D9307D10EA9042341F8143D4FF08C
:103318009040FDF789FB237D112B07D10EA90823C7
:1033280041F8143D4FF09040FDF77EFB237B132BB3
:1033380009D10EA9012541F8145D4FF09040FDF721
:1033480073FB294600E00021A37B122B08D10EA9AC
:10335800022341F8143D4FF09040FDF765FB012131
:10336800104B0D4A1A6022685A600C2000229A609D
:10337800DA601A615861C9B14FF44071996116E079
:10338800000800480010024000040048E806002039
:103398000054004024070020004400406C0700202F
:1033A800004C0040DC0700200B0442109A618F4853
:1033B800DA61FFF708FB237A012B0AD1607A09A9A1
:1033C800FFF764FE4FF400738948099309A9FDF7D4
:1033D8002BFBA37A012B0AD1E07A09A9FFF756FE45
:1033E8004FF480738248099309A9FDF71DFB257BDB
:1033F800012D09D1607B09A9FFF748FE4FF09040E5
:1034080009A90995FDF710FBA37B012B0AD1E07BE5
:1034180009A9FFF73BFE02234FF0904009A9099341
:10342800FDF702FBA37C012B0AD1E07C09A9FFF779
:103438002DFE04234FF0904009A90993FDF7F4FAF3
:10344800237D012B0AD1607D09A9FFF71FFE082300
:103458004FF0904009A90993FDF7E6FAA37D012BE7
:103468000AD1E07D09A9FFF711FE10234FF0904023
:1034780009A90993FDF7D8FA257E012D08D1607EA8
:1034880009A9FFF703FE5A48099509A9FDF7CCFADF
:10349800A37E012B0AD1E07E09A9FFF7F7FD40239F
:1034A8004FF0904009A90993FDF7BEFA227A02234A
:1034B8000A93022A4FF000030B930C9302D0A37ACD
:1034C800032B20D14B4B996D41F0040199659B6DFD
:1034D80003F004030593059B02239A420D9307D139
:1034E8000EA94FF4007341F8143D4148FDF79CFACA
:1034F800A37A032B07D10EA94FF4807341F8143D2A
:103508003B48FDF791FA227B072A08D0A37B062BBC
:1035180005D0A37C052B02D0237D042B36D1354B57
:10352800996D41F0010199659B6D03F001030693C4
:10353800069B072A4FF001030D9306D10EA94FF001
:10354800904041F8143DFDF76FFAA37B062B07D195
:103558000EA9022341F8143D4FF09040FDF764FA9C
:10356800A37C052B07D10EA9042341F8143D4FF085
:103578009040FDF759FA237D042B07D10EA90823A3
:1035880041F8143D4FF09040FDF74EFAA37D082B0B
:1035980013D1184BDA6D42F02002DA65DB6D03F0C7
:1035A80020030793079B0EA90E230D93102341F8C0
:1035B800143D4FF09040FDF737FAA37D092B12D147
:1035C8000C4B1A6E42F400321A661B6E03F4003379
:1035D8000893089B402309934FF090400E2309A9B4
:1035E8000D93FDF721FA0EB070BD00BFDC07002077
:1035F800000400480010024010B50D4C8021002244
:103608002046FDF7EDFA3D20FFF714FB2A20FFF7CF
:1036180011FB8020FFF70EFBA620FFF70BFB2046CF
:1036280080210122FDF7DCFABDE81040FFF71ABB44
:103638000004004870B586B006A90A4E802500230C
:103648000124039341F8145D032330460493029444
:10365800FDF7EAF9304629462246FDF7C1FA06B0D9
:1036680070BD00BF000400480748084BDFF820C0C1
:10367800012280E8081000238360C260036143616F
:10368800C3610362FDF7BFBA4C0800200058004030
:103698000B0442107FB50E4B0E489A6D42F480021F
:1036A8009A659B6D03F480030093009B4FF440637D
:1036B80001931223029300230393049304230DEB35
:1036C80003010593FDF7B0F907B05DF804FB00BFEF
:1036D80000100240000400487FB50823019301232D
:1036E80002930548002301A903930493FDF79CF96D
:1036F80007B05DF804FB00BF0008004810B586B0AD
:10370800002306AC0293022303934FF4004344F8CA
:10371800143D4FF090402146FDF786F94FF4807331
:10372800034801932146FDF77FF906B010BD00BF9D
:103738000008004800B5AFB068460021402200F0FC
:103748001FFA0021782210A800F01AFA0423009327
:10375800684601230293FDF721FB4FF400331093D1
:1037680010A84FF480732D93FEF7AAF92FB05DF8D7
:1037780004FB00002DE9F0471B4EDFF8708086B08F
:10378800002401254FF02009304601A94FF0100A06
:1037980002950394CDF804900494FDF745F930465A
:1037A80001A90227CDF804A00494FDF73DF940468D
:1037B80001A901970494FDF737F940463946224696
:1037C800FDF70EFA304651462A46FDF709FA30460B
:1037D80049462A46FDF704FA404639462A46FDF787
:1037E800FFF906B0BDE8F08700080048000400486B
:1037F8002DE9F047DFF8ACA0284EDFF8AC8086B0A2
:103808000427012400254FF04009504601A9CDF8AE
:103818000490029403950495FDF706F930460DEBE4
:1038280007010197029403950495FDF7FDF84046BA
:103838000DEB07010197FDF7F7F8022330460DEB72
:1038480007010393019402940495FDF7EDF850469F
:1038580049462246FDF7C4F9304639462A46FDF75F
:10386800BFF9224640463946FDF7BAF9FFF73AFA5A
:103878004FF4005301933046094B02930DEB0701B7
:103888000394FDF7D1F80A212A462820FDF76CF8A1
:103898002820FDF79BF806B0BDE8F087000800482F
:1038A8000000211000040048000C00480A480B4B97
:1038B8004FF4E0624FF4827C80E80810C260002375
:1038C8004FF400728360036143618261C3610362E4
:1038D80043628362FEF73ABC88080020003001404A
:1038E800124B10B51A6E42F480521A661B6E86B0DF
:1038F80003F480530093009BA02301930223002428
:10390800029301A905234FF0904005930394049472
:10391800FDF78AF840234FF0904001A901930294E3
:103928000394FDF781F806B010BD00BF00100240F7
:103938000A480B4B4FF4E0624FF4827C80E8081091
:10394800C26000234FF400728360036143618261A7
:10395800C361036243628362FEF7F8BBEC08002090
:10396800003C00407FB50D4B0D489A6D42F4004273
:103978009A659B6D03F400430093009B38230193E1
:1039880002230293002303930323049301A906232C
:103998000593FDF749F807B05DF804FB00100240F5
:1039A8000004004830B5B7B0052308934FF48033BE
:1039B800099301230A9313932423149307230222C0
:1039C800032515930424062308A81192129516932B
:1039D8001794FDF7E3F90F232146039304954FF459
:1039E800A063002503A8069307930595FDF766FDD8
:1039F8004FF40833164C18934FF48073359318A876
:103A08004FF000632F93FEF75BF8A36D43F08053EC
:103A1800A365A36D03F0805301934FF40070019BDD
:103A2800FDF744F9FDF7F8FE4FF4FA53B0FBF3F055
:103A3800FCF7D8FF2846FCF7EBFF236E43F00103A1
:103A48002366236E03F001030293029B37B030BD57
:103A5800001002401A4B70B59A6D1A4E42F480223B
:103A68009A659B6D86B003F480230093009B012325
:103A780006AC03930493072305934FF4806344F83B
:103A8800143D0225304621460295FCF7CDFF4FF440
:103A98000063304621460193FCF7C6FF03950A4DA3
:103AA8004FF40053284621460193FCF7BDFF4FF41D
:103AB8008043284621460193FCF7B6FF06B070BD47
:103AC80000100240000800480004004830B587B0E4
:103AD8004FF4C05301930223002402930A250323C1
:103AE80001A94FF09040049303940595FCF79CFFBF
:103AF8004FF400734FF0904001A90193029403948E
:103B08000595FCF791FF07B030BD002303604360C3
:103B1800037243728372C372037343738373C373F1
:103B280003748374C374037543758375C3757047D1
:103B380070B50F4E0F4D761BB61007D0043D00240C
:103B4800013455F8043F9847A642F9D10A4E0B4D67
:103B5800761B00F0DBF8B61008D0043D00240134D1
:103B680055F8043F9847A642F9D170BD70BD00BF13
:103B7800B03D0008B03D0008B83D0008B03D000861
:103B8800F0B4840743D0541E002A3ED0CDB2034679
:103B980003E0621E002C38D0144603F8015B9A0734
:103BA800F7D1032C2AD9CDB245EA05250F2C45EAD1
:103BB800054515D9A4F110073F0903F1100606EBD6
:103BC80007161A46156055609560D5601032B242E6
:103BD800F8D104F00F040137032C03EB07130DD9B8
:103BE8001E462246043A032A46F8045BFAD8221FE6
:103BF80022F003020432134404F003042CB1C9B2C6
:103C08001C4403F8011BA342FBD1F0BC70471446C7
:103C18000346C6E7024B13B1024800F005B87047E7
:103C2800000000003D3C0008014600200246034613
:103C380000F018B838B5094D094C641BA41018BF1A
:103C480005EB840505D0013C55F8043D9847002C48
:103C5800F9D1BDE8384000F05FB800BFB83D0008B2
:103C6800BC3D0008F0B5274C2668D6F8484185B019
:103C78000746002C41D065681F2D1EDD224818B963
:103C88004FF0FF3005B0F0BD4FF4C87003910292B9
:103C98000193AFF300800399029A019B0446002820
:103CA800EED0D6F848512560002060600546C6F879
:103CB8004841C4F88801C4F88C013FB9AB1C002006
:103CC8000135656044F8231005B0F0BD04EB8500AC
:103CD8004FF0010CC0F88820D4F888610CFA05F27E
:103CE8001643022FC4F88861C0F80831E6D1D4F829
:103CF8008C311A43C4F88C21E0E706F5A674C6F89F
:103D08004841B8E7A03D000800000000F8B500BF32
:103D1800F8BC08BC9E467047F8B500BFF8BC08BCA4
:083D28009E46704700000000F8
:103D3000000000000000000001020304060708095B
:103D4000A0860100400D0300801A060000350C001B
:103D500040420F0080841E0000093D0000127A00DE
:103D60000024F40000366E010048E801006CDC021B
:103D700000000000010203040010101004101010D5
:103D800002101010080104020801040208001010BB
:103D90001004101010021010100800004300000062
:083DA0000800002000000000F3
:083DA800C4C4FF7F010000000C
:083DB0001D3C0008AD010008F4
:083DB800890100080000000071
:103DC00000093D000000000000000000F402002097
:103DD0005C030020C403002000000000000000007D
:103DE00000000000000000000000000000000000D3
:103DF0000000000000000000000000009C3D0008E2
:103E000000000000000000000000000000000000B2
:103E100000000000000000000000000000000000A2
:103E20000000000000000000000000000000000092
:103E30000000000000000000000000000000000082
:103E40000000000000000000000000000000000072
:103E50000000000000000000000000000000000062
:103E60000000000000000000000000000000000052
:103E700001000000000000000E33CDAB34126DE6EF
:103E8000ECDE05000B000000000000000000000058
:103E90000000000000000000000000000000000022
:103EA0000000000000000000000000000000000012
:103EB0000000000000000000000000000000000002
:103EC00000000000000000000000000000000000F2
:04000005080007895F
:00000001FF
