:020000040800F2
:100000000080012089070008470900084909000805
:100010004B0900084D0900084F09000800000000C6
:10002000000000000000000000000000510900086E
:10003000530900080000000055090008570900088E
:10004000DD070008DD070008DD0700084509000896
:10005000DD070008DD070008310900083309000842
:10006000350900083709000839090008DD070008CC
:10007000DD070008DD070008DD070008DD070008D0
:10008000DD070008DD070008DD070008DD070008C0
:10009000DD070008DD070008DD0700083B09000850
:1000A000DD070008DD070008DD070008DD070008A0
:1000B000DD070008DD070008DD070008DD07000890
:1000C000DD070008DD070008DD070008DD07000880
:1000D000DD070008DD070008DD070008DD07000870
:1000E0003D090008DD070008DD070008DD070008FE
:1000F000DD070008DD070008DD070008DD07000850
:10010000DD070008DD070008DD070008DD0700083F
:10011000DD070008DD070008DD070008DD0700082F
:10012000DD070008DD070008DD070008DD0700081F
:10013000DD070008DD070008DD070008DD0700080F
:10014000DD070008DD070008DD0700085D0900087D
:10015000DD070008DD070008DD070008DD070008EF
:10016000DD070008DD070008DD070008DD070008DF
:10017000DD070008DD070008DD07000800000000BB
:08018000DD070008DD0700089F
:1001880010B5054C237833B9044B13B10448AFF3C9
:1001980000800123237010BD3804002000000000F7
:1001A8003853000808B5064B1BB106480649AFF39B
:1001B80000800648036813B1054B03B1984708BD92
:1001C80000000000385300083C04002038040020D8
:1001D800000000004BB942B9002908BF002802D02E
:1001E8004FF0FF31084600F03BB882B0EC462DE9ED
:1001F800005000F01DF8DDF804E002B00CBC7047B8
:100208002DE97043069E14461D468046894600F037
:1002180029F804FB01F300FB0533A4FB00451D444A
:10022800B8EB040469EB0505C6E90045BDE8708331
:100238002DE97043069E1446804689461D4600F007
:100248005DF900FB05F504FB0153A0FB04451D44C3
:10025800B8EB040469EB0505C6E90045BDE8708301
:10026800704700BF00292DE9F00FC0F29F800024DD
:10027800002BC0F29680154606460F46002B3ED14D
:100288008A4257D9B2FA82F34BB1C3F1200201FA7C
:1002980003F720FA02F29D40174300FA03F6290CEF
:1002A800B7FBF1F2330C01FB127CA8B243EA0C470E
:1002B80000FB02F3BB4209D97F1902F1FF3C80F031
:1002C8000181BB4240F2FE80023A2F44FF1AB7FB7D
:1002D800F1F3B6B201FB137146EA014100FB03F0EA
:1002E800884208D9491903F1FF3780F0ED80884228
:1002F80040F2EA80023B43EA0242002303E08B42D9
:100308000AD900231A461046194614B1404261EB37
:100318004101BDE8F00F7047B3FA83F8B8F1000F58
:1003280040F084808B4202D3824200F2DE800023B8
:100338000122E8E712B90123B3FBF2F5B5FA85F219
:10034800002A39D17F1B280C1FFA85FC0123B7FB33
:10035800F0F1320C00FB117742EA07470CFB01F27F
:10036800BA4207D97F1901F1FF3802D2BA4200F226
:10037800C1804146BF1AB7FBF0F2B6B200FB12705B
:1003880046EA00400CFB02FC844507D9401902F1FB
:10039800FF3702D2844500F2AB803A4642EA014276
:1003A800B1E7E443524263EB430364E7404261EB45
:1003B80041014FF0FF345BE79540C2F1200327FA73
:1003C80003F1280C26FA03F39740B1FBF0F81F431A
:1003D8003B0C00FB18111FFA85FC43EA01410CFB9A
:1003E80008F38B4206FA02F608D9491908F1FF32D8
:1003F80079D28B4277D9A8F102082944C91AB1FBEE
:10040800F0F3BFB200FB131147EA01470CFB03F2FC
:10041800BA4207D97F1903F1FF3160D2BA425ED9D7
:10042800023B2F44BF1A43EA084390E7C8F1200271
:1004380003FA08FC25FA02F343EA0C0C4FEA1C49BC
:1004480021FA02F301FA08F720FA02F2B3FBF9F1F4
:10045800174309FB11333A0C1FFA8CFB42EA03439A
:100468000BFB01FA9A4505FA08F008D913EB0C03BF
:1004780001F1FF3235D29A4533D902396344CAEBC8
:100488000303B3FBF9F209FB1233BFB247EA034790
:100498000BFB02F9B94508D917EB0C0702F1FF333A
:1004A8001BD2B94519D9023A674442EA0145A5FB6E
:1004B8000001C9EB07078F424FF000030AD305D0AC
:1004C8002A4620E7624601E73B4614E706FA08F6A3
:1004D8008642F5D26A1E002315E71A46E5E70B4661
:1004E800A0E71146CBE7904688E7434642460AE72D
:1004F800023A53E702392F443CE700BF2DE9F00FD9
:10050800144605460E46002B43D18A4253D9B2FA07
:1005180082F757B1C7F1200620FA06F601FA07F369
:1005280002FA07F41E4300FA07F5210CB6FBF1F2B4
:100538002B0C01FB1267A0B243EA074600FB02F34B
:10054800B34209D9361902F1FF3780F0F680B34279
:1005580040F2F380023A2644F61AB6FBF1F3ADB244
:1005680001FB136145EA014100FB03F0884208D909
:10057800091903F1FF3680F0E280884240F2DF80FB
:10058800023B43EA0242002310461946BDE8F00F39
:1005980070478B424AD8B3FA83F6002E4DD18B426E
:1005A80002D3824200F2D680002301221046194667
:1005B800BDE8F00F704712B90124B4FBF2F4B4FAA5
:1005C80084F2002A7CD1091B260CA7B20123B1FBB7
:1005D800F6F02A0C06FB101142EA014107FB00F273
:1005E8008A4207D9091900F1FF3C02D28A4200F277
:1005F800C3806046891AB1FBF6F2ADB206FB121150
:1006080045EA014507FB02F7AF4208D92C1902F168
:10061800FF3180F09680A74240F29380023A42EA86
:10062800004210461946BDE8F00F704700231A46ED
:1006380010461946BDE8F00F7047C6F1200522FAAA
:1006480005F4B3401C434FEA144821FA05F301FAB4
:1006580006F720FA05F5B3FBF8FC2F4308FB1C331B
:100668003D0C1FFA84FA45EA03430AFB0CF9994545
:1006780002FA06FB04D91B190CF1FF326DD394461C
:10068800C9EB0303B3FBF8F508FB1533BFB247EA20
:1006980003470AFB05F8B84504D93F1905F1FF33AC
:1006A80061D31D4645EA0C4CACFB0B23C8EB07078E
:1006B8009F424FF0000549D345D062462B4663E779
:1006C8009440C2F1200321FA03FC260C20FA03F31C
:1006D80001FA02F5BCFBF6F843EA05010B0C06FB30
:1006E80018CCA7B243EA0C4C07FB08F3634500FAA1
:1006F80002F509D91CEB040C08F1FF323AD2634524
:1007080038D9A8F10208A444C3EB0C0CBCFBF6F3DF
:1007180089B206FB13CC41EA0C4107FB03F28A427B
:1007280007D9091903F1FF3022D28A4220D9023BA6
:100738002144891A43EA084349E73A460CE7334615
:100748001FE70A466BE7B0409042B6D20CF1FF3281
:10075800002319E73346324616E799458FD9ACF19D
:10076800020C23448CE7B8459BD9023D274499E7FE
:100778000346DEE79046C7E7023821443AE700BF60
:10078800002100F004B80E4B5B58435004310D486B
:100798000D4B42189A42FFF4F6AF0C4A00F003B82A
:1007A8000023136004320A4B9A42FFF4F9AF00F0B9
:1007B80013F804F0AFFC00F09AF8FFF7FEBF000052
:1007C800E05300080000002038040020380400200E
:1007D800200D0020FFF7FEBF0F4AD2F8883043F4FF
:1007E8007003C2F888300D4B1968002041F00101F0
:1007F80019609860196821F0A85121F41021196036
:100808004FF40061D960196821F48021196098615A
:100818004FF000639360704700ED00E00010024065
:10082800F0B5ADF5405D81B003F0DEFBC0F30740E5
:10083800B0F11F035E425E41002404F0DDFC0DF5BB
:1008480000572044C0B2E0550DF8040040F6FF738D
:1008580001349C42F1D12246684600210DF58055AD
:1008680003F03CFC22462846002103F093FB0024B9
:100878002B5DDB430DF80430013440F6FF739C42D6
:10088800F6D168460021224603F028FC28460021BC
:10089800224603F07FFB0023FA5CE95CD243D2B224
:1008A800914218BF0026013340F6FF729342F3D1FC
:1008B80000243B5D0DF804300134DE2CF9D1684684
:1008C8000121224603F00AFC28460121224603F0B2
:1008D80061FB0023E95CFA5C0133914218BF0026F2
:1008E800DE2BF7D130460DF5405D01B0F0BD10B5F7
:1008F80003F0BAFD03F014FE03F054FC012003F0EA
:1009080021FB03F057FCFFF78BFF04460CB103F003
:1009180051FC4FF42F7003F063FC03F043FC4FF4D9
:10092800967003F05DFCF1E77047704770477047B9
:10093800704770474FF4005000F0BEB970477047D9
:10094800FEE7FEE7FEE7FEE770477047704700F0F6
:1009580051B80000014800F007BA00BF580900204C
:10096800B0F5005F08B52DD103F024FC16484FF40C
:10097800005100F095F90028F8D003F013FC64202A
:1009880003F02EFC03F016FCC82003F029FC03F04A
:1009980009FC642003F024FC03F00CFCC82003F0DD
:1009A8001FFC03F0FFFB642003F01AFC03F002FCB9
:1009B80006484021002200F079F940F6B83003F0EB
:1009C8000FFCFEE708BD00BF00080048000400480F
:1009D80010B5044601F0D0FA4FF47A73B0FBF3F087
:1009E80000F066F84FF0FF302146002200F022F8B0
:1009F800002010BD024B1A6801321A60704700BF10
:100A080054040020014B1868704700BF54040020AC
:100A1800074AD36823F4E0631B041B0C43F0BF634D
:100A280043F4003300F0070043EA0023D360704723
:100A380000ED00E0164BDB68C3F3022370B51D1D03
:100A4800C3F10704042C28BF0424062D4FF0010528
:100A58008CBF033B002305FA04F405FA03F6013CB6
:100A6800013E2140324001FA03F3134300284FEAC4
:100A7800031305DADAB200F00F00064B1A5470BD02
:100A880000F1604000F56140DBB280F8003370BDD2
:100A980000ED00E014ED00E04209012300F01F0022
:100AA80003FA00F0014B43F82200704700E100E030
:100AB8000138B0F1807F0AD2064B074A5860F0210E
:100AC80082F823100020072298601A6070470120DE
:100AD800704700BF10E000E000ED00E0044B1A682A
:100AE80004280CBF42F0040222F004021A60704786
:100AF80010E000E02DE9F74FD1F800C000233CFAE0
:100B080003F200F0C48001269E4016EA0C0500F0AE
:100B1800BC804A6822F01007022F16D14FEAD3088A
:100B280000EB880803F00709D8F820404FEA890944
:100B38004FF00F0A0AFA09FA24EA0A0A0C6904FAB9
:100B480009F94AEA0904C8F820405C004FF0030894
:100B5800D0F800A008FA04F86FEA080802F00309C0
:100B680008EA0A0A09FA04FB013F4AEA0B0A012FBC
:100B7800C0F800A010D8876808EA070ACF68A7401D
:100B88004AEA07078760476827EA060AC2F3001798
:100B98009F404AEA07074760B9F1030F07D1C76AC0
:100BA80027EA0606C2F3C0079F403E43C662C668EE
:100BB80008EA06088E68A64048EA0604C460D4001D
:100BC80063D5344C266E46F001062666246E23F063
:100BD800030606F1804604F0010406F58036019408
:100BE80003F00307019CB468BF004FF00F0808FA30
:100BF80007F8B0F1904F24EA080819D0264CA04213
:100C080018D004F58064A04216D004F58064A04290
:100C180014D004F58064A04212D004F58064A04288
:100C280010D004F58064A04214BF072406240AE00B
:100C3800002408E0012406E0022404E0032402E082
:100C4800042400E00524BC4044EA0804B460134CC2
:100C58002768EE4312F4803F14BF2F4337402760C4
:100C6800676812F4003F14BF2F4337406760A768D6
:100C780012F4801F14BF2F433740A760E768920221
:100C880054BF06EA07053D43E560013337E703B083
:100C9800BDE8F08F00100240000400480004014045
:100CA800036919420CBF0020012070470AB1816115
:100CB800704781627047000008B5044B59690842C3
:100CC80002D05861FFF74CFE08BD00BF0004014088
:100CD800704710B50446002844D090F8353003F02A
:100CE800FF021BB980F83420FFF7F2FF022384F8D3
:100CF80035302368E1681A6822F001021A606268D8
:100D080022F070621A619A6822F400429A60A2681E
:100D180042B1012903D142F400429A6007E042F44B
:100D280004429A60022904BF4FF400625A605A686C
:100D3800616942F0007242F400425A60226911432C
:100D4800A26941EA0222DA60216AE2690A431A606A
:100D58001A6842F001021A6000200123A06384F897
:100D6800353010BD012010BD2DE9F04F076887B060
:100D78000446384602F0BFFD002840F0568220683D
:100D880002F08CFD002800F05082206802F086FDF9
:100D9800800704D523685A6902F002025A61206864
:100DA80002F07CFD10F400205BD0206802F07AFD90
:100DB80007F5306A8146A04655460026B9F1000F6E
:100DC80050D019F0010F45D0F3B2194620680393AB
:100DD80002F078FD10F0010F8346039B2DD001220D
:100DE800AA60DAF8082011041FD42269012A0CD15C
:100DF8002969D8F8E421C1F31201511AC8F8F4118D
:100E0800D8F8E8110A44C8F8E8211946204604F041
:100E180006F92169012908D13EB9D4F8F03123B97E
:100E2800206804F5617202F085FDDAF8083043F4B1
:100E3800004343F02003CAF808301BF0080F04D021
:100E4800204604F0E5F80823AB601BF0100F1CBF28
:100E58001023AB6001364FEA5909203508F11C0808
:100E6800ACE70646206802F019FD420340F1AA806B
:100E7800206802F01FFD2546824607F51068002607
:100E8800BAF1000F00F09E801AF0010F00F0938075
:100E98005FFA86FB2068594602F01DFD10F0010F2D
:100EA800814620D0D7F83418012303FA06F021EA46
:100EB8000001C7F83418C8F808302369012B03D19A
:100EC8006A6C2B6C13446B645946204604F0B0F8E6
:100ED8002169012907D136B9E36C23B9206804F5E3
:100EE800617202F027FD19F0080F1CBF0823C8F82B
:100EF800083019F0100F1CBF1023C8F8083019F07B
:100F0800400F1CBF4023C8F8083019F0020F1CBF5F
:100F18000223C8F8083019F0800F4CD02B6DEA6C0A
:100F2800D4F800C0D21A2B6C9A4234BF9146994625
:100F380009F10302042392FBF3F304930CF5106305
:100F480003EB46130593059A9369049A9BB293425F
:100F58000BD8B9F1000F2EDCDCF834180122B240AE
:100F680021EA0202CCF8342825E02A6DEB6C9A427B
:100F7800EFD2002BEDD0296CC2EB0309894528BFBD
:100F8800894609F10302042392FBF3F30493237CBB
:100F980000936046696CCDF80CC01FFA89F35A4675
:100FA80002F0E5FA6B6C4B446B642B6D4B442B657C
:100FB800DDF80CC0C7E701364FEA5A0A1C3508F1BC
:100FC80020085DE7206802F069FC002818DAD7F8E5
:100FD800042894F8B43322F00102012BC7F804283E
:100FE80006D1002184F8B413204600F006FA02E086
:100FF800204604F03AF823685A6902F000425A6120
:10100800206802F04BFC03050BD5D7F80838DD073C
:1010180002D5204604F025F823685A6902F40062D4
:101028005A61206802F03AFC000116D523685A6913
:1010380002F000625A6194F8B4235AB95B6D012139
:10104800C3F3830384F8B413C4F8B833204600F01C
:10105800D4F902E0204604F004F8206802F01EFCEF
:10106800C10443D507F500656B68206823F00103C8
:101078006B60002102F07EF9606807F510630022BA
:10108800824206D0FF2199600132C3F8081220334A
:10109800F6E74FF0FF33AB61EB6943F00113EB6107
:1010A800236B53B1D5F8843043F00B03C5F8843073
:1010B8006B6C43F00B036B6407E06B6943F00B0345
:1010C8006B612B6943F00B032B61D7F8003820685C
:1010D800217C23F4FE63C7F8003804F5617202F03E
:1010E80029FC23685A6902F480525A61206802F088
:1010F800D5FB820417D5206802F001FC2368DA6862
:1011080022F47052DA600322E26040226261DA68F7
:1011180042F4A052DA60204603F096FF23685A6929
:1011280002F400525A61206802F0B8FBC30636D5B3
:1011380023689A6922F010029A61D7F820801C254A
:1011480008F00F0305FB0345C8F34343022B05F5DD
:10115800EE7512D147F6F07208EA0202D2B14FEAF0
:10116800121842463846E96802F028FBEB68AA697B
:1011780043444244EB60AA610CE0062B0AD138468E
:1011880004F56171082202F019FBAB69C8F30A186B
:101198004344AB6123689A6942F010029A6120685F
:1011A80002F07CFB070707D5204603F049FF2368B8
:1011B8005A6902F008025A61206802F06FFBC50202
:1011C80008D52046F1B203F058FF23685A6902F4A3
:1011D80080125A61206802F061FB800208D520461F
:1011E800F1B203F046FF23685A6902F400125A610B
:1011F800206802F053FB410007D5204603F041FF69
:1012080023685A6902F080425A61206802F046FB5E
:1012180042070AD523685D686B0702D5204603F0AC
:1012280034FF23685A6815435D6007B0BDE8F08F46
:1012380090F88033012B10B5044609D0012380F8BB
:101248008033006802F01AFB002084F8800310BD88
:10125800022010BD70B5CDB215F0800F04464FF0D6
:101268001C0601F07F0015BF06FB004106FB01418B
:10127800383101F5EE71C0B2ED0908704D708A6021
:10128800CB7005B1C880022B04BF00230B7194F802
:101298008033012B09D0012384F88033206802F0C1
:1012A8007BF8002084F8800370BD022070BD38B53B
:1012B80004461C2501F07F0005FB004505F5EE718D
:1012C8004B6100234B70CA608B6185F8DC01236990
:1012D800012B08BF0A6194F88023012A0FD001224C
:1012E80084F88023DAB218B9206802F098F802E08E
:1012F800206802F04FF9002084F8800338BD0220EE
:1013080038BD38B504461C2501F07F004543383503
:1013180061194B6100238B6101234B70CA606055D2
:101328002369012B08BF0A6194F88023012A0FD092
:10133800012284F88023DAB218B9206802F06FF825
:1013480002E0206802F026F9002084F8800338BD06
:10135800022038BDCAB238B512F0800F01F07F05FF
:101368004FF01C0315BF03FB050103FB01013831D6
:1013780001F5EE710123D209EDB28B700D704A7040
:1013880090F880239A4204460FD080F88033006892
:1013980002F025FA2DB92068217C04F5617202F06B
:1013A800C9FA002084F8800338BD022038BD38B55A
:1013B800CBB213F0800F01F07F0204464FF01C00FF
:1013C80015BF00FB024100FB0141383101F5EE7108
:1013D800DB0900258D700A704B7094F88033012B5F
:1013E80009D0012384F88033206802F02AFA84F8AF
:1013F8008053284638BD022038BD7047024B186814
:1014080000F4C060704700BF00700040174B1A68B6
:10141800B0F5007F02F4C0621DD1B2F5007F23D081
:101428001A6822F4C06242F400721A60104B1A68FB
:10143800104BB2FBF3F3322253430C4A23B15169E8
:10144800490501D5013BF8E7536913F4806F0CBFD8
:10145800002003207047B2F5806F05D01A6822F487
:10146800C06242F480621A60002070470070004039
:101478000000002040420F0037B51E4CA36DDA0073
:10148800054602D5FFF7BAFF0EE0A36D43F080537F
:10149800A365A36D03F080530193019BFFF7AEFF93
:1014A800A36D23F08053A365B0F5007F06D1802D8E
:1014B8000CD9A12D34BF012002200CE0802D07D8C3
:1014C80008D0B5F170035842584104E0002002E00A
:1014D800032000E00220084B1A6822F007020243AA
:1014E8001A601B6803F00703181A18BF012003B01D
:1014F80030BD00BF00100240002002400368F7B56D
:10150800DC06054640F1A380B64CA36813F00C0F27
:1015180050D1022393FAA3F30223226893FAA3F388
:10152800B3FA83F303F01F0322FA03F3D80703D5B2
:10153800AB690BB901206FE32268286AA94B110730
:1015480003D51B6803F0F00304E0D3F8943003F4E8
:1015580070631B09984215D9FFF78EFF0028E9D15F
:10156800236843F00803236022682B6A22F0F00204
:10157800134323606268EB6922F47F4242EA032343
:10158800636013E0236843F008032360236823F0B3
:10159800F003034323606268EB6922F47F4242EA66
:1015A80003236360FFF768FF0028C3D10F20FFF70C
:1015B8000FFA4CE0836973B3236843F00103236097
:1015C800FFF720FA0646022393FAA3F302232268C0
:1015D80093FAA3F3B3FA83F303F01F0322FA03F396
:1015E800DA0706D4FFF70EFA801B6428EBD903202C
:1015F80012E3236843F00803236022682B6A22F071
:10160800F002134323606268EB6922F47F4242EAE6
:10161800032363601BE0236823F001032360FFF7C3
:10162800F1F90646022393FAA3F30223226893FAF8
:10163800A3F3B3FA83F303F01F0322FA03F3DB07E0
:1016480005D5FFF7DFF9801B6428EBD9CFE72B68B6
:10165800DF0704D42B689E0700F1A08010E1614CDD
:10166800A36803F00C03082B09D0A36803F00C034C
:101678000C2B19D1E36803F00303032B14D14FF4A7
:10168800003393FAA3F34FF40033226893FAA3F3D9
:10169800B3FA83F303F01F0322FA03F3DC07D9D567
:1016A8006B68002BD6D145E7236823F48033236089
:1016B800236823F480232360FFF7A4F906464FF438
:1016C800003393FAA3F34FF40033226893FAA3F399
:1016D800B3FA83F303F01F0322FA03F3D80707D5FD
:1016E800FFF790F941F28833801B9842E7D97EE7EB
:1016F8006B68B3F5803F0AD0B3F5A02F0CD12368EF
:1017080023F480332360236843F480232360236811
:1017180043F48033236008E0226822F48032226098
:10172800226822F480222260DBB1FFF76BF90646BB
:101738004FF4003393FAA3F34FF40033226893FA7B
:10174800A3F3B3FA83F303F01F0322FA03F3D907D1
:1017580080D4FFF757F941F28833801B9842E7D9C4
:1017680045E7FFF74FF906464FF4003393FAA3F322
:101778004FF40033226893FAA3F3B3FA83F303F028
:101788001F0322FA03F3DA077FF564AFFFF73AF98C
:1017980041F28833801B9842E6D928E7114CA368A8
:1017A80003F00C03042B09D0A36803F00C030C2BE3
:1017B8001AD1E36803F00303022B15D14FF48063B9
:1017C80093FAA3F34FF48063226893FAA3F3B3FA6E
:1017D80083F303F01F0322FA03F3DB0724D5EB6836
:1017E80013BBA7E600100240EB685BB3236843F421
:1017F80080732360FFF706F906464FF4806393FA77
:10180800A3F34FF48063226893FAA3F3B3FA83F344
:1018180003F01F0322FA03F3DF0705D4FFF7F2F8FA
:10182800801B6428E9D9E2E662684FF0F85191FA22
:10183800A1F12B69B1FA81F18B4022F0F8521343E0
:1018480063601DE0236823F480732360FFF7DAF8F0
:1018580006464FF4806393FAA3F34FF4806322683B
:1018680093FAA3F3B3FA83F303F01F0322FA03F303
:10187800D80705D5FFF7C6F8801B6428E9D9B6E66E
:101888002B68190703D42B685A0747D436E16B69CC
:10189800B04C0BB3D4F8943043F00103C4F894303F
:1018A800FFF7B0F80646022393FAA3F293FAA3F2DD
:1018B80093FAA3F2D4F8942093FAA3F3B3FA83F338
:1018C80003F01F0322FA03F3DB07DCD4FFF79AF8CF
:1018D800801B6428E7D98AE6D4F8943023F0010302
:1018E800C4F89430FFF78EF80646022393FAA3F261
:1018F80093FAA3F293FAA3F2D4F8942093FAA3F3F9
:10190800B3FA83F303F01F0322FA03F3DF07BAD510
:10191800FFF778F8801B6428E7D968E68D4CA36D3B
:10192800DE000AD4A36D43F08053A365A36D03F0D2
:1019380080530193019B012600E00026864B1A681C
:10194800D0050FD5D4F8903023F00103C4F89030B7
:10195800D4F8903023F00403C4F89030FFF752F81D
:1019680007462EE01A6842F480721A60FFF74AF8B8
:101978000746794B1B68D905E4D4FFF743F8C01B29
:101988006428F6D933E693FAA3F3B3FA83F343F062
:1019980040035B09032B0CBFD4F89430E36902229F
:1019A80092FAA2F2B2FA82F202F01F02D340DA07E8
:1019B80016D5FFF727F841F28833C01B98423FF647
:1019C80016AE022393FAA3F293FAA3F2B2FA82F2C2
:1019D80042F0400252099A42D5D1D4F89030DEE75D
:1019E800AB68012B1ED07BB9D4F8903023F00103EB
:1019F800C4F89030D4F8903023F00403C4F8903041
:101A0800FFF700F807464EE0052BD4F8903023F096
:101A18000103C4F89030D4F8903008D143F004039F
:101A2800C4F89030D4F8903043F0010301E023F07B
:101A38000403C4F89030FEF7E5FF0746022393FA43
:101A4800A3F293FAA3F2B2FA82F242F040025209E8
:101A58009A4202D1D4F890300BE093FAA3F3B3FA88
:101A680083F343F040035B09032B0CBFD4F8943095
:101A7800E369022292FAA2F2B2FA82F202F01F029B
:101A8800D340DB0727D4FEF7BDFF41F28833C01BE4
:101A98009842D3D9ABE5FEF7B5FF41F28833C01BB6
:101AA80098423FF6A4AD022393FAA3F293FAA3F265
:101AB800B2FA82F242F0400252099A4211D1D4F8A5
:101AC8009030022292FAA2F2B2FA82F202F01F02D7
:101AD800D340D807DFD48EB1A36D23F08053A3651C
:101AE8000CE093FAA3F3B3FA83F343F040035B09E2
:101AF800032B0CBFD4F89430E369E2E76B6A0BB9A7
:101B0800002089E0134CA26802F00C020C2A3FF472
:101B180011AD022B236823F08073236057D1FEF7A1
:101B280071FF06464FF0007393FAA3F34FF000736A
:101B3800226893FAA3F3B3FA83F303F01F0322FA9C
:101B480003F3D9070AD5FEF75DFF801B6428E9D99E
:101B58004DE500BF00100240007000402A6BAB6AE0
:101B680043EA0223EA6A013A43EA02126B6B1B0951
:101B780042EA4341AB6B5A08EB6B013A5B0841EA16
:101B88004252013B42EA4363E360236843F08073B7
:101B98002360E36843F08073E360FEF733FF054694
:101BA8004FF0007393FAA3F34FF00073226893FA8F
:101BB800A3F3B3FA83F303F01F0322FA03F3DA075C
:101BC8009ED4FEF71FFF401B6428E9D90FE5E368A0
:101BD80023F00303E360E36823F0887323F480337E
:101BE800E360FEF70FFF05464FF0007393FAA3F387
:101BF8004FF00073226893FAA3F3B3FA83F303F068
:101C08001F0322FA03F3DB077FF57AAFFEF7FAFE2C
:101C1800401B6428E8D9EAE403B0F0BDF8B59F4B4F
:101C28001A6802F00702914204460E4640F2978075
:101C38001A6804299CBF22F007020A431A601B682D
:101C480003F007038B4201D00120F8BD03689A070F
:101C580006D5934AA168906820F0F000014391608E
:101C6800DB070BD423685F0740F108818C4AE168E1
:101C7800906820F4E06001439160FFE06368884D5C
:101C8800022B07D14FF4003292FAA2F24FF400323D
:101C9800296817E0032B07D14FF0007292FAA2F2DD
:101CA8004FF0007229680DE02BB9022292FAA2F2D5
:101CB8000222296806E04FF4806292FAA2F22968AB
:101CC8004FF4806292FAA2F2B2FA82F202F01F0294
:101CD80021FA02F2D607B7D5AA6822F00302134305
:101CE800AB60FEF78FFE6368022B06460DD1AB682A
:101CF80003F00C03082BB5D0FEF784FE41F28833BD
:101D0800801B9842F3D90320F8BD032B0CD1AB6894
:101D180003F00C030C2BA5D0FEF774FE41F28833B8
:101D2800801B9842F3D9EEE763B1AB6803F00C036C
:101D3800042B0CD196E7FEF765FE41F28833801B31
:101D48009842E0D8AB6813F00C0FF4D18AE7FEF79D
:101D580059FE41F28833801B9842E6D9D3E70368DD
:101D6800980706D54E4AA168906820F0F000014314
:101D78009160D90707D4042E484B76D81A6822F008
:101D88000702324372E06368454D022B07D14FF4D6
:101D9800003292FAA2F24FF40032296817E02BB908
:101DA800022292FAA2F20222296810E0032B07D13C
:101DB8004FF0007292FAA2F24FF00072296806E022
:101DC8004FF4806292FAA2F229684FF4806292FA84
:101DD800A2F2B2FA82F202F01F0221FA02F2D2074C
:101DE8007FF532AFAA6822F003021343AB60FEF717
:101DF80009FE6368022B07460CD1AB6803F00C039D
:101E0800082BB8D0FEF7FEFD41F28833C01B98427C
:101E1800F3D978E7032B0CD1AB6803F00C030C2B38
:101E2800A9D0FEF7EFFD41F28833C01B9842F3D9E1
:101E380069E76BB1AB6803F00C03042B0DD19AE78B
:101E4800FEF7E0FD41F28733C01B98423FF65BAFD7
:101E5800AB6813F00C0FF3D18DE7FEF7D3FD41F219
:101E68008833C01B9842E5D94DE71A681A601B6889
:101E780003F00703B3427FF4E7AEF3E61B0707D589
:101E8800074B21699A6822F4605242EAC1029A60BB
:101E98000F20FEF79DFD0020F8BD00BF0020024086
:101EA80000100240304B9A6802F00C02042A10B568
:101EB80028D09A6802F00C02082A25D09A6812F0F5
:101EC8000C0F09D09A6802F00C020C2A1FD1DA68AC
:101ED80002F00302012A1AD11968234A090754BFDC
:101EE800D2F894201268214954BFC2F30322C2F3E6
:101EF800031251F82220996811F00C0F0CBF1046FC
:101F0800002006E01A4800E01A48002201E00020FC
:101F180002469C68144904F00C040C2C22D1C868B1
:101F2800CC6800F00300C4F30214022804F1010491
:101F380004D0032809D1CA680E4801E0CA680C48D1
:101F4800B0FBF4F4C2F3062204E0C868B2FBF4F470
:101F5800C0F30622D868C0F34160013062434000F4
:101F6800B2FBF0F010BD00BF001002406053000843
:101F78000024F40000127A0008B5FFF793FF084B1D
:101F8800F0229B6892FAA2F2B2FA82F203F0F0030E
:101F9800D340044AD35CD840034B186008BD00BF47
:101FA80000100240505300080000002008B5FFF759
:101FB800E3FF074B4FF4E0629B6892FAA2F2B2FA91
:101FC80082F203F4E063D340024AD35CD84008BDF0
:101FD800001002409053000808B5FFF7CDFF074BEB
:101FE8004FF460529B6892FAA2F2B2FA82F203F4BA
:101FF8006053D340024AD35CD84008BD0010024069
:102008009053000870B52B4C236823F0806323603D
:102018000546FEF7F7FC06464FF0006393FAA3F374
:102028004FF00063226893FAA3F3B3FA83F303F043
:102038001F0322FA03F3DA0706D5FEF7E3FC801B39
:10204800B0F57A7FE8D92CE022692B6822F4FE42A9
:1020580042EA0323236122696B6822F400321B09D8
:1020680042EA43432361236843F080632360FEF719
:10207800C9FC06464FF0006393FAA3F34FF00063E0
:10208800226893FAA3F3B3FA83F303F01F0322FA47
:1020980003F3DB0707D4FEF7B5FC801BB0F57A7FA6
:1020A800E8D9032070BD22692B69134323610020FE
:1020B80070BD00BF0010024070B52B4C236823F0A0
:1020C800805323600546FEF79DFC06464FF00053FB
:1020D80093FAA3F34FF00053226893FAA3F3B3FAE9
:1020E80083F303F01F0322FA03F3DA0706D5FEF79A
:1020F80089FC801BB0F57A7FE8D92CE062692B68EF
:1021080022F4FE4242EA0323636162696B6822F4A7
:1021180000321B0942EA43436361236843F080535A
:102128002360FEF76FFC06464FF0005393FAA3F3C3
:102138004FF00053226893FAA3F3B3FA83F303F042
:102148001F0322FA03F3DB0707D4FEF75BFC801BAF
:10215800B0F57A7FE8D9032070BD6269EB68134354
:102168006361002070BD00BF0010024070B52B4CA9
:10217800236823F0806323600546FEF743FC064688
:102188004FF0006393FAA3F34FF00063226893FAC9
:10219800A3F3B3FA83F303F01F0322FA03F3DA0776
:1021A80006D5FEF72FFC801BB0F57A7FE8D92DE025
:1021B80022692B6822F4FE4242EA03232361AB68BA
:1021C80022695B0822F4C002013B42EA43532361BF
:1021D800236843F080632360FEF714FC06464FF043
:1021E800006393FAA3F34FF00063226893FAA3F312
:1021F800B3FA83F303F01F0322FA03F3DB0707D4D0
:10220800FEF700FC801BB0F57A7FE8D9032070BD8B
:1022180022692B6913432361002070BD001002401E
:102228002DE9F743056815F40065044627D0436D8A
:10223800B3F5800F12D004D803BB0430FFF7E2FED9
:102248000FE0B3F5000F03D0B3F5400F0BD015E046
:10225800AA4BDA6842F48032DA6004E01830FFF7FB
:102268002BFF054658B9A54B626DD3F8881021F4A9
:1022780040010A43C3F88820002500E001252368AF
:10228800D80429D5A36DB3F1807F12D004D813BB2D
:10229800201DFFF7B7FE10E0B3F1007F03D0B3F1C4
:1022A800407F0CD017E0954BDA6842F48032DA6050
:1022B80005E004F11800FFF7FFFE064600E02E4691
:1022C80066B98E4BA26DD3F8881021F040710A438D
:1022D800C3F8882003E001252E4600E03546236830
:1022E80099037CD5854FBB6DDA000BD4BB6D43F0E9
:1022F8008053BB65BB6D03F080530193019B4FF086
:10230800010801E04FF000087D4B1A6842F4807222
:102318001A60FEF777FB8146794B1B68DB0506D40C
:10232800FEF770FBC9EB00006428F5D94EE0002EDB
:102338004DD1D7F89010626F704B01F44071914203
:1023480011D0D3F89060D3F8902042F48032C3F8CB
:102358009020D3F8902026F4407622F48032C3F8F7
:102368009020C3F89060B00740F19381FEF74AFBD4
:102378000646022393FAA3F293FAA3F2B2FA82F280
:1023880042F0400252099A4202D1D7F890300BE04D
:1023980093FAA3F3B3FA83F343F040035B09032BE7
:1023A8000CBFD7F89430FB69022292FAA2F2B2FA73
:1023B80082F202F01F02D340D90700F16A81FEF7CA
:1023C80021FB41F28833801B9842D2D90326B8F109
:1023D800000F05D0BB6D23F08053BB6500E02E468F
:1023E8002368DA0708D5454AA16AD2F8880020F0A0
:1023F80003000143C2F888109F0708D53F4AE16AE5
:10240800D2F8880020F00C000143C2F888105D075C
:1024180008D53A4A216BD2F8880020F030000143F1
:10242800C2F88810180708D5344A616BD2F88800BA
:1024380020F0C0000143C2F88810D90608D52F4AF9
:10244800A16BD2F8880020F440700143C2F88810CC
:102458009A0608D5294AE16BD2F8880020F4406032
:102468000143C2F888109F0508D5244AE16CD2F8C8
:10247800880020F440200143C2F888105D0508D583
:102488001E4A216DD2F8880020F440100143C2F89A
:102498008810580608D5194A216CD2F8880020F40B
:1024A80040500143C2F88810190608D5134A616CD8
:1024B800D2F8880020F440400143C2F88810DA05B9
:1024C80008D50E4AA16CD2F8880020F440300143A8
:1024D800C2F888109F041ED5084BE26DD3F8881007
:1024E80021F040611143B2F1006FC3F8881009D19F
:1024F800DA6842F48012DA600DE000BF0010024092
:1025080000700040B2F1806F05D1201DFFF72EFE4C
:10251800002818BF064623681D0319D58B4B226E69
:10252800D3F8881021F040611143B2F1006FC3F86D
:10253800881004D1DA6842F48012DA6008E0B2F157
:10254800806F05D1201DFFF711FE002818BF064631
:102558002368580319D57D4B626ED3F8881021F093
:1025680040611143B2F1006FC3F8881004D1DA68F2
:1025780042F48012DA6008E0B2F1806F05D1201DC4
:10258800FFF7F4FD002818BF06462368590468D5EC
:102598006E4DA36ED5F8882022F040521A43B3F14D
:1025A800805FC5F888201ED12B6823F080632B60DC
:1025B800FEF728FA07464FF0006393FAA3F34FF0AB
:1025C80000632A6893FAA3F3B3FA83F303F01F03B3
:1025D80022FA03F3DA0766D5FEF714FAC01BB0F542
:1025E8007A7FE8D9ABE0B3F1005F3AD12B6823F0EA
:1025F80080532B60FEF706FA07464FF0005393FA14
:10260800A3F34FF000532A6893FAA3F3B3FA83F3C2
:1026180003F01F0322FA03F3D8075CD5FEF7F2F99B
:10262800C01BB0F57A7FE8D989E0FEF7EBF9C01B4B
:10263800B0F57A7F00F283804FF0006393FAA3F33A
:102648004FF000632A6893FAA3F3B3FA83F303F015
:102658001F0322FA03F3DB07E7D52A6963691343EB
:102668002B6123681A0408D5384AE16ED2F888002D
:1026780020F080400143C2F88810DB0361D5334B5A
:10268800216FD3F8882022F000420A43C3F888203B
:1026980057E0D7F89020636F22F440721343C7F8CD
:1026A80090302E4693E62A69636822F4FE4242EA95
:1026B80003232B6123692A695B0822F0C062013B6E
:1026C80042EA43632B612B6843F080632B60FEF77B
:1026D80099F90746B0E76A69A36922F4FE4242EA1B
:1026E80003236B61236A6A695B0822F0C062013BBD
:1026F80042EA43636B612B6843F080532B60FEF71B
:1027080081F907464FF0005393FAA3F34FF00053B3
:102718002A6893FAA3F3B3FA83F303F01F0322FAA8
:1027280003F3D90706D4FEF76DF9C01BB0F57A7F1D
:10273800E8D904E06A69636A13436B6191E7032689
:102748008FE7304603B0BDE8F08300BF00100240B9
:102758002DE9F34104460F4616461D46FEF752F989
:10276800804623689A683A40B2423DD0B7F5C06FB8
:1027780006D12EB91A7BD2B28DF807209DF8072012
:102788006A1CEFD04DB923685A6822F0E0025A60FB
:102798006268B2F5827F12D106E0FEF733F9C8EB22
:1027A8000000A842DDD3EEE7A268B2F5004F02D0E0
:1027B800B2F5806F03D11A6822F040021A60A26A4B
:1027C800B2F5005F08D119684DF6FF720A401A6029
:1027D8001A6842F400521A60012384F85D3000231D
:1027E80084F85C30032000E0002002B0BDE8F081EE
:1027F8002DE9F04104460F4616461D46FEF702F93C
:102808008046226893683B40B34234D06B1CF9D0B1
:102818004DB923685A6822F0E0025A606268B2F53E
:10282800827F12D106E0FEF7EDF8C8EB0000A8425F
:10283800E7D3EEE7A268B2F5004F02D0B2F5806F99
:1028480003D11A6822F040021A60A26AB2F5005F4A
:1028580008D119684DF6FF720A401A601A6842F4E6
:1028680000521A60012384F85D30002384F85C303C
:102878000320BDE8F0810020BDE8F08138B50D46A1
:1028880000224FF4C0512B460446FFF761FF024671
:1028980028B9204680212B46FFF7AAFF20B1236ED6
:1028A80043F020032366032038BD704770B5044603
:1028B80000284FD090F85D301BB980F85C30FFF7E6
:1028C800F4FF022384F85D302368E1681A68B1F5E3
:1028D800E06F22F040021A604FF0000003D9024670
:1028E800B1F5706F01E04FF4805218BFA062206B01
:1028F80028B9B1F5E06F8CBF02200120206365681C
:10290800A668A0692E4325692E4365692E43E569AB
:102918002E43256A2E43A56A354300F400763543D5
:102928001D60256B022D03D11D6845F400651D60EF
:10293800656A2943656B000C0D4300F004000543EC
:102948002A435A60E26A1A6100200123206684F84B
:102958005D3070BD012070BD2DE9F34704461F4668
:10296800894692460A9EFEF74DF894F85C30012B92
:10297800804600F0298194F85D5001239D4284F837
:102988005C3040F01881B9F1000F00F01581BAF100
:10299800000F00F01181002F00F00E81052384F84C
:1029A8005D3000232366A36AC4F840A0B3F5005F36
:1029B800A4F84670A4F84470C4F83890E787A7874D
:1029C800226808D111684DF6FF730B401360136835
:1029D80043F400531360E3685168B3F5E06F01D81E
:1029E800012F02D921F4805101E041F48051516056
:1029F80011684D0603D4116841F040011160B3F528
:102A0800E06F43D9E18FB4F8462000292DD0236820
:102A18009868800711D5A06B0088D860A06B013931
:102A2800023089B2A063E18739B9A16AB1F5005FC4
:102A380003D1196841F4805119606AB123689A6812
:102A4800D70709D5DA68236C23F8022B2364B4F876
:102A58004630013BA4F84630751CD3D0FDF7D2FFB1
:102A6800C8EB0000B042CDD383E0002AE5D1A36AC9
:102A7800B3F5005F40F0868058E0226891688807C7
:102A880008D4B4F846201ABB731C43D1E38F002B3B
:102A9800F3D146E0012BA16B06D90988D160A26B5E
:102AA8000232A263023B05E04B1CA3630B7813734D
:102AB800E38F013BE387E38F002BE2D1A36AB3F5F1
:102AC800005FDED123681A6842F480521A60D8E7A2
:102AD80023689968C907D7D5012A226C10D9D96803
:102AE80022F8021B2264B4F84620023A92B2012A64
:102AF800A4F84620C8D85A6842F480525A60C3E7FE
:102B0800511C21641B7B1370B4F84630013BA4F8B8
:102B18004630B9E7FDF776FFC8EB0000B042B5D301
:102B280027E0B4F84630002BABD1A0E701212046BE
:102B38000A463346FFF75CFEB8B9E368B3F5706F31
:102B4800236802D1DB689BB218E01B7BDBB2ADF8CF
:102B58000630BDF80630236B022B13D10121204625
:102B68000A463346FFF744FE28B1236E43F00203BA
:102B78002366032520E023681B7BDBB2ADF8063013
:102B8800BDF8063023689D6815F0100507D0226E41
:102B980042F0020222664FF6EF729A600125204643
:102BA8003146FFF76BFE08B120232366236E002B06
:102BB80018BF012500E00225012384F85D300023B9
:102BC80084F85C30284600E0022002B0BDE8F087B7
:102BD8007047022380F8393003681A6842F001020E
:102BE8001A60012380F83930002070472E4A0368A4
:102BF800904212D0B0F1804F0FD0A2F5943290429B
:102C08000BD002F58062904207D002F580629042B4
:102C180003D002F59432904219D14A6823F0700328
:102C28001343214A90421DD0B0F1804F1AD0A2F52B
:102C38009432904216D002F58062904212D002F58A
:102C4800806290420ED002F5943290420AD0174A20
:102C5800904207D002F58062904203D002F580626C
:102C6800904203D1CA6823F44073134303608B680E
:102C7800C3620B6883620C4B98420FD003F5006364
:102C880098420BD003F54063984207D003F5806360
:102C9800984203D003F58063984201D10B6903631E
:102CA80001234361704700BF002C014000400140F0
:102CB80010B50446A0B190F8393003F0FF021BB9F3
:102CC80080F83820FFF784FF022384F83930206821
:102CD800211DFFF78BFF012384F83930002010BD38
:102CE800012010BD7047000070B506460468B26840
:102CF8003169C3692068114372690A4342EA0301D2
:102D08009B4A02400A4322606168F26821F44051FC
:102D18000A43984962608C4218BF316AB26918BF89
:102D28000A43A16821F430610A43A260924A94429E
:102D380007D102F558429149D2F8882002F00302DF
:102D480009E08F4A94420CD102F5E6328D49D2F857
:102D5800882002F00C02B3F5004F8A5C40F09280A4
:102D680053E0894A944210D102F5E432D2F888201F
:102D780002F03002102A60D002D8002A4ED074E047
:102D8800202A54D0302A62D06FE0804A94420ED173
:102D980002F5E232D2F8882002F0C002402A00F0A0
:102DA800D58027D9802A00F0A080C02A2AE0784A56
:102DB800944211D102F5E032D2F8882002F4407230
:102DC800B2F5807F00F0C28014D9B2F5007F00F020
:102DD8008C80B2F5407F15E0664A944245D102F5F1
:102DE800C832D2F8882002F44062B2F5806F00F051
:102DF800AD8002D8002A69D034E0B2F5006F74D0F3
:102E0800B2F5406F00F0AA802CE0082A30D8DFE83D
:102E180002F0080B112F172F2F2F2100B3F5004FA9
:102E280039D1FFF7C3F80DE0FFF7D6F80AE0B3F59C
:102E3800004F36D17368574A0FE0B3F5004F36D1CB
:102E4800FFF730F873684000B0FBF3F207E0B3F522
:102E5800004F33D173684FF48032B2FBF3F292B271
:102E6800002307E0434A94423DD0B3F5004F3AD1DE
:102E78000123002222F00F003168C2F3420202430C
:102E8800CA6073E0082A2ED8DFE802F005080B2D87
:102E9800112D2D2D1800FFF789F80AE0FFF79CF88F
:102EA80007E073683C4AB2FBF3F39BB20BE0FEF712
:102EB800F9FF7368B0FBF3F083B204E073684FF472
:102EC8000042B2FBF3F3E36000234FE0294A944247
:102ED800A4D1FFF76BF800230028F5D0726802EB45
:102EE8004201884207D2012340E0224A94429ED1FF
:102EF80002232948F2E7B0EB023FF4D8082B1CD88C
:102F0800DFE803F0051B081B0A1B1B1B1500FFF756
:102F18004DF803E021480CE0FEF7C4FF050E04025B
:102F28007268204629460023FDF754F903E04FF460
:102F38000000B0FBF2F0002300E00123184AA0F5DE
:102F480040719142CFD83268D0600FE0094A94426C
:102F58007FF473AFFEF7A6FF0423BDE7054A94424A
:102F68007FF475AF08234FF40040B7E7184670BDEB
:102F7800F369FFEF0080004000380140A5530008C6
:102F8800004400409853000800480040004C0040AE
:102F9800005000400048E8010024F400000024F438
:102FA800FFFC0F00436ADA0710B506D50268816A8C
:102FB800546824F40034214351609C0706D5026804
:102FC800C16A546824F4803421435160590706D5F6
:102FD8000268016B546824F48024214351601A0765
:102FE80006D50268416B546824F4004421435160BB
:102FF800DC0606D50268816B946824F4805421436A
:103008009160990606D50268C16B946824F400544F
:10301800214391605A060FD50268016C546824F464
:1030280080140C43B1F5801F546005D15468416C7D
:1030380024F4C004214351601B0606D50368816C43
:103048005A6822F400220A435A6010BD2DE9F04163
:1030580004460E4690461D46FDF7D4FC0746B8F1D7
:10306800000F36D12268D3693340B3420ED0691CB1
:10307800F9D07DB1FDF7C6FCC01BA842F2D909E022
:103088006B1C06D1D3693340B342F9D00020BDE8A8
:10309800F081CDB923681A6822F080021A601A6894
:1030A80022F020021A601A6822F480721A609A6864
:1030B80022F001029A60012384F86930002384F821
:1030C80068300320BDE8F081FDF79CFCC01BA842D6
:1030D800E0D82268D6E70022036810B5C2661B68EC
:1030E8001907044604D423681B685B0714D509E054
:1030F8004FF400116FF07E43FFF7A8FF0028F2D0CD
:10310800032010BD20464FF4800100226FF07E435B
:10311800FFF79CFF0028F3D10123002084F86930D1
:1031280084F8680010BD10B5044660B390F86930A3
:1031380003F0FF021BB980F86820FFF7D3FD0223D4
:1031480084F8693023681A6822F001021A60204660
:10315800FFF7CAFD012816D0636A13B12046FFF7AE
:1031680021FF23685A6822F490425A609A6822F034
:103178002A029A601A6842F0010220461A60BDE8E5
:103188001040FFF7A8BF012010BDF8B504460E4651
:103198001546FDF737FC07462268D3693340B3422A
:1031A80021D06B1CF9D0C5B923681A6822F08002B7
:1031B8001A601A6822F020021A601A6822F48072D3
:1031C8001A609A6822F001029A60012384F841305B
:1031D800002384F840300320F8BDFDF713FCC01B22
:1031E800A842D9D9E0E70020F8BD704710B50446D9
:1031F80008B9012010BD90F8413003F0FF021BB957
:1032080080F84020FFF7F1FF022384F8413023685B
:10321800A1681A6822F001021A602269186811432D
:10322800626941F4004111434A4A02400A431A6064
:10323800A169E26958681143226A41F400611143A7
:10324800E26820F47C500A4302435A60424A93429F
:1032580006D1424B424AD3F8883003F0030308E012
:10326800404A93420FD13D4B3F4AD3F8883003F090
:103278000C03D35C082B30D8DFE803F0171A1D2F96
:10328800202F2F2F2700394A934226D1334BD3F8CA
:10329800883003F03003102B10D001D82BB11CE07C
:1032A800202B08D0302B10D017E0FEF77FFE07E068
:1032B800FEF792FE04E063682D4A09E0FEF7F2FD8E
:1032C80063684000B0FBF3F304E063684FF48032B6
:1032D800B2FBF3F39BB2002101E00023012123F0AC
:1032E8000F002268C3F342030343D360002980D14F
:1032F800536823F480435360936823F02A03936050
:10330800136843F0010313600023636413681A070A
:1033180004D423681B685B0714D50AE020464FF4E1
:1033280000114FF47A72FFF730FF0028F1D0032024
:1033380010BD20464FF480014FF47A72FFF725FF45
:103348000028F4D10123002084F8413084F840009B
:1033580010BD00BFF369FFEF0038014000100240C4
:10336800A953000800440040AD530008004800403D
:103378000048E801890141F02001064B0161013B49
:1033880005D0026912F02002F9D1104670470320D7
:10339800704700BF410D030030B54C780A78012C06
:1033A80000F500631DD1DD6904FA02F292B22A43E6
:1033B800DA610C784FF4106303EB44131A581504C0
:1033C8002BD41A588D6842F08052C5F30A0542F48E
:1033D80000422A43CD7842EA854242EA84541C508E
:1033E8001BE0DC694FF4803505FA02F22243DA610A
:1033F8000A784FF4306303EB42131A5812040CD4C2
:103408001A588C6842F08052C4F30A0442F400420D
:103418002243CC7842EA84421A50002030BD4B78CF
:10342800012BF0B54D690E7861D120244FF410635B
:1034380014FB06360644B5B9356925F0FF5525F461
:10344800C01535610D7814FB053505442E6946F421
:1034580000262E610D7814FB053303441D69ED0C1D
:10346800ED041D6126E03769FF0CFF0437610E7813
:1034780014FB063303444FF410641E6926F0FF560C
:1034880026F4C0161E618B689D420D7888BF4B617B
:10349800202313FB054505442E6946F400262E61BA
:1034A8000D7813FB054303444C691D69C4F31204EA
:1034B8002C431C61012A0A7805D100EB42120B69E2
:1034C800C2F8143909E04B693BB1D0F834480125FA
:1034D80005FA02F22243C0F834280A784FF4106340
:1034E80003EB4213C25842F00442C2503DE020238D
:1034F8004FF4306713FB067606443469E40CE404A1
:1035080034610E7813FB06760644346924F0FF54C0
:1035180024F4C01434611C468E6805B14E610D78E0
:103528004FF4306314FB05350544C6F312062F69C2
:1035380047F400272F610D7814FB05340444012A51
:10354800256946EA0506266106D10A78202414FB77
:1035580002330344CA685A610A784FF4306303EBB4
:103568004213C25842F00442C2500020F0BD30B5A8
:103578009DF80C4064B9033300EB02329B1002F54E
:1035880080529C4204D051F8245015600134F8E769
:10359800002030BD2DE9F7434B780E78012B4FF012
:1035A80020054B6940F09A804FF4106415FB0646DD
:1035B80006443769ABB927F0FF5727F4C0173761BE
:1035C8000E7815FB06460644376947F4002737612D
:1035D8000E7815FB064404442669F60CF6042661A9
:1035E8003EE0FF0CFF0437610F7815FB07470744DF
:1035F8003E6926F0FF5626F4C0163E618E680F78A5
:1036080003EB060808F1FF3815FB07470744B8FB2A
:10361800F6F64FEAC648684ED7F810C008EA06061C
:1036280046EA0C063E610E7815FB06460644C3F3CF
:10363800120C37694CEA07073761CE78012E0FD193
:103648000E7815FB06460644376927F0C0473761F0
:103658000E7815FB06440444256945F0005525619C
:10366800012A0D7805D100EB45150C69C5F81449F8
:103678000BE0CC78012C08D03BB1D0F83468012796
:1036880007FA05F53543C0F83458CC78012C11D128
:10369800D0F8084814F4807F0C784FF410654FF088
:1036A800200616FB045425580CBF45F0005545F07C
:1036B800805525500D784FF4106404EB45140559D6
:1036C80045F004450551CC78012C71D10C78009255
:1036D800C96822469BB2FFF74AFF69E04FF430649D
:1036E80015FB064687193E69F60CF6043E610F780D
:1036F80015FB074707443E6926F0FF5626F4C01617
:103708003E6191F800C08E6815FB0C4C7BB900EB4C
:103718000C03C6F312061F693E431E610B7815FBA6
:1037280003440444236943F4002323611AE0334427
:10373800013B8444B3FBF6F39BB21F4FDCF81080C7
:103748004FEAC34909EA070747EA0807CCF81070A7
:103758000F7815FB0744044473432569C3F3120328
:103768002B432361012A05D10A78CB6800EB42126A
:10377800C2F8143BCB78012B11D1D0F8083813F4D8
:10378800807F0B784FF430624FF0200414FB032342
:10379800C2580CBF42F0005242F08052C2500A7820
:1037A8004FF4306303EB4213C25842F00442C25054
:1037B800002003B0BDE8F0830000F81F10B5033205
:1037C8009210002393424FEA830406D000F58054F8
:1037D800246841F823400133F4E7081910BD4B78F9
:1037E8000A78012B10B54FF0200314D14FF4106460
:1037F80013FB0243C258002A03DBC25822F080425E
:10380800C2500A784FF4106303EB4213C25842F4D3
:103818000012C25013E04FF4306413FB0243C25845
:10382800002A03DBC25822F08042C2500A784FF4C3
:10383800306303EB4213C25842F40012C250002016
:1038480010BD30B54B780C78012B0CBF4FF41062CB
:103858004FF43062202313FB0424255825F4001567
:103868002550CC78023C012C06D8097813FB01239B
:103878001A5842F080521A50002030BDD0F8003853
:1038880023F4FE63C0F80038D0F80038090101F4C9
:10389800FE610B43C0F80038002070474369806917
:1038A80018407047D0F8183800F50060C069184013
:1038B800000C7047D0F81828D0F81C3802EA03002A
:1038C80080B2704700EB411100F50060D1F8083B69
:1038D800406918407047D0F8102810B5D0F834481F
:1038E80000EB4110D0F8083924FA01F0C001C0B249
:1038F8001043184010BD406900F001007047D0F82F
:10390800003923F4FF6323F00703C0F8003900F5FA
:1039180000639A6802F00602042A05D1D0F800294B
:1039280042F00302C0F800295A6842F480725A60D3
:103938000020704710B50024C0F8104BD0F8104B89
:1039480044F40024C0F8104BD0F8104B44F018048D
:10395800C0F8104BD0F8104B012944F0C044C0F80F
:10396800104B05D14FF08023C0F8142BC0F8003B52
:10397800002010BD08B5D0F814320BB9022008BDDC
:103988001B6898470028F9D108BD08B5D0F814324B
:103998005B689847002008BD38B5044600F50275F5
:1039A800284600F0F2F8012394F80812C4F8F4311C
:1039B800B4F80E32C4F8F83101F01F03012B0CD013
:1039C80006D3022B0ED12046294600F021FA0EE03C
:1039D8002046294600F0F8F809E02046294600F07C
:1039E800FFF904E0204601F0800101F05CFB0020B3
:1039F80038BD38B5044609BBD0F8F431032B26D1BD
:103A0800D0F80C51D0F810319D420AD9ED1A9D42D8
:103A180038BF2B461146C0F80C519AB200F073FA21
:103A280015E0D0F814321B6923B190F8FC21032A61
:103A380000D19847204600F06FFA08E0D0F8143219
:103A48009B6923B190F8FC21032A00D198470020F4
:103A580038BD70B504460E4600293DD1D0F8F43182
:103A6800022B31D1C569036A9D4208D9EB1A114668
:103A7800C3619AB200F03EFA2046314612E08269EC
:103A8800B2FBF3F503FB15258DB99A420FD3D0F895
:103A9800F8319A420BD22A4600F02CFAC4F8F851B1
:103AA800204629460A460B4601F02CFB0CE0D4F8C8
:103AB8001432DB682BB194F8FC21032A01D120468B
:103AC8009847204600F033FA94F80032012B0CD1C5
:103AD800002384F8003208E0D0F814325B6923B17F
:103AE80090F8FC21032A00D19847002070BD38B512
:103AF800002104460A464025402301F0CAFA2B4615
:103B0800C4F8105120468021002201F0C2FA012396
:103B180084F8FC31D4F8183225622BB1D4F8143269
:103B280021795B6820469847002038BD0174002041
:103B3800704790F8FC3180F8FD31042380F8FC319F
:103B48000020704790F8FD3180F8FC310020704764
:103B580008B590F8FC21032A04D1D0F81432DB69A7
:103B680003B19847002008BD002070470020704727
:103B78000020704708B5012280F8FC21D0F81422F3
:103B8800017952689047002008BD0B7803704B7884
:103B98004370CA788B7803EB022343804A790B7908
:103BA80003EB02238380CA798B7903EB0223C3805A
:103BB800704710B58021044601F075FA20460021AF
:103BC800BDE8104001F06FBA73B54B7804460D4656
:103BD800092B00F2FC80DFE813F0CE00E500FA00C4
:103BE800E100FA0077000A00FA00BD0093006B8834
:103BF8001A0A013A062A00F2EA80DFE812F0070002
:103C08000B001800E800E8003D004900D0F8103229
:103C18001B682CE0027CD0F814320AB99B6A00E0D9
:103C2800DB6A0DF106009847022301463CE0DBB24F
:103C3800052B00F2CC80DFE803F003070B0F131706
:103C4800D0F810325B6812E0D0F810329B680EE0B2
:103C5800D0F81032DB680AE0D0F810321B6906E0B1
:103C6800D0F810325B6902E0D0F810329B69207CF2
:103C78000DF10601984709E0037C002B40F0A7806E
:103C8800D0F814320DF106005B6B984701460CE042
:103C9800037C002B40F09B80D0F814320DF1060015
:103CA8001B6B9847072301464B70BDF80630002B65
:103CB80000F09180EA88002A00F08D809A4228BF9F
:103CC8001A46ADF8062054E0AB88002B7FD1EB886C
:103CD800002B7CD190F8FC31AE78032B06F07F06E0
:103CE80075D080F8FE61314601F0FEF9204600F0FB
:103CF80013F90EB1022300E0012384F8FC316AE0D5
:103D0800A978364E0129317061D890F8FC31022B20
:103D180002D0032B08D05AE0002954D001210323F4
:103D2800416080F8FC310FE031B9022380F8FC31A2
:103D38004160FFF72AFE46E04168012943D0C9B235
:103D4800FFF723FE317861602046FFF713FE022853
:103D580039D13CE0EA88012A39D190F8FC31022BAC
:103D680003D0032B33D1011D15E00146002341F890
:103D7800083F20460FE090F8FC31023B012B26D883
:103D88000123C360D0F804320BB10323C36020467B
:103D980004F10C01022200F09FF81CE06B88012B53
:103DA80019D108E090F8FC31023B012B0FD86B8841
:103DB800012B10D10023C4F80432D4F81432204661
:103DC8009B6829469847204600F0A6F803E020465D
:103DD8002946FFF7EEFE002002B070BD580400200F
:103DE80038B590F8FC31032B04460D460CD10B79FD
:103DF800012B09D8D0F814329B689847EB882BB967
:103E0800204600F089F801E0FFF7D3FE002038BD16
:103E180070B50E788A8806F06006202E04460D4696
:103E2800D3B204D1D0F814329B68984752E04E7848
:103E3800012E10D027D3032E4CD190F8FC21022A52
:103E480028D0032A44D14A889AB95E0611D0194667
:103E580001F029F90DE090F8FC21022A1AD0032A72
:103E680036D14A88002A35D1590608D0194601F0BA
:103E780021F9D4F8143220469B68294698472046F1
:103E880000F04AF826E090F8FC51022D02D0032DEC
:103E980006D01DE05A061DD0194601F004F919E0B4
:103EA80003F07F0512F0800F00EB0515194614BFCB
:103EB800143505F5827501F004F910B101232B6062
:103EC80000E0286020462946022200F005F801E0BB
:103ED800FFF76FFE002070BD38B513460D4602226D
:103EE800C0F8F4218361C36100212A4601F003F977
:103EF800002038BD10B50C4613460021224601F0BB
:103F0800FAF8002010BD10B50C46134600212246D1
:103F180001F0F8F8002010BD08B500210423C0F80E
:103F2800F4310A460B4601F0E6F8002008BD08B552
:103F380000210523C0F8F4310A460B4601F0E2F8E7
:103F4800002008BD08B558B900F02CF9642000F02D
:103F580047F900F02FF94FF4967000F041F9F3E7B4
:103F680008BD00007FB500238DF817304FF47A7331
:103F78008DF80F0000930DF10F010DF117020123C9
:103F88000348FEF7E9FC9DF8170007B05DF804FB4D
:103F9800F408002070B50D460446802116461148E5
:103FA8000022FCF783FE0320FFF7DCFFC5F3074080
:103FB800FFF7D8FFC5F30720FFF7D4FFE8B2FFF7F4
:103FC800D1FF2644B44205D0A520FFF7CBFF04F863
:103FD800010BF7E7034880210122BDE87040FCF798
:103FE80065BE00BF00040048F8B50F4C80210022D0
:103FF8002046FCF75BFE9F20FFF7B4FFA520FFF7E4
:10400800B1FF0646A520FFF7ADFF0746A520FFF73D
:10401800A9FF3F020546802120460122FCF746FE03
:1040280047EA06402843F8BD000400480A4808B596
:1040380080210022FCF73AFED720FFF793FFA52046
:10404800FFF790FF0306FAD5034880210122BDE857
:104058000840FCF72BBE00BF00040048F0B521F073
:10406800FF07C1B006460C461546684639464FF468
:104078008072FFF78FFF00239AB2954206D000A9FD
:10408800E21B0A44F15CD1540133F5E78021002298
:104098001148FCF70BFE8220FFF764FFC4F30740CA
:1040A800FFF760FFC4F30720FFF75CFFE0B2FFF7FC
:1040B80059FF0024A3B29D4204D0305DFFF752FFA0
:1040C8000134F7E7044880210122FCF7EFFDFFF7F0
:1040D800ADFF41B0F0BD00BF000400482DE9F84332
:1040E8001346C2F30F2811F0FF0492B205460E469C
:1040F800D7B219D1B8F1000F4DD04FEA082800F512
:104108008079C1440446711B2144204604F580741B
:104118004C4504D04FF48072FFF7A0FFF3E705EB9E
:10412800080008EB06010EE0C4F58074A4B2B8F1EB
:10413800000F0AD1A7422ED93F1B2246FFF78EFF58
:10414800BFB22819A1193A4625E01B1B4FEA1328CC
:1041580022465FFA83F926441FFA88F82C44FFF7B1
:104168007DFF4FEA082804F5807545442746311B32
:104178003944384607F58077AF4204D04FF480724F
:10418800FFF76CFFF3E704EB080008EB0601B9F151
:10419800000F04D04A46BDE8F843FFF75FBFBDE80B
:1041A800F8830000024808210122FCF77FBD00BF08
:1041B80000080048024808210022FCF777BD00BF2C
:1041C8000008004808B5002203480121FCF76EFDED
:1041D800024B00221A7008BD00080048590400204C
:1041E80038B50A4C4EF660254FF6FF724FF47A71D7
:1041F800A84238BF0546032000F00AF82046FEF71B
:10420800E8FC2268536AAB42FCD338BD880500201D
:10421800F0B5431E9BB086460F461646102B00F29B
:10422800B880DFE813F011001F002E003C004A00A0
:10423800580066007400B600B600B600B600B600B6
:10424800B600820090009E00614B624C1A6E42F4E8
:1042580000621A661B6E03F400630093009B5E4BBA
:104268000B938BE05A4B5D4C9A6D42F001029A65B4
:104278009B6D03F001030193019B4FF080430B9367
:104288007CE0534B564C9A6D42F002029A659B6D46
:1042980003F002030293029B524B0B936EE04C4BCC
:1042A800514C9A6D42F004029A659B6D03F0040329
:1042B8000393039B4D4B0B9360E0454B4C4C9A6D1D
:1042C80042F008029A659B6D03F008030493049B6F
:1042D800484B0B9352E03E4B474C9A6D42F010020C
:1042E8009A659B6D03F010030593059B434B0B9355
:1042F80044E0374B424C9A6D42F020029A659B6D20
:1043080003F020030693069B3E4B0B9336E0304B9D
:104318003D4C1A6E42F400521A661B6E03F40053A9
:104328000793079B394B0B9328E0294B384C1A6E9F
:1043380042F480321A661B6E03F480330893089B9C
:10434800344B0B931AE0224B334C1A6E42F4003272
:104358001A661B6E03F400330993099B2F4B0B93CA
:104368000CE01B4B2E4C1A6E42F480221A661B6E10
:1043780003F480230A930A9B2A4B0B930BAD0FCDB2
:104388000FC40FCD0FC40FCD0FC495E8070084E804
:104398000700AEF1020EBEF1050F02D8FDF706FECA
:1043A80001E0FDF719FE4FF47A734000B0FBF3F01B
:1043B8004743B7FBF3F3013B0C93013E00230BA8E3
:1043C8000E960D930F93FEF773FC1BB0F0BD00BF64
:1043D8000010024000060020002C01403C0600208E
:1043E80088050020000400409804002000080040D0
:1043F8004C050020000C0040C405002000100040BF
:10440800B4060020001400405C0400200034014081
:10441800D4040020004001407806002000440140F8
:10442800100500200048014070B50E4C86B00025EC
:1044380080261123204601A902930196039504952D
:10444800FCF758FB022301932046032301A902939A
:104458000395FCF74FFB204631460122FCF726FC6A
:1044680006B070BD000800481FB52B4B1A6842F40F
:1044780080721A600320FCF7CBFA0F20FCF7A8FA29
:1044880000F000FD254BDA6C42F00102DA64DA6CC8
:1044980002F001020092009ADA6C42F00202DA6439
:1044A800DA6C02F002020192019ADA6C42F004021C
:1044B800DA64DA6C02F004020292029ADA6C42F0D0
:1044C8000802DA64DB6C03F008030393039B00F033
:1044D800FFFB00F0B7FC00F073FC00F02BFDFFF7CA
:1044E800A3FF00F069FB00F079FB00F043FB00F04C
:1044F80011FB00F0AFFB00F01FF800F057FD00F0D3
:1045080045FC00F085FC00F01FFB00F083FB00F089
:10451800E3FA05B05DF804FB0020024000100240F9
:1045280000B589B001A800F060FD01A800F042F8CC
:1045380009B05DF804FB000070B586B006A90A4E04
:104548004FF400750023012441F8145D30460393AD
:1045580004930294FCF7CEFA304629462246FCF72B
:10456800A5FB06B070BD00BF0008004807281BD88F
:10457800DFE800F0040407090B0D121600234B6056
:1045880011E000230DE0002307E0012300E01123E0
:104598004B600023CB607047044B4B60022302E062
:1045A800034B4B6001238B60704700BF0000111064
:1045B8000000211070B5037C162B8EB0044604D180
:1045C800A74804210122FCF771FB227A0A2A02D0AB
:1045D800A37A0B2B3AD1A34B996D41F4001199653D
:1045E8009B6D03F400130193019B00230C930A2A8B
:1045F8004FF004030D930AD14FF40073099301237C
:104608000B939948022309A90A93FCF773FAA37A32
:104618000B2B0BD1099B944843F480730993002317
:104628000B9309A912230A93FCF764FA8F48904B5D
:10463800DFF854C2012280E8081000238360C260BA
:1046480003614361C3610362FCF743FBA37C0E2B48
:10465800A37E08D0227D0D2A05D0A27D0C2A02D087
:104668000F2B64D101E00F2B0ED1402601254FF00E
:10467800904009A909960A95FCF73CFA4FF090403A
:1046880031462A46FCF712FB764B9A6D42F400320B
:104698009A659B6D03F400330293029B02230A93ED
:1046A80000230B9301230C9307230D93A37C0E2B5C
:1046B80007D10EA9042341F8143D4FF09040FCF7B0
:1046C80019FA237D0D2B07D10EA9082341F8143DB3
:1046D8004FF09040FCF70EFAA37D0C2B07D10EA9E2
:1046E800102341F8143D4FF09040FCF703FA614D58
:1046F800614B2B6023686B6000230C22AB60EB607E
:104708002B61AB61EB6128464FF480736A612B62C1
:10471800FEF76CFD2B681A6822F001021A605A68CD
:1047280042F400225A601A6842F001021A60A27B21
:10473800152A02D0237B142B34D14A4B996D41F4AE
:10474800002199659B6D03F4002301210393039BCA
:104758000B9102230C91152A4FF008010A930D9131
:1047680006D10EA94FF0904041F8143DFCF7C2F96C
:10477800237B142B07D10EA9012341F8143D4FF0D8
:104788009040FCF7B7F93D483D4B036063684360D0
:104798000C2200238360C360036142618361C361AB
:1047A800FEF7C1FCA27C102A08D0237D112B05D06E
:1047B800237B132B02D0A37B122B6CD1294B996D31
:1047C80041F4003199659B6D03F400330493049B15
:1047D80002230A9300230B9301230C93102A4FF012
:1047E80007030D9307D10EA9042341F8143D4FF098
:1047F8009040FCF77FF9237D112B07D10EA90823E0
:1048080041F8143D4FF09040FCF774F9237B132BCB
:1048180009D10EA9012541F8145D4FF09040FCF72D
:1048280069F9294600E00021A37B122B08D10EA9C3
:10483800022341F8143D4FF09040FCF75BF9012149
:10484800104B0D4A1A6022685A600C2000229A60A8
:10485800DA601A615861C9B14FF44071996116E084
:10486800000800480010024000040048F00600203C
:10487800005400402C07002000440040740700202A
:10488800004C0040E40700200B0442109A618F4856
:10489800DA61FEF748FC237A012B0AD1607A09A96C
:1048A800FFF764FE4FF400738948099309A9FCF7E0
:1048B80021F9A37A012B0AD1E07A09A9FFF756FE5C
:1048C8004FF480738248099309A9FCF713F9257BF3
:1048D800012D09D1607B09A9FFF748FE4FF09040F0
:1048E80009A90995FCF706F9A37B012B0AD1E07BFE
:1048F80009A9FFF73BFE02234FF0904009A909934D
:10490800FCF7F8F8A37C012B0AD1E07C09A9FFF792
:104918002DFE04234FF0904009A90993FCF7EAF80B
:10492800237D012B0AD1607D09A9FFF71FFE08230B
:104938004FF0904009A90993FCF7DCF8A37D012BFF
:104948000AD1E07D09A9FFF711FE10234FF090402E
:1049580009A90993FCF7CEF8257E012D08D1607EC0
:1049680009A9FFF703FE5A48099509A9FCF7C2F8F7
:10497800A37E012B0AD1E07E09A9FFF7F7FD4023AA
:104988004FF0904009A90993FCF7B4F8227A022362
:104998000A93022A4FF000030B930C9302D0A37AD8
:1049A800032B20D14B4B996D41F0040199659B6D08
:1049B80003F004030593059B02239A420D9307D144
:1049C8000EA94FF4007341F8143D4148FCF792F8E2
:1049D800A37A032B07D10EA94FF4807341F8143D35
:1049E8003B48FCF787F8227B072A08D0A37B062BD5
:1049F80005D0A37C052B02D0237D042B36D1354B63
:104A0800996D41F0010199659B6D03F001030693CF
:104A1800069B072A4FF001030D9306D10EA94FF00C
:104A2800904041F8143DFCF765F8A37B062B07D1AD
:104A38000EA9022341F8143D4FF09040FCF75AF8B4
:104A4800A37C052B07D10EA9042341F8143D4FF090
:104A58009040FCF74FF8237D042B07D10EA90823BB
:104A680041F8143D4FF09040FCF744F8A37D082B23
:104A780013D1184BDA6D42F02002DA65DB6D03F0D2
:104A880020030793079B0EA90E230D93102341F8CB
:104A9800143D4FF09040FCF72DF8A37D092B12D15F
:104AA8000C4B1A6E42F400321A661B6E03F4003384
:104AB8000893089B402309934FF090400E2309A9BF
:104AC8000D93FCF717F80EB070BD00BFE407002087
:104AD800000400480010024010B50D4C802100224F
:104AE8002046FCF7E3F83D20FFF73CFA2A20FFF7C1
:104AF80039FA8020FFF736FAA620FFF733FA204666
:104B080080210122FCF7D2F8BDE81040FFF78EBAE9
:104B18000004004870B586B006A90A4E8025002317
:104B28000124039341F8145D03233046049302944F
:104B3800FBF7E0FF304629462246FCF7B7F806B0F7
:104B480070BD00BF000400480748084BDFF820C0CC
:104B5800012280E8081000238360C260036143617A
:104B6800C3610362FCF7B5B8540800200058004040
:104B78000B0442107FB50E4B0E489A6D42F480022A
:104B88009A659B6D03F480030093009B4FF4406388
:104B980001931223029300230393049304230DEB40
:104BA80003010593FBF7A6FF07B05DF804FB00BF00
:104BB80000100240000400487FB508230193012338
:104BC80002930548002301A903930493FBF792FF7E
:104BD80007B05DF804FB00BF0008004810B586B0B8
:104BE800002306AC0293022303934FF4004344F8D6
:104BF800143D4FF090402146FBF77CFF4FF4807343
:104C0800034801932146FBF775FF06B010BD00BFAE
:104C18000008004800B5AFB068460021402200F007
:104C2800A1FA0021782210A800F09CFA042300932E
:104C3800684601230293FCF761FC4FF4003310939C
:104C480010A84FF480732D93FDF7EAFA2FB05DF8A2
:104C580004FB00002DE9F0471B4EDFF8708086B09A
:104C6800002401254FF02009304601A94FF0100A11
:104C780002950394CDF804900494FBF73BFF30466B
:104C880001A90227CDF804A00494FBF733FF40469E
:104C980001A901970494FBF72DFF404639462246A7
:104CA800FCF704F8304651462A46FBF7FFFF30462A
:104CB80049462A46FBF7FAFF404639462A46FBF79B
:104CC800F5FF06B0BDE8F08700080048000400487A
:104CD8002DE9F047DFF8ACA0284EDFF8AC8086B0AD
:104CE8000427012400254FF04009504601A9CDF8BA
:104CF8000490029403950495FBF7FCFE30460DEBF7
:104D080007010197029403950495FBF7F3FE4046CB
:104D18000DEB07010197FBF7EDFE022330460DEB83
:104D280007010393019402940495FBF7E3FE5046B0
:104D380049462246FBF7BAFF304639462A46FBF772
:104D4800B5FF224640463946FBF7B0FFFFF73AFA6F
:104D58004FF4005301933046094B02930DEB0701C2
:104D68000394FBF7C7FE0A212A462820FBF762FEB8
:104D78002820FBF791FE06B0BDE8F0870008004840
:104D88000000211000040048000C00480A480B4BA2
:104D98004FF4E0624FF4827C80E80810C260002380
:104DA8004FF400728360036143618261C3610362EF
:104DB80043628362FDF77ABD90080020003001400D
:104DC800124B10B51A6E42F480521A661B6E86B0EA
:104DD80003F480530093009BA02301930223002433
:104DE800029301A905234FF090400593039404947E
:104DF800FBF780FE40234FF0904001A901930294F5
:104E08000394FBF777FE06B010BD00BF0010024008
:104E18000A480B4B4FF4E0624FF4827C80E808109C
:104E2800C26000234FF400728360036143618261B2
:104E3800C361036243628362FDF738BDF408002052
:104E4800003C00407FB50D4B0D489A6D42F400427E
:104E58009A659B6D03F400430093009B38230193EC
:104E680002230293002303930323049301A9062337
:104E78000593FBF73FFE07B05DF804FB0010024006
:104E88000004004830B5B7B0052308934FF48033C9
:104E9800099301230A9313932423149307230222CB
:104EA800032515930424062308A811921295169336
:104EB8001794FCF723FB0F232146039304954FF423
:104EC800A063002503A8069307930595FCF7A6FEA3
:104ED8004FF40833164C18934FF48073359318A881
:104EE8004FF000632F93FDF79BF9A36D43F08053B8
:104EF800A365A36D03F0805301934FF40070019BE9
:104F0800FCF784FAFDF738F84FF4FA53B0FBF3F0E6
:104F1800FBF7CEFD2846FBF7E1FD236E43F00103C6
:104F28002366236E03F001030293029B37B030BD62
:104F3800001002401A4B70B59A6D1A4E42F4802246
:104F48009A659B6D86B003F480230093009B012330
:104F580006AC03930493072305934FF4806344F846
:104F6800143D0225304621460295FBF7C3FD4FF458
:104F78000063304621460193FBF7BCFD03950A4DBB
:104F88004FF40053284621460193FBF7B3FD4FF435
:104F98008043284621460193FBF7ACFD06B070BD5F
:104FA80000100240000800480004004830B587B0EF
:104FB8004FF4C05301930223002402930A250323CC
:104FC80001A94FF09040049303940595FBF792FDD7
:104FD8004FF400734FF0904001A901930294039499
:104FE8000595FBF787FD07B030BD002303604360DC
:104FF800037243728372C372037343738373C373FD
:1050080003748374C374037543758375C3757047DC
:10501800014601F56171D0F8C403FEF7BDBC1C233D
:1050280003FB0103D0F8C403D3F8E821FEF7E1BC81
:105038001C2303FB0103D0F8C4035A6CFEF709BD17
:10504800D0F8C403FEF784BD10B50446D0F8C403F5
:10505800FEF74DFDD4F8C4030121BDE81040FEF76A
:1050680065BDD0F8C403FEF764BDD0F8C403FEF7ED
:1050780069BDD0F8C403FEF779BDD0F8C403FEF7C4
:1050880073BDD0F8C403FEF773BDD0F8C403FEF7B0
:1050980071BD10B51446D0F820021A462346FCF715
:1050A800D9F8002010BD08B5D0F82002FCF752F955
:1050B800002008BD08B5D0F82002FCF778F90020D8
:1050C80008BD11F0800FD0F820324FF01C0206D036
:1050D80001F07F0102FB013393F83A00704702FBAD
:1050E800013191F8DE01704708B5D0F82002FCF7CD
:1050F8009FF8002008BD08B5D0F82002FCF701F998
:10510800002008BD08B5D0F82002FCF7D0F8002030
:1051180008BD000070B50F4E0F4D761BB61007D0B6
:10512800043D0024013455F8043F9847A642F9D1BC
:105138000A4E0B4D761B00F0FBF8B61008D0043D64
:105148000024013455F8043F9847A642F9D170BDB0
:1051580070BD00BFD0530008D0530008D8530008D2
:10516800D0530008F0B4840743D0541E002A3ED020
:10517800CDB2034603E0621E002C38D0144603F873
:10518800015B9A07F7D1032C2AD9CDB245EA052548
:105198000F2C45EA054515D9A4F110073F0903F17D
:1051A800100606EB07161A46156055609560D5601F
:1051B8001032B242F8D104F00F040137032C03EB8C
:1051C80007130DD91E462246043A032A46F8045B03
:1051D800FAD8221F22F003020432134404F0030415
:1051E8002CB1C9B21C4403F8011BA342FBD1F0BC8B
:1051F800704714460346C6E710B40C4B0C481C68AD
:105208000C4BD4F8A820D4F8AC1000FB02F003FB38
:105218000101A2FB032301320B4443F10003C4E95B
:105228002A2323F000405DF8044B70473004002027
:105238002DF451582D7F954C024B13B1024800F0C4
:1052480005B87047000000006152000801460020C0
:105258000246034600F018B838B5094D094C641BDE
:10526800A41018BF05EB840505D0013C55F8043D92
:105278009847002CF9D1BDE8384000F05FB800BF6E
:10528800D8530008DC530008F0B5274C2668D6F838
:10529800484185B00746002C41D065681F2D1EDDAA
:1052A800224818B94FF0FF3005B0F0BD4FF4C87070
:1052B800039102920193AFF300800399029A019B34
:1052C80004460028EED0D6F84851256000206060DA
:1052D8000546C6F84841C4F88801C4F88C013FB9AE
:1052E800AB1C00200135656044F8231005B0F0BD03
:1052F80004EB85004FF0010CC0F88820D4F88861D1
:105308000CFA05F21643022FC4F88861C0F8083178
:10531800E6D1D4F88C311A43C4F88C21E0E706F5BD
:10532800A674C6F84841B8E7C0530008000000005A
:10533800F8B500BFF8BC08BC9E467047F8B500BF7A
:08534800F8BC08BC9E4670474A
:105350000000000000000000010203040607080925
:10536000A0860100400D0300801A060000350C00E5
:1053700040420F0080841E0000093D0000127A00A8
:105380000024F40000366E010048E801006CDC02E5
:10539000000000000102030400101010041010109F
:1053A0000210101008010402080104020800101085
:1053B000100410101002101010080000430000002C
:0853C0000800002000000000BD
:0853C800A4AEFF7F010000000C
:0853D00041520008AD01000884
:0853D80089010008000000003B
:1053E00000093D000000000000000000F402002061
:1053F0005C030020C4030020000000000000000047
:10540000000000000000000000000000000000009C
:10541000000000000000000000000000BC53000875
:10542000000000000000000000000000000000007C
:10543000000000000000000000000000000000006C
:10544000000000000000000000000000000000005C
:10545000000000000000000000000000000000004C
:10546000000000000000000000000000000000003C
:10547000000000000000000000000000000000002C
:10548000000000000000000000000000000000001C
:1054900001000000000000000E33CDAB34126DE6B9
:1054A000ECDE05000B000000000000000000000022
:1054B00000000000000000000000000000000000EC
:1054C00000000000000000000000000000000000DC
:1054D00000000000000000000000000000000000CC
:1054E00000000000000000000000000000000000BC
:08581000080000200000000068
:04000005080007895F
:00000001FF
