:020000040800F2
:10000000D0050020D5000008DD000008DF00000852
:1000100000000000000000000000000000000000E0
:10002000000000000000000000000000E1000008E7
:10003000E300000800000000E5000008312200088D
:10004000E9000008E9000008E9000008E9000008EC
:10005000E9000008E9060008E9000008F3060008C6
:10006000E9000008E9000008E9000008E9000008CC
:10007000E9000008E900000800000000E9000008AD
:1000800000000000E900000800000000000000007F
:10009000E900000800000000E9000008E90000088D
:1000A000E9000008E9000008E9000008E90000088C
:1000B000E9000008E9000008E9000008E90000087C
:1000C0000348854600F060F8004800478D47000867
:1000D000D00500200548804705480047FEE7FEE7B9
:1000E000FEE7FEE7FEE7FEE7FEE70000C5220008A8
:1000F000C100000830B50B46014600202022012433
:1001000009E00D46D5409D4205D31D469540491B4B
:100110002546954040191546521E002DF1DC30BD94
:1001200070B500242546002801DA01244042002948
:1001300001DA01254942FFF7DDFFAC4200D0404221
:10014000002C00D0494270BD03460B439B0703D0EF
:1001500009E008C9121F08C0042AFAD203E00B788C
:100160000370401C491C521EF9D2704710B504465A
:1001700005E00B780370401C002B00D0491C521E78
:10018000F7D2204610BD0000064C0125064E05E0C2
:10019000E36807CC2B430C3C98471034B442F7D3A8
:1001A000FFF792FF204C0008404C000870B58C18F7
:1001B0000578401C6B075B0F01D10378401C2A11A6
:1001C00006D10278401C03E006780E70401C491CE2
:1001D0005B1EF9D12B0705D40023521E0DD40B70E2
:1001E000491CFAE70378401CCB1A921C03E01D78E7
:1001F0000D70491C5B1C521EF9D5A142D8D30020BA
:1002000070BD000000B50246104602F00BF8042055
:100210000149487000BD00002800002010B50DA065
:1002200000F06CF80121522002F075FD0023C82275
:100230001946522002F0C4FC0221522002F01EFB9B
:100240000021522002F067FD0121522002F0DEF968
:1002500010BD0000412D68690000000010B50620A7
:10026000134948701348006813490860322452202B
:1002700002F0B0FA3F21522002F05CFC0321522030
:1002800002F0ECFE2146522002F02AFC0122082155
:10029000522002F050FD00F013F903F009F8072195
:1002A000522002F0B3F90321522002F074FC10BD79
:1002B000280000200C0000203000002010B50DA008
:1002C00000F01CF80121522002F025FD00231A46FF
:1002D000C821522002F074FC0121522002F0CEFA13
:1002E0000021522002F017FD0121522002F08EF968
:1002F00010BD0000412D4C6F0000000010B50446F9
:10030000204601F08FFF084800680849086000BFD8
:1003100000F080F90448006804490968401A19216E
:1003200049018842F4D310BD0C00002030000020A9
:1003300038B549480068002836D06946522002F096
:10034000B0FA0446002C03D044A0FFF75BFF81E025
:1003500000984007400F012806D0022808D0032843
:100360000AD0042810D10BE03EA001F05BFF0BE0A7
:100370003EA001F057FF07E03EA001F053FF03E06D
:100380003EA001F04FFF00BF00BF0121522002F04C
:100390003DF90020304908603A4800683A49086051
:1003A00001203A49487113E0002536480068364973
:1003B0000968401A3649884209D9002D03D0012125
:1003C000522002F023F92F4800682F49086000BF2F
:1003D0002E48407900280AD02A4800682A4909682E
:1003E000401AFA2819D900202849487115E02748F1
:1003F0000079002804D0012806D002280CD107E09B
:1004000024A001F00FFF07E023A001F00BFF03E0A1
:1004100022A001F007FF00BF00BF00F0FBF800F0D2
:10042000EDF8002815D101F09BFD0446002C05D005
:1004300000F036F80720154948700AE01349097999
:10044000481C0321FFF76CFEC8B21049087100F088
:1004500037F800BF38BD000000000020416C20319B
:10046000000000004C2D2D2D00000000482D2D2DEA
:10047000000000004F2D2D2D000000006E2D2D2DB1
:10048000000000000C0000203000002028000020A8
:10049000881300004C000000480000004F000000DE
:1004A00010B50321522002F076FB642002F0A8FE72
:1004B0000721522002F0AAF802F0AEFE10BD0000A3
:1004C00010B5104908790321FFF72AFEC8B20D497B
:1004D000087108460079002804D0012805D00228B8
:1004E00009D105E0FFF7EAFE05E0FFF797FE02E01D
:1004F00000F00AF800BF00BF0121522002F086F888
:1005000010BD00002800002010B50DA0FFF7F6FE7A
:100510000121522002F0FFFB0023C8226421522057
:1005200002F04EFB0321522002F0A8F900215220D4
:1005300002F0F1FB0121522002F068F810BD00002A
:10054000412D306F00000000F8B51F49522001F026
:10055000AFFF0446002C03D01CA001F063FE31E085
:10056000194800681B49884204D91BA11C4803F0A4
:1005700021FB24E0144800681A49884219D912491D
:1005800008687D21C900FFF7B5FD0F460A213846EE
:10059000FFF7C6FD05460C4908687D21C900FFF735
:1005A000BFFD06462B4632460FA10D4803F002FB65
:1005B00005E005480FA10268094803F0FBFA084866
:1005C00001F030FEF8BD00003400002045722034F8
:1005D000000000000F2700004C2D2D2D2D000000E5
:1005E0009A010020E70300004C25642E2530326478
:1005F000000000006C2533640000000010B50121EC
:100600004903034800F08AF90446204610BD000063
:100610000008005010B50C48006800280AD00922D4
:10062000094801680948FFF7A1FD00200749487201
:10063000054908600121054802F00CFE04480068E5
:10064000401C0349086010BD0400002090010020F8
:100650000800002010B50446174800788007C00F36
:1006600000280DD0144800784007C00F002803D0A0
:1006700012A001F0D7FD17E012A001F0D3FD13E0A6
:100680000D4800784007C00F002805D022460FA172
:10069000104803F08FFA04E022460FA10D4803F042
:1006A00089FA0C4801F0BEFD0320034948700C484C
:1006B00000680C49086010BD2800002053662041E6
:1006C0000000000053632041000000005366202515
:1006D000640000009A01002053632025640000009C
:1006E0000C0000203000002010B5012000F010F8B0
:1006F00010BD10B5402000F00BF810BD10B5FFF78D
:10070000ADFD10BD10B50446204602F0B7FD10BD8A
:1007100010B50446054840692040002804D003482D
:1007200044612046FFF7EEFF10BD000000040140C9
:1007300070B50346002200240020DAE0012696402E
:100740000D6835402C46002C77D04D68022D02D024
:100750004D68122D15D1D508AE001D462035A8597B
:100760005507EE0E0F25B5400646AE4330465607F8
:10077000F60E0D69B5402843D508AD001E4620365B
:1007800070514D68012D08D04D68022D05D04D687F
:10079000112D02D04D68122D18D1986856000325EE
:1007A000B5400646AE4330465600CD68B5402843B6
:1007B00098605868012595400646AE43304610269D
:1007C0004D6835402D0995402843586018685600FB
:1007D0000325B5400646AE4330460D79AD07AD0F53
:1007E0005600B54028431860D86856000325B54028
:1007F0000646AE43304656008D68B5402843D86063
:10080000012636074D683540B54271D13C4D6D6BC0
:10081000012635433A4E75633A4D9608B600A859FD
:1008200095072E0F0F25B5400646AE4330460525E9
:100830002D07AB4202D1002515E059E0324DAB4205
:1008400001D101250FE0314DAB4201D102250AE073
:100850002F4DAB4201D1032505E02E4DAB4201D116
:10086000052500E006259607360FB5402843254D9F
:100870009608B600A851284D28680546A543284685
:10088000012636044D683540B54202D10546254360
:100890002846214D286068680546A543284601265C
:1008A00076044D683540B54202D1054625432846B9
:1008B000194D6860A8680546A543284601263605F7
:1008C0004D683540B54202D1054625432846124DB4
:1008D000A860E8680546A5432846012676054D68C8
:1008E0003540B54202D10546254328460A4DE86009
:1008F000521C0D68D540002D00D01FE770BD0000D0
:1009000000100240080001400004005000080050A0
:10091000000C0050001C0050000401400246136906
:100920000B40002B01D0012000E000207047002A7E
:1009300001D0816100E081627047000001480068D9
:10094000704700004C01002002463520805C0228E0
:100950000FD03520805C12280BD03520805C2228F7
:1009600007D03520805C322803D03520805C4228B7
:1009700001D10220704700BF3420805C012801D1E2
:100980000220F7E701233420835400BF02233520DF
:1009900083541068006840084000136818601068AD
:1009A000006801231B0398431368186010680068EF
:1009B000084313681860106800680123184313681F
:1009C000186001233520835400BF00233420835452
:1009D00000BF0020CEE7000010B50446002C01D176
:1009E000012010BD3520005D002805D100213420F4
:1009F0000155204600F0A0F902213520015520685C
:100A0000006840084000216808600F2109066068FE
:100A1000884321680861206880680121C9038843F0
:100A200021688860A06800280FD0E068012806D1FE
:100A30000121C903A06808432168886005E02121DD
:100A40008902A068084321688860E068022802D112
:100A5000800221684860206840680F490843216887
:100A60004860616920690843A16909020843216857
:100A7000C860216AE069084321680860206800684E
:100A800001210843216808600020A063012135206E
:100A900001550020A5E7000000800002FFB581B0ED
:100AA000044616461D4600273520005D01287DD1ED
:100AB000002E01D0002D02D1012005B0F0BD20682C
:100AC00080690121C9030840C00B002801D0022021
:100AD000F3E700BF3420005D012801D10220ECE7DC
:100AE00001213420015500BF22213520015500206D
:100AF000A063FF2D0BDD0920800201231B06FF22CE
:100B000000902046029901F05DF8FF270AE00920D5
:100B10008002EAB201235B0600902046029901F0B0
:100B200051F82F4600BF0022042120460A9B01F005
:100B300061F8002801D00320BFE72068406A3070C8
:100B4000761C7F1E681E85B2002F22D1002D20D07A
:100B50000022802120460A9B01F04CF8002801D099
:100B60000320AAE7FF2D0ADD002001231B06FF2238
:100B700000902046029901F025F8FF2709E00020A7
:100B8000EAB201235B0600902046029901F01AF8B0
:100B90002F46002DC7DC1921204601F080F80028DF
:100BA00007D0A06B042802D1012086E714E00320BF
:100BB00083E720202168C861206840680749084011
:100BC0002168486001213520015500BF00213420F3
:100BD000015500BF002070E702206EE700E800FE2C
:100BE000FFB583B0044616461D460C9F00200290B8
:100BF0003520005D01287DD1002E01D0002D02D1CD
:100C0000012007B0F0BD206880690121C9030840B8
:100C1000C00B002801D00220F3E700BF3420005DA4
:100C2000012801D10220ECE701213420015500BF49
:100C30001221352001550020A063FF2D0BDD01207E
:100C40004003C302FF2200902046049900F0BAFF3F
:100C5000FF20029009E001204003EAB20303009064
:100C60002046049900F0AEFF029500BF39462046A9
:100C700001F043F8002806D0A06B042801D1012020
:100C8000BFE70320BDE7307821688862761C0298B0
:100C9000401E0290681E85B20298002823D1002DC4
:100CA00021D03B4600228021204600F0A3FF0028EF
:100CB00001D00320A5E7FF2D0BDD002001231B063B
:100CC000FF2200902046049900F07CFFFF20029054
:100CD00009E00020EAB201235B0600902046049957
:100CE00000F070FF0295002DC0DC3946204600F070
:100CF000D6FF00E01BE0002806D0A06B042801D13D
:100D000001207EE703207CE720202168C86120685D
:100D10004068084908402168486001213520015594
:100D200000BF00213420015500BF002069E70220E8
:100D300067E7000000E800FE10B586B004460E49E3
:100D40002068884215D103200002019012200290F1
:100D500001200390002004900420059001A9074879
:100D6000FFF7E6FC0648806B01214905084304496A
:100D7000886306B010BD000000540040000400501D
:100D80000010024002480068401C0149086070479A
:100D90004C01002010B50648006802218843044930
:100DA0000860032000F006F800F017F8002010BDDE
:100DB0000020024070B5044600F0B2FA06467D21DC
:100DC000C900FFF797F9054600F07CFE0022214696
:100DD000501E00F021F8002070BD10B50022114611
:100DE000501E00F019F810BD00BFC206D20E01213E
:100DF0009140024A116000BF7047000080E100E0AE
:100E000000BFC206D20E01219140024A116000BF0C
:100E10007047000000E100E070B504460D4616463C
:100E20002946204601F058F870BD000070B5044610
:100E300000260025202120680840202804D08901B0
:100E400020680840884275D17448806B01210907E9
:100E500008437249886372480068891508437049DD
:100E60000860FFF76BFD064606E0FFF767FD801B95
:100E7000642801D9032070BD69480068FF21013151
:100E800008400028F1D0654840300069032109047A
:100E900008400322120461691140884204D11146BE
:100EA000A0690840A84259D05C484030006903213D
:100EB0000904884305465948403000690121C904A6
:100EC0000843564940310861084600690121C904B8
:100ED0008843524940310861084605614015284061
:100EE000002814D0FFF72AFD064607E0FFF726FD8D
:100EF000801B4C49884201D90320BCE74748403059
:100F00000069012149020840400A0028EED000BFD4
:100F1000032109046069084088420CD13F480068F9
:100F200009018843032212046169914308433B4944
:100F3000086007E012E0394800680321090588438A
:100F40003649086035484030006903210904884368
:100F50006169084331494031086100BF2078C0070A
:100F6000C00F002809D02D484030C068800880009C
:100F70006168084329494031C8600221206808405F
:100F8000022809D125484030C0680C218843A16857
:100F9000084322494031C8600421206808400428E1
:100FA0000AD11E484030C068032189028843E168A5
:100FB00008431A494031C8600821206808400828C1
:100FC0000AD116484030C0680321090388432169CB
:100FD000084312494031C860402120680840402839
:100FE00009D10E484030C06809058843E1690843CB
:100FF0000A494031C86080212068084080280AD111
:1010000006484030C068032189048843216A0843A8
:1010100002494031C86000202DE700000010024066
:10102000007000408813000070B504460E4600258D
:10103000B8480068C007C00FB0426ED2B54800681B
:10104000400840003043B349086008460068C007C4
:10105000C00FB04201D0012070BD022120680840BD
:10106000022807D1AC48C068F0218843A168084332
:10107000A949C8602078C007C00F00284CD060681C
:10108000022809D1A4480068012149040840400C05
:10109000002824D10120DFE76068002809D19E489C
:1010A0000068012149020840400A002817D10120A8
:1010B000D2E76068032809D19748006801214906F2
:1010C0000840400E00280AD10120C5E79248006878
:1010D000042108408008002801D10120BCE78E4887
:1010E000C06880088000616808438B49C860FFF7CA
:1010F00025FC05466068022810D107E0FFF71EFCBA
:10110000401B8649884201D90320A5E78248C06870
:101110000C2108400828F1D1DAE035E060680328A6
:101120000FD107E0FFF70AFC401B7C49884201D938
:10113000032091E77848C0680C2108400C28F1D1C1
:10114000C6E0606800280FD107E0FFF7F7FB401BFF
:101150007249884201D903207EE76F48C0680C219C
:1011600008400028F1D1B3E007E0FFF7E7FB401BA0
:101170006A49884201D903206EE76748C0680C219C
:1011800008400428F1D1A3E0022120680840022889
:1011900007D16148C068F0218843A16808435E49CF
:1011A000C8602078C007C00F00284CD060680228B3
:1011B00009D159480068012149040840400C002821
:1011C00024D1012048E76068002809D1524800680E
:1011D000012149020840400A002817D101203BE7BD
:1011E0006068032809D14C4800680121490608407D
:1011F000400E00280AD101202EE74748006804214C
:1012000008408008002801D1012025E74248C06835
:1012100080088000616808433F49C860FFF78EFB83
:101220000546606802280FD107E0FFF787FB401BE7
:101230003A49884201D903200EE73748C0680C219B
:1012400008400828F1D134E0606803280FD107E096
:10125000FFF774FB401B3149884201D90320FBE6AC
:101260002D48C0680C2108400C28F1D121E06068AD
:1012700000280FD107E0FFF761FB401B2749884298
:1012800001D90320E8E62448C0680C210840002862
:10129000F1D10EE007E0FFF751FB401B1F498842E8
:1012A00001D90320D8E61C48C0680C210840042856
:1012B000F1D11848006840084000304315490860E3
:1012C00008460068C007C00FB04201D00120C3E645
:1012D000042120680840042808D10F48C06807216D
:1012E00009028843E16808430B49C8600821206867
:1012F0000840082809D10848C0680721C902884366
:101300002169C90008430449C8600320FFF752FD62
:101310000020A1E6002002400010024088130000D7
:1013200010B500F013F80649C968F0221140090908
:10133000044A515CC840044908600846006810BD72
:1013400000100240A94A000850010020F8B500240E
:101350000026002000900027002532484068072121
:1013600049030840470B2F48C0680C21084000285B
:1013700006D0042809D0082811D00C2849D110E043
:10138000781C01218140CD0348E0264800681021E7
:101390000840002801D0244D00E0244D3EE0244DBB
:1013A0003CE02048C0680F218904084004461D48DD
:1013B000C0680321890508400646A00C1D490C5C45
:1013C000B00D461C1748C068012109040840009070
:1013D0000098002815D11348006810210840002803
:1013E00007D01149614308463146FEF783FE0546A2
:1013F0000EE00E49614308463146FEF77BFE054686
:1014000006E00B49614308463146FEF773FE054688
:1014100004E0781C01218140CD0300BF00BF2846B5
:10142000F8BD00000010024000093D000024F40057
:1014300000127A00A04A0008F8B50446002520787A
:10144000C007C00F00286BD0F748C0680C210840C7
:1014500008280BD0F448C06808400C2813D1F24883
:10146000C06801210904084088420CD1EE48006898
:10147000012149040840400C002866D0606800281B
:1014800063D10120F8BD00BF0121090460688842D2
:1014900005D1E54800680843E349086028E00521D4
:1014A00009046068884215D1DF48006801210904F9
:1014B0008843DD4908600846006801218904084323
:1014C000D949086008460068012109040843D64943
:1014D00008600DE0D4480068012109048843D2491E
:1014E000086008460068012189048843CE490860E5
:1014F00000BF6068002814D0FFF720FA054607E017
:10150000FFF71CFA401BC949884201D90320B9E7FB
:10151000C5480068012149040840400C0028EFD06C
:1015200013E0FFF70BFA054607E0FFF707FA401B49
:10153000BE49884201D90320A4E7BB4800680121C5
:1015400049040840400C0028EFD1022120680840DF
:1015500002286AD1B448C0680C21084004280BD086
:10156000B148C06808400C281DD1AF48C0680121AF
:1015700009040840002816D1AB480068042108403F
:101580008008002804D0E068012801D0012079E714
:10159000A54840681F2109028843216909020843C0
:1015A000A149486041E0E068002824D09E480068D6
:1015B00009218843E16808439B490860FFF7BEF9A9
:1015C000054606E0FFF7BAF9401B642801D903205D
:1015D00058E7954800680421084080080028F1D0A9
:1015E000914840681F210902884321690902084384
:1015F0008D49486019E08C48006809218843E168FA
:10160000084389490860FFF799F9054606E0FFF7A6
:1016100095F9401B642801D9032033E7824800680C
:101620000421084080080028F1D1102120680840DA
:10163000102872D17C48C0680C210840002822D1B3
:1016400079480068012149020840400A002804D076
:10165000E069002801D1012014E7734840680721A0
:1016600049038843616A08436F49486008464068F7
:101670000002000A218C090608436B4948600320D8
:10168000FFF798FB49E0E06900282CD06648006825
:10169000FF210131084364490860FFF74FF905460F
:1016A00006E0FFF74BF9401B642801D90320E9E667
:1016B0005D480068012149020840400A0028F0D036
:1016C00059484068072149038843616A08435649DD
:1016D0004860084640680002000A218C0906084359
:1016E0005149486019E050480068FF2101318843A2
:1016F0004D490860FFF722F9054606E0FFF71EF99D
:10170000401B642801D90320BCE64748006801213A
:1017100049020840400A0028F0D10821206808400A
:10172000082839D1606900281BD03F484030006943
:10173000012108433C4940310861FFF7FFF80546A5
:1017400006E0FFF7FBF8401B642801D9032099E667
:101750003548403000690221084040080028F0D098
:101760001AE0314840300069400840002E494031BD
:101770000861FFF7E3F8054606E0FFF7DFF8401BD6
:10178000642801D903207DE6274840300069022102
:10179000084040080028F0D1202120680840202877
:1017A00051D1A069002826D000BF1F4880680121C0
:1017B00008431D4988600846406B012108431A49C7
:1017C00048631B48006A491408431949086200BF6E
:1017D000FFF7B4F8054606E0FFF7B0F8401B6428B1
:1017E00001D903204EE610488068022108404008D5
:1017F0000028F1D027E000BF0B4880684008400077
:10180000094988600A48006A0A490840084908628C
:1018100000BFFFF793F805460EE0FFF78FF8401B77
:10182000642809D903202DE6001002408813000027
:1018300000000140FEDFFFFF9B4880680221084056
:1018400040080028E9D104212068084004287DD1FF
:10185000002600279448806B89060840002805D19F
:101860009148806B08439049886301268F4800683F
:10187000FF2101310840002817D18C480068084337
:101880008A4908600127FFF759F8054606E0FFF787
:1018900055F8401B642801D90320F3E5834800680C
:1018A000FF21013108400028F1D000BFFF210131A4
:1018B000A068884207D17C484030006908437A49D3
:1018C0004031086140E0A068002810D176484030DF
:1018D0000069FF210131884373494031086108469E
:1018E0000069091588437049403108612CE00521E1
:1018F0000902A068884217D16B4840300069FF2177
:10190000013188436849403108610846006909157A
:101910000843654940310861084600698915084354
:101920006149403108610FE05F4840300069FF21A4
:10193000013188435C494031086108460069091556
:10194000884359494031086100BF00E03EE0A0688B
:10195000002815D0FEF7F2FF054607E0FEF7EEFF80
:10196000401B5349884201D903208BE54E48403043
:101970000069012149020840400A0028EED014E025
:10198000FEF7DCFF054607E0FEF7D8FF401B48499D
:10199000884201D9032075E54348403000690121A0
:1019A00049020840400A0028EED1012F05D13F48E6
:1019B0000068390288433D490860012E05D13A4844
:1019C000806B310788433849886300BFA06A0028CC
:1019D00067D03548C0680C2108400C285FD0A06A49
:1019E000022841D1304800680121090688432E4968
:1019F0000860FEF7A3FF054606E0FEF79FFF401BC9
:101A0000642801D903203DE52748006801214906E3
:101A10000840400E0028F0D1616B206B0843E16A5A
:101A200008432149C968FD221204914308431E4915
:101A3000C860084600680121090608431A49086081
:101A4000FEF77CFF054606E0FEF778FF401B6428A2
:101A500001D9032016E51448006801214906084011
:101A6000400E0028F0D01CE00F4800680121090654
:101A700088430D490860FEF761FF054606E0FEF762
:101A80005DFF401B642801D90320FBE40648006881
:101A9000012149060840400E0028F0D101E0012054
:101AA000F0E40020EEE4000000100240007000406E
:101AB0008813000002480068401C01490860704714
:101AC0000C00002070B504462546681E094988426E
:101AD00001D901200CE0681E074948610321081F55
:101AE00000F0FAF90020044988610720086100200D
:101AF00070BD0000FFFFFF0000E000E010B5FFF741
:101B0000D9FF10BD70B504460D460026FEF716FF3E
:101B100006462068806910210840000900284CD042
:101B20003520005D122807D03520005D522803D0F3
:101B30003520005D62280CD12068406801214906EB
:101B40000840884205D020684068C91208432168CF
:101B5000486013E0681C002810D0002D04D0FEF768
:101B6000EDFE801BA84209D901213520015500BF97
:101B700000213420015500BF032070BD206880691A
:101B80002021084040090028E4D010202168C861C5
:101B900020202168C8612068406809490840216800
:101BA00048600420A06301213520015500BF0021B9
:101BB0003420015500BF0120DFE70020DDE70000F1
:101BC00000E800FEF0B50C46002105686968084D84
:101BD0002940A505AD0D1604FF273F043E403543BF
:101BE0001D43059E3543294305686960F0BD00002B
:101BF000009800FCFFB581B004460E461D46FEF776
:101C00009DFE07460398002824D114E0681C002894
:101C100011D0002D04D0FEF791FEC01BA8420AD9B6
:101C200001213520015500BF00213420015500BF9E
:101C3000032005B0F0BD20688069F103C90B08409E
:101C4000F103C90B884201D1012000E000200028E7
:101C5000DCD022E013E0681C002810D0002D04D056
:101C6000FEF76CFEC01BA84209D9012135200155A1
:101C700000BF00213420015500BF0320D9E72068B0
:101C80008069F103C90B0840F103C90B884201D1F7
:101C9000012000E000200028DDD10020C9E770B558
:101CA00004460D460026FEF749FE06461CE029467E
:101CB0002046FFF727FF002801D0012070BD002D2E
:101CC00004D0FEF73BFE801BA8420DD9A06B20215B
:101CD0000843A06301213520015500BF00213420B5
:101CE000015500BF0320E9E72068806920210840F2
:101CF00040090028DBD00020E0E770B504460D461F
:101D0000FEF71CFE06461FE029462046FFF7FAFEB6
:101D1000002801D0012070BD681C002814D0002DBF
:101D200004D0FEF70BFE801BA8420DD9A06B20212A
:101D30000843A06301213520015500BF0021342054
:101D4000015500BF0320E6E72068806902210840B2
:101D500040080028D8D00020DDE710B564242146D3
:101D6000522000F0F7FB10BD00B587B000BF274838
:101D7000C06A042108432549C8620846C06A042194
:101D80000840019000BF00BF00BF2048C06A80210A
:101D900008431E49C8620846C06A80210840019075
:101DA00000BF00BF00BF1948C06A0121084317499E
:101DB000C8620846C06AC007C00F019000BF00BFDC
:101DC00000BF0846C06A022108431049C86208469D
:101DD000C06A02210840019000BF00BF08030290C2
:101DE00000200390049002A90948FEF7A1FC2020DE
:101DF00002900120039000200490059002A9052084
:101E00000007FEF795FC07B000BD0000001002407F
:101E10000008005010B50B480B49086000204860CE
:101E20000021094881600121C160002101614161F7
:101E30008161C1610162FEF7CFFD00210248FEF71A
:101E400083FD10BD0054004054010020C206D20E94
:101E500001219140014A11607047000080E200E0DA
:101E600010B5002819DA1A4A03071B0F083B9B0814
:101E70009B00D2588307DC0EFF23A3409A438B07B5
:101E80001B0E8407E40EA3401A43114B0407240FD2
:101E9000083CA408A4001A5118E00E4A03231B02B0
:101EA000D21883089B00D2588307DC0EFF23A3407F
:101EB0009A438B071B0E8407E40EA3401A43054B7D
:101EC000032424021B198408A4001A5110BD000029
:101ED0001CED00E000E100E010B5002819DA1A4A14
:101EE00003071B0F083B9B089B00D2588307DC0E9F
:101EF000FF23A3409A438B071B0E8407E40EA340E5
:101F00001A43114B0407240F083CA408A4001A51DB
:101F100018E00E4A03231B02D21883089B00D258F4
:101F20008307DC0EFF23A3409A438B071B0E840715
:101F3000E40EA3401A43054B032424021B19840812
:101F4000A4001A5110BD00001CED00E000E100E00B
:101F500002480068401C01490860704724000020C6
:101F600010B512480068124908600DE0FEF752FBF8
:101F70000E4800680E490968401A7D21C900884250
:101F800002D90CA000F04EF9FEF738FB0028EDD086
:101F90000648006806490968401A7D21C900884240
:101FA00001D9012010BD0020FCE700000C0000203A
:101FB000300000202072622000000000F8B552209E
:101FC00000F076FFC4B28649522000F0E9FC0546D5
:101FD000002D03D083A0FEF715F9F8BD522000F0C4
:101FE00045FB06465021714308466421FEF798F8E8
:101FF0007B49096888420CDC032C0ADA7B480078AC
:102000008007C00F002804D0601CC1B2522001F02C
:1020100025F8710170186421FEF782F8704909688B
:1020200088420CDD012C0ADD704800788007C00F63
:10203000002804D0601EC1B2522001F00FF8684899
:10204000806800283DD069480078C007C00F00288C
:1020500011D0674800686648006800BF644800689F
:1020600062480068400840006049086060480068B5
:10207000604908605EE0522000F0EAFA0746002F4F
:1020800007D057488068102803D15BA000F0CAF839
:1020900002E05BA000F0C6F85548006855490968A1
:1020A000401A1921490188420AD95048006840085D
:1020B0004000401C4D4908604D4800684D4908608B
:1020C00038E04A48006840084000484908604848ED
:1020D000006848490860424800684B490968012285
:1020E0001204511A484349490988474A1268514322
:1020F0004018000C454908800846028844A146481B
:1021000001F058FD394800788007C00F00280ED034
:10211000012C03D15F204049087008E0022C03D154
:102120003D203D49087002E07E203B4908703A4856
:1021300000F078F8FEF762FA00284FD12C480068CA
:102140002C490860FFF70CFF0546002D02D0FEF772
:10215000D5FA42E725488078401C40B22349887070
:1021600002200856C117890F091889108900411AE1
:10217000032908D11D48006802218843801C1B499F
:102180000860032412E019480068022188431749B7
:102190000860022008560321FDF7C2FF1348C078EB
:1021A0000818C4B2032C01DDE01EC4B2214652203F
:1021B00000F054FF0546002D06DA18A0FEF722F8BD
:1021C00002200A49487009E0084800784007C10F1A
:1021D000522000F043FA2046FEF73CFA00BFFCE62E
:1021E000A401002045722072000000002800002099
:1021F0000C00002030000020462D2D2D0000000096
:10220000722D2D2D000000003C0000204000002019
:1022100072253364000000009A0100204572557059
:102220000000000001490860704700000400002021
:1022300010B5FEF7A7FDFFF761FC10BD00B59DB01E
:102240001E48806B0121090708431C4988631C480C
:1022500000680321C90288430121C90240181849B6
:10226000086002200F90012012901020139002208D
:10227000199000211A9141041B9141051C910FA84E
:10228000FFF7DAF801200A9003200B9000200C9051
:102290000D900E9001210AA8FEF7C6FE08200190BD
:1022A0000020059001A8FEF7C1FD0448406B012104
:1022B0000843024948631DB000BD00000010024001
:1022C0000070004015480068FF21013108431349A0
:1022D00008600846C068124908401049C8600846AE
:1022E0000068104908400D490860084680684008A9
:1022F0004000886008460068012189048843074936
:1023000008600846C068FD21090488430349C86085
:1023100000200861C803044988607047001002402B
:102320000C40FF88F6FFF6FE00ED00E0FEB5064625
:102330000F461546F0B2019000BF642000900F4890
:10234000008881B2012301AA0D480068FEF748FC0D
:102350000446002C00D00EE0284664214843ABB26E
:1023600000900648008881B23A4605480068FEF7AA
:1023700095FB044600BF00BF2046FEBD380100208B
:1023800030010020F0B585B004460E46154669467A
:102390000C712A46314601A80130FDF7D5FE6420B4
:1023A0000090681C83B20648008881B201AA0548E3
:1023B0000068FEF715FC0746384605B0F0BD000082
:1023C000380100203001002070B506460C46042C70
:1023D00008DCE006030EC7221421304600F042FD5F
:1023E000054603E0FFF7B4FD0125ED43284670BD27
:1023F000F8B505460C466A464F21284600F028FCF1
:102400000646684600788006400F20703046F8BDCA
:10241000F3B585B00C4600260720C002009004AA40
:102420005021059800F057FC0546002D22D1134895
:10243000408A03901148C78A0398401C039068465D
:10244000008A0721C9024843064630460399FDF732
:1024500051FE06460948808A0290029840000849C9
:10246000085A01900198784301463046FDF742FE34
:1024700006462660284607B0F0BD00009800002000
:1024800090490008F8B506460C4621463046FFF74D
:10249000BFFF0546002D09D16A464E21304600F0A7
:1024A000D7FB054668460078001160602846F8BDF5
:1024B000F8B506460F460121304600F083F8044681
:1024C000002C02D0FFF744FD25E00EE069463046BF
:1024D000FFF78EFF0446002C00D007E06846007826
:1024E000042800D102E0FEF795F8EFE700BF002CCA
:1024F00004D139463046FFF7C5FF04460221304675
:1025000000F084F80546002D04D0FFF721FD002CD3
:1025100000D12C4600BF2046F8BD0000F8B50746A4
:102520000C464021204688430446072C00DD072442
:1025300040202646064332463F21384600F023FE1F
:102540000546002D01D1024884822846F8BD0000CE
:1025500098000020F8B507460D46012D02DB681EE5
:1025600084B200E02C46FF20D130844201DD0446D5
:1025700003E0FF2C01D1601C84B222464021384682
:1025800000F02BFE0646002E01D102484482304660
:10259000F8BD000098000020F8B506460C46084833
:1025A000844200DB04460A212046FDF7B9FDC7B28C
:1025B0003A463E21304600F0E6FD05462846F8BD85
:1025C000F609000070B506460C46032C06DC2246D0
:1025D0003821304600F0D7FD054601E00125ED43E6
:1025E000284670BDF8B506460C46174622463C21E3
:1025F000304600F0C8FD0546002D05D13A463A2187
:10260000304600F0C0FD05462846F8BD70B50646C8
:102610000C46072C06DC22461521304600F0B3FD9F
:10262000054601E00125ED43284670BD70B506461C
:102630000C4606480474002C04D0304600F01AFF03
:10264000054600E00025284670BD00001801002066
:102650000146014A507E70479800002010B502469E
:10266000014C6176002010BD9800002010B5024694
:10267000034B197E4B1E5B00024CE05A10BD00005C
:10268000980000208A490008F8B504460D46164611
:10269000642033462A46214600900548FEF7FEF99D
:1026A0000746002F02D0024800F03AFE3846F8BD37
:1026B00054010020F8B504460D4616466420334602
:1026C0002A46214600900548FEF78AFA0746002F61
:1026D00002D0024800F024FE3846F8BD5401002024
:1026E000F0B585B0074655203849088164204881F7
:1026F000002136480174012034490876642048825C
:1027000001208882C88248760121304880300174D7
:10271000384600F049FF00BF03AA2421384600F0E4
:1027200097FA0446002C02D0FFF712FC49E06846F5
:102730000C21415625488030417401AA2621384693
:1027400000F0A3FA0446002C02D0FFF701FC38E0A9
:102750000198000C0004002801D11D4801901B497C
:10276000019808606A461E21384600F0B4FA044613
:10277000002C02D0FFF7ECFB23E0684600887D21A7
:10278000C9004843C60911484660384600F072FE49
:102790000546002D02DAFFF7DBFB12E002AA162144
:1027A000384600F055FA0446002C02D0FFF7D0FB63
:1027B00007E06846007A012801D1002D00D00124ED
:1027C00000BF00BF204605B0F0BD0000980000200B
:1027D000F803CE0070B5054600BF284600F000FBA8
:1027E0000446002C00DA46E00421284600F046F8B2
:1027F0000446002C00D03EE0C8220A21284600F002
:10280000B6F90446002C02D0FFF7A2FB33E06421A6
:102810002846FFF79FFE0446002C00D02BE0C8217D
:102820002846FFF7B9FE0446002C00D023E0002123
:102830002846FFF773FE0446002C00D01BE0FF2261
:1028400000212846FFF7CEFE0446002C00D012E0FF
:1028500004212846FFF7B8FD0446002C02D0FFF7FC
:1028600077FB08E0284601F00FFA07212846FFF71A
:10287000CDFE044600BF00BF204670BD70B50646C1
:102880000C46042C07DC2346F8221421304600F0C5
:10289000E9FA054603E0FFF75BFB0125ED43284617
:1028A00070BDF8B505460C466A464F21284600F033
:1028B000CFF9064668460078C721084020703046A8
:1028C000F8BD00007CB506460C460025002D02D060
:1028D000FFF73EFB4AE02146304600F04BF8054644
:1028E000002D40D101AA6621304600F0F4F90546DA
:1028F000002D35D16846808860606A464D2130469B
:1029000000F0A6F90546002D04D1684600780011B4
:10291000A06001E0FFF71CFB2146304600F0C0FE3E
:102920000546002D00D021E01148407E00280DD042
:102930002146304601F070F90546002D06D1606A47
:10294000002803D0606AA060208C20600848803096
:10295000007C002809D02146304600F061FD04E0EB
:10296000FFF7F6FA01E0FFF7F3FA00BF28467CBD57
:1029700098000020F8B507460C466A4662213846A2
:1029800000F066F90546002D05D10448067E68462C
:102990000078704320602846F8BD000098000020B1
:1029A000F8B506460F460121304600F0F4F804461B
:1029B000002C02D0FFF7CCFA2BE014E06946304639
:1029C000FFF76FFF0446002C00D00DE00098400791
:1029D000400F042804D000980006800F002800D083
:1029E00002E0FDF717FEE9E700BF002C04D13946ED
:1029F0003046FFF767FF044601213046FFF706FE29
:102A00000546002D04D0FFF7A3FA002C00D12C4678
:102A100000BF2046F8BD0000F1B588B07D20C000A1
:102A2000079040100690244800890590224840896C
:102A3000049000BF02AA1C21089800F009F904467E
:102A4000002C02D0FFF784FA32E06846007A019049
:102A5000089800F0E9FD0546002D02DA0024E44361
:102A600026E07D21C90001984843461B03AAB821EE
:102A7000089800F00AF90446002C02D0FFF768FA23
:102A800016E0039800020390049A72431146FF2354
:102A9000F533059A5A43039B5A431046FDF72AFB28
:102AA0000746BAB22221089800F097FB044600BFFF
:102AB00000BF204609B0F0BD98000020F8B50746D9
:102AC0000D46002D01D0012400E000242346FE2203
:102AD0002D21384600F0C6F906463046F8BD000004
:102AE000F8B507460C4600BF1148844202D90125BB
:102AF000ED431AE00A2C00D20A240A212046FDF7F1
:102B0000F9FAC6B232461B21384600F03CFB0546B6
:102B1000002D02D0FFF71CFA06E00A212046FDF73F
:102B2000E9FAB04200D0022500BF00BF2846F8BD38
:102B3000F609000070B506460D46002400BF2A467F
:102B40001C21304600F01FFB0446002C00D00BE097
:102B50003046FFF761FF0446002C00D004E0304609
:102B600000F088FC044600BF00BF204670BDF8B5E9
:102B700006460C4617463A461921304600F003FB3C
:102B80000546002D05D122461A21304600F0FBFAF9
:102B900005462846F8BD70B506460D46032D0ADCED
:102BA0002A461821304600F0EEFA0446002C04D0E4
:102BB000FFF7CEF901E00124E443204670BD000098
:102BC000FFB583B00D4616461F462048007E029092
:102BD00002980102081AA84204DB02980102081AAE
:102BE000B04202DA0124E4432DE000BF002F07D0F9
:102BF0000121039800F08FF80446002C00D021E05A
:102C000030460299FDF78CFAC0B20190284602992D
:102C1000FDF786FAC0B200900146019A0398FFF7CB
:102C2000A6FF0446002C01D0FFF792F9002F08D030
:102C30000021039800F06FF80190002C00D1019C56
:102C400000BF00BF00BF204607B0F0BD98000020C5
:102C5000F7B582B00D4617466C4628122070657095
:102C6000022221460298FFF725FD0646002E09D1D3
:102C7000012221460298FFF707FD0646002E01D1EA
:102C800020783870304605B0F0BDF7B582B00D46FB
:102C900017466C4628122070657002222146029861
:102CA000FFF708FD0646002E12D1042221460298A5
:102CB000FFF7EAFC0646002E0AD12078000661786C
:102CC00009040843A17809020843E1780843386001
:102CD000304605B0F0BDF7B582B00D4617466C46DC
:102CE000281220706570022221460298FFF7E2FC4C
:102CF0000646002E0CD1022221460298FFF7C4FCA2
:102D00000646002E04D120780002617808433880FE
:102D1000304605B0F0BDF8B507460D46002D01D090
:102D2000012400E0002422461721384600F02BFA47
:102D300006463046F8BDF8B506460C4615462B4605
:102D400022460121304600F003F807463846F8BD18
:102D5000FFB581B00C461546002C01D0012C21D1C5
:102D6000082D01D0002D1DD100200090002C01D194
:102D7000102700E011270498002803D02021009894
:102D800008430090680000990843C0B2009039469B
:102D9000009A019800F0F7F90646002E01D0FFF7DF
:102DA000D7F803E0FFF7D4F80126F643304605B024
:102DB000F0BD024600200121890700E08908914208
:102DC000FCD809E04318934204D84318D21A4308A8
:102DD000581800E0400889080029F3D17047000026
:102DE000F8B5064600251E48007E012800D100BF28
:102DF000304600F097F90446002C02DAFFF7A8F8F5
:102E00002CE0002C01DDFFF7A3F800BF6A46FF218C
:102E100021313046FFF71CFF0546002D00D012E09F
:102E2000684600780E49C8826A463F213046FFF75F
:102E30000FFF0546002D00D005E0684601783046BA
:102E4000FFF76CFB00BF00BF002D01DAFFF780F831
:102E5000002D02D1002C00D0254600BF2846F8BD29
:102E600098000020FFB583B00D46174601AC28122C
:102E700020706570022221460398FFF71BFC06466E
:102E8000002E12D10122A11C0398FFF7FDFB06467C
:102E9000002E0AD1A078384006990843A07003227A
:102EA00021460398FFF706FC0646304607B0F0BD02
:102EB0000146014A107E70479800002010B5044674
:102EC00001226549204600F05EF901224121C90036
:102ED000204600F058F900229621204600F053F9D0
:102EE00054229721204600F04EF90022E32120468B
:102EF00000F049F90422E421204600F044F90222BE
:102F0000E521204600F03FF90122E621204600F0AD
:102F10003AF90322E721204600F035F90222F52193
:102F2000204600F030F90522D921204600F02BF987
:102F3000204600F029FC00229F21204600F023F9C2
:102F40002822A321204600F01EF90022B7212046A6
:102F500000F019F92822BB21204600F014F90922BB
:102F6000B221204600F00FF90922CA21204600F0C4
:102F70000AF90122FF219931204600F004F91722B5
:102F8000FF21B131204600F0FEF80022FF21AE31D2
:102F9000204600F0F8F80522FF21204600F0F3F863
:102FA0000522FF210131204600F0EDF80522FF2126
:102FB0009A31204600F0E7F81B22FF21A731204676
:102FC00000F0E1F83E22FF21AD31204600F0DBF8B1
:102FD0001F22FF21A831204600F0D5F80022302121
:102FE000204600F0D0F810221121204600F0CBF846
:102FF0003022FF210B31204600F0C5F846223F2148
:10300000204600F0C0F8FF223121204600F0BBF836
:1030100063224021204600F0B6F801222E212046EE
:1030200000F0B1F8FF222C21204600F0ACF8092274
:103030001B21204600F0A7F831223E21204600F057
:10304000A2F824221421204600F09DF832212046C7
:10305000FFF770FD002010BD07020000F3B583B03C
:103060000C46012C54DB032C52D8601E40002B4927
:103070000F5A3A469621039800F0AFF805462848C3
:10308000047601468031112008562146FDF748F8A4
:1030900040B202900298C2B22421039800F073F863
:1030A0000546002D0BD121461420FDF739F8C0B29A
:1030B000024621210190039800F065F80546002D95
:1030C00013D11748007C00280FD015488689017E4F
:1030D0003046FDF725F886B2FF2E00DDFF26F2B25E
:1030E0002521039800F04FF80546002D09D1012C49
:1030F00001D1012000E0002001460398FFF7DEFC2B
:103100000546002D06D100BF012C03D0032501E0A8
:103110000125ED43284605B0F0BD000084490008B4
:103120009800002070B5054600BF2846FFF7C6FE90
:103130000446002C02D0FEF70BFF00E000BF00BFEA
:10314000002C0AD10648017E2846FFF787FF044677
:1031500000221621284600F016F8204670BD000017
:103160009800002038B5054600BF6A46162128465B
:10317000FFF76EFD044668460078012801D0002C58
:10318000F3D0204638BDFEB507460D4616466C46C0
:10319000281220706570A670032221463846FFF77A
:1031A00089FA02900298FEBDFEB507460E46154606
:1031B00001AC301220706670280EA0702802000E3C
:1031C000E0702804000E2071657106222146384601
:1031D000FFF770FA00900098FEBDFEB507460D4659
:1031E00016466C462812207065703012A070E6708A
:1031F000042221463846FFF75DFA02900298FEBD90
:1032000010B5044C236800BF024C2168CA1A8242E0
:10321000FADB10BD0C00002010B50C480068002837
:1032200009D10720FDF7E0FD40200949486107204A
:10323000FEF70CFE08E00520FDF7D6FD012004494D
:1032400048610520FEF702FE10BD00002C010020A1
:103250000004014070B504460D4607480068002888
:1032600004D12946204600F0B9FA03E02946204659
:1032700000F0D0FB70BD00002C01002070B50446AA
:103280000A480068002805D0012C01D1012006E081
:10329000002004E0402C01D1012000E00020054680
:1032A000002D01D000F0AEF8284670BD2C010020A2
:1032B00010B50C480068002809D140200A4948612F
:1032C0000720FEF7C3FD0720FDF79AFD08E0012067
:1032D000054948610520FEF7B9FD0520FDF790FD81
:1032E00010BD00002C0100200004014070470000C8
:1032F00010B50A480068002806D180210520000783
:10330000FDF70CFB044607E000F0ECFB002801D0C1
:10331000012000E000200446204610BD2C010020C2
:1033200030B587B0044600BF2648C06A0221084372
:103330002449C8620846C06A02210840009000BFC4
:1033400000BF2048806B090508431E49886303209D
:1033500000020290122003900020049005900420A7
:10336000069002A91848FDF7E3F9184820601848AC
:1033700060600021A1600121E160002121616161A3
:10338000E16121622046FDF727FB1248046002221A
:1033900001A90020FEF7CAFF0546002D0DD16846A1
:1033A0000079002809D168464079162805D1012006
:1033B0000949086000F04EFB01E000F053FA07B045
:1033C00030BD0000001002400004005000540040D6
:1033D000380F3000300100202C01002010B50446C9
:1033E00007480068002806D1E2B220210520000726
:1033F000FDF79DFA03E02146002000F0B3FB10BD6D
:103400002C01002002480068401C014908607047F8
:103410000000002010B504462046FFF7F1FE10BD65
:10342000F3B581B00D46EF680F48874217D2394691
:10343000019800F0BFF804460C48007E0090009808
:10344000401E40000A490E5A084880308189A14236
:1034500000DA8489B44200DD3446EC6101E00020EA
:10346000E8610020FEBD0000100905009800002062
:103470008A490008F1B58AB00020099000BF08AA67
:103480002A210A98FFF7E4FB0446002C02D0FEF73D
:103490005FFD80E008A80078002803D10120099092
:1034A0002820089008A800787D21C9004843C00959
:1034B000059002AA2D210A98FFF7CAFB0446002CAA
:1034C00002D0FEF745FD66E003AA1C210A98FFF72B
:1034D000BFFB0446002C02D0FEF73AFD5BE004AAD5
:1034E000B8210A98FFF7D1FB0446002C02D0FEF762
:1034F0002FFD50E001AA2C210A98FFF7A9FB0446F2
:10350000002C02D0FEF724FD45E0684601797D20BD
:10351000C001FCF705FE23498860084680384568ED
:103520000598A84202D30598486002E000211D4892
:1035300041606846007A02210840002811D007AA9D
:1035400026210A98FFF7C7FB0446002C02D0FEF79D
:10355000FFFC20E06846808B7D21C9004843C609F6
:1035600000E00026049908026946097B091FFCF760
:10357000C1FD0746711BB94200DB771B6846007925
:1035800078430009069006990A9800F013F881B272
:103590000448818100BF00BF002C00D1099C204657
:1035A0000BB0F0BD18010020502201490A6070479D
:1035B00018010020FEB50E46184800680090174814
:1035C000876840680190002E24DD31461448FCF7DE
:1035D000A7FD0446FF3CE53C002C01DC00251AE079
:1035E00001204003844208DA009AB918019A624324
:1035F0001046FCF77FFD044607E000983918204686
:10360000FCF778FD0199484304462046FFF7D1FBBB
:10361000054600E0034D2846FEBD000018010020CD
:1036200000688909FFFFFF7FF1B586B0182005907B
:1036300046200490C82003900720029001AAFF2191
:103640000A310698FFF704FB00900098002805D087
:10365000FEF77EFC0020C04307B0F0BD6846047949
:1036600002990C4001AAFF210B310698FFF7F0FAEE
:1036700000900098002804D0FEF76AFC0020C043A8
:10368000EAE7684605790499059841180A206843D5
:103690000E18601C7043039947183846DCE7000099
:1036A000F3B587B00D460020069000270026059050
:1036B0000490039032480290062001900020009070
:1036C00000BF05AA6C210798FFF7DFFA0446002C1B
:1036D00002D0FEF73DFC4EE005990298814201D9E7
:1036E0000020059004AA74210798FFF7CEFA04463B
:1036F000002C02D0FEF72CFC3DE006AA7C210798A6
:10370000FFF7C3FA0446002C02D0FEF721FC32E09A
:1037100003AA80210798FFF7B8FA0446002C02D0CC
:10372000FEF716FC27E0069868610398A8610398E5
:10373000009003990698884201D906980090009855
:10374000002801D10F4800907D22D20005995143F5
:1037500008460099FCF7CEFC0746019A04995143AC
:103760007D22D200514308460099FCF7C3FC06466F
:103770002F61EE6000BF00BF204609B0F0BD000021
:10378000FFFFFF7F18F6000070B5044600260548CD
:1037900006683246DA212046FFF706FD0546284630
:1037A00070BD00009800002010B5002411E00A4A06
:1037B000125D13071B0F01229A4091B2064A125D57
:1037C0001211920205231B07D0180122FDF7AFF852
:1037D000641C042CEBDB10BD40010020F8B506464C
:1037E0000F460024354632E029781C4A505C00F030
:1037F000BFF868782E2803D1012000F0DFF86D1C97
:10380000174A125D13071B0F01229A4091B2144A06
:10381000125D1211920205231B07D0180022FDF73A
:1038200086F83846FFF7F6FD0D4A125D13071B0FA9
:1038300001229A4091B20A4A125D121192020523A6
:103840001B07D0180122FDF772F8641C6D1C042CB4
:1038500002DA28780028C7D1F8BD0000A049000886
:103860004001002000B587B000BF3B48C06A04217A
:1038700008433949C8620846C06A042108400190DB
:1038800000BF00BF00BF3448C06A802108433249EE
:10389000C8620846C06A80210840019000BF00BF8E
:1038A00000BF2D48C06A012108432B49C862084661
:1038B000C06AC007C00F019000BF00BF00BF08462C
:1038C000C06A022108432449C8620846C06A02212E
:1038D0000840019000BF00BF2048029001200390E3
:1038E00000200490059002A905200007FCF720FFA6
:1038F0008020029000200390049002A90520000778
:10390000FCF716FF40200290154803900020049019
:1039100002A905200007FCF70BFF124802900821BE
:103920000298084302900120039000200490059023
:1039300002A90D48FCF7FCFE8020029001200390B4
:1039400000200490059002A90848FCF7F1FEFFF75B
:103950002BFF07B000BD0000001002403303000041
:103960000000111071040000000400500008005015
:10397000F8B5054600241BE00120A040284007467A
:10398000002F01D1012000E0002006460A4A125D06
:1039900013071B0F01229A4091B2074A125D1211C0
:1039A000920205231B07D0183246FCF7C0FF641CA7
:1039B000082CE1D3F8BD00004401002070B5044696
:1039C000002C01D1012000E000200546084AD279F0
:1039D00013071B0F01229A4091B2054AD2791211A6
:1039E000920205231B07D0182A46FCF7A0FF70BDE2
:1039F0004401002010B5064800880F21C901084382
:103A00000349088002221220FEF7BCFC10BD000012
:103A100034010020F8B506460F460025344610E074
:103A200021780B4A505C294600F078F860782E28FF
:103A300000D1641C3846FFF7EDFCFFF7DBFF6D1C7F
:103A4000641C042D02DA20780028E9D1F8BD0000BA
:103A5000A049000800B587B000BF1E48C06A012118
:103A600008431C49C8620846C06AC007C00F0090DE
:103A700000BF00BF00BF0846C06A022108431549C5
:103A8000C8620846C06A02210840009000BF00BF1B
:103A9000432000010190104802900020039001A9EA
:103AA00005200007FCF744FE012001900A4802901F
:103AB0000020039001A90948FCF73AFE0848069047
:103AC000022206A91420FEF75DFCFFF793FF07B062
:103AD00000BD000000100240000011100004005062
:103AE000FFF7000038B5022269461020FEF71EFCE1
:103AF0000446002C06D1694608880121C902084005
:103B0000009006E004480068401C0349086000205B
:103B100000906846008838BD3C01002070B504461E
:103B20000D460F4800887F2108430D49088008464C
:103B300000880F21C9010843094908808020A84056
:103B400009888143064801806106490E0088884340
:103B50000349088002221220FEF714FC70BD000009
:103B60003401002070B504460D46032C02D101201B
:103B7000C00309E0022C01D1200305E0012C01D192
:103B8000A00301E0012000030646002D05D00848EF
:103B9000008830430649088004E005480088B043A7
:103BA00003490880022202491220FEF7EBFB70BD98
:103BB000340100200FB410B504A9074B02AA0398E2
:103BC00000F0EEFB044602A9002000F091FD204623
:103BD00010BC08BC04B01847F146000830B4744665
:103BE000641E2578641CAB4204D3635D5B00E3185C
:103BF00030BC18471D46F8E702E008C8121F08C18C
:103C0000002AFAD170477047002001E001C1121F5D
:103C1000002AFBD170470000F3B585B00C460027A1
:103C20001848007E049000BF03AA64210598FFF79E
:103C30000FF80646002E02D0FEF78AF91DE068460E
:103C4000077B208980B2E168009101902369049884
:103C5000784382B2208881B2059800F03BF805468F
:103C6000002D02DA0026F64307E025840498784305
:103C700060840448C16F616200BF00BF304607B076
:103C8000F0BD00009800002010B502460020104B47
:103C9000D86100230E4843668366C36603674367A3
:103CA0005C3083805C38836700210AE00023DB43BB
:103CB0004C0007482430035300238C001430035178
:103CC000491C0A29F2DB002301480362002010BDD1
:103CD00098000020FFB5A9B017461D4600BF002080
:103CE0002690012025900020249023901F901E9064
:103CF0001D901C901B901A901990189000261790F8
:103D0000169015901490139012901190E120C0001D
:103D10000790FF202D300490FC48007E0102081A15
:103D2000039033980C2806D00D280AD00E2803D013
:103D30000F2811D106E000BF1020239000201F9013
:103D400015E000BF10202390F048007EC8214843B2
:103D50002A9001201F900AE00398874204D3002094
:103D60001F900120269001E001201F9000BF00BF9E
:103D70002A982790E54840680590E44880304068DC
:103D80000C9019214901059840180B90B4220C9908
:103D900051430846FF213931FCF7ACF9014605983B
:103DA00008180A90DA4A0C9951430846FF21393124
:103DB000FCF7A0F90146059808180990AF22D20037
:103DC0000C9951430846FF213931FCF793F901461C
:103DD0000598081808903C2F06DA0B98854203D204
:103DE0001020249001202690A52F06DA0A988542FB
:103DF00003D21020249001202690A52F05DA0A98DE
:103E00009630854201D201201E90C24932988842E4
:103E100002D901201A9026904B2D02D201201A902F
:103E20002690BA48806B002819D0B848806BA84209
:103E30000AD2B64A916B926BAA1A64235A4310466F
:103E4000FCF758F919900CE0B04A916B926B521B39
:103E500064235A431046FCF74DF9199001E0002005
:103E600019901998322801D901201A901A9801281E
:103E700016D10020A549C86100240BE00021C943E8
:103E80006200A248243081520021A20014308150E7
:103E9000601C84B20A2CF1DB00219C48016213E013
:103EA00009240FE0601E410098482430415A620006
:103EB0008152601E8100954838304158A2008150DF
:103EC000601E84B2002CEDDC1F98012803D18F49BD
:103ED0002A98888403E00021C9438C4881848B4858
:103EE0008563006A401C89490862FF205F30874271
:103EF00002DA0998854209D3FF205F30874202DB4E
:103F00000898854202D3012026900EE023980028CD
:103F10000BD033980C2802D033980E2801D1239867
:103F20002490012026900020259006AAFF21AD3183
:103F30002998FEF78DFE28902898002802D0FEF7D9
:103F400007F8F6E16846007E229021AAFF210D3194
:103F50002998FEF79AFE28902898002802D0FDF7AD
:103F6000F7FFE6E120AAFF2111312998FEF78DFE27
:103F700028902898002802D0FDF7EAFFD9E11A9886
:103F8000012805D0269801281FD1259801281CD189
:103F900022983E280CD03E22FF21AD312998FFF710
:103FA000F2F828902898002802D0FDF7D1FFC0E150
:103FB000564821994166209981662199C1662099C8
:103FC000016700205149C8612BE022983E2805D1A5
:103FD0004E48219941662099816604E04B48219919
:103FE000C166209901674948007FC007C00F0028BB
:103FF00002D13C20069001E03E2006906846027EF9
:10400000FF21AD312998FFF7BEF8289028980028A5
:1040100002D0FDF79DFF8CE13C48C069401C3B4944
:10402000C861269801280BD138492498C86724987C
:10403000102802D1039880B2279027982DB0F0BDA8
:104040003248816E006F814205D93048816E006F21
:10405000081A109001E0002010902C491098486731
:104060001E98002803D1E120C000079002E0E12063
:10407000800007902548416EC06E814205D92348D3
:10408000416EC06E081A0F9004E02048C16E406E69
:10409000081A0F9007990F98884204D907990F982A
:1040A000401A0E9001E000200E9007990F984018DA
:1040B0000D900E991098884203D30D99109888425C
:1040C00004D901201D9010202490C7E00F48C0693A
:1040D000012802D80520189001E00320189005203F
:1040E000E12189001E2396220091019029463298F1
:1040F00000F02AF9049000260020179016901590E1
:1041000014901390129000241DE0000098000020ED
:1041100052030000983A000061008748405A8749DE
:1041200088420ED0701C86B261008348415A1798AD
:1041300008181790A10080481430415814980818A6
:104140001490601C84B20A2C01DA062EE4DB002EE7
:1041500009DD31461798FBF7CDFF169031461498CC
:10416000FBF7C8FF1390002600201790149000243E
:104170001CE061007048405A7049884214D0701C9D
:1041800086B261006C48415A1698081A4043179944
:1041900040181790A1006848143041581398081A25
:1041A0004043149940181490601C84B20A2C01DA20
:1041B000062EDEDB189886420CDB31461798FBF79B
:1041C00099FF80B2159031461498FBF793FF80B2A7
:1041D000129002E0002015901290594912988842DE
:1041E00038D21898864202DA1020249036E05549D9
:1041F000129888420DD2534AFA320499511A129AEF
:10420000514308464F49FBF775FF04994018119038
:1042100002E04C48FA30119047482438C06F00281B
:1042200002D11198800011901598C1000498814224
:1042300004D2062E02DB01201B900FE01199159885
:10424000884202D201201C9008E001201D9010201D
:10425000249003E001201D90102024901F98002836
:104260000DD135483830808800283FDD324838305D
:104270008088401E81B230483830818036E01D98F9
:1042800001280FD12C4838308088801C81B22A4800
:10429000383081808088042828DD04212648383081
:1042A000818023E01C98012819D123483830808868
:1042B00000281BDD102024901F48383080880128FA
:1042C00008DD1D4838308088401E81B21A483830D9
:1042D00081800BE0002118483830818006E01B986F
:1042E000012803D100211448383081801248243835
:1042F000C06F002811D1249800280ED001240AE0B4
:104300000021C94362000C4881520021A2001430F0
:104310008150601C84B20A2CF2DB074924392498AE
:10432000C8672498102802D1039880B22790279854
:1043300084E60020C04381E6BC000020FFFF0000AF
:10434000905F0100AC0D0000FFB581B016461F461E
:104350000198002808D06422029951430846019927
:10436000FBF7C8FE84B200E00C4CBC4201D33546DA
:1043700010E00B98844201D80A9D0BE00B9AA21A18
:104380000A9B9B1B5A4310460B9AB91AFBF7B2FEC5
:104390000A990D1A284605B0F0BD00000F2700004D
:1043A000FFB58FB00546002606E025280AD0129AF0
:1043B000119990476D1C761C28780028F5D130465D
:1043C00013B0F0BD002402940121B54A009400E02E
:1043D00004436D1C2B780846203B98401042F7D1CF
:1043E00028782A280ED00222287801463039092957
:1043F00016D802990A2359433039401814436D1CCA
:104400000290F1E7109802C802911090002904DA96
:1044100001204003044348420290022004436D1CE3
:1044200028782E2817D10420044368786D1C2A2888
:104430000CD110986D1C02C8009110900BE00099EF
:104440000A225143303940186D1C009028780146EB
:1044500030390929F3D928786C2810D006DC4C288B
:104460001AD068280ED06A2817D104E0742813D017
:104470007A2812D110E00120400504430CE001210C
:10448000090501E0032109050C436978814203D144
:104490000120000524186D1C6D1C2878692874D033
:1044A00006DC00288BD0632827D0642806D16CE076
:1044B0006E2808D073282CD0752878D0129A1199BC
:1044C0009047761C5FE06002400F022809D0032865
:1044D0000DD00428109801680DD00E60001D1090BA
:1044E00051E01098F21701680E604A60F6E71098E4
:1044F00001680E80F2E70E70F0E710986A460178C6
:104500001173001D10900020507303A8019001202A
:1045100005E0109802C8019110900020C043610787
:104520000CD5002700E07F1C00998F420FDA8742EC
:10453000F9DB0199C95D0029F5D108E0002700E009
:104540007F1C8742FCDB0199C95D0029F8D10298E4
:104550002146C01B0290129B119A00F0B3F88019FB
:10456000C61907E0019801990078491C0191129A37
:10457000119990477F1EF5D22146129B119A0298FD
:1045800000F090F886196D1C16E70A20019010992A
:1045900001C910916102490F032900D100B2042919
:1045A00000D140B2002803DA40422D2103E00DE0A3
:1045B000210504D52B216A461173012103E0E1078F
:1045C00011D02021F7E70CAF0C9114E00A200190E4
:1045D000109901C910916102490F032900D180B2DD
:1045E000042900D1C0B20021EDE70199FBF782FD5B
:1045F00030317F1E39700028F7D104A8C01B20304D
:104600000190600704D5012000048443009801E074
:10461000012000900199884201DD401A00E000204D
:10462000411800900C9809180298401A0290E00373
:1046300006D42146129B119A029800F043F886197D
:1046400000200D9008E003A9085C129A1199904788
:104650000D98401C761C0D900C998842F3DBE0030A
:104660000CD52146129B119A029800F02BF886195E
:1046700004E0129A302011999047761C0099481E48
:1046800000900029F5DC05E03878129A7F1C11991A
:104690009047761C0199481E01900029F4DC6BE7D5
:1046A00009280100F8B5044600251E46174688046F
:1046B00004D405E039462020B0476D1C641EF9D5AE
:1046C0002846F8BDFFB50446002581B01E46C80344
:1046D00001D5302700E02027880404D505E03846BE
:1046E0000399B0476D1C641EF9D5284605B0F0BD8E
:1046F0000A68531C0B6010707047000010B500244E
:10470000002C3ED0E01C0300FFF768FA07160D05E9
:10471000391E283239001B4802781B480188522074
:10472000FEF731FD2CE01748008882B21648018858
:104730005220FEF752FD23E0124802681248018819
:104740005220FEF731FD1BE000200E4908600A46AA
:104750000D4801885220FEF77BFA11E0002009493C
:1047600008600A46084801885220FEF7B4FA07E0BC
:10477000044A054801885220FEF787FA00E000BF8E
:1047800000BF10BD440000204800002008B50026EE
:10479000F643012071494870FCF7FCFAFDF74EFD25
:1047A000FDF7E2FAFDF736FBFEF7A0FD6C48FEF7D9
:1047B000B7FDFCF7B5FD7D21C9000090FBF79AFC21
:1047C0000746781E310A884200D90CE0781E6549F8
:1047D00048610321081FFDF743FB00206149886100
:1047E0000720086100BF0020FEF7F8FD0A20FEF751
:1047F00007FD0120FEF7F2FD0120FEF701FD52202A
:10480000FEF7B0FC5220FDF76BFF5220FEF750FB85
:104810005249C8705220FDF71BFF80000421084058
:1048200007464E480068884338434C4908600021D9
:104830005220FDF7FBFE0026F6430520474948704D
:104840008BE0FEF755FD0446B44225D026465220A3
:10485000FDF7C0FF05463F215220FEF76BF9002D02
:1048600003D041A0FBF7CEFC16E0002E0FD10122B1
:1048700008215220FEF75FFA07215220FDF7C6FEFD
:10488000002036498870C878FBF7E4FE04E0012078
:1048900032494870FDF761FA304840780300FFF76D
:1048A0009DF90805080B223613161936FDF786FB0D
:1048B00050E0FBF749FE4DE02D4800682D490860A7
:1048C00004202649487045E0FBF718FF42E0FBF75B
:1048D0002FFD3FE0FEF70CFD002801D1012000E094
:1048E0000020064636E02248006822490968401A3E
:1048F00019214901884207D30020184948701C48F3
:1049000000681C49086001E0FBF784FE22E0FBF729
:1049100081FE1748006817490968401A16498842FD
:1049200017D300BF00BF00BF00BF00BFBFF34F8F52
:1049300000BF00BF00BF11481149C86000BF00BFE1
:1049400000BFBFF34F8F00BF00BF00BF00E000BF3C
:10495000FDE700BF00BFFFF7D1FE72E7280000208F
:104960005401002000E000E04572496E00000000A4
:104970000C00002030000020881300000400FA051D
:1049800000ED00E0FD007F005400B9007201440218
:104990000014000A00058002AB014001000100285C
:1049A0000000000000000000000000000000000007
:1049B00000000000000000000000000000000000F7
:1049C000000000000000000000007F000040000028
:1049D0003F065B4F666D7D077F6F00000048005308
:1049E00009777C390079716F76061E763815543F49
:1049F0006773506D783E1C2A766E5B39000F010894
:104A0000005C7C585E7B716F74101E741815545CCA
:104A10007367506D783E1C2A766E5B00000049007B
:104A20000000000000000000000000000000000086
:104A30000000000000000000000000000000000076
:104A40000000000000000000000000000000000066
:104A50000000000000000000000000000000000056
:104A60000000000000000000000000000000000046
:104A70000000000000000000000000000000000036
:104A80000000000000000000000000000000000026
:104A90000000000000000000000000000000000016
:104AA000030406080C101820300000000001020367
:104AB00004010203040607080900000046696C743B
:104AC0006572656420627920706F73742070726FF4
:104AD00063657373696E672028574146290000009B
:104AE0004E6F742075736564203130004E6F7420F2
:104AF00075736564203900004D617820436F6E76D0
:104B0000657267656E6365004E6F205461726765FC
:104B1000742049676E6F7265000000004561726C19
:104B20007920436F6E76657267656E6365204573A5
:104B300074696D617465000052616E67696E67200B
:104B400066696C746572696E672028574146292032
:104B50006F6E2D676F696E67000000005643534506
:104B60004C205761746368646F670000504C4C318F
:104B7000204C6F636B000000504C4C32204C6F6334
:104B80006B0000004D6178205369676E616C2054A2
:104B90006F204E6F69736520526174696F00000069
:104BA0004E6F204572726F720000000056435345ED
:104BB0004C205761746368646F6720546573740098
:104BC000564353454C20436F6E74696E7569747912
:104BD00020546573740000005261772052616E6743
:104BE000696E6720416C676F20556E646572666CF4
:104BF0006F7700005261772052616E67696E67209F
:104C0000416C676F204F766572666C6F77000000AD
:104C100044617461206E6F74207265616479000074
:104C2000404C00080000002054010000AC010008C6
:104C3000B04C0008540100207C040000083C00082F
:104C40000110672D2D2D2E2D2D051CCDCCCC3DE337
:104C500099D913A04B1B08C0041AAC041A5C041A9F
:104C60006C041A78041A1C0413F84A1B0808081A62
:104C7000EC081AE0041A840C1AD8041AF4042ADC8A
:104C80002019041ABC181A380813104C820812553F
:104C9000726412643A01020176E978728414100495
:104CA000014009162709081A1415131480841E00E0
:04000005080000C12E
:00000001FF
