:020000040800F2
:10000000B80500209D010008B7200008FD1D00086C
:10001000B5200008F10500082929000800000000AB
:10002000000000000000000000000000452800085B
:1000300025060008000000000121000847280008EC
:10004000B7010008B7010008B7010008B7010008B0
:10005000B7010008B7010008B7010008B7010008A0
:10006000B7010008B7010008B7010008B701000890
:10007000B7010008B7010008B7010008B701000880
:10008000B7010008B7010008B7010008B701000870
:10009000B7010008B7010008B7010008B701000860
:1000A000B7010008B7010008B7010008B701000850
:1000B000B7010008B7010008B7010008B701000840
:1000C000B7010008B7010008B7010008B701000830
:1000D000B7010008B7010008B7010008B701000820
:1000E000B7010008B7010008B7010008B701000810
:1000F000B7010008B7010008B7010008B701000800
:10010000B7010008B7010008B7010008B7010008EF
:10011000B7010008B7010008B7010008B7010008DF
:10012000B7010008B7010008B7010008B7010008CF
:10013000B7010008B7010008B7010008B7010008BF
:10014000B7010008B7010008B7010008B7010008AF
:10015000B7010008B7010008B7010008B70100089F
:10016000B7010008B7010008B7010008B70100088F
:10017000B7010008B7010008B7010008000000003F
:10018000B7010008B7010008DFF80CD000F04CF808
:1001900000480047C9430008B805002006488047CA
:1001A00006480047FEE7FEE7FEE7FEE7FEE7FEE75C
:1001B000FEE7FEE7FEE7FEE7E52800088901000804
:1001C00040EA01039B0703D009E008C9121F08C0D9
:1001D000042AFAD203E011F8013B00F8013B521E59
:1001E000F9D2704710B5044604E00B7800F8013BE3
:1001F00003B1491C521EF8D2204610BD30B50B4643
:10020000014600202022012409E021FA02F59D4246
:1002100005D303FA02F5491B04FA02F52844151E1A
:10022000A2F10102F1DC30BD064C074D06E0E068AA
:1002300040F0010394E8070098471034AC42F6D32D
:10024000FFF7A6FF2C4800084C48000870B58C1832
:1002500010F8015B15F0070301D110F8013B2A11DA
:1002600006D110F8012B03E010F8016B01F8016BC7
:100270005B1EF9D12B0705D40023521E0DD401F8C3
:10028000013BFAE710F8013BCB1A921C03E013F88C
:10029000015B01F8015B521EF9D5A142D8D30020C1
:1002A00070BD000002498861042024314870704705
:1002B0000001002010B50DA000F06AF801215220C5
:1002C00002F015FF0023C8221946522002F086FED4
:1002D0000221522002F00FFD0021522002F007FF00
:1002E0000121BDE81040522002F01EBC412D68697A
:1002F00000000000154910B506204870A1F1240047
:10030000C16901623224522002F0B6FC3F21522022
:1003100002F030FE0321522003F064F821465220FF
:1003200002F006FE01220821522002F0E7FE00F052
:10033000D3F803F011F90721522002F0F5FB032155
:10034000BDE81040522002F038BE00002401002019
:1003500010B50DA000F01CF80121522002F0C7FEDC
:1003600000231A46C821522002F038FE01215220F3
:1003700002F0C1FC0021522002F0B9FE0121BDE8CB
:100380001040522002F0D0BB412D4C6F0000000005
:1003900070B5074CA061E0694FF44875C4F82000BF
:1003A00000F028F9E069216A401AA842F8D370BD2C
:1003B00000010020F8B5324C6068002604F12405E5
:1003C00030B36946522002F0A5FC18B12DA0FFF70A
:1003D00069FFF8BD009800F00700012806D0022848
:1003E00006D0032810D0042804D10FE027A000E095
:1003F00028A0A0610121522002F096FB6660E0690E
:100400002062012068710EE024A0F2E725A0F0E749
:10041000E069216A401A41F28831884201D9E069D5
:100420002062687930B1E069216A401AFA280ED951
:100430006E710CE0287920B1012804D0022806D181
:1004400003E01AA002E01AA000E01AA0A06100F0E8
:10045000D1F800F0C5F80028BBD101F053FE20B15F
:1004600000F02AF807206870F8BD28790321401CA5
:10047000B0FBF1F201FB1200287100F02DF8F8BD7D
:1004800000010020416C2031000000004C2D2D2D7A
:1004900000000000482D2D2D000000004F2D2D2DB7
:1004A000000000006E2D2D2D000000004C0000000B
:1004B000480000004F00000010B50321522002F058
:1004C0007CFD642003F01AF80721522002F02CFB77
:1004D000BDE8104003F01CB80E4910B5087903229E
:1004E000B0FBF2F302FB1300087120B1012805D024
:1004F000022808D105E0FFF72BFF04E0FFF7DAFE42
:1005000001E000F009F80121BDE81040522002F09E
:100510000BBB00002401002010B50DA0FFF738FF31
:100520000121522002F0E3FD0023C8226421522061
:1005300002F054FD0321522002F0DDFB0021522085
:1005400002F0D5FD0121BDE81040522002F0ECBAC6
:10055000412D306F0000000010B51649522002F006
:100560006AFA144C2C3C08B113A021E0114802682F
:1005700042F20F70824204D911A1134803F0E6FA47
:1005800015E04FF47A7082420DD3B2FBF0F100FB1C
:1005900011210A23B1FBF3F392FBF0F20BA10A48FD
:1005A00003F0D4FA03E00CA1074803F0CFFA0648A1
:1005B000A06110BD2C010020457220340000000015
:1005C0004C2D2D2D2D000000820100204C25642E85
:1005D00025303264000000006C2533640000000008
:1005E0004FF40051014800F033B900000008004802
:1005F000FEE7000010B5094CA16939B1092208488D
:10060000FFF7F0FD064900204872A061012104486F
:1006100002F098FFA068401CA06010BD00010020FF
:10062000780100207047000070B50E4DA5F124043C
:1006300029688A070AD5480701D50BA000E00CA05D
:10064000A06103206870E069206270BD490702461E
:1006500001D509A100E00AA10B4803F077FA0A4886
:10066000EEE7000024010020536620410000000056
:100670005363204100000000536620256400000001
:100680005363202564000000820100202DE9F84F0B
:10069000DFF898B100234FF0010C4FF0030A4FF040
:1006A0000F090BF1040EB9E00CFA03F4224070D0EC
:1006B0004D68022D01D0122D0ED1DD0800EB85080A
:1006C000D8F820505E07F70E09FA07F6B5430E6911
:1006D000BE402E43C8F8206007685E0091F8048091
:1006E0000AFA06F508F00308AF4308FA06F848EAE4
:1006F0000708C0F800804F68012F05D0022F03D0F3
:10070000112F01D0122F13D1D0F80880CF6828EA1A
:100710000508B74047EA08078760D0F804800F79DA
:1007200028EA0408C7F300179F4047EA0807476014
:10073000D1F804806FEA0807BF0706D1C76AA7434C
:10074000C8F3C0049C403C43C462C468AC438D6899
:10075000B5402543C5604C68E4005ED5344C256E39
:1007600045F001052566246E23F0030504F001041D
:100770000094304C2E19B4689D072F0F09FA07F525
:10078000AC43B0F1904F05D02B4DA84204D10125C8
:100790001CE042E0002519E0284DA84201D10225C5
:1007A00014E0274DA84201D103250FE0254DA842B2
:1007B00001D104250AE0244DA84201D1052505E018
:1007C000224DA84201D1062500E00725BD40254362
:1007D000B560DBF800405D464E689443F60300D5F3
:1007E00014432C60DEF8004075464E689443B6030F
:1007F00000D514432C600D4D08352C684E68944389
:10080000F60200D514432C60084D0C352C684E6858
:100810009443B60200D514432C605B1C0A6832FA7C
:1008200003F57FF441AFBDE8F88F000000040140FC
:100830000010024000000140000400480008004889
:10084000000C004800100048001400480018004840
:100850000069084000D0012070470AB181617047EB
:10086000816270470148006870470000380100202D
:1008700010B590F83520022A33D090F83520122A8E
:100880002FD090F83520222A2BD090F83520322A0C
:1008900027D090F83520422A23D090F83420012A1E
:1008A0001FD0012280F83420022380F835300368FD
:1008B0001C6824F001041C6003681C6824F4805444
:1008C0001C6003681C680C431C6001680B6843F0E3
:1008D00001030B6080F83520002180F834100846B1
:1008E00010BD022010BD000070B5040004D094F8C3
:1008F0003500002510B106E0012070BD84F83450A9
:10090000204600F035F9022084F83500206801689F
:1009100021F0010101606068216820F070600861C9
:100920002068816821F400418160A06830B1E168ED
:10093000012907D040F4044021688860E06802285B
:1009400003D006E040F40040F6E721684FF4006071
:100950004860206841680D4A11434160D4E90401B0
:100960000843A16940EA01202168C860D4E9070171
:100970000843216808602068016841F001010160B6
:10098000A563012084F83500002070BD00800002BE
:100990002DE9FF4F054690F8350081B01C461746FB
:1009A000012869D1F7B3ECB328688069C04300041B
:1009B00062D595F8340001285ED04FF0010985F822
:1009C0003490222085F835004FF00008C5F83880B3
:1009D0004FF410504FF0807A4FF0007BFF2C0090C6
:1009E00032D95346FF222846029901F057FAFF26D2
:1009F0000022042128460E9B01F062FAE0B9286823
:100A0000406A641E07F8010BA4B2761E0BD0002CBE
:100A1000EED11921284601F08AFAF8B1A86B042812
:100A20001AD009E018E0002CF3D0002280212846DB
:100A30000E9B01F045FA18B1032005B0BDE8F08F18
:100A4000FF2CCDF80080CCD8E2B25B462846029954
:100A500001F024FA2646CBE70120EEE729682020A2
:100A6000C86128684168054A1140416085F83590A1
:100A700085F834800020E0E70220DEE700E800FE91
:100A80002DE9FF4F044690F8350081B01D4617460A
:100A9000012869D1002F65D0002D63D020688069BE
:100AA000C043000460D594F8340001285CD04FF0B6
:100AB000010984F83490122084F835004FF00008C2
:100AC000C4F838804FF400504FF0807A4FF0007B2C
:100AD000FF2D00903ED95346FF222046029901F097
:100AE000DDF9FF2620460E9901F048FA18B1A06BF7
:100AF000042837D028E0216817F8010B88626D1EA2
:100B0000ADB2761E17D0002DECD120460E9901F023
:100B10000EFA0028EBD121682020C86120684168C6
:100B2000124A1140416084F8359084F834800020E6
:100B300005B0BDE8F08F002DE7D0002280212046CF
:100B40000E9B01F0BDF908B10320F1E7FF2DCDF8B0
:100B50000080C0D8EAB25B462046029901F09EF9B7
:100B60002E46BFE70120E3E70220E1E700E800FEB0
:100B70007047000002480168491C0160704700008E
:100B800038010020074810B5016841F48071016008
:100B9000032000F05BF80F2000F006F800F015F8D5
:100BA000002010BD0020024010B5044600F042FCB9
:100BB0004FF47A71B0FBF1F001F008F90022214600
:100BC000501E00F023F8002010BD10B5032000F0E7
:100BD0003DF80022BDE810401146501E00F016B846
:100BE00000F01F02012191404009800000F1E02047
:100BF000C0F88011704700F01F02012191404009A8
:100C0000800000F1E020C0F800117047F0B40E4BF6
:100C10001B680C46C3F30223C3F10705042D00D95A
:100C20000425191D072901D2002300E0DB1E01263F
:100C300006FA05F1491E214099409E40761E164055
:100C40003143F0BC01F043BA0CED00E0064900F07E
:100C5000070208684FF6FF03184040EA0220034AE3
:100C600010430860704700000CED00E00000FA053A
:100C70001549B0F5007F0868C0F3412009D002286B
:100C800005D0086820F4C06040F48060086000204F
:100C900070470128FBD0086820F4C06040F4007061
:100CA00008600A480A4A0068B0FBF2F0322250435A
:100CB00000E0401E10B14A695205FAD44869400567
:100CC000E5D503207047000000700040340100208B
:100CD00040420F000248006800F4C0607047000006
:100CE000007000402DE9FC5F044600884FF00008CA
:100CF000010504F11800F74D4746464600901BD504
:100D0000606D78B1B0F5800F10D0B0F5000F04D051
:100D1000B0F5400F20D001270DE0E86840F48030A6
:100D2000E86019E0201D01F011FA02E0009801F0DE
:100D300075FB070010D03E462088C00424D5A06D66
:100D4000C0B1B0F1807F19D0B0F1007F0DD0B0F10B
:100D5000407F17D0012716E0D5F88800616D20F498
:100D600040000843C5F88800E6E7E86840F48030B2
:100D7000E86007E0201D01F0E9F902E0009801F0C9
:100D80004DFB0746F7B13E46206880033BD5A86D72
:100D90004FF00009C00009D4A86D40F08050A8654C
:100DA000A86D4FF0010900F080500190DFF828B3E2
:100DB000DBF8001041F48071CBF80010FFF752FD12
:100DC000824611E0D5F88800A16D20F040700843FC
:100DD000C5F88800D8E700BFFFF744FDA0EB0A0084
:100DE000642801D9032705E0DBF80000C005F3D52E
:100DF000002F7CD04FEA0706B9F1000F03D0A86D91
:100E000020F08050A8652078C00707D0D5F888006A
:100E1000A16A20F003000843C5F888002078800705
:100E200007D5D5F88800E16A20F00C000843C5F822
:100E300088002078400707D5D5F88800216B20F07E
:100E400030000843C5F888002078000707D5D5F89A
:100E50008800616B20F0C0000843C5F88800207846
:100E6000C00607D5D5F88800A16B20F44070084370
:100E7000C5F888002078800607D5D5F88800E16B92
:100E800020F440600843C5F888002088800507D515
:100E9000D5F88800E16C20F440200843C5F88800AC
:100EA0002088400507D5D5F88800216D20F4401032
:100EB0000843C5F888002078400607D5D5F8880093
:100EC000216C20F440500843C5F8880020780006C3
:100ED00007D5D5F88800616C20F440400843C5F878
:100EE00088002088C00509D5D5F8880000E01CE0FE
:100EF000A16C20F440300843C5F8880020884FF0EA
:100F0000006780044FF080687BD5D5F88800E16DDC
:100F100020F040600843C5F88800E06DB84269D110
:100F2000E86840F48010E8606BE0D5F89000616FED
:100F300000F44070884211D0D5F8900020F4407839
:100F4000D5F8900040F48030C5F89000D5F89000B6
:100F500020F48030C5F89000C5F890805FEA887072
:100F60003FD5FFF77FFC804641F2883B4FF0010AF6
:100F7000022707E0FFF776FCA0EB0801594501D9ED
:100F8000032639E797FAA7F0B0FA80F040F0400165
:100F9000BAEB511F01D1296819E097FAA7F1B1FA0C
:100FA00081F141F04001B7EB511F02D1D5F890100B
:100FB0000DE097FAA7F1B1FA81F141F04002032167
:100FC000B1EB521F02D1D5F8941000E0E96997FA0D
:100FD000A7F2B2FA82F202F01F020AFA02F001420C
:100FE000C8D0D5F89000616F20F440700843C5F870
:100FF000900001E7404504D1201D01F01DF900B12A
:1010000006462068000316D5D5F88800216E20F02A
:1010100040600843C5F88800206EB84204D1E868F3
:1010200040F48010E86006E0404504D1201D01F046
:1010300003F900B106462068400316D5D5F88800AC
:10104000616E20F040600843C5F88800606EB842C9
:1010500004D1E86840F48010E86006E0404504D11F
:10106000201D01F0E9F800B106462088400418D59B
:10107000D5F88800A16E20F040500843C5F88800DC
:10108000A06EB0F1805F03D0B0F1005F04D008E043
:10109000201D01F04BF902E0009801F035FA00B193
:1010A00006462088000407D5D5F88800E16E20F0B8
:1010B00080400843C5F888002068C00306D555F86D
:1010C000880F216F20F00040084328603046BDE8BB
:1010D000FC9F000000100240007000402DE9F04726
:1010E000DFF848A305460E46DAF80000022200F0B9
:1010F000070C0120410443068702CD4C41F2883998
:10110000B4457DD286B3012E2FD0022E2DD0032ED2
:101110002BD0042E29D0DAF800C000BFCAF800C0D6
:10112000DAF800C00CF0070CB4456AD12E78B60787
:1011300007D5A668D5F808C026F0F00646EA0C06E2
:10114000A6602E78F60773D06E68022E14D0032E98
:1011500027D086B397FAA7F1B1FA81F141F02001C7
:1011600049093BD021683AE0FFE7DAF800C02CF0EB
:10117000070C4CEA060CD1E791FAA1F2B2FA82F21E
:1011800042F02002520901D0226800E0E26991FA9F
:10119000A1F1B1FA81F101F01F018840024230D083
:1011A00026E093FAA3F1B1FA81F141F02001490957
:1011B00002D0216801E003E0E16993FAA3F210E0B4
:1011C00092FAA2F1B1FA81F141F02001490901D06E
:1011D000216800E0E16992FAA2F202E0E16997FA7F
:1011E000A7F2B2FA82F202F01F029040014208D048
:1011F000A06820F003003043A060FFF733FB01E05C
:101200003BE0F3E00646686802280BD0032817D0BD
:101210004F4610B32BE000BFFFF724FB801BB84202
:1012200001D9C8E04F46A068C0F381000228F3D17D
:10123000E4E000BFFFF716FB801BB84201D9BAE01B
:101240004F46A068C0F381000328F3D1D6E000BF69
:10125000FFF708FB801BB8427ED8A06810F00C0F87
:10126000F6D1CBE0FFF7FEFA801BB84274D8A06835
:10127000C0F381000128F5D1C0E095F800C05FEA15
:101280008C7C09D5D4F808C0D5F808802CF0F00C77
:101290004CEA080CC4F808C095F800C05FEACC7CA2
:1012A0006CD0D5F804C0BCF1020F0FD0BCF1000F18
:1012B00021D0BCF1030F2CD097FAA7F1B1FA81F13C
:1012C00041F02001490932D0216831E091FAA1F2C0
:1012D000B2FA82F242F02002520901D0226800E004
:1012E000E26991FAA1F1B1FA81F101F01F018840A0
:1012F00002427BD025E092FAA2F1B1FA81F141F0ED
:101300002001490901D0216800E0E16992FAA2F2C6
:1013100010E093FAA3F1B1FA81F141F020014909FB
:1013200001D0216800E0E16993FAA3F202E0E169EB
:1013300097FAA7F2B2FA82F202F01F02904001423D
:1013400054D0A06820F0030040EA0C00A060FFF732
:1013500089FA0746686800E02DE0022809D00328D2
:1013600013D0F0B12AE000BFFFF77CFAC11B49455A
:1013700021D8A068C0F381000228F5D123E000BF86
:10138000FFF770FAC11B494515D8A068C0F381006A
:101390000328F5D117E000BFFFF764FAC11B4945E8
:1013A00009D2A06810F00C0FF6D10CE0FFF75AFA42
:1013B000C11B494502D90320BDE8F087A068C0F3EE
:1013C00081000128F2D19EB1012E11D0022E0FD042
:1013D000032E0DD0042E0BD0DAF80000CAF800005E
:1013E000DAF8000000F00700B04207D00120E3E780
:1013F000DAF8000020F007003043EFE728784007D4
:1014000005D5A068E96820F4E0600843A06028786A
:10141000000706D5A068296920F4605040EAC100A1
:10142000A0600F20FFF7C0FB0020C5E700200240AE
:101430000010024000B500F017F808498968F02252
:1014400092FAA2F201F0F001B2FA82F2D140044A1B
:10145000515CC8400349086000BD00000010024014
:10146000884600083401002030B52C49002210467F
:101470008B68C3F381052A4B5C10012D0ED08D685B
:10148000C5F38105022D0BD08D6815F00C0F0ED021
:101490008D68C5F38105032D04D01BE0184619E0C3
:1014A000204617E0CD6805F00305012D12D10A682A
:1014B000120704D4D1F89420C2F3032202E00A6890
:1014C000C2F30312174D55F822208D6815F00C0F4A
:1014D00000D110468D68C5F38105032D1DD1C86864
:1014E00000F00305C868C0F30210401C022D04D0B0
:1014F000032D05D0B2FBF0F004E0B3FBF0F001E007
:10150000B4FBF0F0CA68C968C2F306225043C1F3C5
:101510004161491C4900B0FBF1F030BD00100240B0
:101520000024F400984600082DE9F84F044600789E
:10153000FF4DC0064FF002084FF0010665D5A868C0
:1015400010F00C0F0AD0A069002828687ED040F067
:1015500001002860FFF786F907465CE098FAA8F0DA
:10156000B0FA80F040F02000400901D0286800E087
:10157000E86998FAA8F1B1FA81F101F01F0106FAC1
:1015800001F1084202D0A069002874D0216A2868BD
:10159000000703D5286800F0F00004E0D5F89400B7
:1015A000F02202EA1010814216D9084601F024F810
:1015B000002860D1286840F0080028602868216A67
:1015C00020F0F000084328606868E16920F47F405B
:1015D00040EA0120686015E0286840F008002860B3
:1015E0002868216A20F0F000084328606868E169F3
:1015F00020F47F4040EA01206860206A00F0FCFF90
:101600000028D6D10F20FFF7CFFA4FE0FFF72AF9D5
:10161000C01B642875D898FAA8F0B0FA80F040F0A2
:101620002000400901D0286800E0E86998FAA8F194
:10163000B1FA81F101F01F0106FA01F10842E5D08B
:10164000286840F008002860286800E00CE0216A63
:1016500020F0F000084328606868E16920F47F40CA
:1016600040EA0120686021E020F001002860FFF7D7
:10167000F9F8074605E0D1E0FFF7F4F8C01B64284D
:10168000C8D898FAA8F0B0FA80F040F020004009DD
:1016900001D0286800E0E86998FAA8F1B1FA81F170
:1016A00001F01F0106FA01F10842E5D12078C007D8
:1016B00036D0A8684FF40037C0F38100022816D056
:1016C000A868C0F38100032803D1E868C0438007FD
:1016D0000DD0286820F480302860286820F480200D
:1016E0002860FFF7BFF8824641F2883920E097FA78
:1016F000A7F0B0FA80F040F02000400902D028683E
:1017000001E02FE2E86997FAA7F1B1FA81F101F05F
:101710001F0106FA01F1084277D0606800287DD0E9
:1017200073E000BFFFF79EF8A0EB0A014945A7D878
:1017300097FAA7F0B0FA80F040F02000400901D0FD
:10174000286800E0E86997FAA7F1B1FA81F101F0A1
:101750001F0106FA01F10842E4D16068B0F5803F4C
:1017600010D0B0F5A02F286820F4803028602868B9
:101770000CD020F480202860606838B3FFF772F83E
:1017800082460DE0286840F48030F4E740F4802081
:101790002860F7E7FFF766F8A0EB0A014945C6D8CD
:1017A00097FAA7F0B0FA80F040F02000400901D08D
:1017B000286800E0E86997FAA7F1B1FA81F101F031
:1017C0001F0106FA01F10842E4D01EE0FFF74AF8D3
:1017D000824605E0FFF746F8A0EB0A014945A6D886
:1017E00097FAA7F0B0FA80F040F02000400901D04D
:1017F000286800E0E86997FAA7F1B1FA81F101F0F1
:101800001F0106FA01F10842E4D1207880075FD574
:10181000A8684FF0F85AC0F3810000E0A2E04FF44E
:101820008067012814D0A868C0F38100032804D180
:10183000E86800F0030002280AD0E0680028286861
:1018400047D040F480702860FFF70CF881461FE015
:1018500097FAA7F0B0FA80F040F02000400901D0DC
:10186000286800E0E86997FAA7F1B1FA81F101F080
:101870001F0106FA01F108421FD0E068002871D06C
:101880001BE000BFFEF7EEFFA0EB0900642886D83E
:1018900097FAA7F0B0FA80F040F02000400901D09C
:1018A000286800E0E86997FAA7F1B1FA81F101F040
:1018B0001F0106FA01F10842E4D068689AFAAAF218
:1018C0002169B2FA82F220F0F85091400843686032
:1018D00021E020F480702860FEF7C4FF814605E017
:1018E000FEF7C0FFA0EB09006428D0D897FAA7F054
:1018F000B0FA80F040F02000400901D0286800E0F4
:10190000E86997FAA7F1B1FA81F101F01F0106FA2F
:1019100001F10842E4D120784FF00307000745D5D4
:1019200060690028D5F8940041D040F0010001E042
:1019300000100240C5F89400FEF794FF814605E0D0
:10194000FEF790FFA0EB09006428A0D898FAA8F150
:10195000B1FA81F141F060014046B6EB511F02D16E
:10196000296819E0F5E190FAA0F1B1FA81F141F0AE
:101970006001B0EB511F02D1D5F890100CE090FA45
:10198000A0F1B1FA81F141F06001B7EB511F02D132
:10199000D5F8941000E0E96998FAA8F0B0FA80F060
:1019A00000F01F0006FA00F21142C9D03DE020F01D
:1019B0000100C5F89400FEF755FF814606E000BF20
:1019C000FEF750FFA0EB090064288ED898FAA8F122
:1019D000B1FA81F141F060014046B6EB511F01D1EF
:1019E000296818E090FAA0F1B1FA81F141F06001A4
:1019F000B0EB511F02D1D5F890100CE090FAA0F195
:101A0000B1FA81F141F06001B7EB511F02D1D5F875
:101A1000941000E0E96998FAA8F0B0FA80F000F0BC
:101A20001F0006FA00F21142CAD1207840077CD587
:101A3000A86D4FF00009C00009D4A86D40F0805097
:101A4000A865A86D4FF0010900F080500090D248C1
:101A50000168C90512D40168834641F480710160B0
:101A6000FEF700FF824605E0FEF7FCFEA0EB0A0051
:101A7000642877D8DBF80000C005F5D5D5F89000CC
:101A800020F00100C5F89000D5F8900020F0040087
:101A9000C5F89000FEF7E6FEBB4641F2883A47469D
:101AA000009005E0FEF7DEFE0099411A514559D835
:101AB00097FAA7F0B0FA80F040F04000B6EB501F64
:101AC00001D1286818E097FAA7F0B0FA80F040F04A
:101AD0004000B7EB501F02D1D5F890000CE097FA08
:101AE000A7F0B0FA80F040F04001BBEB511F02D1EB
:101AF000D5F8940000E0E86997FAA7F1B1FA81F10E
:101B000001F01F0106FA01F10842CBD1A0680128BB
:101B10000FD008B1052818D0D5F8900020F00100AA
:101B2000C5F89000D5F8900000E092E020F00400A5
:101B300003E0D5F8900040F00100C5F89000A068DF
:101B400078B3FEF78FFE804614E0D5F8900020F0C1
:101B50000100C5F89000D5F8900040F00400C5F8E9
:101B60009000E6E784E000BFFEF77CFEA0EB0801F2
:101B700051457DD897FAA7F0B0FA80F040F04000C8
:101B8000B6EB501F01D1286819E097FAA7F0B0FA18
:101B900080F040F04000B7EB501F03D1D5F8900023
:101BA0000DE017E097FAA7F0B0FA80F040F040019E
:101BB000BBEB511F02D1D5F8940000E0E86997FA19
:101BC000A7F1B1FA81F101F01F0106FA01F210420A
:101BD000CAD037E0FEF746FE804605E0FEF742FE3B
:101BE000A0EB0801514543D897FAA7F0B0FA80F06E
:101BF00040F04000B6EB501F01D1286818E097FA7A
:101C0000A7F0B0FA80F040F04000B7EB501F02D1CF
:101C1000D5F890000CE097FAA7F0B0FA80F040F009
:101C20004001BBEB511F02D1D5F8940000E0E869F8
:101C300097FAA7F1B1FA81F101F01F0106FA01F25A
:101C40001042CBD1B9F1000F03D0A86D20F0805025
:101C5000A865606AF0B3A968C1F38101032978D04F
:101C6000022828684FF0007720F08070286000E09C
:101C700075E00BD0E86820F00300E860E8684749A9
:101C80000840E860FEF7EEFD04466BE0FEF7EAFD73
:101C9000804605E0FEF7E6FDA0EB080064285ED86C
:101CA00097FAA7F0B0FA80F040F02000400901D088
:101CB000286800E0E86997FAA7F1B1FA81F101F02C
:101CC0001F0106FA01F10842E4D1E06AA16A0001AD
:101CD000103800E05BE00843216B626B09021209D7
:101CE00041EA42410843218F2D4A490802EB415104
:101CF000084394F83C104908120102EB4161084383
:101D0000E860286840F080702860E86840F08070E3
:101D1000E860FEF7A7FD044605E000BFFEF7A2FD60
:101D2000001B64281BD897FAA7F0B0FA80F040F0A7
:101D30002000400901D0286800E0E86997FAA7F17F
:101D4000B1FA81F101F01F0106FA01F10842E5D074
:101D50001DE01EE0FEF786FD001B642802D903206B
:101D6000BDE8F88F97FAA7F0B0FA80F040F02000B5
:101D7000400901D0286800E0E86997FAA7F1B1FAB4
:101D800081F101F01F0106FA01F10842E2D10020C1
:101D9000E6E70120E4E7000000700040FFFFEEFEF0
:101DA0000000E0FF4FF0E0210428086903D020F094
:101DB00004000861704740F00400FAE70248C16976
:101DC000491CC161704700000001002010B5401E91
:101DD000B0F1807F01D3012010BD4FF0E02460619D
:101DE0000F21601700F073F90020A0610720206127
:101DF000002010BD10B5FFF7E1FF10BDFEE70000A9
:101E00002DE9F0410D460446FEF72CFD8046206882
:101E10008169C943C9063CD494F83510122907D00A
:101E200094F83510522903D094F83510622906D160
:101E30004168890103D4416841F480414160002632
:101E4000012720688069C04380060FD5681CF8D040
:101E50002DB1FEF707FDA0EB0800A842F1D984F8E8
:101E6000357084F834600320BDE8F08121681020CB
:101E7000C86121682020C86120684168064A114075
:101E800041600420A06384F8357084F83460012038
:101E9000EAE70020E8E7000000E800FE70B505680A
:101EA000049E6C6805480440C1F3090040EA024002
:101EB000184330432043686070BD0000009800FC68
:101EC0002DE9F0471C4690460E460546FEF7CAFC33
:101ED00007465FEA08004FF000094FF0010808D0FC
:101EE0001DE0601C05D09CB1FEF7BCFCC01BA042ED
:101EF0000ED82868806926EA0000C003F1D114E0FA
:101F0000601C0CD024B1FEF7ADFCC01BA04206D96A
:101F100085F8358085F834900320BDE8F08728687F
:101F2000806926EA0000C003EAD00020F5E770B51A
:101F30000D460446FEF796FC064618E02946204664
:101F4000FFF75EFF08B1012070BD25B1FEF78AFCE6
:101F5000801BA8420BD954F8380F40F0200044F8F9
:101F600004090120607000202070032070BD2068EB
:101F70008069C0438006E1D4002070BD70B50D4675
:101F80000446FEF76FFC06461AE029462046FFF796
:101F900037FF08B1012070BD681C11D025B1FEF7D4
:101FA00061FC801BA8420BD954F8380F40F0200088
:101FB00044F804090120607000202070032070BDE7
:101FC00020688069C0438007DFD4002070BD642191
:101FD000522000F06BBD000030B5244887B0C16CC2
:101FE00041F00401C164C16C01F004010591C16CB0
:101FF00041F08001C164C16C01F080010591C16CA8
:1020000041F00101C164C16C01F001010591C16C95
:1020100041F00201C164C06C002400F00200059090
:102020004FF4005000901248CDE901046946114870
:10203000FEF72CFB0C2000900220CDE901040320C8
:10204000039007204FF09045049069462846FEF71C
:102050001DFB202000900120CDE90104694628469F
:102060000394FEF713FB07B030BD000000100240E0
:1020700000001210000800480C4810B50A49016021
:102080000B49416000210122C0E902120161416156
:102090008161C1610162FEF727FCBDE810400021AB
:1020A0000248FEF7E5BB0000005400403C01002060
:1020B00091297000FEE7704700F01F020121914056
:1020C0004009800000F1E020C0F880127047090745
:1020D000090E002806DA00F00F0000F1E02080F879
:1020E000141D704700F1E02080F8001470470000D4
:1020F0000248C168491CC16070470000000100200F
:102100007047000070B50E4CE0694FF47A7520629C
:1021100009E000BFFEF76EFAE069216A401AA842A2
:1021200001D908A0A061FEF75BFA0028F2D0E069AF
:10213000216A401AA84201D9012070BD002070BD5B
:102140000001002020726220000000002DE9F0470D
:10215000384C07460026206820F080602060FEF79B
:1021600081FBA046E40381464FF47A7A012505E01D
:10217000FEF778FBA0EB0900504539D894FAA4F09B
:10218000B0FA80F040F020004009404601D00068DD
:1021900000E0C06994FAA4F1B1FA81F101F01F01E5
:1021A00005FA01F10842E3D1D8F810103A6821F499
:1021B000FE4141EA0221C8F81010D8F810107A68E0
:1021C00021F40031120941EA4241C8F81010D8F850
:1021D000001041F08061C8F80010FEF743FB814613
:1021E00008E000BFFEF73EFBA0EB0900504501D917
:1021F00003261BE094FAA4F0B0FA80F040F020002F
:102200004009404601D0006800E0C06994FAA4F19A
:10221000B1FA81F101F01F0105FA01F10842E1D0A4
:10222000D8F810103A691143C8F810103046BDE8CC
:10223000F0870000001002402DE9F047394C0746B6
:102240000026206820F080602060FEF70BFBA0468F
:10225000E40381464FF47A7A012505E0FEF702FB9C
:10226000A0EB090050453BD894FAA4F0B0FA80F0F6
:1022700040F020004009404601D0006800E0C069FD
:1022800094FAA4F1B1FA81F101F01F0105FA01F10C
:102290000842E3D1D8F810103A6821F4FE4141EA2F
:1022A0000221C8F81010D8F810103A891E4B5208B5
:1022B00021F4C00103EB42521143C8F81010D8F8C2
:1022C000001041F08061C8F80010FEF7CBFA81469B
:1022D00008E000BFFEF7C6FAA0EB0900504501D99F
:1022E00003261BE094FAA4F0B0FA80F040F020003E
:1022F0004009404601D0006800E0C06994FAA4F1AA
:10230000B1FA81F101F01F0105FA01F10842E1D0B3
:10231000D8F810103A691143C8F810103046BDE8DB
:10232000F0870000001002400000E0FF2DE9F047B8
:10233000394C07460026206820F080602060FEF7B8
:1023400091FAA046E40381464FF47A7A012505E02C
:10235000FEF788FAA0EB090050453BD894FAA4F0A8
:10236000B0FA80F040F020004009404601D00068FB
:1023700000E0C06994FAA4F1B1FA81F101F01F0103
:1023800005FA01F10842E3D1D8F810103A6821F4B7
:10239000FE4141EA0221C8F81010D8F810103A7B2B
:1023A0004FF07E43520821F0C06103EB42621143BB
:1023B000C8F81010D8F8001041F08061C8F800107B
:1023C000FEF750FA814607E0FEF74CFAA0EB090051
:1023D000504501D903261BE094FAA4F0B0FA80F02E
:1023E00040F020004009404601D0006800E0C0698C
:1023F00094FAA4F1B1FA81F101F01F0105FA01F19B
:102400000842E1D0D8F810103A691143C8F810100A
:102410003046BDE8F0870000001002402DE9F0478B
:10242000384C07460026206820F080502060FEF7D8
:1024300019FAA046640481464FF47A7A012505E032
:10244000FEF710FAA0EB0900504539D894FAA4F031
:10245000B0FA80F040F020004009404601D000680A
:1024600000E0C06994FAA4F1B1FA81F101F01F0112
:1024700005FA01F10842E3D1D8F814103A6821F4C2
:10248000FE4141EA0221C8F81410D8F814107A6805
:1024900021F40031120941EA4241C8F81410D8F879
:1024A000001041F08051C8F80010FEF7DBF98146BA
:1024B00008E000BFFEF7D6F9A0EB0900504501D9AE
:1024C00003261BE094FAA4F0B0FA80F040F020005C
:1024D0004009404601D0006800E0C06994FAA4F1C8
:1024E000B1FA81F101F01F0105FA01F10842E1D0D2
:1024F000D8F81410FA681143C8F814103046BDE833
:10250000F0870000001002402DE9F047394C0746E3
:102510000026206820F080502060FEF7A3F9A04636
:10252000640481464FF47A7A012505E0FEF79AF9B2
:10253000A0EB090050453BD894FAA4F0B0FA80F023
:1025400040F020004009404601D0006800E0C0692A
:1025500094FAA4F1B1FA81F101F01F0105FA01F139
:102560000842E3D1D8F814103A6821F4FE4141EA58
:102570000221C8F81410D8F814103A7A4FF07E43AC
:10258000520821F0C06103EB42621143C8F81410F5
:10259000D8F8001041F08051C8F80010FEF762F939
:1025A000814607E0FEF75EF9A0EB0900504501D92E
:1025B00003261BE094FAA4F0B0FA80F040F020006B
:1025C0004009404601D0006800E0C06994FAA4F1D7
:1025D000B1FA81F101F01F0105FA01F10842E1D0E1
:1025E000D8F81410FA681143C8F814103046BDE842
:1025F000F087000000100240F8B51C4D064600248C
:10260000A86DC00002D5FEF765FB0DE0A86D40F097
:102610008050A865A86D00F080500090FEF75AFB2E
:10262000A96D21F08051A965B0F5007F04D0802EFE
:1026300008D94FF0030409E0802E07D9A02E04D951
:10264000022403E0FCD0702E00D101240848016868
:1026500021F0070121430160006800F00700A0425B
:1026600001D00120F8BD0020F8BD0000001002409C
:10267000002002402DE9F041522000F0D9FDC6B201
:102680006349522000F0C0FB20B1BDE8F04161A0D9
:10269000FDF708BE522000F067FA054600EB850002
:1026A00000016427B0FBF7F1DFF864815B4CD8F8D8
:1026B0000000814209DC032E07D22078800704D570
:1026C000701CC1B2522000F08DFE05EB4510B0FB2E
:1026D000F7F0D8F800104746884209DD012E07D9E7
:1026E0002078800704D5701EC1B2522000F07AFE17
:1026F0004A4DB868243D002820681FD0C10705D086
:10270000E969E969E96920F0010011E0522000F06F
:102710001FFA10B1B86810280ED041A0A861E8696E
:10272000296A401AB0F5487F2AD9206840F0010094
:102730002060E869286223E03BA0EFE720F0010079
:102740002060E869286228693968C0F58032514301
:102750006A8802FB0010020C2D486A8034A10A38F6
:1027600001F0F4F92078800707D529480A38012EAE
:1027700013D0022E13D07E21017025480A38A8619B
:10278000FDF72EFF002831D1E8692862FFF7BAFC77
:1027900038B1BDE8F041FDF7ADBD5F21ECE73D216B
:1027A000EAE7A0782449401C40B2A0700840032802
:1027B00020681DD020F00200206094F9020003215F
:1027C00090FBF1F201FB1200E1780844C5B2032D41
:1027D00001D9ED1EEDB22946522000F003FE00287B
:1027E0000BDA16A0FDF75EFD02206070BDE8F081F7
:1027F00040F0020003252060EDE72078C0F380015F
:10280000522000F0ABF92846BDE8F041FDF70CBFBF
:102810008C0100204572207200000000240100207D
:10282000722D2D2D00000000462D2D2D00000000E2
:10283000722533640000000003000080457255706B
:1028400000000000704710B5FEF794F9BDE8104095
:10285000FFF7D0BA10B5B4B00220C1010391102126
:10286000049100900121CDE90A010A210C910990FF
:102870000721CDE90D100F906846FEF755FE0F2099
:102880002E9003200024CDE92F04319404212EA89A
:102890003294FEF723FC40201090209410A8FEF7FD
:1028A00021FA0F48816D41F080518165806D00F003
:1028B000805033904FF40070FEF7DAF9FEF7BAFD5E
:1028C0004FF47A71B0FBF1F0FFF780FA0420FFF7C4
:1028D00069FA00221146501EFEF798F934B010BD77
:1028E000001002400D48016841F4700101600C487D
:1028F000016841F001010160002181600268094B1B
:102900001A400260C214C260026822F4802202608F
:1029100081610249C00380390860704788ED00E09A
:1029200000100240FFFFF6EAFEE700007CB50E4C07
:102930008DF804006420009020890E46154681B26F
:10294000012301AA6069FEF79BF800280AD16421DF
:1029500005FB01F000902089ABB281B2324660697C
:10296000FEF716F87CBD0000E000002010B586B030
:1029700014468DF804000DF10500FDF721FC6420DC
:1029800000900548641CA3B2018901AA89B240697C
:10299000FEF776F806B010BDE000002010B504295F
:1029A00007D8C9060B0EC722BDE81040142100F05D
:1029B00019BCFFF79DFB6FF0010010BD38B50C4648
:1029C0006A464F2100F03CFB9DF80010C1F3C201A4
:1029D000217038BD38B50C466A46502100F06BFBBB
:1029E000002812D1094ABDF80050518AC5EBC5052F
:1029F000ED02491CB5FBF1F1D38A928A044D35F8FA
:102A000012205343B1FBF3F1216038BD4C0000208C
:102A10007845000838B50C460546FFF7DBFF00286F
:102A200008D16A464E21284600F00AFB9DF80010A6
:102A30000909616038BDF8B50D460646012100F070
:102A400059F8040002D0FFF753FB1BE069463046FB
:102A5000FFF7B4FF04000BD19DF80000042802D05A
:102A6000FDF7C8FDF2E729463046FFF7D3FF0446DD
:102A70000221304600F058F8050003D0FFF738FB7C
:102A800004B92C462046F8BD10B521F04004072CAF
:102A900000D9072444F040023F2100F0FBFC00284D
:102AA00001D101498C8210BD4C00002010B529B124
:102AB000491E8CB24FF4E8718C4201D90C4602E0F9
:102AC000FF2C00D1641C2246402100F006FD0028A6
:102AD00001D101494C8210BD4C00002040F6F61295
:102AE000914200D311460A22B1FBF2F1CAB23E2153
:102AF00000F0D0BC032903D80A46382100F0CABC34
:102B00006FF00100704770B514460A4605463C2137
:102B100000F0C0FC002806D122462846BDE87040DF
:102B20003A2100F0B7BC70BD072903D80A46152129
:102B300000F0B0BC6FF0010070470000034A82F85B
:102B4000901009B100F0ACBD002070474C0000208F
:102B50000148407E704700004C000020014841764B
:102B6000002070474C00002003480449007E01EB20
:102B7000400030F8020C70474C00002072450008FD
:102B800038B56423009313460A4601460448FDF70E
:102B9000FFFE040002D0024800F020FD204638BDB0
:102BA0003C01002038B56423009313460A460146D1
:102BB0000448FDF765FF040002D0024800F00EFD56
:102BC000204638BD3C0100207FB5294C06465520E3
:102BD000208164216181002020740120207661829F
:102BE000A082E082607684F890005020C4F88000D3
:102BF00001AA2421304600F023FA05002CD19DF8CB
:102C0000040084F891006A462621304600F033FA29
:102C1000050021D10098000C01D0009801E0154872
:102C20000090206003AA1E21304600F044FA0500FF
:102C300012D1BDF80C004FF47A714843C0096060AE
:102C4000304600F02DFD040006D402AA16213046BD
:102C500000F0F6F9050002D0FFF74AFA05E09DF80A
:102C60000800012800D104B1012504B0284670BD38
:102C70004C000020F803CE0070B5054600F076FA4F
:102C8000040036D40421284600F035F8040030D181
:102C9000C8220A21284600F080F904001ED16421D0
:102CA0002846FFF703FF040023D1C8212846FFF779
:102CB00015FF04001DD100212846FFF7E5FE0400A2
:102CC00017D1FF2200212846FFF71DFF040010D175
:102CD00004212846FFF762FE040002D0FFF708FA3D
:102CE00007E0284600F084FF07212846FFF71CFF75
:102CF0000446204670BD10B5042906D80B46F822BC
:102D0000BDE81040142100F06DBAFFF7F1F96FF043
:102D1000010010BD38B50C466A464F2100F090F90D
:102D20009DF8001001F0C701217038BD2DE9FC416C
:102D30000C46074600F056F8050006D16A466621A3
:102D4000384600F0B8F9050004D0FFF7D1F928465D
:102D5000BDE8FC81BDF80000606001AA4D21384645
:102D600000F06EF988B1FFF7C3F92146384600F04C
:102D700037FD0500EBD1184E707E80B121463846F4
:102D800000F008FF050005D009E09DF804000009E7
:102D9000A060EAE7606A10B1A060208C206096F81D
:102DA00090000028D3D00D4AE1683846914211D2F4
:102DB00000F0F0FC317E0A4A02EB4101B6F88C20AB
:102DC00031F8021C824200DA1046884200DD0846D3
:102DD000E061BCE70020FBE74C0000201009050083
:102DE0007245000838B50C466A46622100F028F9A1
:102DF000002806D103499DF80020097E11FB02F14D
:102E0000216038BD4C000020F8B50D460646012172
:102E100000F0D3F8040002D0FFF76AF920E0694619
:102E20003046FFF777FF04000CD1009800F007014F
:102E3000042902D010F0C00F0ED029463046FFF70B
:102E400075FF044601213046FFF76EFE050007D0EE
:102E5000FFF74EF91CB103E0FDF7CCFBDFE72C4692
:102E60002046F8BD2DE9F04782462C488AB005AAD5
:102E70000589B0F80A801C21504600F0E1F80400F2
:102E800034D19DF814405046C82706AA40F20911D3
:102E900000F0D6F84FF0FF3950B99DF8180006AA97
:102EA00000F007064FF48571504600F0C9F810B1E4
:102EB000FFF71EF90BE09DF818005E2100EB800083
:102EC00001EB4000761C16FB0070002801DA4C462E
:102ED00020E004EB4401C1EBC411C0EBC1066A461B
:102EE000B821504600F0C7F8040002D0FFF700F9FF
:102EF00010E0009806FB08F60002454300904FF4EE
:102F0000FA704543B5FBF6F082B22221504600F03C
:102F1000E4FA04460AB02046BDE8F0874C000020E1
:102F200009B1012300E00023FE222D2100F05AB94F
:102F30002DE9F0410C4640F6F6118C4202D96FF0B3
:102F4000010514E00A2C00D20A240A27B4FBF7F189
:102F5000CEB232461B2100F09DFA050002D0FFF7E9
:102F6000C7F804E0B4FBF7F0B04200D002252846D1
:102F7000BDE8F08110B50A4604461C2100F08AFA2B
:102F8000002809D12046FFF76DFF002804D1204614
:102F9000BDE8104000F084BB10BD70B50C4605467E
:102FA000192100F077FA002806D122462846BDE80C
:102FB00070401A2100F06EBA70BD10B5032908D810
:102FC0000A46182100F066FA040004D0FFF790F8D2
:102FD00001E06FF00104204610BD00002DE9F0472C
:102FE0008146164888461E46057E1746C5EB0520D5
:102FF000404501DBB84202DA6FF001041AE02EB15D
:103000000121484600F073F8040013D197FBF5F056
:10301000C2B298FBF5F0C1B24846FFF7BEFF04000C
:1030200001D0FFF765F82EB10021484600F05FF8A7
:1030300004B904462046BDE8F08700004C0000209B
:103040007CB50646080A8DF8000015466C468DF8DA
:103050000110022221463046FFF7A4FD002809D1C5
:10306000012221463046FFF78BFD002802D19DF852
:10307000001029707CBD7CB50646080A8DF800005A
:1030800015466C468DF80110022221463046FFF7A6
:1030900089FD00280ED1042221463046FFF770FD3D
:1030A000002807D100999DF8032009BA21F0FF01FB
:1030B000114329607CBD7CB50646080A8DF80000E6
:1030C00015466C468DF80110022221463046FFF766
:1030D00069FD00280AD1022221463046FFF750FD43
:1030E000002803D1BDF8001049BA29807CBD09B180
:1030F000012200E00022172100F0CCB913460A4655
:103100000121AFF3008010B509B1012902D1082ACD
:1031100006D02AB1FEF7ECFF6FF00104204610BD87
:10312000002461B1112103B1202444EA4202D2B249
:1031300000F0B0F90400F1D0FEF7DAFFEEE710215D
:10314000F1E7024600204FF0804100E089089142FB
:10315000FCD808E04318934203D8D21A01EB500080
:1031600000E0400889080029F4D17047F8B5064608
:10317000002400F063F81A4F050002D0FEF7B8FFF4
:1031800009E0397E304600F02DF90546002216216F
:10319000304600F07FF9002D16DB01DDFEF7A8FFB9
:1031A0006A464FF490713046FFF74AFF040009D198
:1031B0009DF80000F8826A463F213046FFF740FF45
:1031C000040004D0002C09DAFEF792FF06E09DF817
:1031D00000103046FFF758FC05B12C462046F8BDDC
:1031E0004C0000202DE9FC410746080A8DF800003C
:1031F00016466C468DF801101D46022221463846BF
:10320000FFF7D0FC002811D10122A11C3846FFF79E
:10321000B7FC00280AD19DF8020003223040284361
:103220008DF8020021463846FFF7BCFCBDE8FC8162
:103230000148007E704700004C00002010B5044695
:10324000012240F2072100F025F901224FF402711A
:10325000204600F01FF900229621204600F01AF9BE
:1032600054229721204600F015F90022E321204640
:1032700000F010F90422E421204600F00BF90222AC
:10328000E521204600F006F90122E621204600F063
:1032900001F90322E721204600F0FCF80222F52183
:1032A000204600F0F7F80522D921204600F0F2F878
:1032B0004B4920460A68DA2100F0F9F800229F21E4
:1032C000204600F0E7F82822A321204600F0E2F88B
:1032D0000022B721204600F0DDF82822BB2120463D
:1032E00000F0D8F80922B221204600F0D3F80922D4
:1032F000CA21204600F0CEF801224FF4CC712046BE
:1033000000F0C8F817224FF4D871204600F0C2F838
:10331000002240F2AD11204600F0BCF80522FF214A
:10332000204600F0B7F805224FF48071204600F0E7
:10333000B1F8052240F29911204600F0ABF81B22AB
:103340004FF4D371204600F0A5F83E224FF4D67119
:10335000204600F09FF81F2240F2A711204600F0FF
:1033600099F800223021204600F094F81022112113
:10337000204600F08FF830224FF48571204600F08F
:1033800089F846223F21204600F084F8FF223121AF
:10339000204600F07FF863224021204600F07AF8B2
:1033A00001222E21204600F075F8FF222C21204614
:1033B00000F070F809221B21204600F06BF8312242
:1033C0003E21204600F066F824221421204600F019
:1033D00061F832212046FFF7CDFD002010BD00002E
:1033E0004C00002070B50C0006463ED0032C3CD8A3
:1033F0001F48962100EB440030F8022C304600F0C4
:103400006CF81C4D24212C7695F9910090FBF4F07A
:10341000C2B2304600F03EF8002823D11420B0FBA1
:10342000F4F22121304600F035F800281AD1287C2A
:1034300068B1A889297EB0FBF1F0FF2800D9FF20F0
:10344000C2B22521304600F025F800280AD1012C0F
:1034500009D000213046FFF763FD002802D1012C7E
:1034600000D0032070BD0121F4E76FF0010070BDB2
:103470006C4500084C00002038B504466A46162109
:103480002046FFF7DDFD9DF80010012901D000283E
:10349000F4D038BD1CB50C0A8DF800408DF8011031
:1034A0008DF8022003226946FFF77CFB1CBD1CB58A
:1034B0000C0A8DF800408DF80110110E8DF80210E5
:1034C000110C8DF80310110A8DF804108DF80520E9
:1034D00006226946FFF766FB1CBD1CB50C0A8DF879
:1034E00000408DF80110110A8DF802108DF80320AC
:1034F00004226946FFF756FB1CBD00000349CA6958
:10350000CB699B1A8342FBDB70470000000100205F
:1035100010B50A480A4C406848B10620FDF760FB28
:10352000012020600620BDE81040FEF7C5BD172031
:10353000FDF756FB402020601720F4E7E000002054
:1035400014040140034A52680AB100F079BA00F04D
:1035500095B90000E00000200A4810B541680A480B
:1035600049B1012101600620FEF7A6FD0620BDE855
:103570001040FDF740BB402101601720FEF79CFD85
:103580001720F4E7E0000020140401407047000019
:1035900038B5114C606860B1022269461020FFF70F
:1035A000C5F968B1E068401CE0600020ADF800009B
:1035B0000FE0BDE8384080214FF09040FDF748B95A
:1035C000BDF8000010F40060ADF8000001D001204B
:1035D00038BD002038BD0000E000002070B5044672
:1035E000214888B0C16C41F00201C164C16C01F096
:1035F00002010691816D41F400118165806D002505
:1036000000F4001006904FF4407001901220CDE9B4
:1036100002050420CDE9045001A91448FDF736F84D
:103620001348012601C4134861C444F810592046C8
:103630006561E5612562FDF757F90F4D0222694684
:1036400000206C61FFF772F930B99DF8000018B9DD
:103650009DF80100162803D000F076F908B070BD7F
:103660006E6000F01BFAF9E7001002400004004809
:1036700000540040380F3000E0000020064949683F
:1036800019B10146002000F041BAC2B220214FF02A
:103690009040FDF7E2B80000E0000020FFF72EBFE9
:1036A0002DE9F04387B0814600256A462A21FFF7BD
:1036B000C7FC040003D000BFFEF71AFD64E09DF8CC
:1036C000000018B9012528208DF80000C0B24FF481
:1036D0007A7110FB01F0C70905AA2D214846FFF7B2
:1036E000AFFC0400E8D104AA1C214846FFF7A8FC5F
:1036F0000400E1D103AAB8214846FFF7BCFC04004E
:10370000DAD101AA2C214846FFF79AFC0400D3D154
:103710009DF804004FF47A51B1FBF0F1DFF87080AE
:10372000C8F88810D8F80460B74202D3C8F884708B
:1037300002E00021C8F884109DF8140080070DD520
:1037400002AA26214846FFF7B6FC0400B4D1BDF812
:1037500008004FF47A714843C10900E00021039842
:10376000891B02029DF81000001FB2FBF0F081429D
:1037700000DB08469DF8041048430109484600F064
:1037800009F8A8F88C002C4607B02046BDE8F08365
:103790004C00002010480029D0F8842019DD0F4883
:1037A00090FBF1F0A0F5F270002801DC00207047DA
:1037B0000949B0F5005F51F8803F8968194403DA80
:1037C0005043B0FBF1F002E0B0FBF1F05043FFF7E3
:1037D000B8BC6FF0004070474C00002000688909B9
:1037E0002DE9F04188B000250E46009580460395EE
:1037F00004956FF000476A466C210595FFF73BFC86
:10380000040018D10098B84200D9009504AA742188
:103810004046FFF730FC04000DD103AA7C2140464E
:10382000FFF729FC040006D105AA80214046FFF7D6
:1038300022FC040002D0FEF75BFC1AE003987061E2
:10384000059AB261904200D902460AB94FF2186255
:1038500000984FF47A71484304994FF47A7301EB5E
:10386000410149005943B0FBF2F0B1FBF2F1C6E966
:10387000031008B02046BDE8F08100002DE9F35F99
:1038800000260446DFF8B8B04FF001084FF0904929
:1038900051E02C4900254FEA0B0A0F5C08FA05F1AC
:1038A000394201D1012200E000221AF8053003F06C
:1038B0000F0108FA01F081B2180909EB8020FCF72A
:1038C000CCFF6D1C082DE9D360782E280DD19AF815
:1038D0000700002200F00F0308FA03F1030989B280
:1038E00009EB8320FCF7B9FF641CDFF854A04746BE
:1038F000AAF1080A4D461AF80600002200F00F014E
:1039000008FA01F1000989B209EB8020FCF7A5FF54
:103910000198FFF7C3FE1AF80600012200F00F011C
:103920008F400009B9B205EB8020FCF796FF641CBC
:10393000761C042E02DA20780028AAD1BDE8FC9F6C
:10394000F800002088450008F0B5324887B0C16C07
:1039500041F00401C164C16C01F004010591C16C26
:1039600041F08001C164C16C01F080010591C16C1E
:1039700041F00101C164C16C01F001010591C16C0C
:1039800041F00201C164C06C012500F00200059005
:1039900040F2333000900024CDE901544FF09046BE
:1039A000694630460394FCF771FE8027CDE9007428
:1039B000694630460294FCF769FE402000901648A4
:1039C000CDE9010469463046FCF760FE40F27940DB
:1039D0000090CDE90154694610480394FCF756FE67
:1039E0000097CDE9015469460D480394FCF74EFE5B
:1039F0000C4F0122385D00F00F0105FA01F10009BA
:103A000089B206EB8020FCF728FF641C042CF0DB55
:103A100007B0F0BD00100240000011100004004883
:103A200000080048F000002004480222018841F408
:103A3000F061018001461220FEF798BFE0000020EF
:103A400070B50E460025044620E01249124A802334
:103A5000095C1088AB4040F07F0040F4F060984370
:103A600001F07F018843108002220B491220FEF7EB
:103A70007DFF60782E2800D1641C3046FFF70EFED3
:103A8000FFF7D2FF641C6D1C042D02DA2078002899
:103A9000DBD170BD88450008E000002030B5184833
:103AA00087B0C16C41F00101C164C16C01F001013A
:103AB0000691C16C41F00201C164C06C114C00F070
:103AC000020006904FF4866000258DE831006946BB
:103AD0004FF09040FCF7DAFD01208DE83100694697
:103AE0000948FCF7D3FD4FF2FF70ADF81400022235
:103AF00005A91420FEF73AFFFFF796FF07B030BD87
:103B000000100240000011100004004803280AD0F1
:103B100002280BD001280CD04FF480530A4A108899
:103B200051B1184309E04FF40043F7E74FF4005355
:103B3000F4E74FF48043F1E79843108002220249F2
:103B40001220FEF713BF0000E00000200FB4084B66
:103B500010B504A902AA039800F08EFA044602A93F
:103B6000002000F02AFC204610BC5DF814FB000089
:103B7000BB43000802E008C8121F08C1002AFAD19E
:103B800070477047002001E001C1121F002AFBD1DD
:103B9000704700002DE9FE43144F0C4680463E7EE0
:103BA00002AA6421FFF74CFA050002D0FEF7A0FA42
:103BB00018E02189E26889B2CDE900219DF808006A
:103BC00010FB06F62088B2B281B24046236900F0AD
:103BD0002DF8002802DA4FF0FF3503E020846684D8
:103BE000F86F60622846BDE8FE8300004C000020AC
:103BF0000D4810B50021C16141668166C16601674B
:103C00004167A0F860100A464FF6FF73C0F87810BD
:103C100000EB4204A38400EB8204521CA1630A2A35
:103C2000F6DB0162002010BD4C0000202DE9FF4FA3
:103C3000002695B00120CDE90260FD480E960D9654
:103C4000017E1D46C1EB01230C93239B9346344612
:103C50003246B246B14637460C2B0AD00D2B0AD05D
:103C60000E2B06D00F2B06D00C9B9B4508D30126AC
:103C700008E0102206E01022C82311FB03F1169180
:103C80004FF0010A16990991E949B42340F25238DC
:103C90004868D1F884E000F5487C0EFB03F14FF44E
:103CA0009C73B1FBF3F1014406910EFB08F1B1FBEB
:103CB000F3F101444FF4AF6805910EFB08F1B1FB3D
:103CC000F3F108441290BBF13C0F03D2654501D2D9
:103CD00010240126BBF1A50F09D20698854201D216
:103CE000102401269630854201D2012002902298AC
:103CF00043F69821884201D901273E464B2D01D237
:103D000001273E46DFF828E3DEF8380060B1A8421C
:103D100001D2291A00E0411B64235943B1FBF0F0A2
:103D2000322801D9012700E0AFB1002371461846BF
:103D3000CEF81C3001EB40084FF6FF7CA8F824C0F9
:103D400001EB800C401C80B2CCF838300A28F1D34B
:103D5000CEF8203012E009204FEA0E0101EB4003BB
:103D6000B3F822C0A3F824C001EB8003401ED3F8AF
:103D700034C00004C3F838C0000CEFD1BAF1000F12
:103D800001D0169801E04FF6FF70AEF82400884687
:103D90008D63096A491CC8F82010BBF5AF7F01D2BA
:103DA000059800E01298854201D3012609E042B14E
:103DB00023980C2801D00E2800D11446012600209B
:103DC00003900FAA4FF4D6711598FFF739F9E8BBA5
:103DD0009DF83CB010AA4FF486711598FFF74BF987
:103DE000A0BB11AA4FF488711598FFF744F968BB7E
:103DF00017B9C6B10398B0B1BBF13E0F06D03E2251
:103E00004FF4D6711598FFF745FBF8B9109A404664
:103E1000C8F864201199C0E91A12C8F8701000217E
:103E2000C8F81C102AE01099BBF13E0F40461BD089
:103E3000C1661199C8F870100746007FC00718D0F6
:103E40005FF03E008DF83C00C2B200E005E04FF4A8
:103E5000D6711598FFF71EFB68B1FEF749F94FF0D0
:103E6000FF3019B0BDE8F08F41661199C8F86810AD
:103E7000E2E73C20E6E7F869401CF86116B1C8F8B3
:103E80007C40F0E0D8F87020D8F8681040469142A5
:103E900001D98B1A00E000234367029A4FF4617145
:103EA00032B10A46C76E466EBE4204D9F61B03E025
:103EB0004FF4E162F6E7BE1B964201D9B71A00E063
:103EC00000273244BB4201D3934202D94FF001098B
:103ED00070E0C269012A01D8052200E0032293465E
:103EE000229A962332B164267543B5FBF2F292B260
:103EF0001E2A01D319460AE0052A08D940F2EE210C
:103F0000521F4A431921B2FBF1F1C1F56171002240
:103F1000154690461646964613464FF6FF7700BF65
:103F200000EB430CBCF824C0BC4507D0654400EB53
:103F3000830C521CDCF838C092B266445B1C9BB206
:103F40000A2B01D2062AEBD31AB1B5FBF2F8B6FB65
:103F5000F2FE0022154616464FEA020300EB430725
:103F6000BF8CA7F57F4CBCF1FF0C0DD0A7EB080769
:103F700007FB075500EB8307521CD7F838C092B2F5
:103F8000ACEB0E0707FB07665B1C9BB20A2B01D24A
:103F9000062AE3D3274F5A4508D3B5FBF2F39DB267
:103FA000B6FBF2F39BB2BB4202D38FE700252B4650
:103FB0005A4501D210241CE040F6AC56B34207D259
:103FC000A1F6A6677F425F43B7FBF6F30B4401E01F
:103FD00040F6A663C66F06B99B00B1EBC50F04D9C6
:103FE000062A02D301210D9103E09D42DDD2012179
:103FF0000E91BAF1000F0CD0B9F1000F0ED0B0F84D
:104000006010891C89B2A0F86010042919D9042114
:1040100015E0B0F86010A1B1491E10E00E9959B139
:10402000B0F8601069B110240129F5D806E000004D
:104030004C000020905F01000D9911B10021A0F803
:104040006010C16F71B96CB1012100224FF6FF738E
:1040500000EB4105AB8400EB8105491C89B2AA63E2
:104060000A29F5D3C467102C01D00998F9E60C98F9
:1040700080B20990F5E600002DE9FF4F8BB088462D
:104080000546002606E025280BD0DDE90D129047F5
:104090006D1C761C28780028F5D10FB03046BDE89D
:1040A000F08F0024A146A2460122AE4900E004435D
:1040B00015F8013F203B02FA03F00842F7D12878B7
:1040C0002A2810D06FF02F022878A0F1300109299A
:1040D00015D809EB890102EB410144F0020400EB21
:1040E00001096D1CF0E758F8041B5FEA010903D5CC
:1040F00044F40054C9F1000944F002046D1C28780E
:104100002E2817D115F8010F44F004042A280ED0E8
:104110006FF02F022878A0F1300109290AD80AEBA4
:104120008A0102EB410100EB010A6D1CF2E758F82D
:1041300004AB6D1C28786C280FD006DC4C2817D0F7
:1041400068280DD06A2814D104E0742810D07A2889
:104150000FD10DE044F400140AE044F4801401E0AF
:1041600044F440146978814202D104F580146D1C36
:104170006D1C2878692865D006DC00288DD063285E
:1041800027D0642806D15DE06E2808D073282AD095
:10419000752877D0DDE90D129047761CE0E0C4F376
:1041A0000250022809D003280DD0D8F800100428A6
:1041B0000DD00E6008F10408D2E0D8F80010F21714
:1041C000C1E90062F6E7D8F800100E80F2E70E7041
:1041D000F0E718F8041B8DF8001000208DF801009E
:1041E000EB46012003E058F804BB4FF0FF306107B5
:1041F0004FF0000701D40AE07F1C57450DDA8742D3
:10420000FADB1BF807100029F6D106E07F1C874275
:10421000FCDB1BF807100029F8D1DDE90D23A9EB21
:1042200007008146214600F0B1F83044C61904E089
:10423000DDE90D121BF8010B90477F1EF8D22146D5
:10424000484688E058F8040BC4F302514FF00A0BBB
:10425000032900D100B2042900D140B2002802DABB
:1042600040422D2102E0210505D52B218DF8241097
:10427000012104E006E0E10710D02021F6E708AFB5
:10428000089113E058F8040BC4F302514FF00A0BE5
:10429000032900D180B2042900D1C0B20021EEE789
:1042A0005946FBF7ABFF303107F8011D0028F7D165
:1042B000ADEB070000F1200B600702D524F4803439
:1042C00001E04FF0010ADA4502DDAAEB0B0000E045
:1042D0000020824600EB0B0108980144A9EB010085
:1042E0000A90E00306D4DDE90D2321460A9800F088
:1042F0004DF806444FF0000908E009A911F809003B
:10430000DDE90D12904709F10109761C08998945EC
:10431000F3DBE0030CD5DDE90D2321460A9800F01C
:1043200035F8064404E0DDE90D1230209047761C94
:10433000BAF10001AAF1010AF5DC05E0DDE90D1290
:1043400017F8010B9047761CBBF10001ABF1010B94
:10435000F4DC0A982146DDE90D2300F005F8064457
:104360006D1C97E6092801002DE9F041044600255F
:104370001E461746880404D405E039462020B0477D
:104380006D1C641EF9D52846BDE8F0812DE9F04189
:10439000044600251E469046C80301D5302700E09C
:1043A0002027880404D505E041463846B0476D1CF7
:1043B000641EF9D52846BDE8F0810A68531C0B60DD
:1043C0001070704770470000614C01274FF0FF35B7
:1043D0006770FCF7D7FBFEF73DFAFDF7FDFDFDF733
:1043E0004BFEFFF7D3F85B48FFF7F8F8FDF722F82C
:1043F0004FF47A71B0FBF1F00026401EB0F1807FDF
:1044000009D24FF0E0214861534AF02082F8140DA0
:104410008E61072008610020FFF730F90A20FFF7BE
:104420006DF80120FFF72AF90120FFF767F8522005
:10443000FFF722F85220FEF7C7FB5220FEF7F8FEE6
:10444000E0705220FEF784FB216860F38201216056
:1044500000215220FEF772FBDFF8F4800520607027
:10446000A8F12408FFF794F8A84213D0054652207B
:10447000FEF702FC81463F215220FEF77BFDB9F199
:10448000000F03D035A0FBF70DFF03E05DB16770AF
:10449000FDF79DFD607808283ED2DFE800F0121598
:1044A000182C3D1F2225012208215220FEF726FE4E
:1044B00007215220FEF738FBA670E078FCF7B4F82D
:1044C000E8E7FEF7D7F83FE0FCF746F83CE0D8F81D
:1044D0001C100420C8F82010607035E0FBF70AFFBC
:1044E00032E0FBF767FF2FE0FFF752F808B1002535
:1044F0002AE0012528E0D8F81C104046D8F82020F2
:10450000891AB1F5487F04D36670C169C8F82010D4
:104510001AE0FCF76FF817E0FCF76CF8D8F81C10FD
:10452000D8F82000081A41F2883188420CD3BFF332
:104530004F8F0C4801680C4A01F4E061114301609F
:10454000BFF34F8F00BFFDE7FFF73CFF8AE7000096
:10455000240100203C0100200FE000E04572496E7C
:10456000000000000CED00E00400FA05FD007F00F3
:104570005400B900720144020014000A00058002D0
:10458000AB01400100010028000000000000000015
:10459000000000000000000000000000000000001B
:1045A000000000000000000000000000000000000B
:1045B00000007F00004000003F065B4F666D7D07F6
:1045C0007F6F00000048005309777C390079716FD4
:1045D00076061E763815543F6773506D783E1C2A58
:1045E000766E5B39000F0108005C7C585E7B716F52
:1045F00074101E741815545C7367506D783E1C2A35
:10460000766E5B0000004900000000000000000022
:10461000000000000000000000000000000000009A
:10462000000000000000000000000000000000008A
:10463000000000000000000000000000000000007A
:10464000000000000000000000000000000000006A
:10465000000000000000000000000000000000005A
:10466000000000000000000000000000000000004A
:10467000000000000000000000000000000000003A
:10468000000000000000000000000000000000002A
:104690000102030406070809A0860100400D03007B
:1046A000801A060000350C0040420F0080841E0076
:1046B00000093D0000127A000024F40000366E016B
:1046C0000048E801006CDC0246696C746572656440
:1046D00020627920706F73742070726F63657373DA
:1046E000696E672028574146290000004E6F7420EC
:1046F00075736564203130004E6F74207573656486
:10470000203900004D617820436F6E7665726765D1
:104710006E6365004E6F205461726765742049674F
:104720006E6F7265000000004561726C7920436F06
:104730006E76657267656E636520457374696D6139
:104740007465000052616E67696E672066696C74FB
:104750006572696E67202857414629206F6E2D6764
:104760006F696E6700000000564353454C20576147
:10477000746368646F670000504C4C31204C6F6369
:104780006B000000504C4C32204C6F636B000000FB
:104790004D6178205369676E616C20546F204E6FB5
:1047A00069736520526174696F0000004E6F204587
:1047B00072726F7200000000564353454C205761DF
:1047C000746368646F67205465737400564353457F
:1047D0004C20436F6E74696E7569747920546573EB
:1047E000740000005261772052616E67696E672025
:1047F000416C676F20556E646572666C6F77000060
:104800005261772052616E67696E6720416C676FF5
:10481000204F766572666C6F7700000044617461AA
:10482000206E6F7420726561647900004C48000846
:10483000000000203C0100004C020008B0480008C5
:104840003C0100207C040000843B000813AC471BA3
:1048500008CC041AB8041A68041A78041A84041AD2
:1048600028041A04041A140413F8461B08EC041A4A
:10487000900C1AE4041112482B08E82019081AC8F1
:10488000181A440C1A1C0C811255726412643A01F5
:10489000020176A97872844B1004160009101627BD
:1048A00009081A141513032399D953093D00000070
:040000050800018965
:00000001FF
